:100000000C9497111895189518951895189518959A
:100010000C94D308189518950C9497100C94A0087C
:100020000C946D08189518950C94820D18951895D8
:1000300018951895189518950C94B3091895189556
:100040000C94E10818951895189518951895189519
:100050001895189518951895189518951895189538
:100060001895189518951895189518951895189528
:100070001895189518951895189518951895189518
:10008000189518951895189518951895010051040C
:100090000800F60301040D04180424042F043B0493
:1000A0004604219741E050E09E010E94D00408815F
:1000B000219608950E944213A02F16E20A2F000FE6
:1000C00006700062EEDF902F17E20A2F000F067015
:1000D0000062E7DF802F18E2AA0FA670A0620A2F45
:1000E000E0DF9C7F992311F000E00BC08C7F882318
:1000F00011F000E006C00C7F003411F000E001C0F8
:1001000001E0E3E00C944713979800E00093D505D5
:100110000895282E20E0979A0091620008600093CD
:10012000620080E009C0E0E4F6E08F01F801319759
:10013000012BD9F720E08395823008F0DCC060E025
:100140000EC000916500026000936500E0E1F0E000
:100150008F01F8013197012BD9F72395639568300A
:1001600010F7222381F4009162000B7F009362005C
:10017000009162000D7F00936200009162000E7F8B
:10018000009362007DC0213081F4009162000B7FFA
:1001900000936200009162000D7F00936200009165
:1001A00062000160009362006BC0223081F4009114
:1001B00062000B7F00936200009162000260009376
:1001C0006200009162000E7F0093620059C02330EC
:1001D00081F4009162000B7F009362000091620045
:1001E000026000936200009162000160009362006F
:1001F00047C0243081F400916200046000936200E3
:10020000009162000D7F00936200009162000E7FFA
:100210000093620035C0253081F4009162000460D3
:1002200000936200009162000D7F009362000091D4
:10023000620001600093620023C0263081F40091C7
:10024000620004600093620000916200026000930B
:100250006200009162000E7F0093620011C027309F
:1002600079F40091620004600093620000916200E2
:1002700002600093620000916200016000936200DE
:10028000882311F0AF9805C0009165000D7F0093A1
:100290006500E8E0F0E08F01F8013197012BD9F714
:1002A000009165000B7F00936500E8E0F0E08F01AE
:1002B000F8013197012BD9F7082F10E048E050E002
:1002C0000E94B61170E0060F171FF801E755F94FAD
:1002D00000810BBBE0E1F0E08F01F8013197012BC9
:1002E000D9F700916500046000936500882309F444
:1002F00028CFAF9A2BCF822D0895202F00E04AC03F
:10030000073079F41091620014601093620010912C
:1003100062001260109362001091620011601093ED
:100320006200E8E0F0E0AF01FA013197452BD9F720
:10033000109165001D7F10936500E8E0F0E0AF01CB
:10034000FA013197452BD9F7109165001B7F109367
:100350006500E8E0F0E0AF01FA013197452BD9F7ED
:100360002BBBE0E1F0E0AF01FA013197452BD9F763
:100370001091650014601093650010916500126083
:1003800010936500E0E1F0E0AF01FA013197452BF1
:10039000D9F70395083008F085C0979A109162004C
:1003A000177F10936200002381F4109162001B7F7D
:1003B00010936200109162001D7F109362001091F3
:1003C00062001E7F10936200ACCF013081F4109167
:1003D00062001B7F10936200109162001D7F1093DA
:1003E0006200109162001160109362009ACF023097
:1003F00081F4109162001B7F1093620010916200E3
:10040000126010936200109162001E7F10936200D0
:1004100088CF033081F4109162001B7F109362003B
:1004200010916200126010936200109162001160DE
:100430001093620076CF043081F410916200146052
:1004400010936200109162001D7F10936200109162
:1004500062001E7F1093620064CF053081F410911A
:100460006200146010936200109162001D7F10936F
:1004700062001091620011601093620052CF06304A
:1004800009F03ECF10916200146010936200109149
:100490006200126010936200109162001E7F109340
:1004A00062003FCF00E042C0073079F41091620053
:1004B0001460109362001091620012601093620049
:1004C00010916200116010936200E8E0F0E0AF016B
:1004D000FA013197452BD9F7AF98E8E0F0E0AF018A
:1004E000FA013197452BD9F7109165001B7F1093C6
:1004F0006500E8E0F0E0AF01FA013197452BD9F74C
:100500002BBBE0E1F0E0AF01FA013197452BD9F7C1
:1005100010916500146010936500AF9AE0E1F0E07F
:10052000AF01FA013197452BD9F70395083008F050
:1005300085C0979A10916200177F10936200002384
:1005400081F4109162001B7F109362001091620091
:100550001D7F10936200109162001E7F1093620055
:10056000B4CF013081F4109162001B7F10936200C0
:10057000109162001D7F1093620010916200116063
:1005800010936200A2CF023081F4109162001B7FB1
:10059000109362001091620012601093620010913B
:1005A00062001E7F1093620090CF033081F410919F
:1005B00062001B7F10936200109162001260109322
:1005C0006200109162001160109362007ECF0430CF
:1005D00081F4109162001460109362001091620027
:1005E0001D7F10936200109162001E7F10936200C5
:1005F0006CCF053081F4109162001460109362009A
:10060000109162001D7F10936200109162001160D2
:10061000109362005ACF063009F046CF1091620065
:1006200014601093620010916200126010936200D7
:10063000109162001E7F1093620047CF0895102F23
:100640000091D905002369F40DE40093B90605E58E
:100650000093BA0604E50093BB0605E40093BC06CC
:1006600044C0112369F400E20093B90601E300934A
:10067000BA0600E30093BB0600E30093BC0635C056
:100680001F3F69F400E30093B90600E30093BA0644
:100690000EE20093BB0600E30093BC0626C008EC04
:1006A000011B102F20E010C044E1012F0E94A9116E
:1006B000005D30E0F901E754F94F008344E1012F78
:1006C0000E94A911142F2395223070F3112339F0C1
:1006D0000EE20093BB0605E30093BC0606C00EE2E3
:1006E0000093BB0600E30093BC0620E00BC030E0A3
:1006F000F901E754F94F008130E0F901E755F94F6E
:1007000004872395243098F304DD0895219741E070
:1007100050E09E010E94D0040881219608952197FF
:10072000288341E050E09E010E94B0042196089584
:100730008A9380E010E402E9E9DF0C7F083A09F4CB
:100740008E5F10E400E9E2DF0C7F083A09F483953C
:10075000082F899108959A938A93802F912F17E0FB
:10076000082FD4DF202F992311F0216001C02E7FA4
:1007700017E0082FD4DF8991999108959A938A936D
:10078000902F812F11E0092FC1DF202F237F880FA9
:10079000880F8C70282B11E0092FC1DF8991999166
:1007A00008951F73212F15E0BADF08959A938A9355
:1007B000902F80E00BC0292F182F1A5E00E9AFDFC1
:1007C000292F182F1A5E02E9AADF8395883098F343
:1007D0008991999108959A938A93902F012F822F4E
:1007E000ECE8F0E0FBBFF0E00C94041316E2092FF4
:1007F0008DDF202F207F8F70282B16E2092F8FDFAF
:1008000050C016E2092F82DF202F2F708295807F43
:10081000282B16E2092F83DF44C017E2092F76DF69
:10082000202F207F8F70282B17E2092F78DF39C007
:1008300017E2092F6BDF202F2F708295807F282BE6
:1008400017E2092F6CDF2DC018E2092F5FDF202F80
:10085000207F8F70282B18E2092F61DF22C018E259
:10086000092F54DF202F2F708295807F282B18E2CC
:10087000092F55DF16C019E2092F48DF202F207FEE
:100880008F70282B19E2092F4ADF0BC019E2092FBC
:100890003DDF202F2F708295807F282B19E2092FB2
:1008A0003EDF89919991089521E010E038DF0895A5
:1008B00008E400937000089510E01093740014EAA7
:1008C0001093740010917400212F27FFFBCF10911B
:1008D0007100187F183011F001E008950093730043
:1008E00004E80093740000917400102F17FFFBCFF1
:1008F00000917100087F083121F0003411F001E00F
:10090000089500E008950093730004E800937400D4
:1009100000917400102F17FFFBCF00917100087F2A
:10092000083211F001E0089500E0089504EC00930E
:10093000740000917400102F17FFFBCF009173001B
:10094000089504E80093740000917400102F17FFBD
:10095000FBCF00917300089504E90093740008959B
:10096000192E282E012EB901A7DF002311F001E076
:1009700014C0002DC8DF80E090E001C0019684170C
:10098000950748F4FB01E80FF91F0081BCDF002345
:10099000A9F301E002C0E0DF00E0822D912D08956F
:1009A0000E944113602F712FD901062F85DF00238C
:1009B00011F001E01EC0072FA6DF6160062F7CDF6B
:1009C000002311F001E015C080E090E006C0AEDF2A
:1009D000FD01E80FF91F00830196FA0131978E1788
:1009E0009F07A8F3AEDFA40FB51F11970C93B4DFD8
:1009F00000E0E4E00C9446139A938A9300E611E039
:100A00000E946F110FEF0ABB0DEB07BB0FEF04BB8A
:100A100003E801BB0AE402B90FE0009361000FE1B3
:100A20000093640000E00BBB0FE708BB0FEF05BBB2
:100A30000FEF02BB0FEF03B900EF009362000EE16E
:100A40000093650007B3007C07BBC59A07B3007F1E
:100A500007BBC39A82B100E002B91F9A02B1087FB6
:100A600002B91A9A139A03B1007F03B90DE611E097
:100A70000E946F110E94580400E811E00E946F115B
:100A800003E003BF05E00EBD02E005BD07E304BDC2
:100A900005E002BF04EE19EF1DBD0CBD00E001BF73
:100AA00005E407BF05E406BF01E911E00E946F11EC
:100AB0000CEF09BF00EA00936A0005E50ABF0CEFDE
:100AC00008BF06EA11E00E946F1100E20E945A007E
:100AD000002329F003EC11E00E946F1104C00AED1D
:100AE00011E00E946F1100E90E94540402E90E9483
:100AF000540405EF11E00E946F110CE112E00E9416
:100B00006F1111E000E90E94AB0317E000E90E94B9
:100B10008603013429F40AE312E00E946F1104C035
:100B20000BE512E00E946F110CE712E00E946F11BA
:100B300011E002E90E94AB0317E002E90E9486037C
:100B4000013429F40BE912E00E946F1104C00DEB8F
:100B500012E00E946F110FED12E00E946F110E94CF
:100B60009803802F882329F40EEF12E00E946F1162
:100B700014C0833029F40EE113E00E946F110DC000
:100B8000813029F40AE313E00E946F1106C082301D
:100B900021F40DE513E00E946F1111E000E90E94BD
:100BA000BE0311E002E90E94BE0301E813E00E94C7
:100BB0006F1181E00BC020E0182F00E90E94EB03C9
:100BC00021E0182F02E90E94EB038395893098F306
:100BD0000AEB13E00E946F1106EE13E00E946F1102
:100BE00010E000E90E94AB0310E002E90E94AB03B1
:100BF00004E014E00E946F110DE114E00E946F11F7
:100C00000E948400789480E007C090E0FC01E755E2
:100C1000F94F00E2008383958031B8F300E0009340
:100C20009D0600E000939E0601E00093A8068991CE
:100C300099910895AC0180E090E008C0E0E8FEE3FF
:100C40009F01F9013197232BD9F70196F8013196CD
:100C5000E817F90798F7CA0108959A938A9380E0F4
:100C600090E006EE13E00E946F118F3F00E09007C6
:100C700031F405E010E0DEDF05E010E0DBDF00919D
:100C80007F0610918006010F00938B0600918B0662
:100C9000109181060117D9F400917F0610E0EDE76D
:100CA000F6E000831183EDE7F6E00081102F00E00D
:100CB000EDE7F6E0008311830091800610E0EDE798
:100CC000F6E020813181200F311F20833183EDE751
:100CD000F6E000811181E5E8F6E000831183E5E8A4
:100CE000F6E0008111810F3F27E01207F0F5E7E8F9
:100CF000F6E0008111812281322F212F102F00E098
:100D0000E7E8F6E00083118322833383E7E8F6E027
:100D1000008111812281322F212F102F00E0E7E87E
:100D2000F6E00083118322833383803800E090074C
:100D300078F4082F02950F7000939C06082F0695F3
:100D4000077000939F06082F01700093D20519C009
:100D50000FEF0093D70500E000939C0600E000939E
:100D60009F0601E00093D2050CC00FEF0093D7055A
:100D700000E000939C0600E000939F0601E00093D2
:100D8000D2050E94770C18E700E90E94D10318E70A
:100D900002E90E94D1030E94D50B0AE010E04ADF6D
:100DA0000E94D40B0AE010E045DF0E94D90C979A0C
:100DB00001E00093D5050091650001600093650096
:100DC00003E00E947D01C79A899199910895AC0131
:100DD00080E090E008C0E0E8FEE39F01F901319770
:100DE000232BD9F70196F8013196E817F90798F700
:100DF000CA01089500919C06073021F000918E06EB
:100E0000002351F400918E06002309F443C10091A0
:100E10008D06002309F03EC107E314E00E946F1124
:100E2000E4EAF6E00081102F00E0E4EAF6E0008357
:100E30001183E6EAF6E00081102F00E0E6EAF6E032
:100E40000083118303E514E00E946F11EFEEF5E0DB
:100E500000811181E4EAF6E0208131810217130755
:100E600058F4E4EAF6E000811181E1EFF5E0208139
:100E7000318102171307B0F0EFEEF5E00081118128
:100E8000E6EAF6E0208131810217130778F4E6EAFA
:100E9000F6E000811181E1EFF5E020813181021758
:100EA000130720F405E00093D605F7C0EBEEF5E05C
:100EB00000811181E4EAF6E02081318102171307F5
:100EC00058F4E4EAF6E000811181EDEEF5E02081CE
:100ED000318102171307B0F0EBEEF5E000811181CC
:100EE000E6EAF6E0208131810217130778F4E6EA9A
:100EF000F6E000811181EDEEF5E0208131810217ED
:100F0000130720F404E00093D605C7C0E7EEF5E030
:100F100000811181E4EAF6E0208131810217130794
:100F200058F4E4EAF6E000811181E9EEF5E0208171
:100F3000318102171307B0F0E7EEF5E0008111816F
:100F4000E6EAF6E0208131810217130778F4E6EA39
:100F5000F6E000811181E9EEF5E020813181021790
:100F6000130720F403E00093D60597C0E3EEF5E005
:100F700000811181E4EAF6E0208131810217130734
:100F800058F4E4EAF6E000811181E5EEF5E0208115
:100F9000318102171307B0F0E3EEF5E00081118113
:100FA000E6EAF6E0208131810217130778F4E6EAD9
:100FB000F6E000811181E5EEF5E020813181021734
:100FC000130720F402E00093D60567C0EFEDF5E0CB
:100FD00000811181E4EAF6E02081318102171307D4
:100FE00058F4E4EAF6E000811181E1EEF5E02081B9
:100FF000318102171307B0F0EFEDF5E000811181A8
:10100000E6EAF6E0208131810217130778F4E6EA78
:10101000F6E000811181E1EEF5E0208131810217D7
:10102000130720F401E00093D60537C0EBEDF5E09F
:1010300000811181E4EAF6E0208131810217130773
:1010400058F4E4EAF6E000811181EDEDF5E020814D
:10105000318102171307B0F0EBEDF5E0008111814B
:10106000E6EAF6E0208131810217130778F4E6EA18
:10107000F6E000811181EDEDF5E02081318102176C
:10108000130720F400E00093D60507C006E00093A4
:10109000D60503C006E00093D6050091D6050630BC
:1010A00021F401E00093910603C000E00093910653
:1010B0000091910610919206011771F0009191062E
:1010C0000093920600919206002319F40091D7052F
:1010D00001C000EE0E94D60308959A938A93FA9372
:1010E000EA933A922A921A920A927A936A935A93BC
:1010F0004A933A932A931A930A938FB79BB7009116
:101100009506002351F00F9B04C001E000938D066B
:1011100003C000E000938D066DDE9BBF8FBF099179
:101120001991299139914991599169917991099030
:10113000199029903990E991F9918991999118958F
:101140009A938A93FA93EA933A922A921A920A927B
:101150007A936A935A934A933A932A931A930A93E7
:101160008FB79BB700919506002351F00E9B04C0EA
:1011700001E000938E0603C000E000938E063ADE85
:101180009BBF8FBF0991199129913991499159912B
:10119000699179910990199029903990E991F99183
:1011A0008991999118952A931A930A931FB72BB78F
:1011B00001E0009384062BBF1FBF0991199129916B
:1011C00018959A938A93FA93EA933A922A921A92EA
:1011D0000A927A936A935A934A933A932A931A9368
:1011E0000A938FB79BB705E002BF0091990603955C
:1011F0000093990600919506002309F4A1C000917F
:10120000A0060023B9F00091A1061091A2060137B3
:1012100027E1120730F000E00093A00600E0009301
:10122000A306E1EAF6E0008111810F5F1F4F008302
:10123000118386C00091BD061091BE06083C20E0D7
:10124000120709F040C020E00BC030E0F901E3557F
:10125000F94F008130E0F901E755F94F00832395FC
:10126000203170F52630A8F400919C0610E046E08D
:1012700050E00E94B611E4EFF5E0E00FF11F30E01E
:10128000E20FF31F008130E0F901E755F94F0083C9
:10129000E6CF2C30D0F6EEE1F6E030E0E20FF31FBF
:1012A0000091D60510E046E050E00E94B611E00F34
:1012B000F11F008130E0F901E755F94F0083CFCFEE
:1012C0000E94890035C00091BD061091BE06003213
:1012D00023E0120769F500918D0600938F060091B7
:1012E0008E06009390060F9B04C001E000938D06CC
:1012F00003C000E000938D060E9B04C001E0009344
:101300008E0603C000E000938E0600918F061091B8
:101310008D06011731F40091900610918E06011789
:1013200009F068DD00E00093BD0600E00093BE0612
:10133000EDEBF6E0008111810F5F1F4F00831183F9
:101340009BBF8FBF09911991299139914991599169
:10135000699179910990199029903990E991F991C1
:101360008991999118959A938A93FA93EA933A926C
:101370002A921A920A927A936A935A934A933A93C8
:101380002A931A930A938FB79BB700E002EF1CEFE2
:101390001DBD0CBD0091A806002309F483C0009177
:1013A000A8060F3128F40091A80603950093A8061B
:1013B0000091A8060A3019F40E942D061CC0009165
:1013C000A8060E31C1F40EEC0093DA050091D705A2
:1013D0000E94EB0B02E310E0FADC0091D7050E94BB
:1013E000EC0B0091D7050E941F0301E000939506C6
:1013F00001E000938C0600919506002309F452C089
:1014000083993AC000919606013051F4E091930619
:10141000F0919406369720F002E00093960620C0E3
:10142000009196060230E1F4E0919306F091940663
:101430003797B0F000E086990395000F10E085998A
:101440001395010F000F10E084991395010F0230DE
:1014500019F40E94510C04C0053011F40E942F0CA5
:1014600000E000937606E3E9F6E0008111810F5F6A
:101470001F4F0083118316C000E00093960600E022
:101480000093930600E000939406009176060023F3
:1014900049F401E00093760600E00093970600E02F
:1014A00000939806EAE9F6E0008111810F5F1F4F73
:1014B000008311839BBF8FBF0991199129913991A5
:1014C0004991599169917991099019902990399090
:1014D000E991F9918991999118958A9380E080B367
:1014E00082958F70877004EC14E00E946F11082FB2
:1014F0000E94781100ED14E00E946F110091950692
:101500000023C9F1815069F08A9571F08A9579F0CC
:101510008A9581F08A9589F08A9591F08A95F1F003
:101520002AC00E94C60C27C00E94510C24C00E94F1
:10153000A90B21C00E94B30C1EC00E942F0C1BC01F
:101540000091A306002321F401E00093A00603C04C
:1015500003E00093A0060E94000D0DC00091A306B9
:10156000002321F402E00093A00603C004E00093EE
:10157000A0060E94000D89910895B59B04C001E06A
:101580000093CC0503C000E00093CC050091CD058D
:10159000002311F401E001C000E0ECECF5E0108163
:1015A00011701023112339F001E00093CD0503EDF4
:1015B00014E00E946F110091CC05002311F401E0AA
:1015C00001C000E0EDECF5E0108111700123002373
:1015D00039F000E00093CD0503EF14E00E946F1195
:1015E0000F9B04C001E00093D00503C000E000930E
:1015F000D0050091D105002311F401E001C000E005
:10160000E0EDF5E0108111701023112339F001E0B5
:101610000093D10505E115E00E946F110091D005FE
:10162000002311F401E001C000E0E1EDF5E01081DC
:1016300011700123002339F000E00093D10503E38A
:1016400015E00E946F11B39B04C001E00093CE052A
:1016500003C000E00093CE050091CF05002311F4F4
:1016600001E001C000E0EEECF5E010811170102304
:10167000112339F001E00093CF0501E515E00E9448
:101680006F110091CE05002311F401E001C000E0CC
:10169000EFECF5E0108111700123002339F000E038
:1016A0000093CF050EE615E00E946F111A9B04C04F
:1016B00001E00093820603C000E0009382060091DF
:1016C0008306002311F401E001C000E0E2E8F6E047
:1016D000108111701023112339F001E0009383066B
:1016E0000AE815E00E946F1100918206002311F4B0
:1016F00001E001C000E0E3E8F6E010811170012391
:10170000002339F000E0009383060CEA15E00E9404
:101710006F110895789400E011EE20E030E00E940F
:101720002D110BE714E00E946F110FE814E00E94E6
:101730006F110E94FC040BEA14E00E946F111DDF80
:10174000009184060023D9F300E000938406C5DEEF
:10175000F6CF0091A006002331F50091D9050023B2
:1017600021F401E00093D90503C000E00093D905FE
:101770000091D905002311F411E001C010E000919F
:10178000DA050E7C010F0093DA051091D90500E906
:101790000E94AB031091D90502E90E94AB030091AE
:1017A000D7050E941F03089508958A9380E00FC013
:1017B0002091D705182F1A5E00E90E948F0320910F
:1017C000D705182F1A5E02E90E948F03839588308F
:1017D00078F389910895089508950091A006002353
:1017E000C1F41091D7050091D705053C30F4009164
:1017F000D7050D5F0093D70503C00FEF0093D70502
:101800000091D705101729F0D0DF0091D7050E946D
:101810001F0308950091A006002301F51091D7053C
:101820000091D7050F3F21F407EC0093D7050DC0B9
:101830000091D705033030F00091D7050350009395
:10184000D70503C000E00093D7050091D705101716
:1018500029F0ABDF0091D7050E941F030895009186
:10186000A0060023E9F40091D905002309F471DFF3
:101870001091D7050091D705073C30F40091D705AA
:1018800003950093D70503C00FEF0093D705009190
:10189000D705101729F089DF0091D7050E941F0393
:1018A00008950091A006002309F50091D9050023B1
:1018B00009F44FDF1091D7050091D7050F3F21F4B0
:1018C00007EC0093D70509C00091D705002329F044
:1018D0000091D7050A950093D7050091D7051017F9
:1018E00029F063DF0091D7050E941F03089500913E
:1018F000D905002341F011E000E90E94AB0311E09B
:1019000002E90E94AB0300919C06073011F401E04C
:1019100001C000E01091D805011749F00093D805E7
:10192000E8EDF5E0008100FD1B9A00FF1B98009197
:10193000F305077C0093F30500919C06000F000F50
:10194000000F1091F305100F1093F3050091D905C6
:10195000002341F010E000E90E94AB0310E002E92F
:101960000E94AB0308950091A006002371F400913A
:101970009C06073030F400919C06039500939C066A
:1019800003C000E000939C06B2DF08950091A0061A
:10199000002371F400919C06002331F000919C0615
:1019A0000A9500939C0603C007E000939C069FDF06
:1019B00008958A9300E00093D40500E008BF0091E9
:1019C0009F06033019F400E000939F0680919F0664
:1019D00005E010E00E94E7068823882321F008EC48
:1019E00010E00E94E70601E00093D405E7E9F6E085
:1019F00000E0008300E0018308E008BF89910895BA
:101A00000091A006013021F00091A006023021F4DF
:101A100001E00093A30638C00091A006033069F4EA
:101A20000091D205002321F401E00093D20503C008
:101A300000E00093D205B8DE27C00091A006043074
:101A400019F500919F06039500939F060091D90513
:101A5000002341F011E000E90E94AB0311E002E92C
:101A60000E94AB03A6DFA1DE05E010E00E94E706BE
:101A70000091D905002341F010E000E90E94AB037A
:101A800010E002E90E94AB0320E00BC030E0F90156
:101A9000EA59F94F008130E0F901E755F94F008329
:101AA0002395203130F52830A8F400919F0610E0EE
:101AB00048E050E00E94B611EEE4F6E0E00FF11FBE
:101AC00030E0E20FF31F008130E0F901E755F94FF4
:101AD0000083E6CF0091D2050023C1F630E0F90182
:101AE000E25AF94F008130E0F901E755F94F0083E0
:101AF000D7CFE1EAF6E000E0008300E001830E9436
:101B000089000895FA93EA934A933A932A931A9391
:101B10000A933FB74BB707E304BDE1ECF6E0008161
:101B200011810F5F1F4F008311830091D006109128
:101B3000D106012B41F0E0EDF6E0008111810F5F4D
:101B40001F4F008311830091C1061091C2060D340E
:101B500024E0120708F452C000E00093BF0600E042
:101B60000093C00600E00093C50600E00093C6069F
:101B700000E00093C30600E00093C40600E0009379
:101B8000C70600E00093C80600E00093C90600E025
:101B90000093CA0600E00093CB0600E00093D50650
:101BA00000E00093D80600E00093D40600E0009324
:101BB000D60600E00093D70600E00093D90600E0C7
:101BC0000093DA0600E00093D30600E00093C1061C
:101BD00000E00093C20600E00093DB0601E0009302
:101BE000D3050091D305002349F401E00093D30508
:101BF00000E00093970600E0009398064BBF3FBFBC
:101C000009911991299139914991E991F991189581
:101C100000E00093BF0600E00093C006E5ECF6E0AC
:101C200000E0008300E00183E3ECF6E000E00083E5
:101C300000E00183E7ECF6E000E0008300E00183D0
:101C4000E9ECF6E000E0008300E0018300E00093AF
:101C5000CB0600E00093D50600E00093D80600E034
:101C60000093D40600E00093D60600E00093D70668
:101C700000E00093D90600E00093DA0600E000934C
:101C8000D30600E00093DB060895BA93AA9300916F
:101C9000C006015041F00A95E1F00A9581F10A95DC
:101CA00009F443C057C0E3ECF6E000811181000F56
:101CB000111FE3ECF6E0008311830091D20610E0DF
:101CC000E3ECF6E020813181202B312B208331831E
:101CD00041C0E5ECF6E000811181000F111FE5EC39
:101CE000F6E0008311830091D20610E0E5ECF6E007
:101CF00020813181202B312B208331832BC0E7ECD5
:101D0000F6E000811181000F111FE7ECF6E000837F
:101D100011830091D20610E0E7ECF6E020813181DA
:101D2000202B312B2083318315C0E9ECF6E00081B4
:101D30001181000F111FE9ECF6E00083118300917F
:101D4000D20610E0E9ECF6E020813181202B312B26
:101D5000208331830091CB0603950093CB0600913D
:101D6000CB06083040F00091C00603950093C006F2
:101D700000E00093CB060091C006053008F405C1D1
:101D8000E3ECF6E0008111810F7010700083118385
:101D9000E5ECF6E0008111810F7010700083118373
:101DA000A3ECB6E0ED91FC91379709F0B1C0A5EC3A
:101DB000B6E0ED91FC913A9709F0AAC0E9ECF6E0A3
:101DC00000811181E7ECF6E0208131814FEF24277B
:101DD00040E034270217130709F098C0E7ECF6E05B
:101DE00000810093770600918C06002309F48AC0D5
:101DF000E0EDF6E000811181095E1340033F21E030
:101E00001207A8F4E7ECF6E000811181003820E029
:101E1000120719F40E94510C0AC0E7ECF6E00081A9
:101E20001181083A20E0120711F40E942F0CE0ED16
:101E3000F6E001E010E00083118300E00093D30599
:101E4000E7ECF6E000811181003B20E0120719F475
:101E50000E94A90B57C0E7ECF6E000811181003821
:101E600020E0120719F40E94510C4CC0E7ECF6E098
:101E700000811181083A20E0120719F40E942F0C0A
:101E800041C0E7ECF6E000811181003920E0120743
:101E900019F40E94B30C36C0E7ECF6E00081118122
:101EA000083820E0120719F40E94C60C2BC0E7EC9A
:101EB000F6E000811181003A20E0120771F40091F0
:101EC000A306002321F401E00093A00603C003E071
:101ED0000093A0060E94000D15C0E7ECF6E000811B
:101EE0001181083920E0120769F40091A30600234C
:101EF00021F402E00093A00603C004E00093A006D2
:101F00000E94000D00E00093DC0603C081DE01C0EA
:101F10007FDE00E00093BF0600E00093C006E5EC22
:101F2000F6E000E0008300E00183E3ECF6E000E08F
:101F3000008300E00183E7ECF6E000E0008300E0CE
:101F40000183E9ECF6E000E0008300E0018300E0BB
:101F50000093CB0600E00093D50600E00093D8067E
:101F600000E00093D40600E00093D60600E0009362
:101F7000D70600E00093D90600E00093DA0600E0FF
:101F80000093D30600E00093DB06A991B991089570
:101F9000BA93AA930091D5060023E9F10091D806DF
:101FA0000023C9F10091BF06002309F0BDC001E084
:101FB0000093BF0601E00093C00600E00093CC064A
:101FC00000E00093CF06EDECF6E000E0008300E0D7
:101FD000018300E00093D50600E00093D80600E0FE
:101FE0000093D40600E00093D60600E00093D706E5
:101FF00000E00093D90600E00093DA0600E00093C9
:10200000D306EDEDF6E000E0008300E0018300E0A0
:102010000093DB0689C00091BF06002399F0009170
:10202000D406002379F00091D606002359F000E091
:102030000093D20600E00093D40600E00093D60699
:1020400024DE72C00091BF06002399F00091D406EF
:10205000002379F00091D706002359F001E00093A6
:10206000D20600E00093D40600E00093D7060DDE10
:102070005BC00091BF06002381F40091D9060023C4
:1020800061F001E00093D30600E00093D9060091CF
:10209000DB0603950093DB0647C00091D3060023BF
:1020A00009F442C00091DA060023F1F100918C0698
:1020B0000023D1F10091DB06013081F500E00093AF
:1020C000DA0600E00093D305EDEDF6E00081118122
:1020D0000F5F1F4F00831183ADEDB6E0ED91FC91D2
:1020E000339770F000917706003819F40E940A0CBB
:1020F0001BC000917706083AB9F40E94ED0B14C09A
:1021000000917706003819F40E94510C0DC000911F
:102110007706083A49F40E942F0C06C000E00093AD
:10212000DB0600E000937706A991B99108959A9390
:102130008A93FA93EA933A922A921A920A927A939B
:102140006A935A934A933A932A931A930A938FB7AE
:102150009BB70D9B1AC0E091C106F091C20634975F
:10216000359720F401E00093D40651C0E091C106F8
:10217000F091C206F797BE9720F401E00093D506D0
:1021800046C001E00093DF0642C00D9940C0E091D7
:10219000C106F091C2063497359720F401E0009310
:1021A000D60635C0E091C106F091C20639973E9738
:1021B00020F401E00093D7062AC0E091C106F09117
:1021C000C206B897709720F401E00093D8061FC0AC
:1021D0000091C1061091C206085C1040093C20E045
:1021E000120720F401E00093D90611C00091C10646
:1021F0001091C20600521340093C20E0120720F45F
:1022000001E00093DA0603C001E00093DF0600E07E
:102210000093C10600E00093C2060091DF06002390
:1022200041F000E00093DF0600E00093DA06F0DC06
:1022300001C0AEDE9BBF8FBF0991199129913991E1
:102240004991599169917991099019902990399002
:10225000E991F9918991999118950E944113C801CA
:10226000D90140EB54E060E070E08C019D010E94D8
:10227000C511452B462B472B19F00FEF1FEF26C03A
:10228000119A199A1098189A00E014E224EF30E09D
:10229000AC01BD010E94C5110E94291240E050E02E
:1022A00060E871E40E946D120E94DF12015010403C
:1022B0009801232F2093900009B900E00BB908E999
:1022C0000AB906E00093950000E010E0E4E00C9409
:1022D00046135D9BFECF0CB900E010E00895F801B5
:1022E00002C010E0F6DF008131960023D1F7089597
:1022F000E8E7F6E0102F12951F70105D1283102F83
:1023000012951F701A3018F01281195F1283102F66
:102310001F70105D13830F700A3018F00381095F7E
:1023200003838F01DCDF089500008895FECF0FE561
:102330000DBF01E00EBFC0E4D1E00E944F130023A7
:1023400011F00E9461130E948A0B0E9494110C9458
:1023500094110024E8E0001FEA952AF0001C0416FE
:10236000D0F3041AF8CF402D00950895149F102D36
:10237000059F100D049F002D110D0895369527958A
:10238000179507954A95D2F7089500241124100156
:10239000E0E2001F111F221F331FEA9572F0001C9C
:1023A000111C221C331C041615062606370688F35A
:1023B000041A150A260A370AECCFA001B1010095CC
:1023C000109520953095089530952095109501959C
:1023D0001F4F2F4F3F4F0895FF27172E660F771F70
:1023E000089409F4771F6795EE27032E220F331FF9
:1023F000089409F4331F27950895222342F03230C0
:1024000030F03A95EE0F001F111F221FC2F7E0387F
:1024100021F400FF08940EF488940F4F1F4F2F4FA4
:102420003F4F323038F4332319F427FD31E002C036
:1024300027FF30E03F3F29F0220F000C379527950A
:10244000089534C0E02F012F122F232F3EE9E89486
:10245000D4CF0024F7CFF901EE0FFF1F37FBFF3F6A
:1024600031F0EF2BE12BE02B8894B8940895EE2304
:1024700021F008949894B894089598948894389486
:102480000895FB01EE0FFF1F77FBFF3F31F0EF2BAD
:10249000E52BE42B8894B8940895EE2371F3E9CFEB
:1024A000302D307822271127002708953FE7302963
:1024B00020E8F9CF3FEF2FEFF6CFE3DF20F01BF05E
:1024C000707837270895F6CFDCDFE9F3E0F3032EC9
:1024D0000726E6CF032E0726E9CFBDDFA0F36BF377
:1024E00099F3CFDF80F39BF3A9F376DF012427FD77
:1024F00006C03150E040000F111F221FD2F767FDC8
:1025000006C07150F040440F551F661FD2F7E89483
:10251000371BEF0B3158EF4F2AF0EE23E9F63F3F20
:10252000D9F203C0393EA8F26894E0E0F0E0401729
:102530005107620738F0315008F46894000F111FFA
:10254000221FEE1F71E01124222409C0000F111F69
:10255000221FEE1F041715072607EF0720F0041BA4
:10256000150B260BEF0B771F111C221C78F7000FA1
:10257000111F221FEE1F041715072607EF073E2E17
:10258000F0F9E894E0E839F008F4E0E0322A312A82
:10259000302A09F06894709510942094332311F038
:1025A000F0FF09C0269417947795E79508F468948E
:1025B00033953130BCF3072F112D222D28CF14DF96
:1025C0003F5748F03F3168F007FC6ACF3FE72FEFF5
:1025D0001FEF0FEF089530E020E0890110E000E0E8
:1025E0000895432F322F212F102F0E2F4F51419539
:1025F0000E94C21107FE08950C94E41147911790B0
:1026000011FA279037900895F9DF041B10E000C0FD
:1026100020E030E000C0B8F010FC17C047910790F0
:10262000E00FF11F0417100540E02407340758F4A9
:1026300036F406910024F101E01BF0090994E00F43
:10264000F11F27903790F101099411F4D6F7F1CFDB
:1026500031960EF0319650E060E070E047914B3FCC
:1026600048F089F34F3F29F04E3F11F07791679181
:1026700057914791041B150B260B370B39F318F3B1
:10268000E7CFBA93AA939A938A930895BB81AA81BC
:1026900099818881F0E0EC0FFD1FEF01089501E0C2
:1026A000089520E02D9301501040E1F708953BBFBD
:1026B00026912D93EF5FFF4F3F4F01501040B9F728
:1026C000089548E157E260E0FA01362F3BBF0791D9
:1026D0001691FA01EE5FFF4F3F4F3BBFA791B691B6
:1026E000FA01362FEC5FFF4F3F4F3BBF079017902B
:1026F0002690202D2129222921F0F001322DD7DF2B
:1027000001C0CFDF495F5F4F6F4F17E220E04632D5
:1027100051076207C8F208951D056001262700636E
:10272000007D06000000506F727420696E69742E7F
:102730000D0A0049324320696E697469616C697AD7
:10274000652E2E0D0A0054696D65722073657474D0
:10275000696E672E0D0A00496E7465727275707429
:102760002073657474696E672E0D0A005B493243ED
:102770005D20414B343131384120536561726368CB
:10278000696E672E2E2E0D0A005B4932435D204193
:102790004B343131384120466F756E642E0D0A007E
:1027A0005B4932435D20414B3431313841206E6FFB
:1027B0007420666F756E642E0D0A005B4932435DAE
:1027C0002045533930333850524F20536F667420B0
:1027D000526573657420636F6D706C6574652E0D42
:1027E0000A005B4932435D20455339303338205568
:1027F0003232204C656674204D7574652E0D0A00CA
:102800005B4932435D2045533930333820553232ED
:10281000204C656674204D757465204F4B2E0D0A53
:10282000005B4932435D20455339303338205532FF
:1028300032204C656674204D757465204E472E0D10
:102840000A005B4932435D20455339303338205507
:102850003532205269676874204D7574652E0D0AF3
:10286000005B4932435D20455339303338205535BC
:1028700032205269676874204D757465204F4B2E65
:102880000D0A005B4932435D20455339303338200F
:10289000553532205269676874204D757465204E35
:1028A000472E0D0A005B4932435D204553393033D2
:1028B0003850524F20536561726368696E672E2EDF
:1028C0002E0D0A005B4932435D20455339303338C1
:1028D00050524F207832206E6F7420666F756E6490
:1028E0002E0D0A005B4932435D20455339303338A1
:1028F00050524F20783220666F756E642E0D0A009C
:102900005B4932435D2045533930333850524F20B4
:102910006F6C6E79206C65667420666F756E642EC0
:102920000D0A005B4932435D20455339303338503E
:10293000524F206F6C6E7920726967687420666FE1
:10294000756E642E0D0A005B4932435D2045533994
:1029500030333850524F204175746F2053656C6589
:1029600063742066756E6374696F6E204453442FE0
:1029700049325320636F6D706C6574652E0D0A00CB
:102980005B4932435D2045533930333850524F2034
:102990004368616E6E656C206D617070696E672052
:1029A000636F6D706C6574652E0D0A005B49324370
:1029B0005D2043533834313620496E7075743720AA
:1029C000746F20474E442E0D0A005B4932435D2050
:1029D000455339303338204D757465204F66662E67
:1029E0000D0A005B5350495D20444F54204D6174E3
:1029F00072697820436C6561722E0D0A005B493262
:102A0000435D20526561642053616D706C696E672F
:102A100020726174652E0D0A005B4932435D2043CC
:102A20006F6D706C6574652072656164696E672096
:102A300053616D706C696E6720726174652E0D0A4A
:102A4000000D0A53797374656D2073746172746537
:102A5000642E0D0A0053797374656D20696E697474
:102A600069616C697A696E672E2E2E2E2E2E0D0AE4
:102A70000053797374656D20696E697420436F6DBE
:102A8000706C657465642E0D0A004B657920636F68
:102A90006465203D20000D0A005B53413931323717
:102AA0005D2055534220417564696F20416374690C
:102AB00076617465642E0D0A005B534139313237FB
:102AC0005D2055534220417564696F204465616300
:102AD000746976617465642E0D0A005B5341393167
:102AE00032375D20445344206D6F64652064657403
:102AF00065637465642E0D0A005B534139313237CA
:102B00005D2050434D206D6F64652064657465637E
:102B10007465642E0D0A005B5341393132375D20F4
:102B200044534420313238206465746563746564AD
:102B30002E0D0A005B5341393132375D2044534436
:102B40002036342064657465637465642E0D0A0054
:102B50005B5341393132375D205553422069732030
:102B6000696E206E6F726D616C206D6F64652E0DE5
:102B70000A005B5341393132375D20555342206999
:102B80007320696E2073757370656E6465642E0DB5
:102B90000A000101010101010101010106FF01011A
:102BA000CECE083709A009090AD1113A127413DDF3
:102BB00013D7233F241D27862780434F41583120B8
:102BC000434F415832202041455331202041455345
:102BD000322020424E432020204F50543120204F9D
:102BE000505432202055534220202034342E31209E
:102BF0002034382E30202038382E32202039362EFE
:102C000030203137362E34203139322E30202020FA
:102C10002020202046494C544552312046494C54EE
:102C20004552322046494C544552332020494E5695
:102C30004552534520204E4F524D414C0130307883
:032C400030300031
:00232E01AE
:00000001FF
