:100000000C94F11118951895189518951895189540
:100010000C94E907189518950C94BD100C94D00712
:100020000C94B707189518950C94A80D1895189569
:1000300018951895189518950C9489081895189581
:100040000C940608189518951895189518951895F4
:100050001895189518951895189518951895189538
:100060001895189518951895189518951895189528
:100070001895189518951895189518951895189518
:100080001895189518951895189518950100C0049D
:100090000800650470047C04870493049E04AA0489
:1000A000B5040000F60A0800670A820A920AA20A4A
:1000B000B20AC20AD20AED0A219741E050E09E013D
:1000C0000E9471050881219608950E94B513A02F02
:1000D00016E20A2F000F06700062EEDF902F17E283
:1000E0000A2F000F06700062E7DF802F18E2AA0FC8
:1000F000A670A0620A2FE0DF9C7F992311F000E038
:100100000BC08C7F882311F000E006C00C7F003408
:1001100011F000E001C001E0E3E00C94C0139A93F9
:100120008A932197802F912F10E0082FC5DF088335
:10013000992321F008810D7F088303C008810260A4
:10014000088341E050E09E0110E0082F0E94510515
:1001500021968991999108959A938A932197902F46
:10016000812F13E0092FA8DF08830881087F088307
:10017000082F07701881102B188341E050E09E0172
:1001800013E0092F0E94510513E0092F95DF088322
:10019000877008810770801711F401E001C000E04A
:1001A0002196899199910895979800E000936208AB
:1001B0000895282E20E0979A00916200086000932D
:1001C000620080E009C0E0E4F6E08F01F8013197B9
:1001D000012BD9F720E08395823008F0DCC060E085
:1001E0000EC000916500026000936500E0E1F0E060
:1001F0008F01F8013197012BD9F72395639568306A
:1002000010F7222381F4009162000B7F00936200BB
:10021000009162000D7F00936200009162000E7FEA
:10022000009362007DC0213081F4009162000B7F59
:1002300000936200009162000D7F009362000091C4
:1002400062000160009362006BC0223081F4009173
:1002500062000B7F009362000091620002600093D5
:100260006200009162000E7F0093620059C023304B
:1002700081F4009162000B7F0093620000916200A4
:1002800002600093620000916200016000936200CE
:1002900047C0243081F40091620004600093620042
:1002A000009162000D7F00936200009162000E7F5A
:1002B0000093620035C0253081F400916200046033
:1002C00000936200009162000D7F00936200009134
:1002D000620001600093620023C0263081F4009127
:1002E000620004600093620000916200026000936B
:1002F0006200009162000E7F0093620011C02730FF
:1003000079F4009162000460009362000091620041
:10031000026000936200009162000160009362003D
:10032000882311F0AF9805C0009165000D7F009300
:100330006500E8E0F0E08F01F8013197012BD9F773
:10034000009165000B7F00936500E8E0F0E08F010D
:10035000F8013197012BD9F7082F10E048E050E061
:100360000E94101270E0060F171FF801E15DFD4FAB
:1003700000810BBBE0E1F0E08F01F8013197012B28
:10038000D9F700916500046000936500882309F4A3
:1003900028CFAF9A2BCF822D0895202F00E04AC09E
:1003A000073079F41091620014601093620010918C
:1003B000620012601093620010916200116010934D
:1003C0006200E8E0F0E0AF01FA013197452BD9F780
:1003D000109165001D7F10936500E8E0F0E0AF012B
:1003E000FA013197452BD9F7109165001B7F1093C7
:1003F0006500E8E0F0E0AF01FA013197452BD9F74D
:100400002BBBE0E1F0E0AF01FA013197452BD9F7C2
:1004100010916500146010936500109165001260E2
:1004200010936500E0E1F0E0AF01FA013197452B50
:10043000D9F70395083008F085C0979A10916200AB
:10044000177F10936200002381F4109162001B7FDC
:1004500010936200109162001D7F10936200109152
:1004600062001E7F10936200ACCF013081F41091C6
:1004700062001B7F10936200109162001D7F109339
:100480006200109162001160109362009ACF0230F6
:1004900081F4109162001B7F109362001091620042
:1004A000126010936200109162001E7F1093620030
:1004B00088CF033081F4109162001B7F109362009B
:1004C000109162001260109362001091620011603E
:1004D0001093620076CF043081F4109162001460B2
:1004E00010936200109162001D7F109362001091C2
:1004F00062001E7F1093620064CF053081F410917A
:100500006200146010936200109162001D7F1093CE
:1005100062001091620011601093620052CF0630A9
:1005200009F03ECF109162001460109362001091A8
:100530006200126010936200109162001E7F10939F
:1005400062003FCF00E042C0073079F410916200B2
:1005500014601093620010916200126010936200A8
:1005600010916200116010936200E8E0F0E0AF01CA
:10057000FA013197452BD9F7AF98E8E0F0E0AF01E9
:10058000FA013197452BD9F7109165001B7F109325
:100590006500E8E0F0E0AF01FA013197452BD9F7AB
:1005A0002BBBE0E1F0E0AF01FA013197452BD9F721
:1005B00010916500146010936500AF9AE0E1F0E0DF
:1005C000AF01FA013197452BD9F70395083008F0B0
:1005D00085C0979A10916200177F109362000023E4
:1005E00081F4109162001B7F1093620010916200F1
:1005F0001D7F10936200109162001E7F10936200B5
:10060000B4CF013081F4109162001B7F109362001F
:10061000109162001D7F10936200109162001160C2
:1006200010936200A2CF023081F4109162001B7F10
:10063000109362001091620012601093620010919A
:1006400062001E7F1093620090CF033081F41091FE
:1006500062001B7F10936200109162001260109381
:100660006200109162001160109362007ECF04302E
:1006700081F4109162001460109362001091620086
:100680001D7F10936200109162001E7F1093620024
:100690006CCF053081F410916200146010936200F9
:1006A000109162001D7F1093620010916200116032
:1006B000109362005ACF063009F046CF10916200C5
:1006C0001460109362001091620012601093620037
:1006D000109162001E7F1093620047CF0895089525
:1006E0000E94AE13202E412E832E642E862FA4E06E
:1006F000B2E0222319F4AAE0B2E037C02F3F19F488
:10070000A0E1B2E032C018EC121B42E0012F0E94BF
:100710000312442339F0FD010EE20283FD0105E3DB
:10072000038306C0FD010EE20283FD0100E30383A3
:1007300042E0012F0E940312102F4AE0012F0E9475
:100740000312005D0C930C91003339F4E0E4F2E005
:1007500020813181F90100E200834AE0012F0E94EB
:100760000312142F105DFD011183552361F040E148
:1007700050E0EDE2F2E0208131810FE212E00E94D0
:10078000CA1317DD44C043E050E03324220C331C6D
:10079000F101EE5BFD4F208131810FE212E00E94FA
:1007A000CA1344E050E05524440C551CF201EE5AA3
:1007B000FD4F2081318102E312E00E94CA13882399
:1007C00011F0A6E1B2E045E050E09D0106E312E041
:1007D0000E94CA1343E050E09924880C991CF4014C
:1007E000E459FD4F208131810BE312E00E94CA13CE
:1007F00041E050E07724660C771CF301E658FD4F8A
:10080000208131810EE312E00E94CA13D2DCEAE0BB
:100810000C94B913219741E050E09E010E947105AC
:100820000881219608952197288341E050E09E0198
:100830000E945105219608958A9380E010E402E910
:10084000E9DF0C7F083A09F48E5F10E400E9E2DF8B
:100850000C7F083A09F48395082F899108959A939B
:100860008A93802F912F17E0082FD4DF202F992310
:1008700011F0216001C02E7F17E0082FD4DF89918D
:10088000999108959A938A93902F812F11E0092FBF
:10089000C1DF202F237F880F880F8C70282B11E059
:1008A000092FC1DF8991999108951F73212F15E0B8
:1008B000BADF08959A938A93902F012F822FECE844
:1008C000F0E0FBBFF0E00C94711316E2092FA2DFF9
:1008D000202F207F8F70282B16E2092FA4DF50C015
:1008E00016E2092F97DF202F2F708295807F282B0B
:1008F00016E2092F98DF44C017E2092F8BDF202F63
:10090000207F8F70282B17E2092F8DDF39C017E267
:10091000092F80DF202F2F708295807F282B17E2F0
:10092000092F81DF2DC018E2092F74DF202F207FCF
:100930008F70282B18E2092F76DF22C018E2092FCA
:1009400069DF202F2F708295807F282B18E2092FD6
:100950006ADF16C019E2092F5DDF202F207F8F701C
:10096000282B19E2092F5FDF0BC019E2092F52DF94
:10097000202F2F708295807F282B19E2092F53DFBB
:100980008991999108959A938A93802F912F1FE0CE
:10099000082F40DF202F992311F0226001C02C7F07
:1009A0001FE0082F40DF8991999108959A938A93C7
:1009B000802F912F11E0082FE6DF292F10E1082F5B
:1009C00032DF89919991089521E010E02CDF08959C
:1009D0009A938A93902F812F1CE0092F1BDF202FE1
:1009E000207F8F70282B1CE0092F1DDF89919991A2
:1009F000089508E400937000089510E010937400C7
:100A000014EA1093740010917400212F27FFFBCF7C
:100A100010917100187F183011F001E008950093D3
:100A2000730004E80093740000917400102F17FF06
:100A3000FBCF00917100087F083121F0003411F0E4
:100A400001E0089500E008950093730004E8009326
:100A5000740000917400102F17FFFBCF00917100FC
:100A6000087F083211F001E0089500E0089504ECD9
:100A70000093740000917400102F17FFFBCF0091BA
:100A80007300089504E80093740000917400102F1F
:100A900017FFFBCF00917300089504E900937400E1
:100AA0000895192E282E012EB901A7DF002311F079
:100AB00001E014C0002DC8DF80E090E001C0019685
:100AC0008417950748F4FB01E80FF91F0081BCDF8C
:100AD0000023A9F301E002C0E0DF00E0822D912DA8
:100AE00008950E94B413602F712FD901062F85DF5E
:100AF000002311F001E01EC0072FA6DF6160062F62
:100B00007CDF002311F001E015C080E090E006C01A
:100B1000AEDFFD01E80FF91F00830196FA0131975E
:100B20008E179F07A8F3AEDFA40FB51F11970C9384
:100B3000B4DF00E0E4E00C94BF139A938A9302E8D8
:100B400012E00E9495110FEF0ABB0DEB07BB0FEFF0
:100B500004BB03E801BB0AE402B90FE000936100A3
:100B60000FE10093640000E00BBB0FE708BB0FEF41
:100B700005BB0FEF02BB0FEF03B900EF009362005C
:100B80000EE10093650007B3007C07BBC59A07B36D
:100B9000007F07BBC39A82B100E002B91F9A02B17D
:100BA000087F02B91A9A139A03B1007F03B90FE8BC
:100BB00012E00E9495110E94F90402EA12E00E94DC
:100BC000951103E003BF04E00EBD02E005BD07E39D
:100BD00004BD05E002BF04EE19EF1DBD0CBD00E031
:100BE00001BF05E407BF05E406BF03EB12E00E9466
:100BF00095110CEF09BF00E600936A0005E50ABFF6
:100C00000CEF08BF08EC12E00E94951100E20E9470
:100C10006500002329F005EE12E00E94951104C042
:100C20000CEF12E00E94951100E90E94E40402E931
:100C30000E94E40407E113E00E9495110EE313E023
:100C40000E94951111E000E90E942F0417E000E9CD
:100C50000E940A04013429F40CE513E00E94951166
:100C600004C00DE713E00E9495110EE913E00E9405
:100C7000951111E002E90E942F0417E002E90E9499
:100C80000A04013429F40DEB13E00E94951104C00D
:100C90000FED13E00E94951101E014E00E94951100
:100CA0000E941C04802F882329F400E214E00E9493
:100CB000951114C0833029F400E414E00E949511CA
:100CC0000DC0813029F40CE514E00E94951106C096
:100CD000823021F40FE714E00E94951111E000E941
:100CE0000E94420411E002E90E94420403EA14E077
:100CF0000E94951181E006C020E0182F00E90E94B3
:100D00005A0483958930C0F381E006C021E0182F92
:100D100002E90E945A0483958930C0F30CED14E077
:100D20000E94951110E000E90E94D60410E002E94B
:100D30000E94D60408E015E00E9495110FE215E02C
:100D40000E94951110E000E90E942F0410E002E9D2
:100D50000E942F040DE415E00E9495111FE000E9A8
:100D60000E94E8041FE002E90E94E80406E615E09C
:100D70000E94951107E815E00E9495110E94D40089
:100D8000789480E007C090E0FC01E15DFD4F00E257
:100D9000008383958031B8F300E000939B0800E066
:100DA00000939C0801E00093A4088991999108950B
:100DB000AC0180E090E008C0E0E8FEE39F01F901AB
:100DC0003197232BD9F70196F8013196E817F907E7
:100DD00098F7CA0108959A938A9380E090E00FE211
:100DE00015E00E9495118F3F00E0900731F405E077
:100DF00010E0DEDF05E010E0DBDF0091730810910A
:100E00007408010F00938A0800918A0810917508F0
:100E10000117D9F40091730810E0E1E7F8E00083CE
:100E20001183E1E7F8E00081102F00E0E1E7F8E04E
:100E3000008311830091740810E0E1E7F8E020815D
:100E40003181200F311F20833183E1E7F8E00081F9
:100E50001181E4E8F8E000831183E4E8F8E0008120
:100E600011810F3F27E01207F0F5E6E8F8E0008176
:100E700011812281322F212F102F00E0E6E8F8E0C7
:100E80000083118322833383E6E8F8E00081118137
:100E90002281322F212F102F00E0E6E8F8E00083B6
:100EA000118322833383803800E0900778F4082F81
:100EB00002950F7000939908082F0695077000930C
:100EC0009F08082F017000935F0819C00FEF00936F
:100ED0009D0800E00093990800E000939F0801E05E
:100EE00000935F080CC00FEF00939D0800E0009393
:100EF000990800E000939F0801E000935F080E94BA
:100F00008B0C18E700E90E94550418E702E90E94DB
:100F100055040E94330C0AE010E04ADF0AE010E0BA
:100F200047DF0E94E90C979A01E000936208009164
:100F3000650001600093650003E00E94CD01C79A3F
:100F4000899199910895AC0180E090E008C0E0E8B3
:100F5000FEE39F01F9013197232BD9F70196F801A0
:100F60003196E817F90798F7CA01089508952A936A
:100F70001A930A931FB72BB700919208002351F0E0
:100F80000F9B04C001E000938C0803C000E00093B5
:100F90008C08ECDF2BBF1FBF09911991299118957F
:100FA0002A931A930A931FB72BB700919208002334
:100FB00051F00E9B04C001E000938D0803C000E0D7
:100FC00000938D08D3DF2BBF1FBF09911991299181
:100FD00018952A931A930A931FB72BB7839B07C0C0
:100FE00000E00093790800E000937A0809C001E06E
:100FF0000093780801E00093790800E000937A08F4
:101000002BBF1FBF0991199129911895FA93EA9363
:101010004A933A932A931A930A933FB74BB705E042
:1010200002BF0091960803950093960800919208DC
:10103000002309F464C00091A0080023B9F00091D6
:10104000A1081091A208013727E1120730F000E053
:101050000093A00800E00093A308E1EAF8E0008113
:1010600011810F5F1F4F0083118349C00091A508B4
:101070001091A608083C20E0120721F401E000933B
:10108000830835C00091A5081091A608003223E01E
:10109000120769F500918C0800938E0800918D0865
:1010A00000938F080F9B04C001E000938C0803C0DD
:1010B00000E000938C080E9B04C001E000938D08B3
:1010C00003C000E000938D0800918E0810918C08F9
:1010D000011731F400918F0810918D08011709F064
:1010E00045DF00E00093A50800E00093A608E5EACC
:1010F000F8E0008111810F5F1F4F008311834BBF08
:101100003FBF09911991299139914991E991F9913B
:1011100018959A938A93FA93EA933A922A921A929A
:101120000A927A936A935A934A933A932A931A9318
:101130000A938FB79BB700E00EE81DEF1DBD0CBDF5
:1011400001E0009382080091790810917A08012B40
:1011500051F1E9E7F8E0008111810F5F1F4F008333
:10116000118342E350E00091790810917A080E94BF
:101170001812452B19F401E000937B0800917908BF
:1011800010917A080D3221E0120768F045E050E036
:101190000091790810917A080E941812452B19F4D1
:1011A00001E000937B080091A408002309F457C0D4
:1011B00000919208002309F452C083993AC000912B
:1011C0009308013051F4E0919008F091910836971E
:1011D00020F002E00093930820C0009193080230B1
:1011E000E1F4E0919008F09191083797B0F000E0B9
:1011F00086990395000F10E085991395010F000F54
:1012000010E084991395010F023019F40E94C70C65
:1012100004C0053011F40E94C80C00E0009365087A
:10122000E0E9F8E0008111810F5F1F4F0083118317
:1012300016C000E00093930800E00093900800E0DF
:101240000093910800916508002349F401E00093A0
:10125000650800E00093940800E000939508E7E932
:10126000F8E0008111810F5F1F4F008311839BBF46
:101270008FBF09911991299139914991599169919A
:1012800079910990199029903990E991F991899172
:10129000999118958A9380E080B382958F708770BA
:1012A00006E016E00E949511082F0E94CA1102E183
:1012B00016E00E949511815089F08A95F9F08A957F
:1012C000E9F18A9509F440C08A9509F44DC08A95E0
:1012D00009F477C08A9509F464C081C000917E0842
:1012E0000A9500937E0800917E08077000937E089F
:1012F0000E948B0C01E000935C0871C000917C0897
:10130000002311F00E94150C00919D08002329F084
:1013100000919D080A9500939D0800919D08083C46
:1013200018F007EC00939D080E94330C00919D0873
:101330000E946F0301E000935C0851C00E94150CED
:1013400001E000935C084BC000917E080395009378
:101350007E0800917E08077000937E080E948B0C27
:1013600001E000935C083BC000917C08002311F071
:101370000E94150C00919D08073C30F400919D08D7
:10138000039500939D0803C00FEF00939D080E94F2
:10139000330C00919D080E946F0301E000935C08EC
:1013A0001EC000918008039500938008009180087A
:1013B000073018F000E00093800801E000935C081B
:1013C0000EC000918108002321F000E00093810805
:1013D00003C001E00093810801E000935C0889915B
:1013E000089500917808002321F000E00093780828
:1013F00051DF00917B08002321F000E000937B087F
:1014000049DF00918208002319F000E00093820870
:1014100000918308002331F000E00093830801E08D
:1014200000935C0800917C0810917D08011789F0F9
:1014300000917C0800937D0800917C08002329F02E
:1014400005E116E00E94951104C009E216E00E9431
:10145000951100919D0810919E08011729F10091A6
:101460009E0810919D08011728F40EE316E00E94D3
:10147000951104C00BE516E00E94951100919D089E
:101480000E949E1102E116E00E94951100919D08B4
:1014900000939E0810919D0800E90E94D6041091C7
:1014A0009D0802E90E94D60400917E0810917F08F1
:1014B000011709F49BC000917E0800937F080091FA
:1014C0007E08E2EAF0E0FBBFF0E00C94711311E05B
:1014D00000E20E948F0008E716E00E94951110E0DC
:1014E00000E20E94AC00002329F001E916E00E940E
:1014F000951104C009EA16E00E94951103B1007F1E
:1015000003B9089511E000E20E94AC00002329F025
:1015100007EB16E00E949511089509EA16E00E9473
:101520009511089512E000E20E94AC00002329F01A
:101530000FEC16E00E949511089509EA16E00E944A
:101540009511089513E000E20E94AC00002329F0F9
:1015500006EE16E00E949511089509EA16E00E9431
:101560009511089514E000E20E94AC00002329F0D8
:101570000DEF16E00E949511089509EA16E00E9409
:101580009511089515E000E20E94AC00002329F0B7
:1015900003E117E00E949511089509EA16E00E9400
:1015A0009511089511E000E20E948F0008E716E00F
:1015B0000E94951116E000E20E94AC00002329F081
:1015C0000AE217E00E94951104C009EA16E00E94A1
:1015D000951103B1007F03B9089510E000E20E9465
:1015E0008F0001E417E00E9495111B9A0895B59BA6
:1015F00004C001E00093560803C000E000935608C1
:1016000000915708002311F401E001C000E0E6E575
:10161000F8E0108111701023112339F001E00093DC
:1016200057080DE517E00E94951100915608002318
:1016300011F401E001C000E0E7E5F8E0108111706D
:101640000123002339F000E0009357080DE717E06D
:101650000E9495110F9B04C001E000935A0803C03B
:1016600000E000935A0800915B08002311F401E0A8
:1016700001C000E0EAE5F8E01081117010231123A9
:1016800039F001E000935B080FE917E00E94951123
:1016900000915A08002311F401E001C000E0EBE5DD
:1016A000F8E0108111700123002339F000E000936D
:1016B0005B080DEB17E00E949511B39B04C001E09D
:1016C0000093580803C000E000935808009159089F
:1016D000002311F401E001C000E0E8E5F8E010812A
:1016E00011701023112339F001E0009359080BED1C
:1016F00017E00E94951100915808002311F401E0B1
:1017000001C000E0E9E5F8E0108111700123002339
:1017100039F000E00093590808EF17E00E94951196
:101720001A9B04C001E00093760803C000E0009318
:10173000760800917708002311F401E001C000E071
:10174000E6E7F8E0108111701023112339F001E071
:101750000093770804E118E00E9495110091760843
:10176000002311F401E001C000E0E7E7F8E0108198
:1017700011700123002339F000E00093770806E39D
:1017800018E00E9495110895789400E011EE20E091
:1017900030E00E94531101EA15E00E94951105EB1B
:1017A00015E00E9495110E949D0501ED15E00E9433
:1017B00095110E94EB060AEE15E00E94951101E0DA
:1017C0000093920801E000938B080E94330C009173
:1017D0009D080E946F03EDE5F8E000811181012B67
:1017E00041F0EDE5F8E000811181015010400083E7
:1017F0001183FDDEF6DD00915C08002361F300E05B
:1018000000935C0860917C08EDE5F8E00081502FC2
:10181000409181083091800820919D0810919A088C
:1018200000917E080E947003D6CF0091A00800238B
:10183000C9F400917C08002321F401E000937C08A6
:1018400003C000E000937C0810917C0800E90E942E
:101850002F0410917C0802E90E942F0400919D083A
:101860000E946F0308958A9380E00FC020919D0825
:10187000182F105F00E90E94130420919D08182F73
:10188000105F02E90E9413048395883078F38991F0
:1018900008950091A0080023C1F410919D080091C3
:1018A0009D08053C30F400919D080D5F00939D0854
:1018B00003C00FEF00939D0800919D08101729F0B9
:1018C000D2DF00919D080E946F0308950091A00847
:1018D000002301F510919D0800919D080F3F21F410
:1018E00007EC00939D080DC000919D08033030F077
:1018F00000919D08035000939D0803C000E00093F1
:101900009D0800919D08101729F0ADDF00919D08FA
:101910000E946F03089500917C08002341F011E0BC
:1019200000E90E942F0411E002E90E942F040091B7
:101930009908073011F401E001C000E0109163083C
:10194000011749F000936308E3E6F8E0008100FD29
:101950001B9A00FF1B9800916408077C00936408A1
:1019600000919908000F000F000F10916408100FEC
:101970001093640800917C08002341F410E000E912
:101980000E942F0410E002E90E942F040895089598
:1019900008950091A008002359F400917E08039552
:1019A00000937E0800917E08077000937E08B3DFE5
:1019B00008950091A008002359F400917E080A952B
:1019C00000937E0800917E08077000937E08A3DFD5
:1019D00008958A9300E00093610800E008BF009139
:1019E0009F08033019F400E000939F0880919F083E
:1019F00005E010E00E94A3078823882321F008EC6B
:101A000010E00E94A30701E000936108E4E9F8E018
:101A100000E0008300E0018308E008BF8991089599
:101A2000BA93AA930091A008013021F00091A00878
:101A3000023021F401E00093A30837C00091A00810
:101A4000033061F400915F08002321F401E000936A
:101A50005F082BC000E000935F0827C00091A0083A
:101A6000043019F500919F08039500939F08009199
:101A70007C08002341F011E000E90E942F0411E0EE
:101A800002E90E942F04A5DFEEDE05E010E00E94CF
:101A9000A30700917C08002341F410E000E90E94B4
:101AA0002F0410E002E90E942F0400E013C010E0B0
:101AB000A0E8B2E0ED91FC91E00FF11F3897408172
:101AC00010E0EFE2F2E020813181200F311FF901B7
:101AD00040830395003180F50830C0F420919F08C1
:101AE00030E0220F331FF901E459FD4F208131818D
:101AF00010E0200F311FF901208110E0AFE2B2E0C9
:101B0000ED91FC91E00FF11F2083E3CF10915F086E
:101B1000112369F610E0AEE7B2E0ED91FC91E00F21
:101B2000F11F3897208110E0AFE2B2E0ED91FC9117
:101B3000E00FF11F2083CDCFE1EAF8E000E0008361
:101B400000E0018301E000938208A991B991089512
:101B5000FA93EA934A933A932A931A930A933FB7D4
:101B60004BB707E304BDE9EAF8E0008111810F5F9C
:101B70001F4F008311830091B8081091B908012B01
:101B800041F0E8EBF8E0008111810F5F1F4F008307
:101B900011830091A9081091AA080D3424E01207BE
:101BA00008F452C000E00093A70800E00093A808E2
:101BB00000E00093AD0800E00093AE0800E0009361
:101BC000AB0800E00093AC0800E00093AF0800E031
:101BD0000093B00800E00093B10800E00093B20861
:101BE00000E00093B30800E00093BD0800E000931C
:101BF000C00800E00093BC0800E00093BE0800E0CD
:101C00000093BF0800E00093C10800E00093C20801
:101C100000E00093BB0800E00093A90800E00093F7
:101C2000AA0800E00093C30801E000936008009157
:101C30006008002349F401E00093600800E000938D
:101C4000940800E0009395084BBF3FBF099119919C
:101C5000299139914991E991F991189500E0009302
:101C6000A70800E00093A808EDEAF8E000E0008390
:101C700000E00183EBEAF8E000E0008300E001838C
:101C8000EFEAF8E000E0008300E00183E1EBF8E038
:101C900000E0008300E0018300E00093B30800E06F
:101CA0000093BD0800E00093C00800E00093BC086A
:101CB00000E00093BE0800E00093BF0800E000933E
:101CC000C10800E00093C20800E00093BB0800E0F8
:101CD0000093C3080895BA93AA930091A8080150ED
:101CE00041F00A95E1F00A9581F10A9509F443C0A3
:101CF00057C0EBEAF8E000811181000F111FEBEAF9
:101D0000F8E0008311830091BA0810E0EBEAF8E0F4
:101D100020813181202B312B2083318341C0EDEA9A
:101D2000F8E000811181000F111FEDEAF8E0008357
:101D300011830091BA0810E0EDEAF8E020813181CA
:101D4000202B312B208331832BC0EFEAF8E0008178
:101D50001181000F111FEFEAF8E000831183009159
:101D6000BA0810E0EFEAF8E020813181202B312B16
:101D70002083318315C0E1EBF8E000811181000F71
:101D8000111FE1EBF8E0008311830091BA0810E025
:101D9000E1EBF8E020813181202B312B208331834E
:101DA0000091B30803950093B3080091B30808307D
:101DB00040F00091A80803950093A80800E0009364
:101DC000B3080091A808053008F405C1EBEAF8E073
:101DD000008111810F70107000831183EDEAF8E02B
:101DE000008111810F70107000831183ABEAB8E09D
:101DF000ED91FC91379709F0B1C0ADEAB8E0ED91F3
:101E0000FC913A9709F0AAC0E1EBF8E0008111815A
:101E1000EFEAF8E0208131814FEF242740E03427BA
:101E20000217130709F098C0EFEAF8E00081009369
:101E3000660800918B08002309F48AC0E8EBF8E0FB
:101E400000811181095E1340033F21E01207A8F4CD
:101E5000EFEAF8E000811181003820E0120719F460
:101E60000E94C70C0AC0EFEAF8E000811181083A2D
:101E700020E0120711F40E94C80CE8EBF8E001E042
:101E800010E00083118300E000936008EFEAF8E0BF
:101E900000811181003B20E0120719F40E94150C0B
:101EA00057C0EFEAF8E000811181003820E0120706
:101EB00019F40E94C70C4CC0EFEAF8E000811181D0
:101EC000083A20E0120719F40E94C80C41C0EFEA5A
:101ED000F8E000811181003920E0120719F40E9416
:101EE000C90C36C0EFEAF8E000811181083820E023
:101EF000120719F40E94D90C2BC0EFEAF8E0008118
:101F00001181003A20E0120771F40091A308002328
:101F100021F401E00093A00803C003E00093A008AF
:101F20000E94100D15C0EFEAF8E000811181083918
:101F300020E0120769F40091A308002321F402E0D5
:101F40000093A00803C004E00093A0080E94100DB5
:101F500000E00093C40803C081DE01C07FDE00E022
:101F60000093A70800E00093A808EDEAF8E000E07D
:101F7000008300E00183EBEAF8E000E0008300E08A
:101F80000183EFEAF8E000E0008300E00183E1EB89
:101F9000F8E000E0008300E0018300E00093B30874
:101FA00000E00093BD0800E00093C00800E000934B
:101FB000BC0800E00093BE0800E00093BF0800E00A
:101FC0000093C10800E00093C20800E00093BB0842
:101FD00000E00093C308A991B9910895BA93AA9318
:101FE0000091BD080023E9F10091C0080023C9F168
:101FF0000091A708002309F0BDC001E00093A708E5
:1020000001E00093A80800E00093B40800E000930A
:10201000B708E5EBF8E000E0008300E0018300E0B2
:102020000093BD0800E00093C00800E00093BC08E6
:1020300000E00093BE0800E00093BF0800E00093BA
:10204000C10800E00093C20800E00093BB08E5EC83
:10205000F8E000E0008300E0018300E00093C308A3
:1020600089C00091A708002399F00091BC080023C3
:1020700079F00091BE08002359F000E00093BA08FF
:1020800000E00093BC0800E00093BE0824DE72C0AC
:102090000091A708002399F00091BC08002379F073
:1020A0000091BF08002359F001E00093BA0800E056
:1020B0000093BC0800E00093BF080DDE5BC00091F8
:1020C000A708002381F40091C108002361F001E01A
:1020D0000093BB0800E00093C1080091C30803957A
:1020E0000093C30847C00091BB08002309F442C015
:1020F0000091C2080023F1F100918B080023D1F177
:102100000091C308013081F500E00093C20800E0AF
:1021100000936008E5ECF8E0008111810F5F1F4F2C
:1021200000831183A5ECB8E0ED91FC91339770F03A
:1021300000916608003819F40E94660C1BC00091DB
:102140006608083AB9F40E94490C14C00091660868
:10215000003819F40E94C70C0DC000916608083AB7
:1021600049F40E94C80C06C000E00093C30800E0D8
:1021700000936608A991B99108959A938A93FA9366
:10218000EA933A922A921A920A927A936A935A930B
:102190004A933A932A931A930A938FB79BB70D9B4E
:1021A0001AC0E091A908F091AA083497359720F455
:1021B00001E00093BC0851C0E091A908F091AA0881
:1021C000F797BE9720F401E00093BD0846C001E0F8
:1021D0000093C70842C00D9940C0E091A908F09152
:1021E000AA083497359720F401E00093BE0835C063
:1021F000E091A908F091AA0839973E9720F401E0F0
:102200000093BF082AC0E091A908F091AA08B897E6
:10221000709720F401E00093C0081FC00091A90846
:102220001091AA08085C1040093C20E0120720F435
:1022300001E00093C10811C00091A9081091AA08FB
:1022400000521340093C20E0120720F401E0009303
:10225000C20803C001E00093C70800E00093A9088A
:1022600000E00093AA080091C708002341F000E0B5
:102270000093C70800E00093C208F0DC01C0AEDEA6
:102280009BBF8FBF0991199129913991499159911A
:10229000699179910990199029903990E991F99172
:1022A0008991999118950E94B413C801D90140EB06
:1022B00054E060E070E08C019D010E943212452BD9
:1022C000462B472B19F00FEF1FEF26C0119A199AD2
:1022D0001098189A00E014E224EF30E0AC01BD0140
:1022E0000E9432120E94961240E050E060E871E4D1
:1022F0000E94DA120E944C13015010409801232FC3
:102300002093900009B900E00BB908E90AB906E08A
:102310000093950000E010E0E4E00C94BF135D9B97
:10232000FECF0CB900E010E00895F80102C010E003
:10233000F6DF008131960023D1F708953B2F6A2FF5
:10234000102FA7E6B8E044E6012F0E940312005DBB
:102350000C9344E6012F0E940312202F04E6209FD5
:1023600010194AE0012F0E940312005D11960C9390
:1023700011974AE0012F0E940312202F0AE0209FAC
:102380001019105D12961C9312978D01CEDFA62FA7
:10239000B32F0895402F6BE678E003E01AC0142FA6
:1023A0001F70105D202F30E0FB01E20FF31F108340
:1023B00010E0FB01E00FF11F10811A3338F010E03C
:1023C000FB01E00FF11F1081195F108342954F70E0
:1023D0000A95023020F78B01A8DF08950000889548
:1023E000FECF0FE50DBF01E00EBFC0E4D1E00E94BB
:1023F000C813002311F00E94E9130E94C40B0E942D
:10240000EE110C94EE110024E8E0001FEA952AF08A
:10241000001C0416D0F3041AF8CF402D009508953F
:10242000149F102D059F100D049F002D110D089570
:1024300000241124E0E1001F111FEA9542F0001C66
:10244000111C04161506B8F3041A150AF4CFA001DE
:1024500000951095089536952795179507954A95F7
:10246000D2F70895002411241001E0E2001F111F8B
:10247000221F331FEA9572F0001C111C221C331C12
:10248000041615062606370688F3041A150A260AC6
:10249000370AECCFA001B101009510952095309539
:1024A000089530952095109501951F4F2F4F3F4F60
:1024B0000895FF27172E660F771F089409F4771FDA
:1024C0006795EE27032E220F331F089409F4331F5C
:1024D00027950895222342F0323030F03A95EE0FDE
:1024E000001F111F221FC2F7E03821F400FF0894DB
:1024F0000EF488940F4F1F4F2F4F3F4F323038F458
:10250000332319F427FD31E002C027FF30E03F3FBD
:1025100029F0220F000C37952795089534C0E02F3D
:10252000012F122F232F3EE9E894D4CF0024F7CFB8
:10253000F901EE0FFF1F37FBFF3F31F0EF2BE12BCF
:10254000E02B8894B8940895EE2321F00894989491
:10255000B89408959894889438940895FB01EE0FE8
:10256000FF1F77FBFF3F31F0EF2BE52BE42B889427
:10257000B8940895EE2371F3E9CF302D30782227F7
:102580001127002708953FE7302920E8F9CF3FEFD2
:102590002FEFF6CFE3DF20F01BF070783727089598
:1025A000F6CFDCDFE9F3E0F3032E0726E6CF032EB8
:1025B0000726E9CFBDDFA0F36BF399F3CFDF80F3FC
:1025C0009BF3A9F376DF012427FD06C03150E040DC
:1025D000000F111F221FD2F767FD06C07150F04097
:1025E000440F551F661FD2F7E894371BEF0B315885
:1025F000EF4F2AF0EE23E9F63F3FD9F203C0393E10
:10260000A8F26894E0E0F0E040175107620738F064
:10261000315008F46894000F111F221FEE1F71E063
:102620001124222409C0000F111F221FEE1F0417BE
:1026300015072607EF0720F0041B150B260BEF0BE1
:10264000771F111C221C78F7000F111F221FEE1F8D
:10265000041715072607EF073E2EF0F9E894E0E887
:1026600039F008F4E0E0322A312A302A09F068947F
:10267000709510942094332311F0F0FF09C0269434
:1026800017947795E79508F4689433953130BCF347
:10269000072F112D222D28CF14DF3F5748F03F314F
:1026A00068F007FC6ACF3FE72FEF1FEF0FEF0895A9
:1026B00030E020E0890110E000E00895432F322F40
:1026C000212F102F0E2F4F5141950E942F1207FEE0
:1026D00008950C9451124791179011FA2790379052
:1026E0000895F9DF041B10E000C020E030E000C0D6
:1026F000B8F010FC17C047910790E00FF11F0417C6
:10270000100540E02407340758F436F406910024FD
:10271000F101E01BF0090994E00FF11F27903790B9
:10272000F101099411F4D6F7F1CF31960EF03196FC
:1027300050E060E070E047914B3F48F089F34F3F35
:1027400029F04E3F11F07791679157914791041B03
:10275000150B260B370B39F318F3E7CF9A928A92B1
:102760007A926A925A924A92BA93AA939A938A93C5
:102770000895998488847F806E805D804C80BB81C1
:10278000AA8199818881F0E0EC0FFD1FEF01089587
:1027900001E008950D01D80105C0F90160816D9334
:1027A0002F5F3F4FBA0141505040672BB1F7D00126
:1027B000089520E02D9301501040E1F708953BBFAC
:1027C00026912D93EF5FFF4F3F4F01501040B9F717
:1027D000089548E258E260E0FA01362F3BBF0791C6
:1027E0001691FA01EE5FFF4F3F4F3BBFA791B691A5
:1027F000FA01362FEC5FFF4F3F4F3BBF079017901A
:102800002690202D2129222921F0F001322DD7DF19
:1028100001C0CFDF495F5F4F6F4F18E220E04633C2
:1028200051076207C8F20895110760013628005762
:1028300000710800000046454D544F32205349476F
:102840004E4154555245004331200043322000414F
:102850002020004F3120004F3220004F3320004F06
:102860003420005520200020202020002034342057
:102870000020343820002036342000203838200052
:1028800020393620003132382000313736200031EF
:1028900039322000323536200033353220003338CB
:1028A00034200035313220004631200046322000ED
:1028B00046332000463420004635200046362000AE
:1028C000463720004C00480020494E56455253459B
:1028D0000020204E4F524D414C00205656562000AD
:1028E000204D41582000204D494E20004D55544563
:1028F000200043482053414D20564F4C5520464917
:10290000204F0060013132333435363738393031B9
:1029100032333435360023027101750179017D01AE
:102920008101850189018D01910196019B01A00121
:10293000A501AA01AF01B401B901BE01C301C801DB
:10294000CD01D201D601DA01DE01E201E601EA01A0
:10295000EE01F001F201FB01506F727420696E69A3
:10296000742E0D0A0049324320696E697469616CE6
:10297000697A652E2E0D0A0054696D6572207365A3
:102980007474696E672E0D0A00496E7465727275F3
:1029900070742073657474696E672E0D0A005B494C
:1029A00032435D20414B34313138412053656172EF
:1029B0006368696E672E2E2E0D0A005B4932435DF7
:1029C00020414B343131384120466F756E642E0DF5
:1029D0000A005B4932435D20414B3431313841209C
:1029E0006E6F7420666F756E642E0D0A005B49323F
:1029F000435D2045533930333850524F20536F6672
:102A00007420526573657420636F6D706C657465B6
:102A10002E0D0A005B4932435D204553393033386F
:102A200020553232204C656674204D7574652E0D2C
:102A30000A005B4932435D20455339303338205515
:102A40003232204C656674204D757465204F4B2ED4
:102A50000D0A005B4932435D20455339303338203D
:102A6000553232204C656674204D757465204E4792
:102A70002E0D0A005B4932435D204553393033380F
:102A800020553532205269676874204D7574652E63
:102A90000D0A005B4932435D2045533930333820FD
:102AA000553532205269676874204D757465204F22
:102AB0004B2E0D0A005B4932435D204553393033BC
:102AC0003820553532205269676874204D75746519
:102AD000204E472E0D0A005B4932435D2045533995
:102AE00030333850524F20536561726368696E67A6
:102AF0002E2E2E0D0A005B4932435D20455339309E
:102B0000333850524F207832206E6F7420666F75C4
:102B10006E642E0D0A005B4932435D204553393007
:102B2000333850524F20783220666F756E642E0D08
:102B30000A005B4932435D204553393033385052E7
:102B40004F206F6C6E79206C65667420666F756EB1
:102B5000642E0D0A005B4932435D20455339303302
:102B60003850524F206F6C6E7920726967687420FC
:102B7000666F756E642E0D0A005B4932435D204519
:102B8000533930333850524F204175746F2053659C
:102B90006C6563742066756E6374696F6E20445350
:102BA000442F49325320636F6D706C6574652E0D30
:102BB0000A005B4932435D20455339303338505267
:102BC0004F204368616E6E656C206D617070696E38
:102BD0006720636F6D706C6574652E0D0A005B492C
:102BE00032435D2045533930333850524F20566FB1
:102BF0006C756D65204D617820636F6D706C6574C8
:102C0000652E0D0A005B4932435D20435338343151
:102C10003620496E7075743720746F20474E442EED
:102C20000D0A005B4932435D20455339303338206B
:102C30004D757465204F66662E0D0A005B49324360
:102C40005D20455339303338204453442044504CA0
:102C50004C20486967686573742E0D0A005B5350F9
:102C6000495D20444F54204D617472697820436C53
:102C70006561722E0D0A000D0A53797374656D201B
:102C8000737461727465642E0D0A005379737465F0
:102C90006D20696E697469616C697A696E672E2E40
:102CA0002E2E2E2E0D0A0053797374656D20696ED9
:102CB000697420436F6D706C657465642E0D0A0035
:102CC00053797374656D20696E6974207365204350
:102CD0006F6D706C657465642E0D0A004B6579200C
:102CE000636F6465203D20000D0A005B4553393059
:102CF00033385D204D757465206F6E2E0D0A005BB4
:102D00004553393033385D204D757465206F6666E4
:102D10002E0D0A005B4553393033385D20566F6CF9
:102D2000756D652064656372657365642E202D2062
:102D3000005B4553393033385D20566F6C756D65D7
:102D400020696E6372657365642E202D20005B49D7
:102D500032435D20414B34313138412057616B653E
:102D60002075702E0D0A005B4932435D20434F41B0
:102D700058312053656C65637465642E0D0A0043F9
:102D80006F6D6D206572726F722E0D0A005B493295
:102D9000435D20434F4158322053656C6563746531
:102DA000642E0D0A005B4932435D204145533120BA
:102DB00053656C65637465642E0D0A005B4932438C
:102DC0005D20414553322053656C65637465642E04
:102DD0000D0A005B4932435D20424E432053656C2F
:102DE00065637465642E0D0A005B4932435D204FB4
:102DF0005054312053656C65637465642E0D0A0070
:102E00005B4932435D204F5054322053656C6563FB
:102E10007465642E0D0A005B4932435D20414B34DA
:102E20003131384120506F77657220646F776E2E94
:102E30000D0A005B5341393132375D205553422032
:102E4000417564696F204163746976617465642EAD
:102E50000D0A005B5341393132375D205553422012
:102E6000417564696F204465616374697661746556
:102E7000642E0D0A005B5341393132375D204453D3
:102E800044206D6F64652064657465637465642EA9
:102E90000D0A005B5341393132375D2050434D20DC
:102EA0006D6F64652064657465637465642E0D0AD6
:102EB000005B5341393132375D2044534420313275
:102EC000382064657465637465642E0D0A005B5375
:102ED00041393132375D2044534420363420646513
:102EE0007465637465642E0D0A005B534139313299
:102EF000375D2055534220697320696E206E6F72D2
:102F00006D616C206D6F64652E0D0A005B53413955
:102F10003132375D2055534220697320696E20732A
:102F2000757370656E6465642E0D0A000101010100
:102F3000010101204E0101010101800130303030DA
:072F40000030783030200062
:0023E201FA
:00000001FF
