:100000000C947F10189518951895189518951895B3
:100010000C94D60C189518950C94BC080C94B30C41
:100020000C94900C189518950C94B5051895189586
:1000300018951895189518950C941D0E18951895E7
:100040000C944B0D189518951895189518951895AA
:100050001895189518951895189518951895189538
:100060001895189518951895189518951895189528
:100070001895189518951895189518951895189518
:10008000189518951895189518951895980189013F
:1000900001501040232BD1F70895B80140E004C06F
:1000A00000E81EE3F3DF4395FB01319650E0E417CF
:1000B000F507B0F708950E941112C801D90140EB6D
:1000C00054E060E070E08C019D010E94D810452B47
:1000D000462B472B19F00FEF1FEF26C0119A199AE4
:1000E0001098189A00E014E224EF30E0AC01BD0152
:1000F0000E94D8100E943C1140E050E060E871E49A
:100100000E9480110E94F211015010409801232F8B
:100110002093900009B900E00BB908E90AB906E09C
:100120000093950000E010E0E4E00C9416125D9B53
:10013000FECF0CB900E010E00895F80102C010E015
:10014000F6DF008131960023D1F708953B2F6A2F07
:10015000102FA0E6B1E044E6012F0E949110005D4F
:100160000C9344E6012F0E949110202F04E6209F5B
:1001700010194AE0012F0E949110005D11960C9316
:1001800011974AE0012F0E949110202F0AE0209F32
:100190001019105D12961C9312978D01CEDFA62FB9
:1001A000B32F0895E4E6F1E0102F12951F70105D53
:1001B0001283102F12951F701A3018F01281195FD8
:1001C0001283102F1F70105D13830F700A3018F008
:1001D0000381095F03838F01B0DF0895219741E018
:1001E00050E09E010E9450100881219608952197A9
:1001F000288341E050E09E010E943010219608952E
:100200008A93229780E041E050E09E012F5F3F4FAC
:1002100010E400E90E94501041E050E09E0110E41B
:1002200002E90E94501009810C7F083A09F48160AC
:1002300008810C7F083A09F48260082F2296899180
:1002400008959A938A93802F912F17E0082FC6DF85
:10025000202F992311F0216001C02E7F17E0082F75
:10026000C6DF8991999108951F73212F15E0BFDF93
:10027000089500E001C003950830E8F308959798C9
:1002800000E00093B60408951C0160E0979A009185
:10029000620008600093620070E005C000E416E0B0
:1002A000F5DE60E07395723008F0CCC080E00AC0E3
:1002B0000091650002600093650000E110E0E6DE59
:1002C00063958395883050F7662381F4009162002E
:1002D0000B7F00936200009162000D7F009362002B
:1002E000009162000E7F009362007DC0613081F456
:1002F000009162000B7F00936200009162000D7F0D
:1003000000936200009162000160009362006BC084
:10031000623081F4009162000B7F009362000091D3
:100320006200026000936200009162000E7F009301
:10033000620059C0633081F4009162000B7F00932A
:10034000620000916200026000936200009162000E
:1003500001600093620047C0643081F40091620044
:10036000046000936200009162000D7F00936200C0
:10037000009162000E7F0093620035C0653081F409
:1003800000916200046000936200009162000D7FA2
:10039000009362000091620001600093620023C03C
:1003A000663081F400916200046000936200009165
:1003B0006200026000936200009162000E7F009371
:1003C000620011C0673079F400916200046000930C
:1003D000620000916200026000936200009162007E
:1003E000016000936200772311F0AF9805C000917F
:1003F00065000D7F0093650008E010E047DE009186
:1004000065000B7F0093650008E010E03FDE072FDA
:1004100010E048E050E00E949E1090E0080F191F85
:10042000F801E358FA4F00810BBB00E110E02EDE2B
:1004300000916500046000936500772309F438CFCC
:10044000AF9A3BCFC1010895502F40E036C04730EE
:1004500079F40091620004600093620000916200F0
:1004600002600093620000916200016000936200EC
:1004700008E010E00BDE009165000D7F0093650041
:1004800008E010E003DE009165000B7F009365003B
:1004900008E010E0FBDD5BBB00E110E0F7DD009160
:1004A00065000460009365000091650002600093A0
:1004B000650000E110E0EADD4395483008F085C0B2
:1004C000979A00916200077F00936200442381F4B1
:1004D000009162000B7F00936200009162000D7F2B
:1004E00000936200009162000E7F00936200C0CF13
:1004F000413081F4009162000B7F00936200009113
:1005000062000D7F00936200009162000160009321
:100510006200AECF423081F4009162000B7F009305
:10052000620000916200026000936200009162002C
:100530000E7F009362009CCF433081F400916200F3
:100540000B7F0093620000916200026000936200E2
:10055000009162000160009362008ACF443081F410
:1005600000916200046000936200009162000D7FC0
:1005700000936200009162000E7F0093620078CFCA
:10058000453081F4009162000460009362000091A4
:1005900062000D7F00936200009162000160009391
:1005A000620066CF463009F052CF009162000460CD
:1005B000009362000091620002600093620000916B
:1005C00062000E7F0093620053CF40E02EC04730A0
:1005D00079F400916200046000936200009162006F
:1005E000026000936200009162000160009362006B
:1005F00008E010E04BDDAF9808E010E047DD009127
:1006000065000B7F0093650008E010E03FDD5BBBF9
:1006100000E110E03BDD009165000460009365009F
:10062000AF9A00E110E032DD4395483008F085C014
:10063000979A00916200077F00936200442381F43F
:10064000009162000B7F00936200009162000D7FB9
:1006500000936200009162000E7F00936200C8CF99
:10066000413081F4009162000B7F009362000091A1
:1006700062000D7F009362000091620001600093B0
:100680006200B6CF423081F4009162000B7F00938C
:1006900062000091620002600093620000916200BB
:1006A0000E7F00936200A4CF433081F4009162007A
:1006B0000B7F009362000091620002600093620071
:1006C0000091620001600093620092CF443081F497
:1006D00000916200046000936200009162000D7F4F
:1006E00000936200009162000E7F0093620080CF51
:1006F000453081F400916200046000936200009133
:1007000062000D7F0093620000916200016000931F
:1007100062006ECF463009F05ACF0091620004604B
:1007200000936200009162000260009362000091F9
:1007300062000E7F009362005BCF0895102F00913E
:10074000BA04002369F40DE400938D0505E50093D8
:100750008E0504E500938F0505E4009390054BC0DA
:10076000112369F400E200938D0501E300938E05E7
:1007700000E300938F0500E3009390053CC01F3F0A
:1007800069F400E300938D0500E300938E050EE20B
:1007900000938F0500E3009390052DC034E108EC31
:1007A000011B102F20E016C0012F432F0E94911033
:1007B000005D422F50E0FA01E357FA4F0083012F0A
:1007C000432F0E949110142F4AE0032F0E94911092
:1007D000302F2395223040F3112339F00EE200939D
:1007E0008F0505E30093900506C00EE200938F0588
:1007F00000E30093900520E00BC030E0F901E357DF
:10080000FA4F008130E0F901E358FA4F048723954D
:10081000243098F339DD089500917405002319F50B
:100820000091BA04002321F401E00093BA0403C04C
:1008300000E00093BA040091BA04002311F411E01F
:1008400001C010E00091BB040E7C010F0093BB04BB
:100850001091BA0400E9F5DC1091BA0402E9F1DC68
:100860000091B8046BDF089508958A9380E00DC06D
:100870002091B804182F1A5E00E9B9DC2091B80461
:10088000182F1A5E02E9B3DC8395883088F38991CA
:10089000089508950895009174050023B9F4109106
:1008A000B8040091B804053C30F40091B8040D5F21
:1008B0000093B80403C00FEF0093B8040091B8048C
:1008C000101721F0D2DF0091B80438DF08950091AD
:1008D00074050023F9F41091B8040091B8040F3F97
:1008E00021F407EC0093B8040DC00091B804033064
:1008F00030F00091B80403500093B80403C000E046
:100900000093B8040091B804101721F0AEDF0091F5
:10091000B80414DF0895009174050023E1F40091F8
:10092000BA04002309F478DF1091B8040091B804E8
:10093000073C30F40091B80403950093B80403C059
:100940000FEF0093B8040091B804101721F08DDF69
:100950000091B804F3DE089500917405002301F5B9
:100960000091BA04002309F457DF1091B8040091F4
:10097000B8040F3F21F407EC0093B80409C00091BC
:10098000B804002329F00091B8040A950093B80434
:100990000091B804101721F068DF0091B804CEDE92
:1009A000089500917005073011F401E001C000E0E6
:1009B0001091B904011749F00093B904E9EBF4E090
:1009C000008100FD1B9A00FF1B980091D404077C56
:1009D0000093D40400917005000F000F000F1091D8
:1009E000D404100F1093D4040091BA04002331F002
:1009F00010E000E926DC10E002E923DC0895009114
:100A00007405002371F400917005073030F40091F3
:100A1000700503950093700503C000E00093700516
:100A2000C0DF089500917405002371F400917005F2
:100A3000002331F0009170050A950093700503C002
:100A400007E000937005ADDF0895082E00E00093E5
:100A5000B50400E008BF00917305033019F400E00D
:100A6000009373058091730505E010E00E944D002E
:100A70008823882321F008EC10E00E944D0001E05B
:100A80000093B504EBE6F5E000E0008300E00183AD
:100A900008E008BF802D089500917405013021F011
:100AA00000917405023021F401E00093770520C025
:100AB00000917405033069F40091B304002321F41C
:100AC00001E00093B30403C000E00093B304CCDE64
:100AD0000FC000917405043059F40091730503951B
:100AE00000937305B2DFC1DE05E010E00E944D0007
:100AF00020E00BC030E0F901E95BFA4F008130E003
:100B0000F901E358FA4F00832395203130F528305E
:100B1000A8F40091730510E048E050E00E949E1098
:100B2000EFE2F5E0E00FF11F30E0E20FF31F00818C
:100B300030E0F901E358FA4F0083E6CF0091B304A7
:100B40000023C1F630E0F901E15CFA4F008130E0AA
:100B5000F901E358FA4F0083D7CFE5E7F5E000E06D
:100B6000008300E0018390DB0895FA93EA934A93AF
:100B70003A932A931A930A933FB74BB707E304BDFE
:100B8000E3E9F5E0008111810F5F1F4F00831183BE
:100B90000091A2051091A305012B41F0E2EAF5E0D6
:100BA000008111810F5F1F4F008311830091930516
:100BB000109194050D3424E0120708F452C000E0AF
:100BC0000093910500E00093920500E000939705E3
:100BD00000E00093980500E00093950500E0009385
:100BE000960500E00093990500E000939A0500E067
:100BF00000939B0500E000939C0500E000939D0599
:100C000000E00093A70500E00093AA0500E0009330
:100C1000A60500E00093A80500E00093A90500E008
:100C20000093AB0500E00093AC0500E00093A50540
:100C300000E00093930500E00093940500E000932A
:100C4000AD0501E00093B4040091B404002349F41D
:100C500001E00093B40400E000936B0500E0009312
:100C60006C054BBF3FBF0991199129913991499169
:100C7000E991F991189500E00093910500E0009347
:100C80009205E7E9F5E000E0008300E00183E5E993
:100C9000F5E000E0008300E00183E9E9F5E000E031
:100CA000008300E00183EBE9F5E000E0008300E071
:100CB000018300E000939D0500E00093A70500E09C
:100CC0000093AA0500E00093A60500E00093A805A4
:100CD00000E00093A90500E00093AB0500E000935D
:100CE000AC0500E00093A50500E00093AD05089574
:100CF000BA93AA9300919205015041F00A95E1F050
:100D00000A9581F10A9509F443C057C0E5E9F5E079
:100D100000811181000F111FE5E9F5E000831183C7
:100D20000091A40510E0E5E9F5E020813181202B58
:100D3000312B2083318341C0E7E9F5E00081118147
:100D4000000F111FE7E9F5E0008311830091A4056E
:100D500010E0E7E9F5E020813181202B312B208361
:100D600031832BC0E9E9F5E000811181000F111FEB
:100D7000E9E9F5E0008311830091A40510E0E9E9B9
:100D8000F5E020813181202B312B2083318315C068
:100D9000EBE9F5E000811181000F111FEBE9F5E0AF
:100DA000008311830091A40510E0EBE9F5E02081B8
:100DB0003181202B312B2083318300919D050395B8
:100DC00000939D0500919D05083040F0009192052B
:100DD00003950093920500E000939D050091920514
:100DE000053008F4FCC0E5E9F5E0008111810F70E1
:100DF000107000831183E7E9F5E0008111810F7025
:100E0000107000831183A5E9B5E0ED91FC9137974F
:100E100009F0A8C0A7E9B5E0ED91FC913A9709F077
:100E2000A1C0EBE9F5E000811181E9E9F5E020815D
:100E300031814FEF242740E034270217130709F0D0
:100E40008FC0E9E9F5E00081009357050091600546
:100E5000002309F481C0E2EAF5E000811181095E16
:100E60001340033F21E0120798F4E9E9F5E000811F
:100E70001181003820E0120711F46EDD09C0E9E9A4
:100E8000F5E000811181083A20E0120709F443DD02
:100E9000E2EAF5E001E010E00083118300E0009356
:100EA000B404E9E9F5E000811181003B20E012077C
:100EB00011F4B2DC51C0E9E9F5E00081118100389C
:100EC00020E0120711F448DD47C0E9E9F5E00081B0
:100ED0001181083A20E0120711F41DDD3DC0E9E957
:100EE000F5E000811181003920E0120711F487DD5F
:100EF00033C0E9E9F5E000811181083820E01207EC
:100F000011F490DD29C0E9E9F5E000811181003A92
:100F100020E0120769F400917705002321F401E035
:100F20000093740503C003E000937405B5DD14C09D
:100F3000E9E9F5E000811181083920E0120761F448
:100F400000917705002321F402E00093740503C0AB
:100F500004E000937405A0DD00E00093AE0503C03B
:100F60008ADE01C088DE00E00093910500E0009376
:100F70009205E7E9F5E000E0008300E00183E5E9A0
:100F8000F5E000E0008300E00183E9E9F5E000E03E
:100F9000008300E00183EBE9F5E000E0008300E07E
:100FA000018300E000939D0500E00093A70500E0A9
:100FB0000093AA0500E00093A60500E00093A805B1
:100FC00000E00093A90500E00093AB0500E000936A
:100FD000AC0500E00093A50500E00093AD05A991E4
:100FE000B9910895BA93AA930091A7050023E9F156
:100FF0000091AA050023C9F100919105002309F091
:10100000B8C001E00093910501E00093920500E073
:1010100000939E0500E00093A105EFE9F5E000E0F4
:10102000008300E0018300E00093A70500E0009347
:10103000AA0500E00093A60500E00093A80500E0E3
:101040000093A90500E00093AB0500E00093AC0518
:1010500000E00093A505EFEAF5E000E0008300E082
:10106000018300E00093AD0584C000919105002349
:1010700099F00091A605002379F00091A8050023BE
:1010800059F000E00093A40500E00093A60500E0FD
:101090000093A8052DDE6DC000919105002399F005
:1010A0000091A605002379F00091A905002359F0CD
:1010B00001E00093A40500E00093A60500E0009382
:1010C000A90516DE56C000919105002381F4009118
:1010D000AB05002361F001E00093A50500E000935B
:1010E000AB050091AD0503950093AD0542C000919D
:1010F000A5050023F1F10091AC050023D1F1009189
:1011000060050023B1F10091AD05013061F500E00B
:101110000093AC0500E00093B404EFEAF5E0008131
:1011200011810F5F1F4F00831183AFEAB5E0ED918E
:10113000FC91339760F000915705003811F4C7DB3C
:1011400018C000915705083AA1F4A5DB12C0009120
:101150005705003811F400DC0CC000915705083A1F
:1011600041F4D9DB06C000E00093AD0500E0009338
:101170005705A991B99108959A938A93FA93EA939E
:101180003A922A921A920A927A936A935A934A93BB
:101190003A932A931A930A938FB79BB70D9B1AC061
:1011A000E0919305F09194053497359720F401E090
:1011B0000093A60551C0E0919305F0919405F7972F
:1011C000BE9720F401E00093A70546C001E000931C
:1011D000B10542C00D9940C0E0919305F09194058E
:1011E0003497359720F401E00093A80535C0E091CD
:1011F0009305F091940539973E9720F401E0009310
:10120000A9052AC0E0919305F0919405B8977097CD
:1012100020F401E00093AA051FC0009193051091EE
:101220009405085C1040093C20E0120720F401E01E
:101230000093AB0511C000919305109194050052E5
:101240001340093C20E0120720F401E00093AC05B4
:1012500003C001E00093B10500E00093930500E0B6
:10126000009394050091B105002341F000E0009344
:10127000B10500E00093AC05FEDC01C0B3DE9BBF0E
:101280008FBF09911991299139914991599169918A
:1012900079910990199029903990E991F991899162
:1012A000999118959A938A93A897812F48E250E0D4
:1012B0009E0101600E940F10FE0190E0E80FF91FEF
:1012C0000081A8968991999108959A938A9316E23C
:1012D00000E2E8DF902F17E200E2E4DF802F18E25F
:1012E00000E2E0DF9C7F992311F000E00BC08C7FCF
:1012F000882311F000E006C00C7F003411F000E0FC
:1013000001C001E089919991089509E611E00E94D8
:101310009D000FEF0ABB0DEB07BB0FEF04BB03E80B
:1013200001BB0AE002B90FE0009361000FE10093F6
:10133000640000E00BBB0FE708BB0FEF05BB0FEF2E
:1013400002BB0FEF03B900EF009362000EE10093C0
:10135000650006E711E00E949D000E94B70F09E8B2
:1013600011E00E949D0003E003BF05E00EBD02E016
:1013700005BD07E304BD05E002BF04EE19EF1DBD86
:101380000CBD00E001BF05E407BF05E406BF0AE9A4
:1013900011E00E949D000CEF09BF00EA00936A0073
:1013A00005E50ABF0CEF08BF0FEA11E00E949D009F
:1013B0008CDF002329F00CEC11E00E949D0004C09A
:1013C00003EE11E00E949D000EEF11E00E949D00CF
:1013D0000E940001002329F40DE112E00E949D000B
:1013E00014C0033029F40DE312E00E949D000DC0EB
:1013F000013029F409E512E00E949D0006C0023088
:1014000021F40CE712E00E949D0000EA12E00E9425
:101410009D000EEB12E00E949D0021E417E000E920
:101420000E94F70017E000E90E94EE00013429F461
:101430000CED12E00E949D0004C00DEF12E00E942E
:101440009D000EE113E00E949D0021E417E002E9F7
:101450000E94F70017E002E90E94EE00013429F42F
:101460000DE313E00E949D0004C00FE513E00E940D
:101470009D0001E813E00E949D000E943F017894C6
:1014800000E007C010E0F801E358FA4F10E21083C3
:1014900003950031B8F300E00093710500E000937C
:1014A000720501E000937C0508959A938A9300EAFF
:1014B00012E00E949D000BE913E00E949D0011E0E4
:1014C00000E90E9421010AEB13E00E949D0011E057
:1014D00002E90E9421018F3F00E0900741F405E0FE
:1014E00010E00E944D0005E010E00E944D000091C8
:1014F000B4051091B505010F00935F0500915F05DC
:101500001091B6050117D9F40091B40510E0E2EB93
:10151000F5E000831183E2EBF5E00081102F00E09D
:10152000E2EBF5E0008311830091B50510E0E2EBFA
:10153000F5E020813181200F311F20833183E2EBE0
:10154000F5E000811181E9E5F5E000831183E9E52B
:10155000F5E0008111810F3F27E01207F0F5EBE580
:10156000F5E0008111812281322F212F102F00E020
:10157000EBE5F5E00083118322833383EBE5F5E0AF
:10158000008111812281322F212F102F00E0EBE505
:10159000F5E00083118322833383803800E09007D5
:1015A00078F4082F02950F7000937005082F0695A8
:1015B000077000937305082F01700093B30419C0DE
:1015C0000FEF0093B80400E00093700500E0009373
:1015D000730501E00093B3040CC00FEF0093B8044F
:1015E00000E00093700500E00093730501E00093B4
:1015F000B304D7D918E700E90E94340118E702E9DB
:101600000E94340132D90AE010E00E944D002CD92A
:101610000AE010E00E944D0018DA979A01E000936A
:10162000B6040091650001600093650003E00E942C
:101630002402C79A89919991089500917005073005
:1016400021F000916205002351F40091620500230E
:1016500009F443C100916105002309F03EC108ED82
:1016600013E00E949D00E8E7F5E00081102F00E004
:10167000E8E7F5E000831183EAE7F5E00081102F49
:1016800000E0EAE7F5E00083118304EF13E00E9435
:101690009D00E0EDF4E000811181E8E7F5E02081B4
:1016A00031810217130758F4E8E7F5E00081118152
:1016B000E2EDF4E02081318102171307B0F0E0ED94
:1016C000F4E000811181EAE7F5E020813181021721
:1016D000130778F4EAE7F5E000811181E2EDF4E028
:1016E000208131810217130720F405E00093B7042D
:1016F000F7C0ECECF4E000811181E8E7F5E020812F
:1017000031810217130758F4E8E7F5E000811181F1
:10171000EEECF4E02081318102171307B0F0ECEC1D
:10172000F4E000811181EAE7F5E0208131810217C0
:10173000130778F4EAE7F5E000811181EEECF4E0BC
:10174000208131810217130720F404E00093B704CD
:10175000C7C0E8ECF4E000811181E8E7F5E0208102
:1017600031810217130758F4E8E7F5E00081118191
:10177000EAECF4E02081318102171307B0F0E8ECC5
:10178000F4E000811181EAE7F5E020813181021760
:10179000130778F4EAE7F5E000811181EAECF4E060
:1017A000208131810217130720F403E00093B7046E
:1017B00097C0E4ECF4E000811181E8E7F5E02081D6
:1017C00031810217130758F4E8E7F5E00081118131
:1017D000E6ECF4E02081318102171307B0F0E4EC6D
:1017E000F4E000811181EAE7F5E020813181021700
:1017F000130778F4EAE7F5E000811181E6ECF4E004
:10180000208131810217130720F402E00093B7040E
:1018100067C0E0ECF4E000811181E8E7F5E02081A9
:1018200031810217130758F4E8E7F5E000811181D0
:10183000E2ECF4E02081318102171307B0F0E0EC14
:10184000F4E000811181EAE7F5E02081318102179F
:10185000130778F4EAE7F5E000811181E2ECF4E0A7
:10186000208131810217130720F401E00093B704AF
:1018700037C0ECEBF4E000811181E8E7F5E020816E
:1018800031810217130758F4E8E7F5E00081118170
:10189000EEEBF4E02081318102171307B0F0ECEB9E
:1018A000F4E000811181EAE7F5E02081318102173F
:1018B000130778F4EAE7F5E000811181EEEBF4E03C
:1018C000208131810217130720F400E00093B70450
:1018D00007C006E00093B70403C006E00093B70416
:1018E0000091B704063021F401E00093650503C0C0
:1018F00000E00093650500916505109166050117EC
:1019000071F000916505009366050091660500235E
:1019100019F40091B80401C000EE0E943901089545
:10192000FA93EA935A934A933A932A931A930A930F
:101930004FB75BB700916905002351F00F9B04C0BE
:1019400001E00093610503C000E00093610575DECE
:101950005BBF4FBF099119912991399149915991D3
:10196000E991F9911895FA93EA935A934A933A9325
:101970002A931A930A934FB75BB700916905002326
:1019800051F00E9B04C001E00093620503C000E02B
:101990000093620552DE5BBF4FBF099119912991F7
:1019A000399149915991E991F99118959A938A93AE
:1019B000FA93EA933A922A921A920A927A936A9343
:1019C0005A934A933A932A931A930A938FB79BB7E1
:1019D00000E000E000936A0500E086990395000F9F
:1019E00010E085991395010F000F10E0849913956D
:1019F000010F109169051123D9F1013019F40E94EA
:101A0000120533C0023019F40E94AC042EC003301A
:101A100019F40E940C0429C0043019F40E94FF0438
:101A200024C0053019F40E948B041FC0063071F4E5
:101A300000917705002321F401E00093740503C0B1
:101A400003E0009374050E944C050FC0073069F451
:101A500000917705002321F402E00093740503C090
:101A600004E0009374050E944C0501E000936A05B0
:101A70009BBF8FBF09911991299139914991599132
:101A8000699179910990199029903990E991F9918A
:101A90008991999118959A938A93FA93EA933A9235
:101AA0002A921A920A927A936A935A934A933A9391
:101AB0002A931A930A938FB79BB705E002BF009150
:101AC0006D05039500936D0500916905002309F4E8
:101AD000A1C0009174050023B9F000917505109123
:101AE0007605013727E1120730F000E00093740516
:101AF00000E000937705E5E7F5E0008111810F5FD5
:101B00001F4F0083118386C00091B9051091BA055B
:101B1000083C20E0120709F040C020E00BC030E094
:101B2000F901EF57FA4F008130E0F901E358FA4F1D
:101B300000832395203170F52630A8F400917005BC
:101B400010E046E050E00E949E10E5EDF4E0E00F6A
:101B5000F11F30E0E20FF31F008130E0F901E3589C
:101B6000FA4F0083E6CF2C30D0F6EFEFF4E030E010
:101B7000E20FF31F0091B70410E046E050E00E942E
:101B80009E10E00FF11F008130E0F901E358FA4F99
:101B90000083CFCF0E94440135C00091B905109158
:101BA000BA05003223E0120769F500916105009340
:101BB000630500916205009364050F9B04C001E07A
:101BC0000093610503C000E0009361050E9B04C013
:101BD00001E00093620503C000E0009362050091FC
:101BE000630510916105011731F4009164051091AE
:101BF0006205011709F021DD00E00093B90500E05E
:101C00000093BA05E9EBF5E0008111810F5F1F4FEA
:101C1000008311839BBF8FBF09911991299139913D
:101C20004991599169917991099019902990399028
:101C3000E991F9918991999118959A938A93FA93D8
:101C4000EA933A922A921A920A927A936A935A9350
:101C50004A933A932A931A930A938FB79BB700E05B
:101C600002EF1CEF1DBD0CBD00917C05002309F4A3
:101C700083C000917C050F3128F400917C05039509
:101C800000937C0500917C050A3011F40EDC1DC028
:101C900000917C050E31C9F40EEC0093BB04009159
:101CA000B8040E94490402E310E00E944D00009134
:101CB000B8040E944A040091B8040E949E0301E007
:101CC0000093690501E00093600500916905002318
:101CD00009F452C083993AC000916A05013051F469
:101CE000E0916705F0916805369720F002E00093D7
:101CF0006A0520C000916A050230E1F4E0916705B1
:101D0000F09168053797B0F000E086990395000FD1
:101D100010E085991395010F000F10E08499139539
:101D2000010F023019F40E94AC0404C0053011F414
:101D30000E948B0400E000935805E7E6F5E000817F
:101D400011810F5F1F4F0083118316C000E00093C5
:101D50006A0500E00093670500E0009368050091C4
:101D60005805002349F401E00093580500E0009372
:101D70006B0500E000936C05EEE6F5E00081118153
:101D80000F5F1F4F008311839BBF8FBF0991199174
:101D900029913991499159916991799109901990B5
:101DA00029903990E991F9918991999118959A938F
:101DB0008A93A997789400E011EE20E030E00E9429
:101DC0005B000CE114E00E949D0000E314E00E941F
:101DD0009D009BDA0CE414E00E949D0080E090E0FE
:101DE00005C005E614E00E949D000196843600E0DF
:101DF0009007DCF4082F0E94A60005E614E00E947C
:101E00009D00182F00E90E94EE000E94D2008C0174
:101E10000F5F1F4F48E050E00E94B910452B09F7B3
:101E200007E614E00E949D00E0CF0AE614E00E945D
:101E30009D0080E090E005C005E614E00E949D0052
:101E40000196893200E09007D4F4082F0E94A60082
:101E500005E614E00E949D00182F00E223DA0E949C
:101E6000D2008C010F5F1F4F48E050E00E94B91074
:101E7000452B11F707E614E00E949D00E1CF0FE625
:101E800014E00E949D0080E090E006C0FE01E80F93
:101E9000F91F00E000830196893200E09007B4F357
:101EA00049E250E09E0101E20E940F1080E090E0C4
:101EB00005C005E614E00E949D000196893200E00D
:101EC0009007DCF4082F0E94A60005E614E00E94AB
:101ED0009D00FE01E80FF91F00810E94D2008C01D5
:101EE0000F5F1F4F48E050E00E94B910452B09F7E3
:101EF00007E614E00E949D00E0CF0AE614E00E948D
:101F00009D000FC000E0E8EBF5E0108111700123A7
:101F1000002339F000E00093B8050AE914E00E94BC
:101F20009D00B69BC798B59B04C001E00093B70520
:101F300003C000E00093B7050091B805002311F439
:101F400001E001C000E0E7EBF5E010811170102323
:101F5000112339F001E00093B80503E814E00E9472
:101F60009D000091B705002369F601E0CCCF08E49D
:101F700000937000089510E01093740014EA109319
:101F8000740010917400212F27FFFBCF1091710076
:101F9000187F183011F001E008950093730004E8F1
:101FA0000093740000917400102F17FFFBCF009175
:101FB0007100087F083121F0003411F001E008952C
:101FC00000E008950093730004E80093740000910A
:101FD0007400102F17FFFBCF00917100087F0832AB
:101FE00011F001E0089500E0089504EC00937400FE
:101FF00000917400102F17FFFBCF0091730008951C
:1020000004E80093740000917400102F17FFFBCFB9
:1020100000917300089504E90093740008950E94EC
:102020001112D9010160A7DF002311F001E015C0F2
:1020300080E090E006C0D9DFFD01E80FF91F0083C2
:102040000196FA0131978E179F07A8F3D9DFA40FE5
:10205000B51F11970C93DFDF00E0E4E00C9416123B
:10206000192E282E012EB90186DF002311F001E080
:1020700014C0002DA7DF80E090E001C00196841716
:10208000950748F4FB01E80FF91F00819BDF00234F
:10209000A9F301E002C0BFDF00E0822D912D089579
:1020A0000E941112602F712FD901062F64DF0023C7
:1020B00011F001E01EC0072F85DF6160062F5BDF96
:1020C000002311F001E015C080E090E006C08DDF34
:1020D000FD01E80FF91F00830196FA0131978E1771
:1020E0009F07A8F38DDFA40FB51F11970C9393DF03
:1020F00000E0E4E00C94161200008895FECF0FE596
:102100000DBF01E00EBFC0E4D1E00E941F1200230A
:1021100011F00E9431120E94D70E0E947C100C9484
:102120007C100024E8E0001FEA952AF0001C041649
:10213000D0F3041AF8CF402D00950895149F102D68
:10214000059F100D049F002D110D089500241124EA
:10215000E0E1001F111FEA9542F0001C111C04165B
:102160001506B8F3041A150AF4CFA00100951095CE
:102170000895FF27552312F4F1600FD0112312F4B4
:10218000F09507D00E94A610F0FD03D0F1FD05C028
:10219000089511950195104008955195419550402D
:1021A000089536952795179507954A95D2F708957E
:1021B000002411241001E0E2001F111F221F331F11
:1021C000EA9572F0001C111C221C331C0416150623
:1021D0002606370688F3041A150A260A370AECCFB2
:1021E000A001B10100951095209530950895309586
:1021F0002095109501951F4F2F4F3F4F0895FF27B2
:10220000172E660F771F089409F4771F6795EE273E
:10221000032E220F331F089409F4331F27950895C6
:10222000222342F0323030F03A95EE0F001F111F9A
:10223000221FC2F7E03821F400FF08940EF48894BE
:102240000F4F1F4F2F4F3F4F323038F4332319F4C5
:1022500027FD31E002C027FF30E03F3F29F0220F89
:10226000000C37952795089534C0E02F012F122FC9
:10227000232F3EE9E894D4CF0024F7CFF901EE0FE5
:10228000FF1F37FBFF3F31F0EF2BE12BE02B889452
:10229000B8940895EE2321F008949894B894089582
:1022A0009894889438940895FB01EE0FFF1F77FBF4
:1022B000FF3F31F0EF2BE52BE42B8894B894089581
:1022C000EE2371F3E9CF302D307822271127002734
:1022D00008953FE7302920E8F9CF3FEF2FEFF6CF01
:1022E000E3DF20F01BF0707837270895F6CFDCDFAE
:1022F000E9F3E0F3032E0726E6CF032E0726E9CF06
:10230000BDDFA0F36BF399F3CFDF80F39BF3A9F369
:1023100076DF012427FD06C03150E040000F111F79
:10232000221FD2F767FD06C07150F040440F551FC1
:10233000661FD2F7E894371BEF0B3158EF4F2AF0A6
:10234000EE23E9F63F3FD9F203C0393EA8F2689484
:10235000E0E0F0E040175107620738F0315008F430
:102360006894000F111F221FEE1F71E01124222418
:1023700009C0000F111F221FEE1F041715072607A3
:10238000EF0720F0041B150B260BEF0B771F111C1A
:10239000221C78F7000F111F221FEE1F04171507CC
:1023A0002607EF073E2EF0F9E894E0E839F008F44C
:1023B000E0E0322A312A302A09F0689470951094AE
:1023C0002094332311F0F0FF09C0269417947795D9
:1023D000E79508F4689433953130BCF3072F112D3D
:1023E000222D28CF14DF3F5748F03F3168F007FC1B
:1023F0006ACF3FE72FEF1FEF0FEF089530E020E0A7
:10240000890110E000E00895432F322F212F102F73
:102410000E2F4F5141950E94D51007FE08950C9440
:10242000F710BA93AA939A938A930895BB81AA81CD
:1024300099818881F0E0EC0FFD1FEF01089501E024
:10244000089520E02D9301501040E1F708953BBF1F
:1024500026912D93EF5FFF4F3F4F01501040B9F78A
:10246000089548EB54E260E0FA01362F3BBF079134
:102470001691FA01EE5FFF4F3F4F3BBFA791B69118
:10248000FA01362FEC5FFF4F3F4F3BBF079017908D
:102490002690202D2129222921F0F001322DD7DF8D
:1024A00001C0CFDF495F5F4F6F4F14E220E0463C31
:1024B00051076207C8F20895F9036001C62400625B
:1024C00000590500000030303000307830300050C6
:1024D0006F727420696E69742E0D0A0049324320B0
:1024E000696E697469616C697A652E2E0D0A0054F3
:1024F000696D65722073657474696E672E0D0A00CC
:10250000496E746572727570742073657474696E47
:10251000672E0D0A005B4932435D20414B34313157
:10252000384120536561726368696E672E2E2E0DE7
:102530000A005B4932435D20414B34313138412040
:10254000466F756E642E0D0A005B4932435D204173
:102550004B3431313841206E6F7420666F756E6474
:102560002E0D0A005B4932435D2045533930333824
:1025700050524F20536561726368696E672E2E2E2C
:102580000D0A005B4932435D2045533930333850E2
:10259000524F207832206E6F7420666F756E642EF5
:1025A0000D0A005B4932435D2045533930333850C2
:1025B000524F20783220666F756E642E0D0A005BD4
:1025C0004932435D2045533930333850524F206FE4
:1025D0006C6E79206C65667420666F756E642E0D66
:1025E0000A005B4932435D2045533930333850523D
:1025F0004F206F6C6E7920726967687420666F7502
:102600006E642E0D0A005B4932435D20435338341B
:10261000313620496E7075743720746F20474E44F0
:102620002E0D0A005B4932435D2045533930333863
:1026300020553232204C656674204D7574652E0D20
:102640000A005B4932435D20455339303338205509
:102650003232204C656674204D757465204F4B2EC8
:102660000D0A005B4932435D204553393033382031
:10267000553232204C656674204D757465204E4786
:102680002E0D0A005B4932435D2045533930333803
:1026900020553532205269676874204D7574652E57
:1026A0000D0A005B4932435D2045533930333820F1
:1026B000553532205269676874204D757465204F16
:1026C0004B2E0D0A005B4932435D204553393033B0
:1026D0003820553532205269676874204D7574650D
:1026E000204E472E0D0A005B5350495D20444F5445
:1026F000204D617472697820436C6561722E0D0AF9
:10270000005B4932435D2045533930333820553220
:1027100032205269676874204D7574652E0D0A0069
:102720005B4932435D2045533930333820553532CB
:10273000204C656674204D7574652E0D0A005B494A
:1027400032435D20526561642053616D706C696E27
:102750006720726174652E0D0A005B4932435D206B
:10276000436F6D706C6574652072656164696E6736
:102770002053616D706C696E6720726174652E0DF7
:102780000A000D0A53797374656D20737461727455
:1027900065642E0D0A0053797374656D20696E6946
:1027A0007469616C697A696E672E2E2E2E2E2E0D3D
:1027B0000A0053797374656D20696E697420436FE4
:1027C0006D706C657465642E0D0A0020000D0A00A2
:1027D0000D0A0D0A000D0A414B34313138412052A7
:1027E000454720414C4C0D0A005553422041756429
:1027F000696F204163746976617465642E0D0A0007
:1028000055534220417564696F2044656163746962
:1028100076617465642E0D0A000101010106FF0155
:1028200001CECE083709A009090AD1113A12741352
:10283000DD13D7233F241D27862780434F4158317E
:1028400020434F41583220204145533120204145FB
:1028500053322020424E432020204F50543120201C
:102860004F505432202055534220202034342E31F2
:10287000202034382E30202038382E32202039368F
:102880002E30203137362E34203139322E30202070
:10289000202020202046494C544552312046494CA6
:1028A000544552322046494C544552332020494E1B
:0F28B000564552534520204E4F524D414C30015A
:0020FE01E1
:00000001FF
