:100000000C94DF1118951895189518951895189552
:100010000C94B70F189518950C949C0A0C948A0FA1
:100020000C945D0F189518950C94950718951895D4
:1000300018951895189518950C94FE101895189504
:100040000C942C10189518951895189518951895C6
:100050001895189518951895189518951895189538
:100060001895189518951895189518951895189528
:100070001895189518951895189518951895189518
:10008000189518951895189518951895980189013F
:1000900001501040232BD1F70895B80140E004C06F
:1000A00000E81EE3F3DF4395FB01319650E0E417CF
:1000B000F507B0F708950E944B13C801D90140EB32
:1000C00054E060E070E08C019D010E941212452B0B
:1000D000462B472B19F00FEF1FEF26C0119A199AE4
:1000E0001098189A00E014E224EF30E0AC01BD0152
:1000F0000E9412120E94761240E050E060E871E423
:100100000E94BA120E942C13015010409801232F14
:100110002093900009B900E00BB908E90AB906E09C
:100120000093950000E010E0E4E00C9450135D9B18
:10013000FECF0CB900E010E00895F80102C010E015
:10014000F6DF008131960023D1F70895919A909AB5
:100150000AE010E09BDF919808E210E097DF9098AA
:1001600006E910E093DF089506E910E08FDF91982B
:100170000AE010E08BDF909A08E210E087DF919AA6
:100180000895502F40E00FC090980AE010E07EDF05
:10019000052F07FD919A07FF9198550F909A0AE055
:1001A00010E074DF4395483078F3909804E110E054
:1001B0006DDF8998919A0AE010E068DF819B02C0A8
:1001C00041E001C040E0042F00FD919A00FF9198AA
:1001D00004E110E05BDF909A0EE110E057DF9098A9
:1001E000899A04E610E052DF042F0895502F00E0B2
:1001F00000939B0300E000939C030AE010E046DFBD
:100200008998919A0AE010E041DF40E012C000E0D6
:1002100010919B03102B10939B03473028F40091FF
:100220009B03000F00939B03909A0AE010E02EDFDF
:100230004395483040F490980AE010E027DF819B16
:10024000E6CF01E0E5CF90980EE110E01FDF899A3C
:100250009198552321F400E000939C0303C001E032
:1002600000939C03ECE9F3E0008100FD919A00FF0C
:10027000919804E110E00ADF909A0EE110E006DFA9
:10028000909804E610E002DF0895402F612F722F4E
:100290005DDF042F76DF062F74DF072F72DF64DF48
:1002A0000895EDE5F3E00081118122813381013071
:1002B00045E314074CE0240740E0340708F45DC030
:1002C000EBE5F3E0008111810F3F27E0120708F012
:1002D00062C0EBE5F3E0008111810B5F1F4F0083EB
:1002E0001183EBE5F3E000810F700F3041F4EBE593
:1002F000F3E0008111810F5F1F4F00831183EDE553
:10030000F3E000E0008300E0018300E0028300E00E
:100310000383EBE5F3E0008111810F3F27E0120733
:1003200060F4EBE5F3E01181012F00936503EBE549
:10033000F3E000810093660306C000E800936503C4
:1003400000E0009366030091650310916603010FBE
:1003500000936903FBDE00EA14DF00E012DF009186
:1003600065030FDF009166030CDF0091690309DF6D
:10037000FBDE0AE010E091DE0895EDE5F3E0008198
:100380001181228133810F5F1F4F2F4F3F4F008319
:10039000118322833383089584DFEBE5F3E000814A
:1003A00011810F3F27E0120708F056C047E0EBE548
:1003B000F3E0008111810E9408120E700056009334
:1003C0006703EBE5F3E0008100936803EDE5F3E0FC
:1003D0002281022F00936103EDE5F3E01181012FEB
:1003E00000936203EDE5F3E0008100936303009165
:1003F0007A030093640300916403000F000F000F61
:100400000093640300917D0310916403100F109317
:10041000640300916403000F00936403009195024C
:1004200010916403100F1093640390DE0091670332
:10043000A8DE00916803A5DE00916103A2DE0091B1
:1004400062039FDE009163039CDE00919A0299DEB5
:100450000091640396DE88DE0895602F712F76DEAA
:10046000062F8FDE072F8DDE7FDE70DE6395062F71
:1004700088DE01E0BBDE40919B0376DE042F089509
:10048000980147E089010E9408120E700056122F51
:10049000E4DF0895002EE0E00BC0202D1E2F105F3A
:1004A00000E9F3DE202D1E2F105F02E9EEDEE3955A
:1004B000E83098F30895E02F012E2E2F2295207F0B
:1004C00020211CE000E9E1DEE295E07FE0212E2F13
:1004D0001CE002E9DADE0895E02F2E2F2F7E15E0D2
:1004E00000E9D3DEEF7E2E2F15E002E9CEDE08957F
:1004F00020E012E000E9C9DE20E012E002E9C5DEFA
:100500000895979800E00093980208951C0160E018
:10051000979A0091620008600093620070E005C045
:1005200000E416E0B3DD60E07395723008F0CCC0F3
:1005300080E00AC00091650002600093650000E160
:1005400010E0A4DD63958395883050F7662381F42D
:10055000009162000B7F00936200009162000D7FAA
:1005600000936200009162000E7F009362007DC0E4
:10057000613081F4009162000B7F00936200009172
:1005800062000D7F009362000091620001600093A1
:1005900062006BC0623081F4009162000B7F0093B7
:1005A00062000091620002600093620000916200AC
:1005B0000E7F0093620059C0633081F400916200A5
:1005C0000B7F009362000091620002600093620062
:1005D0000091620001600093620047C0643081F4C2
:1005E00000916200046000936200009162000D7F40
:1005F00000936200009162000E7F0093620035C09C
:10060000653081F400916200046000936200009103
:1006100062000D7F00936200009162000160009310
:10062000620023C0663081F4009162000460009390
:10063000620000916200026000936200009162001B
:100640000E7F0093620011C0673079F40091620060
:1006500004600093620000916200026000936200F7
:1006600000916200016000936200772311F0AF985F
:1006700005C0009165000D7F0093650008E010E063
:1006800005DD009165000B7F0093650008E010E038
:10069000FDDC072F10E048E050E00E94FE1190E0E2
:1006A000080F191FF801E957FC4F00810BBB00E14F
:1006B00010E0ECDC00916500046000936500772396
:1006C00009F438CFAF9A3BCFC1010895502F40E0D5
:1006D00036C0473079F400916200046000936200F4
:1006E000009162000260009362000091620001606C
:1006F0000093620008E010E0C9DC009165000D7F06
:100700000093650008E010E0C1DC009165000B7FFC
:100710000093650008E010E0B9DC5BBB00E110E08D
:10072000B5DC0091650004600093650000916500F0
:1007300002600093650000E110E0A8DC43954830BA
:1007400008F085C0979A00916200077F00936200CD
:10075000442381F4009162000B7F009362000091BA
:1007600062000D7F00936200009162000E7F009393
:100770006200C0CF413081F4009162000B7F009392
:100780006200009162000D7F0093620000916200A0
:10079000016000936200AECF423081F400916200AC
:1007A0000B7F009362000091620002600093620080
:1007B000009162000E7F009362009CCF433081F471
:1007C000009162000B7F0093620000916200026062
:1007D00000936200009162000160009362008ACF82
:1007E000443081F400916200046000936200009143
:1007F00062000D7F00936200009162000E7F009303
:10080000620078CF453081F400916200046000936B
:100810006200009162000D7F00936200009162000F
:1008200001600093620066CF463009F052CF00911C
:100830006200046000936200009162000260009315
:100840006200009162000E7F0093620053CF40E08F
:100850002EC0473079F4009162000460009362007A
:1008600000916200026000936200009162000160EA
:100870000093620008E010E009DCAF9808E010E0A7
:1008800005DC009165000B7F0093650008E010E037
:10089000FDDB5BBB00E110E0F9DB0091650004606B
:1008A00000936500AF9A00E110E0F0DB439548301B
:1008B00008F085C0979A00916200077F009362005C
:1008C000442381F4009162000B7F00936200009149
:1008D00062000D7F00936200009162000E7F009322
:1008E0006200C8CF413081F4009162000B7F009319
:1008F0006200009162000D7F00936200009162002F
:10090000016000936200B6CF423081F40091620032
:100910000B7F00936200009162000260009362000E
:10092000009162000E7F00936200A4CF433081F4F7
:10093000009162000B7F00936200009162000260F0
:10094000009362000091620001600093620092CF08
:10095000443081F4009162000460009362000091D1
:1009600062000D7F00936200009162000E7F009391
:10097000620080CF453081F40091620004600093F2
:100980006200009162000D7F00936200009162009E
:100990000160009362006ECF463009F05ACF00919B
:1009A00062000460009362000091620002600093A4
:1009B0006200009162000E7F009362005BCF089599
:1009C000102F00919C02002369F40DE4009397031B
:1009D00005E50093980304E50093990305E400936B
:1009E0009A034BC0112369F400E20093970301E3DB
:1009F0000093980300E30093990300E300939A03A4
:100A00003CC01F3F69F400E30093970300E30093A9
:100A100098030EE20093990300E300939A032DC01C
:100A200034E108EC011B102F20E016C0012F432FEA
:100A30000E94F111005D422F50E0FA01E956FC4F8F
:100A40000083012F432F0E94F111142F4AE0032F3E
:100A50000E94F111302F2395223040F3112339F0F9
:100A60000EE20093990305E300939A0306C00EE299
:100A70000093990300E300939A0320E00BC030E059
:100A8000F901E956FC4F008130E0F901E957FC4FCC
:100A900004872395243098F339DD089500917E036F
:100AA000002339F500919C02002321F401E000931A
:100AB0009C0203C000E000939C0200919C02002372
:100AC00011F411E001C010E000919D020E7C010FB5
:100AD00000939D0220919D021AE000E90E944501C9
:100AE00020919D021AE002E90E94450100919A02BC
:100AF00067DF089500919502002359F42FEF1DE060
:100B000000E90E9445012FEF1DE002E90E94450126
:100B10000AC020E01DE000E90E94450120E01DE040
:100B200002E90E94450138DC0895E0E00DC0209103
:100B30009A021E2F00E90E94450120919A021E2F61
:100B400002E90E944501E395E83088F325DC089529
:100B50002FE700917B03201B17E100E90E9445016C
:100B60002FE700917C03201B17E102E90E94450159
:100B70002EEF14E100E90E9445012EEF14E102E995
:100B80000E94450108952FEF14E100E90E944501FC
:100B90002FEF14E102E90E944501089500917E03C0
:100BA0000023B9F410919A0200919A02053C30F4A6
:100BB00000919A020D5F00939A0203C00FEF009319
:100BC0009A0200919A02101721F0AFDF00919A0269
:100BD000F7DE089500917E030023F9F410919A0244
:100BE00000919A020F3F21F407EC00939A020DC086
:100BF00000919A02033030F000919A020350009362
:100C00009A0203C000E000939A0200919A02101722
:100C100021F08BDF00919A02D3DE089500917E03CC
:100C20000023E1F400919C02002309F437DF1091C6
:100C30009A0200919A02073C30F400919A020395BF
:100C400000939A0203C00FEF00939A0200919A0258
:100C5000101721F06ADF00919A02B2DE0895009128
:100C60007E03002301F500919C02002309F416DFA6
:100C700010919A0200919A020F3F21F407EC009321
:100C80009A0209C000919A02002329F000919A0269
:100C90000A9500939A0200919A02101721F045DFFD
:100CA00000919A028DDE089500919C02002351F07C
:100CB0002FEC1AE000E90E9445012FEC1AE002E94E
:100CC0000E94450100917A03073011F401E001C050
:100CD00000E010919B02011749F000939B02EBE9A1
:100CE000F2E0008100FD1B9A00FF1B980091B60204
:100CF000077C0093B60200917A03000F000F000FEB
:100D00001091B602100F1093B6022091B60214E0B3
:100D100000E20E94450100919C02002351F02EEC5C
:100D20001AE000E90E9445012EEC1AE002E90E9457
:100D300045010E94CC01089500917E03002371F4C7
:100D400000917A03073030F400917A030395009301
:100D50007A0303C000E000937A03A6DF08950091B0
:100D60007E03002371F400917A03002331F0009197
:100D70007A030A9500937A0303C007E000937A038D
:100D800093DF0895082E00E00093970200E008BF6B
:100D900000917D03033019F400E000937D038091FE
:100DA0007D030E94CC0105E010E00E944D008823E5
:100DB00059F42BE01EE000E90E9445012BE01EE003
:100DC00002E90E94450119C0813059F42DE01EE06E
:100DD00000E90E9445012DE01EE002E90E94450164
:100DE0000CC0823051F42FE01EE000E90E94450162
:100DF0002FE01EE002E90E944501882321F008EC63
:100E000010E00E944D0001E000939702E5E7F3E057
:100E100000E0008300E0018308E008BF802D089512
:100E200000917E03013021F000917E03023021F415
:100E300001E0009381033CC000917E03033069F41C
:100E400000919502002321F401E00093950203C074
:100E500000E0009395024EDE2BC000917E0304302B
:100E600039F500917D03039500937D0300919C0269
:100E7000002351F02FEC1AE000E90E9445012FEC0D
:100E80001AE002E90E9445017DDF4FDE05E010E037
:100E90000E944D0000919C02002351F02EEC1AE0BC
:100EA00000E90E9445012EEC1AE002E90E9445018A
:100EB00020E00BC030E0F901E75DFC4F008130E03D
:100EC000F901E957FC4F00832395203130F5283094
:100ED000A8F400917D0310E048E050E00E94FE116C
:100EE000E1E1F3E0E00FF11F30E0E20FF31F0081DA
:100EF00030E0F901E957FC4F0083E6CF00919502FD
:100F00000023C1F630E0F901EF5DFC4F008130E0D5
:100F1000F901E957FC4F0083D7CFEFE7F3E000E09A
:100F2000008300E00183F2DA0895FA93EA934A938A
:100F30003A932A931A930A933FB74BB707E304BD3A
:100F4000EFE9F3E0008111810F5F1F4F00831183F0
:100F50000091AE031091AF03012B41F0EEEAF3E0F4
:100F6000008111810F5F1F4F0083118300919F0348
:100F70001091A0030D3424E0120708F452C000E0E1
:100F800000939D0300E000939E0300E00093A30301
:100F900000E00093A40300E00093A10300E00093AD
:100FA000A20300E00093A50300E00093A60300E085
:100FB0000093A70300E00093A80300E00093A903B7
:100FC00000E00093B30300E00093B60300E0009359
:100FD000B20300E00093B40300E00093B50300E027
:100FE0000093B70300E00093B80300E00093B1035F
:100FF00000E000939F0300E00093A00300E0009353
:10100000B90301E00093960200919602002349F48F
:1010100001E00093960200E00093750300E0009366
:1010200076034BBF3FBF099119912991399149919D
:10103000E991F991189500E000939D0300E0009379
:101040009E03E3EAF3E000E0008300E00183E1EACD
:10105000F3E000E0008300E00183E5EAF3E000E074
:10106000008300E00183E7EAF3E000E0008300E0B2
:10107000018300E00093A90300E00093B30300E0C4
:101080000093B60300E00093B20300E00093B403C2
:1010900000E00093B50300E00093B70300E0009385
:1010A000B80300E00093B10300E00093B903089592
:1010B000BA93AA9300919E03015041F00A95E1F082
:1010C0000A9581F10A9509F443C057C0E1EAF3E0BB
:1010D00000811181000F111FE1EAF3E00083118309
:1010E0000091B00310E0E1EAF3E020813181202B90
:1010F000312B2083318341C0E3EAF3E00081118189
:10110000000F111FE3EAF3E0008311830091B003A5
:1011100010E0E3EAF3E020813181202B312B2083A2
:1011200031832BC0E5EAF3E000811181000F111F2C
:10113000E5EAF3E0008311830091B00310E0E5EAF3
:10114000F3E020813181202B312B2083318315C0A6
:10115000E7EAF3E000811181000F111FE7EAF3E0F5
:10116000008311830091B00310E0E7EAF3E02081EF
:101170003181202B312B208331830091A9030395EA
:101180000093A9030091A903083040F000919E0349
:10119000039500939E0300E00093A90300919E0332
:1011A000053008F4FCC0E1EAF3E0008111810F7022
:1011B000107000831183E3EAF3E0008111810F7066
:1011C000107000831183A1EAB3E0ED91FC91379791
:1011D00009F0A8C0A3EAB3E0ED91FC913A9709F0B9
:1011E000A1C0E7EAF3E000811181E5EAF3E02081A4
:1011F00031814FEF242740E034270217130709F00D
:101200008FC0E5EAF3E000810093390300916A039F
:10121000002309F481C0EEEAF3E000811181095E48
:101220001340033F21E0120798F4E5EAF3E0008160
:101230001181003820E0120711F411DD09C0E5EA40
:10124000F3E000811181083A20E0120709F4E6DC9E
:10125000EEEAF3E001E010E00083118300E0009388
:101260009602E5EAF3E000811181003B20E01207DD
:1012700011F414DC51C0E5EAF3E00081118100387B
:1012800020E0120711F4EBDC47C0E5EAF3E000814F
:101290001181083A20E0120711F4C0DC3DC0E5EAF4
:1012A000F3E000811181003920E0120711F444DDE0
:1012B00033C0E5EAF3E000811181083820E012072D
:1012C00011F44DDD29C0E5EAF3E000811181003A17
:1012D00020E0120769F400918103002321F401E06A
:1012E00000937E0303C003E000937E0399DD14C0E6
:1012F000E5EAF3E000811181083920E0120761F48A
:1013000000918103002321F402E000937E0303C0D7
:1013100004E000937E0384DD00E00093BA0303C081
:101320008ADE01C088DE00E000939D0300E00093A8
:101330009E03E3EAF3E000E0008300E00183E1EADA
:10134000F3E000E0008300E00183E5EAF3E000E081
:10135000008300E00183E7EAF3E000E0008300E0BF
:10136000018300E00093A90300E00093B30300E0D1
:101370000093B60300E00093B20300E00093B403CF
:1013800000E00093B50300E00093B70300E0009392
:10139000B80300E00093B10300E00093B903A99102
:1013A000B9910895BA93AA930091B3030023E9F188
:1013B0000091B6030023C9F100919D03002309F0B9
:1013C000B8C001E000939D0301E000939E0300E09C
:1013D0000093AA0300E00093AD03EBEAF3E000E022
:1013E000008300E0018300E00093B30300E000937A
:1013F000B60300E00093B20300E00093B40300E002
:101400000093B50300E00093B70300E00093B80336
:1014100000E00093B103EBEBF3E000E0008300E0B9
:10142000018300E00093B90384C000919D03002371
:1014300099F00091B203002379F00091B4030023E6
:1014400059F000E00093B00300E00093B20300E025
:101450000093B4032DDE6DC000919D03002399F02D
:101460000091B203002379F00091B503002359F0F5
:1014700001E00093B00300E00093B20300E00093AA
:10148000B50316DE56C000919D03002381F4009140
:10149000B703002361F001E00093B10300E0009383
:1014A000B7030091B90303950093B90342C00091BB
:1014B000B1030023F1F10091B8030023D1F10091B1
:1014C0006A030023B1F10091B903013061F500E036
:1014D0000093B80300E000939602EBEBF3E0008189
:1014E00011810F5F1F4F00831183ABEBB3E0ED91D0
:1014F000FC91339760F000913903003811F46ADBF6
:1015000018C000913903083AA1F448DB12C00091D9
:101510003903003811F4A3DB0CC000913903083AF9
:1015200041F47CDB06C000E00093B90300E00093C7
:101530003903A991B99108959A938A93FA93EA93FA
:101540003A922A921A920A927A936A935A934A93F7
:101550003A932A931A930A938FB79BB70D9B1AC09D
:10156000E0919F03F091A0033497359720F401E0B8
:101570000093B20351C0E0919F03F091A003F7974D
:10158000BE9720F401E00093B30346C001E000934E
:10159000BD0342C00D9940C0E0919F03F091A003AC
:1015A0003497359720F401E00093B40335C0E091FF
:1015B0009F03F091A00339973E9720F401E0009338
:1015C000B5032AC0E0919F03F091A003B8977097EC
:1015D00020F401E00093B6031FC000919F03109117
:1015E000A003085C1040093C20E0120720F401E051
:1015F0000093B70311C000919F031091A003005204
:101600001340093C20E0120720F401E00093B803E6
:1016100003C001E00093BD0300E000939F0300E0DE
:101620000093A0030091BD03002341F000E000936C
:10163000BD0300E00093B803FEDC01C0B3DE9BBF36
:101640008FBF0991199129913991499159916991C6
:1016500079910990199029903990E991F99189919E
:101660009991189500E611E00E949D000FEF0ABBCA
:101670000DEB07BB0FEF04BB03E801BB0AE002B9A7
:101680000FE0009361000FE10093640000E00BBBEA
:101690000FE708BB0FEF05BB0FEF02BB0FEF03B95E
:1016A00000EF009362000EE1009365000DE611E08B
:1016B0000E949D0003E003BF05E00EBD02E005BDF2
:1016C00007E304BD05E002BF04EE19EF1DBD0CBD2C
:1016D00000E001BF05E407BF05E406BF0EE711E027
:1016E0000E949D000CEF09BF00EA00936A0005E527
:1016F0000ABF0CEF08BF03E911E00E949D0028EB30
:1017000014E000E20E94450101EB11E00E949D00FF
:1017100021E417E000E90E94450100ED11E00E947C
:101720009D0021E417E002E90E9445010EEE11E060
:101730000E949D000E948102789400E007C010E0A2
:10174000F801E957FC4F10E2108303950031B8F31C
:1017500000E000937B0300E000937C0301E0009332
:10176000860308950C018AE090E08B3F07E0900724
:1017700078F40596082F0F700F3009F401968C014C
:101780000E9440020093C6030091C6030F3F69F711
:10179000EEEBF3E080839183EEEBF3E01181012F18
:1017A0000093C303EEEBF3E000810093C4030091C8
:1017B000C3031091C403010F0093C5030E94A60048
:1017C00000EA0E94C10000E00E94C1000091C30332
:1017D0000E94C1000091C4030E94C1000091C50392
:1017E0000E94C1000E94B4000AE010E00E944D0077
:1017F000EEEBF3E0008111810F3F27E0120738F58F
:101800000E94A60047E0EEEBF3E0008111810E9408
:1018100008120E7000560E94C100EEEBF3E000814A
:101820000E94C10000E00E94C10000E00E94C100CF
:1018300000E00E94C1000FEF0E94C10001E00E9481
:10184000C1000E94B4000AE010E00E944D00C001F7
:1018500008951C0103E911E00E949D0028EB14E0AB
:1018600000E20E94450101EB11E00E949D0021E48D
:1018700017E000E90E94450100ED11E00E949D0083
:1018800021E417E002E90E94450100E010E00E9417
:101890004002802F90E08F3F00E09007A1F50E946A
:1018A000A60000EA0E94C10000E00E94C10000E022
:1018B0000E94C10000E10E94C10000E10E94C1003D
:1018C0000E94B40005E010E00E944D000E94A600B6
:1018D00000EA0E94C10000E10E94C10000E00E94F5
:1018E000C10000E00E94C10000E00E94C1000FEFB3
:1018F0000E94C10001E00E94C1000E94B40005E006
:1019000010E00E944D0000E010E00E9440020093B1
:10191000C00301E010E00E9440020093C10302E016
:1019200010E00E9440020093C2030091C003109196
:10193000C103010F00936903009169031091C20371
:10194000011711F00FDF1BC00091C00310E0EEEB98
:10195000F3E000831183EEEBF3E00081102F00E051
:10196000EEEBF3E0008311830091C10310E0EEEB96
:10197000F3E020813181200F311F20833183EEEB92
:10198000F3E000811181EBE5F3E000831183EBE5E7
:10199000F3E0008111810F3F27E0120708F093C0A8
:1019A000EBE5F3E0008111810E94400210E020E0AD
:1019B00030E0EDE5F3E00083118322833383EDE52E
:1019C000F3E0008111812281322F212F102F00E0BE
:1019D000EDE5F3E00083118322833383EBE5F3E04D
:1019E000008111810F5F1F4F0E94400210E020E034
:1019F00030E0EDE5F3E04081518162817381400F79
:101A0000511F621F731F4083518362837383EDE50F
:101A1000F3E0008111812281322F212F102F00E06D
:101A2000EDE5F3E00083118322833383EBE5F3E0FC
:101A3000008111810E5F1F4F0E94400210E020E0E4
:101A400030E0EDE5F3E04081518162817381400F28
:101A5000511F621F731F4083518362837383EBE5C1
:101A6000F3E0008111810D5F1F4F0E94400200933F
:101A70009A02EBE5F3E0008111810C5F1F4F0E9499
:101A80004002802F90E0803800E0900778F4082F23
:101A900002950F7000937A03082F06950770009344
:101AA0007D03082F01700093950219C00FEF00937A
:101AB0009A0200E000937A0300E000937D0301E0C6
:101AC000009395020CC00FEF00939A0200E0009380
:101AD0007A0300E000937D0301E00093950220E08B
:101AE00010E000E20E94450124E811E000E20E94BB
:101AF000450129E012E000E20E94450120E513E0E3
:101B000000E20E944501D0D825E815E000E20E94DD
:101B100045011FE00FE00E945B0210E003E00E941D
:101B2000780208E70E946C0200D80AE010E00E94E8
:101B30004D000E947A050AE010E00E944D0022D973
:101B4000979A01E00093980200916500016000936C
:101B5000650003E00E946603C79A80E090E008C039
:101B60008C010E944002FC01E55CFC4F0083019661
:101B7000803200E09007A0F3C101089500917A033C
:101B8000073021F000916C03002351F400916C03A5
:101B9000002309F46FC100916B03002309F06AC1AF
:101BA00008E012E00E949D001FE100E90E942D0262
:101BB00010E0E2E8F3E000831183E2E8F3E0008163
:101BC000102F00E0E2E8F3E0008311831EE100E95A
:101BD0000E942D0210E0E2E8F3E020813181200F25
:101BE000311F208331831FE102E90E942D0210E0A2
:101BF000E4E8F3E000831183E4E8F3E00081102FD0
:101C000000E0E4E8F3E0008311831EE102E90E94B2
:101C10002D0210E0E4E8F3E020813181200F311F34
:101C20002083318304E212E00E949D00E2EBF2E0A7
:101C300000811181E2E8F3E020813181021713076E
:101C400058F4E2E8F3E000811181E4EBF2E0208156
:101C5000318102171307B0F0E2EBF2E0008111814D
:101C6000E4E8F3E0208131810217130778F4E4E817
:101C7000F3E000811181E4EBF2E020813181021771
:101C8000130720F405E000939902F7C0EEEAF2E0B2
:101C900000811181E2E8F3E020813181021713070E
:101CA00058F4E2E8F3E000811181E0EBF2E02081FA
:101CB000318102171307B0F0EEEAF2E000811181E2
:101CC000E4E8F3E0208131810217130778F4E4E8B7
:101CD000F3E000811181E0EBF2E020813181021715
:101CE000130720F404E000939902C7C0EAEAF2E087
:101CF00000811181E2E8F3E02081318102171307AE
:101D000058F4E2E8F3E000811181ECEAF2E020818E
:101D1000318102171307B0F0EAEAF2E00081118185
:101D2000E4E8F3E0208131810217130778F4E4E856
:101D3000F3E000811181ECEAF2E0208131810217A9
:101D4000130720F403E00093990297C0E6EAF2E05B
:101D500000811181E2E8F3E020813181021713074D
:101D600058F4E2E8F3E000811181E8EAF2E0208132
:101D7000318102171307B0F0E6EAF2E00081118129
:101D8000E4E8F3E0208131810217130778F4E4E8F6
:101D9000F3E000811181E8EAF2E02081318102174D
:101DA000130720F402E00093990267C0E2EAF2E030
:101DB00000811181E2E8F3E02081318102171307ED
:101DC00058F4E2E8F3E000811181E4EAF2E02081D6
:101DD000318102171307B0F0E2EAF2E000811181CD
:101DE000E4E8F3E0208131810217130778F4E4E896
:101DF000F3E000811181E4EAF2E0208131810217F1
:101E0000130720F401E00093990237C0EEE9F2E0F5
:101E100000811181E2E8F3E020813181021713078C
:101E200058F4E2E8F3E000811181E0EAF2E0208179
:101E3000318102171307B0F0EEE9F2E00081118161
:101E4000E4E8F3E0208131810217130778F4E4E835
:101E5000F3E000811181E0EAF2E020813181021794
:101E6000130720F400E00093990207C006E00093F6
:101E7000990203C006E0009399020091990206308E
:101E800021F401E000936F0303C000E000936F03AF
:101E900000916F0310917003011771F000916F03AF
:101EA0000093700300917003002319F400919A02CB
:101EB00001C000EE0E944A020895FA93EA932A9222
:101EC0001A920A927A936A935A934A933A932A936C
:101ED0001A930A931FB62BB600917303002351F097
:101EE0000F9B04C001E000936B0303C000E000936C
:101EF0006B0344DE2BBE1FBE0991199129913991C4
:101F00004991599169917991099019902990E99194
:101F1000F9911895FA93EA932A921A920A927A936F
:101F20006A935A934A933A932A931A930A931FB641
:101F30002BB600917303002351F00E9B04C001E007
:101F400000936C0303C000E000936C0317DE2BBE0C
:101F50001FBE09911991299139914991599169911E
:101F60007991099019902990E991F99118959A938E
:101F70008A93FA93EA933A922A921A920A927A935D
:101F80006A935A934A933A932A931A930A938FB770
:101F90009BB700E000E00093740300E0869903958E
:101FA000000F10E085991395010F000F10E0849940
:101FB0001395010F109173031123D9F1013019F416
:101FC0000E94AF0633C0023019F40E942F062EC0C3
:101FD000033019F40E944E0529C0043019F40E9400
:101FE0009C0624C0053019F40E940E061FC006305E
:101FF00071F400918103002321F401E000937E033A
:1020000003C003E000937E030E9410070FC0073057
:1020100069F400918103002321F402E000937E0320
:1020200003C004E000937E030E94100701E00093C8
:1020300074039BBF8FBF09911991299139914991DF
:102040005991699179910990199029903990E99164
:10205000F9918991999118959A938A93FA93EA93B1
:102060003A922A921A920A927A936A935A934A93CC
:102070003A932A931A930A938FB79BB705E002BF4E
:102080000091770303950093770300917303002376
:1020900009F4A1C000917E030023B9F000917F03F1
:1020A00010918003013727E1120730F000E0009320
:1020B0007E0300E000938103EFE7F3E000811181EC
:1020C0000F5F1F4F0083118386C00091C7031091DB
:1020D000C803083C20E0120709F040C020E00BC014
:1020E00030E0F901E557FC4F008130E0F901E95794
:1020F000FC4F00832395203170F52630A8F4009121
:102100007A0310E046E050E00E94FE11E7EBF2E0B7
:10211000E00FF11F30E0E20FF31F008130E0F90122
:10212000E957FC4F0083E6CF2C30D0F6E1EEF2E029
:1021300030E0E20FF31F0091990210E046E050E01A
:102140000E94FE11E00FF11F008130E0F901E95714
:10215000FC4F0083CFCF0E94860235C00091C70399
:102160001091C803003223E0120769F500916B0358
:1021700000936D0300916C0300936E030F9B04C0EA
:1021800001E000936B0303C000E000936B030E9B20
:1021900004C001E000936C0303C000E000936C03F3
:1021A00000916D0310916B03011731F400916E03E0
:1021B00010916C03011709F0E1DC00E00093C70304
:1021C00000E00093C803E7ECF3E0008111810F5FAA
:1021D0001F4F008311839BBF8FBF099119912991D4
:1021E0003991499159916991799109901990299062
:1021F0003990E991F9918991999118959A938A93D7
:10220000FA93EA933A922A921A920A927A936A93EA
:102210005A934A933A932A931A930A938FB79BB788
:1022200000E002EF1CEF1DBD0CBD009186030023F2
:1022300009F48FC0009186030F3128F400918603C2
:10224000039500938603009186030A3011F401DBA5
:1022500029C0009186030E3129F50EEC00939D02F2
:1022600020919D021AE000E90E94450120919D0203
:102270001AE002E90E94450100919A020E94A80515
:1022800002E310E00E944D0000919A020E94C305F3
:1022900000919A020E94E00401E00093730301E0C0
:1022A00000936A0300917303002309F452C08399D9
:1022B0003AC000917403013051F4E0917103F09140
:1022C0007203369720F002E00093740320C000915F
:1022D00074030230E1F4E0917103F09172033797D7
:1022E000B0F000E086990395000F10E085991395F2
:1022F000010F000F10E084991395010F023019F4BB
:102300000E942F0604C0053011F40E940E0600E062
:1023100000933A03E1E7F3E0008111810F5F1F4F63
:102320000083118316C000E00093740300E0009363
:10233000710300E00093720300913A03002349F413
:1023400001E000933A0300E00093750300E000937E
:102350007603E8E7F3E0008111810F5F1F4F0083F0
:1023600011839BBF8FBF099119912991399149918F
:102370005991699179910990199029903990E99131
:10238000F991899199911895789400E011EE20E0E7
:1023900030E00E945B000CE412E00E949D0000E629
:1023A00012E00E949D005ED90CE712E00E949D00A1
:1023B000B699FECFC798FCCF00008895FECF0FE5F9
:1023C0000DBF01E00EBFC0E4D1E00E94591300230D
:1023D00011F00E946B130E94C4110E94DC110C9436
:1023E000DC110024E8E0001FEA952AF0001C041626
:1023F000D0F3041AF8CF402D00950895149F102DA6
:10240000059F100D049F002D110D08951695079539
:102410004A95E2F7089536952795179507954A95B9
:10242000D2F70895002411241001E0E2001F111FCB
:10243000221F331FEA9572F0001C111C221C331C52
:10244000041615062606370688F3041A150A260A06
:10245000370AECCFA001B101009510952095309579
:10246000089530952095109501951F4F2F4F3F4FA0
:102470000895FF27172E660F771F089409F4771F1A
:102480006795EE27032E220F331F089409F4331F9C
:1024900027950895222342F0323030F03A95EE0F1E
:1024A000001F111F221FC2F7E03821F400FF08941B
:1024B0000EF488940F4F1F4F2F4F3F4F323038F498
:1024C000332319F427FD31E002C027FF30E03F3FFE
:1024D00029F0220F000C37952795089534C0E02F7E
:1024E000012F122F232F3EE9E894D4CF0024F7CFF9
:1024F000F901EE0FFF1F37FBFF3F31F0EF2BE12B10
:10250000E02B8894B8940895EE2321F008949894D1
:10251000B89408959894889438940895FB01EE0F28
:10252000FF1F77FBFF3F31F0EF2BE52BE42B889467
:10253000B8940895EE2371F3E9CF302D3078222737
:102540001127002708953FE7302920E8F9CF3FEF12
:102550002FEFF6CFE3DF20F01BF0707837270895D8
:10256000F6CFDCDFE9F3E0F3032E0726E6CF032EF8
:102570000726E9CFBDDFA0F36BF399F3CFDF80F33C
:102580009BF3A9F376DF012427FD06C03150E0401C
:10259000000F111F221FD2F767FD06C07150F040D7
:1025A000440F551F661FD2F7E894371BEF0B3158C5
:1025B000EF4F2AF0EE23E9F63F3FD9F203C0393E50
:1025C000A8F26894E0E0F0E040175107620738F0A5
:1025D000315008F46894000F111F221FEE1F71E0A4
:1025E0001124222409C0000F111F221FEE1F0417FF
:1025F00015072607EF0720F0041B150B260BEF0B22
:10260000771F111C221C78F7000F111F221FEE1FCD
:10261000041715072607EF073E2EF0F9E894E0E8C7
:1026200039F008F4E0E0322A312A302A09F06894BF
:10263000709510942094332311F0F0FF09C0269474
:1026400017947795E79508F4689433953130BCF387
:10265000072F112D222D28CF14DF3F5748F03F318F
:1026600068F007FC6ACF3FE72FEF1FEF0FEF0895E9
:1026700030E020E0890110E000E00895432F322F80
:10268000212F102F0E2F4F5141950E940F1207FE40
:1026900008950C943112BA93AA939A938A93089549
:1026A000BB81AA8199818881F0E0EC0FFD1FEF01C9
:1026B000089501E0089520E02D9301501040E1F7C6
:1026C00008953BBF26912D93EF5FFF4F3F4F015081
:1026D0001040B9F708954CE257E260E0FA01362F56
:1026E0003BBF07911691FA01EE5FFF4F3F4F3BBF93
:1026F000A791B691FA01362FEC5FFF4F3F4F3BBFDA
:10270000079017902690202D2129222921F0F001F1
:10271000322DD7DF01C0CFDF495F5F4F6F4F17E228
:1027200020E04A3351076207C8F20895DB016001D7
:102730003A27008E003B03000000506F727420693E
:102740006E69742E0D0A0054696D6572207365748C
:1027500074696E672E0D0A00496E74657272757029
:10276000742073657474696E672E0D0A005B4932BC
:10277000435D2043533834313620496E70757437C9
:1027800020746F20474E442E0D0A005B4932435D92
:10279000204553393033382055323220526967682A
:1027A00074204D7574652E0D0A005B4932435D201F
:1027B00045533930333820553532204C6566742006
:1027C0004D7574652E0D0A005B5350495D20444FD2
:1027D00054204D617472697820436C6561722E0DCE
:1027E0000A005B4932435D20526561642053616D8C
:1027F000706C696E6720726174652E0D0A005B490A
:1028000032435D20436F6D706C6574652072656145
:1028100064696E672053616D706C696E67207261C8
:1028200074652E0D0A000D0A53797374656D20735B
:102830007461727465642E0D0A0053797374656D4A
:1028400020696E697469616C697A696E672E2E2ED3
:102850002E2E2E0D0A0053797374656D20696E69F2
:102860007420436F6D706C657465642E0D0A0001F1
:1028700001010106FF0101CECE083709A009090AAE
:10288000D1113A127413DD13D7233F241D27862755
:1028900080434F41583120434F4158322020414519
:1028A00053312020414553322020424E43202020E6
:1028B0004F50543120204F50543220205553422045
:1028C000202034342E31202034382E302020383847
:1028D0002E32202039362E30203137362E3420311A
:1028E00039322E302020202020202046494C5445CB
:1028F00052312046494C544552322046494C5445A9
:1029000052332020494E564552534520204E4F52B7
:052910004D414C3001B7
:0023BE011E
:00000001FF
