:100000000C945212189518951895189518951895DE
:100010000C941C08189518950C941E110C94030848
:100020000C94EA07189518950C94090E18951895D4
:1000300018951895189518950C94BC08189518954E
:100040000C943908189518951895189518951895C1
:100050001895189518951895189518951895189538
:100060001895189518951895189518951895189528
:100070001895189518951895189518951895189518
:100080001895189518951895189518950100CE048F
:10009000080073047E048A049504A104AC04B80427
:1000A000C3040000310B0800A20ABD0ACD0ADD0A14
:1000B000ED0AFD0A0D0B280B219741E050E09E014F
:1000C0000E9490050881219608950E941614A02F81
:1000D00016E20A2F000F06700062EEDF902F17E283
:1000E0000A2F000F06700062E7DF802F18E2AA0FC8
:1000F000A670A0620A2FE0DF9C7F992311F000E038
:100100000BC08C7F882311F000E006C00C7F003408
:1001100011F000E001C001E0E3E00C9421148A93A7
:100120002197802F10E0082FC7DF088308810D7FFB
:10013000088341E050E09E0110E0082F0E94700506
:1001400021968991089513E0B7DF077008959A9377
:100150008A932197902F812F13E0092FADDF088319
:100160000881087F0883082F07701881102B1883D7
:1001700041E050E09E0113E0092F0E947005877056
:10018000092FE1DF801711F401E001C000E02196A2
:10019000899199910895979800E00093A208089595
:1001A0001D0120E0979A00916200086000936200B0
:1001B00030E009C0E0E4F6E08F01F8013197012B4F
:1001C000D9F720E03395323008F0DFC060E00EC090
:1001D00000916500026000936500E0E1F0E08F01AE
:1001E000F8013197012BD9F723956395683010F703
:1001F000222381F4009162000B7F00936200009142
:1002000062000D7F00936200009162000E7F0093F8
:1002100062007DC0213081F4009162000B7F009369
:100220006200009162000D7F009362000091620005
:100230000160009362006BC0223081F40091620083
:100240000B7F0093620000916200026000936200E5
:10025000009162000E7F0093620059C0233081F448
:10026000009162000B7F00936200009162000260C7
:10027000009362000091620001600093620047C039
:10028000243081F4009162000460009362000091C8
:1002900062000D7F00936200009162000E7F009368
:1002A000620035C0253081F4009162000460009343
:1002B0006200009162000D7F009362000091620075
:1002C00001600093620023C0263081F40091620037
:1002D000046000936200009162000260009362007B
:1002E000009162000E7F0093620011C0273079F404
:1002F000009162000460009362000091620002605D
:100300000093620000916200016000936200332359
:1003100011F0AF9805C0009165000D7F0093650056
:10032000E8E0F0E08F01F8013197012BD9F7009157
:1003300065000B7F00936500E8E0F0E08F01F801B5
:100340003197012BD9F7032F10E048E050E00E94CD
:10035000711270E0060F171FA0E4B2E0ED91FC915E
:10036000E00FF11F00810BBBE0E1F0E08F01F8012D
:100370003197012BD9F70091650004600093650067
:10038000332309F425CFAF9A28CFD1010895202F28
:1003900000E04AC0073079F41091620014601093B5
:1003A000620010916200126010936200109162006E
:1003B000116010936200E8E0F0E0AF01FA013197BC
:1003C000452BD9F7109165001D7F10936500E8E07B
:1003D000F0E0AF01FA013197452BD9F71091650094
:1003E0001B7F10936500E8E0F0E0AF01FA01319760
:1003F000452BD9F72BBBE0E1F0E0AF01FA013197D3
:10040000452BD9F710916500146010936500109189
:100410006500126010936500E0E1F0E0AF01FA01C1
:100420003197452BD9F70395083008F085C0979A86
:1004300010916200177F10936200002381F41091E5
:1004400062001B7F10936200109162001D7F109369
:100450006200109162001E7F10936200ACCF0130E9
:1004600081F4109162001B7F109362001091620072
:100470001D7F109362001091620011601093620062
:100480009ACF023081F4109162001B7F10936200BA
:1004900010916200126010936200109162001E7F42
:1004A0001093620088CF033081F4109162001B7FAB
:1004B000109362001091620012601093620010911C
:1004C000620011601093620076CF043081F41091C5
:1004D0006200146010936200109162001D7F1093FF
:1004E0006200109162001E7F1093620064CF05309D
:1004F00081F4109162001460109362001091620008
:100500001D7F1093620010916200116010936200D1
:1005100052CF063009F03ECF109162001460109364
:1005200062001091620012601093620010916200EC
:100530001E7F109362003FCF00E042C0073079F485
:1005400010916200146010936200109162001260BA
:100550001093620010916200116010936200E8E055
:10056000F0E0AF01FA013197452BD9F7AF98E8E0F9
:10057000F0E0AF01FA013197452BD9F710916500F2
:100580001B7F10936500E8E0F0E0AF01FA013197BE
:10059000452BD9F72BBBE0E1F0E0AF01FA01319731
:1005A000452BD9F710916500146010936500AF9A40
:1005B000E0E1F0E0AF01FA013197452BD9F703955F
:1005C000083008F085C0979A10916200177F109349
:1005D0006200002381F4109162001B7F109362007F
:1005E000109162001D7F10936200109162001E7FC7
:1005F00010936200B4CF013081F4109162001B7F30
:1006000010936200109162001D7F109362001091A0
:100610006200116010936200A2CF023081F4109149
:1006200062001B7F109362001091620012601093B1
:100630006200109162001E7F1093620090CF033021
:1006400081F4109162001B7F109362001091620090
:1006500012601093620010916200116010936200AA
:100660007ECF043081F41091620014601093620018
:10067000109162001D7F10936200109162001E7F36
:10068000109362006CCF053081F410916200146009
:1006900010936200109162001D7F10936200109110
:1006A00062001160109362005ACF063009F046CF05
:1006B0001091620014601093620010916200126049
:1006C00010936200109162001E7F1093620047CF6A
:1006D000089508950E940F14202E412E832E642E1B
:1006E000862FA5E1B2E0222319F4ABE1B2E037C0D6
:1006F0002F3F19F4A1E2B2E032C018EC121B42E025
:10070000012F0E946412442339F0FD010EE202839E
:10071000FD0105E3038306C0FD010EE20283FD0136
:1007200000E3038342E0012F0E946412102F4AE08D
:10073000012F0E946412005D0C930C91003339F478
:10074000E2E4F2E020813181F90100E200834AE035
:10075000012F0E946412142F105DFD011183552397
:1007600071F040E150E0EEE3F2E020813181E0E41D
:10077000F2E0008111810E942B1412DD56C043E08B
:1007800050E03324220C331CF101EC5BFD4F20813F
:100790003181E0E4F2E0008111810E942B1444E0F9
:1007A00050E05524440C551CF201EC5AFD4F2081B9
:1007B0003181E0E4F2E0008111810D5F1F4F0E9462
:1007C0002B14882311F0A7E2B2E045E050E09D0130
:1007D000E0E4F2E000811181095F1F4F0E942B14B9
:1007E00043E050E09924880C991CF401E259FD4F34
:1007F00020813181E0E4F2E000811181045F1F4F2C
:100800000E942B1441E050E07724660C771CF30122
:10081000E458FD4F20813181E0E4F2E00081118154
:10082000015F1F4F0E942B14BBDCEAE00C941A14EA
:10083000219741E050E09E010E9490050881219699
:1008400008952197288341E050E09E010E947005A1
:10085000219608958A9380E010E402E9E9DF0C7F95
:10086000083A09F48E5F10E400E9E2DF0C7F083AF1
:1008700009F48395082F899108959A938A93802F7C
:10088000912F17E0082FD4DF202F992311F021603A
:1008900001C02E7F17E0082FD4DF89919991089528
:1008A0009A938A93902F812F11E0092FC1DF202F77
:1008B000237F880F880F8C70282B11E0092FC1DF50
:1008C0008991999108951F73212F15E0BADF08953A
:1008D0009A938A93902F012F822FECE8F0E0FBBFD0
:1008E000F0E00C94D21316E2092FA2DF202F207F14
:1008F0008F70282B16E2092FA4DF50C016E2092FB3
:1009000097DF202F2F708295807F282B16E2092FEA
:1009100098DF44C017E2092F8BDF202F207F8F70D4
:10092000282B17E2092F8DDF39C017E2092F80DF4E
:10093000202F2F708295807F282B17E2092F81DFCF
:100940002DC018E2092F74DF202F207F8F70282BF5
:1009500018E2092F76DF22C018E2092F69DF202F65
:100960002F708295807F282B18E2092F6ADF16C02E
:1009700019E2092F5DDF202F207F8F70282B19E2CD
:10098000092F5FDF0BC019E2092F52DF202F2F70D4
:100990008295807F282B19E2092F53DF8991999145
:1009A00008959A938A93802F912F1FE0082F40DF9C
:1009B000202F992311F0226001C02C7F1FE0082F07
:1009C00040DF8991999108959A938A93802F912F6E
:1009D00011E0082FE6DF292F10E1082F32DF89917F
:1009E0009991089521E010E02CDF08959A938A935D
:1009F000902F812F1CE0092F1BDF202F207F8F706D
:100A0000282B1CE0092F1DDF8991999108959A9355
:100A10008A93902F812F16E0092F0ADF202F287F3D
:100A20008770282B16E0092F0CDF89919991089582
:100A300008E400937000089510E01093740014EA25
:100A40001093740010917400212F27FFFBCF109199
:100A50007100187F183011F001E0089500937300C1
:100A600004E80093740000917400102F17FFFBCF6F
:100A700000917100087F083121F0003411F001E08D
:100A8000089500E008950093730004E80093740053
:100A900000917400102F17FFFBCF00917100087FA9
:100AA000083211F001E0089500E0089504EC00938D
:100AB000740000917400102F17FFFBCF009173009A
:100AC000089504E80093740000917400102F17FF3C
:100AD000FBCF00917300089504E90093740008951A
:100AE000192E282E012EB901A7DF002311F001E0F5
:100AF00014C0002DC8DF80E090E001C0019684178B
:100B0000950748F4FB01E80FF91F0081BCDF0023C3
:100B1000A9F301E002C0E0DF00E0822D912D0895ED
:100B20000E941514602F712FD901062F85DF002335
:100B300011F001E01EC0072FA6DF6160062F7CDFE9
:100B4000002311F001E015C080E090E006C0AEDFA8
:100B5000FD01E80FF91F00830196FA0131978E1706
:100B60009F07A8F3AEDFA40FB51F11970C93B4DF56
:100B700000E0E4E00C9420140E94151404E812E054
:100B80000E94F6110FEF0ABB0DEB07BB0FEF04BB82
:100B900003E801BB0AE402B90FE0009361000FE132
:100BA0000093640000E00BBB0FE708BB0FEF05BB31
:100BB0000FEF02BB0FEF03B900EF009362000EE1ED
:100BC0000093650007B3007C07BBC59A07B3007F9D
:100BD00007BBC39A82B100E002B91F9A02B1087F35
:100BE00002B91A9A139A03B1007F03B9BF9A98B356
:100BF00000E008BBBA9AC29A02B1007E02B903B102
:100C0000007E03B901B3087F01BB02B3087F02BBBA
:100C100001E912E00E94F6110E94180504EA12E0B0
:100C20000E94F61103E003BF04E00EBD02E005BD23
:100C300007E304BD05E002BF04EE19EF1DBD0CBDC6
:100C400000E001BF05E407BF05E406BF05EB12E0C5
:100C50000E94F6110CEF09BF00E600936A0005E55B
:100C60000ABF0CEF08BF0AEC12E00E94F61100E286
:100C70000E946500002329F007EE12E00E94F611A1
:100C800004C00EEF12E00E94F61100E90E94F20487
:100C900002E90E94F20409E113E00E94F61100E467
:100CA00013E00E94F61111E000E90E943D0417E0F4
:100CB00000E90E941804013429F40EE513E00E94B3
:100CC000F61104C00FE713E00E94F61100EA13E0EA
:100CD0000E94F61111E002E90E943D0417E002E9CA
:100CE0000E941804013429F40FEB13E00E94F6115E
:100CF00004C001EE13E00E94F61103E014E00E942C
:100D0000F6110E942A04802F882329F402E214E0BD
:100D10000E94F61114C0833029F402E414E00E940A
:100D2000F6110DC0813029F40EE514E00E94F61191
:100D300006C0823021F401E814E00E94F61111E0AF
:100D400000E90E94500411E002E90E94500405EA03
:100D500014E00E94F61181E006C020E0182F00E99F
:100D60000E94680483958930C0F381E006C021E0C9
:100D7000182F02E90E94680483958930C0F30EEDB4
:100D800014E00E94F61110E000E90E94E40410E073
:100D900002E90E94E4040AE015E00E94F61117E05F
:100DA00000E90E94070517E002E90E94070501E338
:100DB00015E00E94F61110E000E90E943D0410E0E9
:100DC00002E90E943D0409E515E00E94F6111FE0CA
:100DD00000E90E94F6041FE002E90E94F60402E71F
:100DE00015E00E94F61103E915E00E94F6110E9439
:100DF000CB00789480E00AC090E0A0E4B2E0ED91EE
:100E0000FC91E80FF91F00E2008383958031A0F385
:100E100000E00093DD0800E00093DE0801E00093AD
:100E2000E608E4E00C942014AC0180E090E008C0F7
:100E3000E0E8FEE39F01F9013197232BD9F70196F2
:100E4000F8013196E817F90798F7CA01089560E0AC
:100E500070E06F3F00E0700731F405E010E0E4DF80
:100E600005E010E0E1DF0091B3081091B408010F34
:100E70000093CC080091CC081091B5080117D9F463
:100E80000091B30810E0E1EBF8E000831183E1EB9F
:100E9000F8E00081102F00E0E1EBF8E0008311831F
:100EA0000091B40810E0E1EBF8E020813181200FDF
:100EB000311F20833183E1EBF8E000811181E6EC02
:100EC000F8E000831183E6ECF8E0008111810F3F28
:100ED00027E01207F0F5E8ECF8E0008111812281AB
:100EE000322F212F102F00E0E8ECF8E0008311836F
:100EF00022833383E8ECF8E0008111812281322FD4
:100F0000212F102F00E0E8ECF8E00083118322830A
:100F10003383603800E0700778F4062F02950F7075
:100F20000093DB08062F069507700093E108062F53
:100F3000017000939F0819C00FEF0093DF0800E0D5
:100F40000093DB0800E00093E10801E000939F08B4
:100F50000CC00FEF0093DF0800E00093DB0800E017
:100F60000093E10801E000939F080E94EC0C18E751
:100F700000E90E94630418E702E90E9463040E94EA
:100F8000940C0AE010E050DF0AE010E04DDF0E9410
:100F90004A0D979A01E00093A20800916500016054
:100FA0000093650003E00E94C7010895AC0180E052
:100FB00090E008C0E0E8FEE39F01F9013197232BA0
:100FC000D9F70196F8013196E817F90798F7CA01A1
:100FD000089508952A931A930A931FB72BB7009187
:100FE000D408002351F00F9B04C001E00093CE0809
:100FF00003C000E00093CE08ECDF2BBF1FBF0991B8
:101000001991299118952A931A930A931FB72BB710
:101010000091D408002351F00E9B04C001E000931E
:10102000CF0803C000E00093CF08D3DF2BBF1FBF62
:1010300009911991299118952A931A930A931FB728
:101040002BB7839B07C000E00093BB0800E0009330
:10105000BC0809C001E00093BA0801E00093BB0896
:1010600000E00093BC082BBF1FBF09911991299183
:101070001895FA93EA934A933A932A931A930A9308
:101080003FB74BB705E002BF0091D8080395009326
:10109000D8080091D408002309F464C00091E20844
:1010A0000023B9F00091E3081091E408013727E12B
:1010B000120730F000E00093E20800E00093E5083A
:1010C000E3EEF8E0008111810F5F1F4F0083118371
:1010D00049C00091E7081091E808083C20E0120799
:1010E00021F401E00093C50835C00091E708109194
:1010F000E808003223E0120769F50091CE0800935A
:10110000D0080091CF080093D1080F9B04C001E0E4
:101110000093CE0803C000E00093CE080E9B04C0ED
:1011200001E00093CF0803C000E00093CF080091D6
:10113000D0081091CE08011731F40091D108109118
:10114000CF08011709F045DF00E00093E70800E051
:101150000093E808E7EEF8E0008111810F5F1F4F70
:10116000008311834BBF3FBF099119912991399198
:101170004991E991F99118959A938A93FA93EA9390
:101180003A922A921A920A927A936A935A934A93BB
:101190003A932A931A930A938FB79BB700E00EE80D
:1011A0001DEF1DBD0CBD01E00093C4080091BB08FC
:1011B0001091BC08012B51F1EBEBF8E0008111819B
:1011C0000F5F1F4F0083118349E150E00091BB087E
:1011D0001091BC080E947912452B19F401E000938C
:1011E000BD080091BB081091BC080D3221E0120728
:1011F00068F045E050E00091BB081091BC080E94E7
:101200007912452B19F401E00093BD080091E6081E
:10121000002309F457C00091D408002309F452C0F8
:1012200083993AC00091D508013051F4E091D20879
:10123000F091D308369720F002E00093D50820C043
:101240000091D5080230E1F4E091D208F091D30882
:101250003797B0F000E086990395000F10E085996C
:101260001395010F000F10E084991395010F0230C0
:1012700019F40E94280D04C0053011F40E94290DB4
:1012800000E00093A508E2EDF8E0008111810F5F16
:101290001F4F0083118316C000E00093D50800E0C3
:1012A0000093D20800E00093D3080091A508002322
:1012B00049F401E00093A50800E00093D60800E09F
:1012C0000093D708E9EDF8E0008111810F5F1F4F0F
:1012D000008311839BBF8FBF099119912991399187
:1012E0004991599169917991099019902990399072
:1012F000E991F9918991999118958A9380E080B349
:1013000082958F70877002E116E00E94F611082F17
:101310000E942B120EE116E00E94F611815089F016
:101320008A95F9F08A95E9F18A9509F440C08A9581
:1013300009F44DC08A9509F477C08A9509F464C010
:1013400089C00091C0080A950093C0080091C008A8
:1013500007700093C0080E94EC0C01E000939C0809
:1013600079C00091BE08002311F00E94760C009114
:10137000DF08002329F00091DF080A950093DF08B9
:101380000091DF08083C18F007EC0093DF080E948A
:10139000940C0091DF080E94690301E000939C080F
:1013A00059C00E94760C01E000939C0853C0009144
:1013B000C00803950093C0080091C008077000930F
:1013C000C0080E94EC0C01E000939C0843C000910F
:1013D000BE08002311F00E94760C0091DF08073C44
:1013E00030F40091DF0803950093DF0803C00FEF8E
:1013F0000093DF080E94940C0091DF080E946903AB
:1014000001E000939C0826C00091C2080395009358
:10141000C2080091C208073018F000E00093C2082B
:1014200001E000939C0816C00091C308002341F01E
:1014300000E00093C30818B300E008BBC29A07C0DD
:1014400001E00093C30808B3087F08BBC79A01E016
:1014500000939C08899108950091BA08002321F017
:1014600000E00093BA0849DF0091BD08002321F095
:1014700000E00093BD0841DF0091C408002319F08B
:1014800000E00093C4080091C508002331F000E09B
:101490000093C50801E000939C080091BE081091DC
:1014A000BF08011789F00091BE080093BF080091A2
:1014B000BE08002329F001E216E00E94F61104C0E4
:1014C00005E316E00E94F6110091DF081091E00894
:1014D000011729F10091E0081091DF08011728F4A5
:1014E0000AE416E00E94F61104C007E616E00E9426
:1014F000F6110091DF080E94FF110EE116E00E9434
:10150000F6110091DF080093E0081091DF0800E970
:101510000E94E4041091DF0802E90E94E4040091B3
:10152000C0081091C108011709F49BC00091C008C0
:101530000093C1080091C008E2EAF0E0FBBFF0E0D0
:101540000C94D21311E000E20E948F0004E816E030
:101550000E94F61110E000E20E94A700002329F08B
:101560000DE916E00E94F61104C005EB16E00E949A
:10157000F61103B1007F03B9089511E000E20E9463
:10158000A700002329F003EC16E00E94F61108954D
:1015900005EB16E00E94F611089512E000E20E94A9
:1015A000A700002329F00BED16E00E94F611089524
:1015B00005EB16E00E94F611089513E000E20E9488
:1015C000A700002329F002EF16E00E94F61108950B
:1015D00005EB16E00E94F611089514E000E20E9467
:1015E000A700002329F009E017E00E94F6110895F2
:1015F00005EB16E00E94F611089515E000E20E9446
:10160000A700002329F000E217E00E94F6110895D8
:1016100005EB16E00E94F611089511E000E20E9429
:101620008F0004E816E00E94F61116E000E20E9426
:10163000A700002329F007E317E00E94F61104C079
:1016400005EB16E00E94F61103B1007F03B908957F
:1016500010E000E20E948F000EE417E00E94F611F5
:101660001B9A0895B59B04C001E00093960803C03F
:1016700000E00093960800919708002311F401E020
:1016800001C000E0E6E9F8E0108111701023112399
:1016900091F001E0009397080AE617E00E94F61126
:1016A0000091C008073039F408B3007E08BB0AE88F
:1016B00017E00E94F61100919608002311F401E052
:1016C00001C000E0E7E9F8E0108111700123002378
:1016D00081F000E00093970804EA17E00E94F611F9
:1016E0000091C008073029F4C49A06EC17E00E9464
:1016F000F6110F9B04C001E000939A0803C000E0BC
:1017000000939A0800919B08002311F401E001C0A6
:1017100000E0EAE9F8E0108111701023112339F09C
:1017200001E000939B080FED17E00E94F611009175
:101730009A08002311F401E001C000E0EBE9F8E0B1
:10174000108111700123002339F000E000939B0801
:101750000DEF17E00E94F611B39B04C001E0009367
:10176000980803C000E000939808009199080023AE
:1017700011F401E001C000E0E8E9F8E01081117027
:101780001023112339F001E0009399080BE118E0D0
:101790000E94F61100919808002311F401E001C0A5
:1017A00000E0E9E9F8E0108111700123002339F02D
:1017B00000E00093990808E318E00E94F6111A9BD4
:1017C00004C001E00093B60803C000E00093B6082F
:1017D0000091B708002311F401E001C000E0E6EB3E
:1017E000F8E0108111701023112339F001E000930B
:1017F000B70804E518E00E94F6110091B60800232E
:1018000011F401E001C000E0E7EBF8E01081117095
:101810000123002339F000E00093B70806E718E041
:101820000E94F6111C9B04C001E00093B80803C09D
:1018300000E00093B808929B04C001E00093B9084F
:10184000089500E00093B9080895789400E011EE3F
:1018500020E030E00E94B4110DEA15E00E94F6117C
:1018600001EC15E00E94F6110E94BC050DED15E09B
:101870000E94F6110E94270706EF15E00E94F6115C
:1018800001E00093D40801E00093CD080E94940C7D
:101890000091DF080E946903EDE9F8E00081118101
:1018A000012B41F0EDE9F8E0008111810150104079
:1018B00000831183D7DED0DD00919C08002361F303
:1018C00000E000939C086091BE08EDE9F8E000811B
:1018D000502F4091C3083091C2082091DF08109129
:1018E000DC080091C0080E946A03D6CF0091E2088C
:1018F0000023C9F40091BE08002321F401E0009305
:10190000BE0803C000E00093BE081091BE0800E9C5
:101910000E943D041091BE0802E90E943D0400911E
:10192000DF080E94690308958A9380E00FC0209128
:10193000DF08182F105F00E90E9421042091DF08C2
:10194000182F105F02E90E9421048395883078F3F4
:10195000899108950091E2080023C1F41091DF08F5
:101960000091DF08053C30F40091DF080D5F009323
:10197000DF0803C00FEF0093DF080091DF081017A6
:1019800029F0D2DF0091DF080E94690308950091D9
:10199000E208002301F51091DF080091DF080F3FF6
:1019A00021F407EC0093DF080DC00091DF0803303D
:1019B00030F00091DF0803500093DF0803C000E01F
:1019C0000093DF080091DF08101729F0ADDF0091C8
:1019D000DF080E94690308950091BE08002341F0CA
:1019E00011E000E90E943D0411E002E90E943D047B
:1019F0000091DB08073011F401E001C000E0109114
:101A0000A308011749F00093A308E3EAF8E0008176
:101A100000FD1B9A00FF1B980091A408077C00930F
:101A2000A4080091DB08000F000F000F1091A4081C
:101A3000100F1093A4080091BE08002341F410E099
:101A400000E90E943D0410E002E90E943D0408956F
:101A5000089508950091E208002359F40091C00808
:101A600003950093C0080091C00807700093C00858
:101A7000B3DF08950091E208002359F40091C008F3
:101A80000A950093C0080091C00807700093C00831
:101A9000A3DF08958A9300E00093A10800E008BF47
:101AA0000091E108033019F400E00093E10880910F
:101AB000E10805E010E00E94D6078823882321F082
:101AC00008EC10E00E94D60701E00093A108E6EDC3
:101AD000F8E000E0008300E0018308E008BF89919E
:101AE0000895BA93AA930091E208013021F0009181
:101AF000E208023021F401E00093E50837C00091CC
:101B0000E208033061F400919F08002321F401E012
:101B100000939F082BC000E000939F0827C000910E
:101B2000E208043019F50091E10803950093E108FB
:101B30000091BE08002341F011E000E90E943D043D
:101B400011E002E90E943D04A5DFEEDE05E010E0B1
:101B50000E94D6070091BE08002341F410E000E97E
:101B60000E943D0410E002E90E943D0400E013C021
:101B700010E0A2E8B2E0ED91FC91E00FF11F389780
:101B8000408110E0E0E4F2E020813181200F311F3C
:101B9000F90140830395003180F50830C0F42091AD
:101BA000E10830E0220F331FF901E259FD4F208197
:101BB000318110E0200F311FF901208110E0A0E4F5
:101BC000B2E0ED91FC91E00FF11F2083E3CF109183
:101BD0009F08112369F610E0A0E8B2E0ED91FC91B6
:101BE000E00FF11F3897208110E0A0E4B2E0ED9102
:101BF000FC91E00FF11F2083CDCFE3EEF8E000E091
:101C0000008300E0018301E00093C408A991B99129
:101C10000895FA93EA934A933A932A931A930A936C
:101C20003FB74BB707E304BDEBEEF8E0008111814D
:101C30000F5F1F4F008311830091FA081091FB087A
:101C4000012B41F0EAEFF8E0008111810F5F1F4F97
:101C5000008311830091EB081091EC080D3424E00F
:101C6000120708F452C000E00093E90800E0009376
:101C7000EA0800E00093EF0800E00093F00800E0BD
:101C80000093ED0800E00093EE0800E00093F108F7
:101C900000E00093F20800E00093F30800E00093F6
:101CA000F40800E00093F50800E00093FF0800E06E
:101CB0000093020900E00093FE0800E00093000991
:101CC00000E00093010900E00093030900E00093A5
:101CD000040900E00093FD0800E00093EB0800E039
:101CE0000093EC0800E00093050901E00093A008D0
:101CF0000091A008002349F401E00093A00800E04F
:101D00000093D60800E00093D7084BBF3FBF09916E
:101D10001991299139914991E991F991189500E02A
:101D20000093E90800E00093EA08EFEEF8E000E035
:101D3000008300E00183EDEEF8E000E0008300E0C6
:101D40000183E1EFF8E000E0008300E00183E3EFCE
:101D5000F8E000E0008300E0018300E00093F50874
:101D600000E00093FF0800E00093020900E0009308
:101D7000FE0800E00093000900E00093010900E084
:101D80000093030900E00093040900E00093FD08BC
:101D900000E0009305090895BA93AA930091EA0818
:101DA000015041F00A95E1F00A9581F10A9509F494
:101DB00043C057C0EDEEF8E000811181000F111F04
:101DC000EDEEF8E0008311830091FC0810E0EDEEE9
:101DD000F8E020813181202B312B2083318341C0D9
:101DE000EFEEF8E000811181000F111FEFEEF8E037
:101DF000008311830091FC0810E0EFEEF8E02081F1
:101E00003181202B312B208331832BC0E1EFF8E08F
:101E100000811181000F111FE1EFF8E000831183B1
:101E20000091FC0810E0E1EFF8E020813181202BE7
:101E3000312B2083318315C0E3EFF8E0008111815D
:101E4000000F111FE3EFF8E0008311830091FC08FD
:101E500010E0E3EFF8E020813181202B312B20834B
:101E600031830091F50803950093F5080091F5087A
:101E7000083040F00091EA0803950093EA0800E07A
:101E80000093F5080091EA08053008F405C1EDEE6D
:101E9000F8E0008111810F70107000831183EFEE64
:101EA000F8E0008111810F70107000831183ADEE96
:101EB000B8E0ED91FC91379709F0B1C0AFEEB8E012
:101EC000ED91FC913A9709F0AAC0E3EFF8E00081A8
:101ED0001181E1EFF8E0208131814FEF242740E0CC
:101EE00034270217130709F098C0E1EFF8E00081EA
:101EF0000093A6080091CD08002309F48AC0EAEFF8
:101F0000F8E000811181095E1340033F21E01207D0
:101F1000A8F4E1EFF8E000811181003820E0120719
:101F200019F40E94280D0AC0E1EFF8E00081118148
:101F3000083A20E0120711F40E94290DEAEFF8E0B8
:101F400001E010E00083118300E00093A008E1EFBE
:101F5000F8E000811181003B20E0120719F40E9493
:101F6000760C57C0E1EFF8E000811181003820E0E5
:101F7000120719F40E94280D4CC0E1EFF8E000812F
:101F80001181083A20E0120719F40E94290D41C07E
:101F9000E1EFF8E000811181003920E0120719F427
:101FA0000E942A0D36C0E1EFF8E000811181083867
:101FB00020E0120719F40E943A0D2BC0E1EFF8E07F
:101FC00000811181003A20E0120771F40091E508C8
:101FD000002321F401E00093E20803C003E0009332
:101FE000E2080E94710D15C0E1EFF8E00081118157
:101FF000083920E0120769F40091E508002321F474
:1020000002E00093E20803C004E00093E2080E94AB
:10201000710D00E00093060903C081DE01C07FDE80
:1020200000E00093E90800E00093EA08EFEEF8E032
:1020300000E0008300E00183EDEEF8E000E00083C3
:1020400000E00183E1EFF8E000E0008300E00183BD
:10205000E3EFF8E000E0008300E0018300E000939C
:10206000F50800E00093FF0800E00093020900E09B
:102070000093FE0800E00093000900E000930109CE
:1020800000E00093030900E00093040900E00093DE
:10209000FD0800E000930509A991B9910895BA934C
:1020A000AA930091FF080023E9F10091020900239F
:1020B000C9F10091E908002309F0BDC001E00093D7
:1020C000E90801E00093EA0800E00093F60800E068
:1020D0000093F908E7EFF8E000E0008300E00183F7
:1020E00000E00093FF0800E00093020900E0009385
:1020F000FE0800E00093000900E00093010900E001
:102100000093030900E00093040900E00093FD0838
:10211000E7E0F9E000E0008300E0018300E00093E5
:10212000050989C00091E908002399F00091FE0893
:10213000002379F000910009002359F000E000939A
:10214000FC0800E00093FE0800E00093000924DE94
:1021500072C00091E908002399F00091FE08002365
:1021600079F000910109002359F001E00093FC0887
:1021700000E00093FE0800E0009301090DDE5BC063
:102180000091E908002381F400910309002361F024
:1021900001E00093FD0800E00093030900910509A8
:1021A00003950093050947C00091FD08002309F439
:1021B00042C0009104090023F1F10091CD080023F1
:1021C000D1F100910509013081F500E00093040987
:1021D00000E00093A008E7E0F9E0008111810F5FC3
:1021E0001F4F00831183A7E0B9E0ED91FC91339775
:1021F00070F00091A608003819F40E94C70C1BC0AB
:102200000091A608083AB9F40E94AA0C14C00091E3
:10221000A608003819F40E94280D0DC00091A608E8
:10222000083A49F40E94290D06C000E00093050910
:1022300000E00093A608A991B99108959A938A9312
:10224000FA93EA933A922A921A920A927A936A93AA
:102250005A934A933A932A931A930A938FB79BB748
:102260000D9B1AC0E091EB08F091EC08349735977C
:1022700020F401E00093FE0851C0E091EB08F091DA
:10228000EC08F797BE9720F401E00093FF0846C0E2
:1022900001E00093090942C00D9940C0E091EB08AC
:1022A000F091EC083497359720F401E00093000991
:1022B00035C0E091EB08F091EC0839973E9720F497
:1022C00001E0009301092AC0E091EB08F091EC08CD
:1022D000B897709720F401E0009302091FC00091A5
:1022E000EB081091EC08085C1040093C20E0120754
:1022F00020F401E00093030911C00091EB08109154
:10230000EC0800521340093C20E0120720F401E0E1
:102310000093040903C001E00093090900E0009361
:10232000EB0800E00093EC0800910909002341F05C
:1023300000E00093090900E000930409F0DC01C00B
:10234000AEDE9BBF8FBF09911991299139914991B7
:102350005991699179910990199029903990E99151
:10236000F9918991999118950E941514C801D90184
:1023700040EB54E060E070E08C019D010E949312FC
:10238000452B462B472B19F00FEF1FEF26C0119A54
:10239000199A1098189A00E014E224EF30E0AC018A
:1023A000BD010E9493120E94F71240E050E060E8E5
:1023B00071E40E943B130E94AD130150104098013C
:1023C000232F2093900009B900E00BB908E90AB95E
:1023D00006E00093950000E010E0E4E00C94201487
:1023E0005D9BFECF0CB900E010E00895F80102C03B
:1023F00010E0F6DF008131960023D1F708953B2FDE
:102400006A2F102FA7EAB8E044E6012F0E94641259
:10241000005D0C9344E6012F0E946412202F04E615
:10242000209F10194AE0012F0E946412005D11964E
:102430000C9311974AE0012F0E946412202F0AE0AA
:10244000209F1019105D12961C9312978D01CEDFFC
:10245000A62FB32F0895402F6BEA78E003E01AC04F
:10246000142F1F70105D202F30E0FB01E20FF31FCF
:10247000108310E0FB01E00FF11F10811A3338F0D8
:1024800010E0FB01E00FF11F1081195F10834295EE
:102490004F700A95023020F78B01A8DF08950000E5
:1024A0008895FECF0FE50DBF01E00EBFC0E4D1E07F
:1024B0000E942914002311F00E944A140E94250C46
:1024C0000E944F120C944F120024E8E0001FEA957E
:1024D0002AF0001C0416D0F3041AF8CF402D009502
:1024E0000895149F102D059F100D049F002D110DB0
:1024F000089500241124E0E1001F111FEA9542F025
:10250000001C111C04161506B8F3041A150AF4CFA2
:10251000A001009510950895369527951795079574
:102520004A95D2F70895002411241001E0E2001F1B
:10253000111F221F331FEA9572F0001C111C221C70
:10254000331C041615062606370688F3041A150AE6
:10255000260A370AECCFA001B1010095109520950D
:102560003095089530952095109501951F4F2F4F68
:102570003F4F0895FF27172E660F771F089409F421
:10258000771F6795EE27032E220F331F089409F457
:10259000331F27950895222342F0323030F03A95C8
:1025A000EE0F001F111F221FC2F7E03821F400FFB9
:1025B00008940EF488940F4F1F4F2F4F3F4F323027
:1025C00038F4332319F427FD31E002C027FF30E04F
:1025D0003F3F29F0220F000C37952795089534C00E
:1025E000E02F012F122F232F3EE9E894D4CF0024AF
:1025F000F7CFF901EE0FFF1F37FBFF3F31F0EF2B55
:10260000E12BE02B8894B8940895EE2321F00894F0
:102610009894B89408959894889438940895FB01F8
:10262000EE0FFF1F77FBFF3F31F0EF2BE52BE42B85
:102630008894B8940895EE2371F3E9CF302D307863
:1026400022271127002708953FE7302920E8F9CFF6
:102650003FEF2FEFF6CFE3DF20F01BF07078372746
:102660000895F6CFDCDFE9F3E0F3032E0726E6CF8B
:10267000032E0726E9CFBDDFA0F36BF399F3CFDF7D
:1026800080F39BF3A9F376DF012427FD06C03150C8
:10269000E040000F111F221FD2F767FD06C07150E6
:1026A000F040440F551F661FD2F7E894371BEF0B1D
:1026B0003158EF4F2AF0EE23E9F63F3FD9F203C03D
:1026C000393EA8F26894E0E0F0E040175107620755
:1026D00038F0315008F46894000F111F221FEE1FCC
:1026E00071E01124222409C0000F111F221FEE1FC8
:1026F000041715072607EF0720F0041B150B260B00
:10270000EF0B771F111C221C78F7000F111F221FDF
:10271000EE1F041715072607EF073E2EF0F9E89481
:10272000E0E839F008F4E0E0322A312A302A09F0F2
:102730006894709510942094332311F0F0FF09C031
:10274000269417947795E79508F46894339531307B
:10275000BCF3072F112D222D28CF14DF3F5748F04F
:102760003F3168F007FC6ACF3FE72FEF1FEF0FEF15
:10277000089530E020E0890110E000E00895432F43
:10278000322F212F102F0E2F4F5141950E94901262
:1027900007FE08950C94B2124791179011FA2790F2
:1027A00037900895F9DF041B10E000C020E030E00E
:1027B00000C0B8F010FC17C047910790E00FF11F60
:1027C0000417100540E02407340758F436F4069146
:1027D0000024F101E01BF0090994E00FF11F27909C
:1027E0003790F101099411F4D6F7F1CF31960EF03C
:1027F000319650E060E070E047914B3F48F089F33C
:102800004F3F29F04E3F11F07791679157914791D3
:10281000041B150B260B370B39F318F3E7CF9A92ED
:102820008A927A926A925A924A92BA93AA939A9305
:102830008A930895998488847F806E805D804C801F
:10284000BB81AA8199818881F0E0EC0FFD1FEF0127
:10285000089501E008950D01D80105C0F9016081D6
:102860006D932F5F3F4FBA0141505040672BB1F736
:10287000D001089520E02D9301501040E1F7089514
:102880003BBF26912D93EF5FFF4F3F4F015010400C
:10289000B9F708954AEE58E260E0FA01362F3BBFDF
:1028A00007911691FA01EE5FFF4F3F4F3BBFA79193
:1028B000B691FA01362FEC5FFF4F3F4F3BBF0790B9
:1028C00017902690202D2129222921F0F001322D68
:1028D000D7DF01C0CFDF495F5F4F6F4F18E220E0C5
:1028E000483F51076207C8F2089551076001F82870
:1028F000005900B10800000046454D544F322053A6
:1029000049474E41545552450031323334353637FC
:1029100038393031323334353600433120004332D8
:102920002000412020004F3120004F3220004F3343
:1029300020004F342000552020002020202000209F
:102940003434200020343820002036342000203851
:102950003820002039362000313238200031373617
:102960002000313932200032353620003335322014
:102970000033383420003531322000463120004603
:1029800032200046332000463420004635200046E1
:10299000362000463720004C00480020494E56455E
:1029A0005253450020204E4F524D414C0020565668
:1029B000562000204D41582000204D494E20004D0A
:1029C000555445200043482053414D20564F4C5507
:1029D000204649204F0060017101340282018601C6
:1029E0008A018E01920196019A019E01A201A7011E
:1029F000AC01B101B601BB01C001C501CA01CF01E3
:102A0000D401D901DE01E301E701EB01EF01F3019C
:102A1000F701FB01FF01010203020C02506F727407
:102A200020696E69742E0D0A0049324320696E696F
:102A30007469616C697A652E2E0D0A0054696D65A2
:102A4000722073657474696E672E0D0A00496E7486
:102A50006572727570742073657474696E672E0D7B
:102A60000A005B4932435D20414B3431313841200B
:102A7000536561726368696E672E2E2E0D0A005BC6
:102A80004932435D20414B343131384120466F7526
:102A90006E642E0D0A005B4932435D20414B343198
:102AA000313841206E6F7420666F756E642E0D0A8A
:102AB000005B4932435D2045533930333850524F23
:102AC00020536F667420526573657420636F6D7058
:102AD0006C6574652E0D0A005B4932435D204553D9
:102AE0003930333820553232204C656674204D75AC
:102AF00074652E0D0A005B4932435D204553393021
:102B0000333820553232204C656674204D7574651B
:102B1000204F4B2E0D0A005B4932435D204553394F
:102B200030333820553232204C656674204D757430
:102B300065204E472E0D0A005B4932435D20455308
:102B40003930333820553532205269676874204D4A
:102B50007574652E0D0A005B4932435D204553397B
:102B600030333820553532205269676874204D75EE
:102B70007465204F4B2E0D0A005B4932435D2045A2
:102B80005339303338205535322052696768742004
:102B90004D757465204E472E0D0A005B4932435D2A
:102BA0002045533930333850524F2053656172639A
:102BB00068696E672E2E2E0D0A005B4932435D2038
:102BC00045533930333850524F207832206E6F746D
:102BD00020666F756E642E0D0A005B4932435D20DE
:102BE00045533930333850524F20783220666F7554
:102BF0006E642E0D0A005B4932435D204553393027
:102C0000333850524F206F6C6E79206C656674209B
:102C1000666F756E642E0D0A005B4932435D204578
:102C2000533930333850524F206F6C6E79207269AF
:102C300067687420666F756E642E0D0A005B4932FA
:102C4000435D2045533930333850524F204175741D
:102C50006F2053656C6563742066756E6374696F6D
:102C60006E204453442F49325320636F6D706C655E
:102C700074652E0D0A005B4932435D20455339309F
:102C8000333850524F204368616E6E656C206D6121
:102C90007070696E6720636F6D706C6574652E0D62
:102CA0000A005B4932435D20455339303338505276
:102CB0004F20566F6C756D65204D617820636F6D88
:102CC000706C6574652E0D0A005B4932435D2045CA
:102CD000533930333850524F20566F6C756D652024
:102CE00052616D702052617465203D20372E0D0AAF
:102CF000005B4932435D20455339303338204D75F0
:102D00007465204F66662E0D0A005B4932435D20D4
:102D1000455339303338204453442044504C4C20E0
:102D2000486967686573742E0D0A005B5350495DEE
:102D300020444F54204D617472697820436C656162
:102D4000722E0D0A000D0A53797374656D20737429
:102D500061727465642E0D0A0053797374656D2079
:102D6000696E697469616C697A696E672E2E2E2EA0
:102D70002E2E0D0A0053797374656D20696E697487
:102D800020436F6D706C657465642E0D0A00537975
:102D90007374656D20696E697420736520436F6D6F
:102DA000706C657465642E0D0A004B657920636F45
:102DB0006465203D20000D0A005B455339303338EF
:102DC0005D204D757465206F6E2E0D0A005B4553B6
:102DD000393033385D204D757465206F66662E0D71
:102DE0000A005B4553393033385D20566F6C756D82
:102DF000652064656372657365642E202D20005B19
:102E00004553393033385D20566F6C756D652069D8
:102E10006E6372657365642E202D20005B4932431A
:102E20005D20414B34313138412057616B6520754D
:102E3000702E0D0A005B4932435D20434F415831EB
:102E40002053656C65637465642E0D0A00436F6DD5
:102E50006D206572726F722E0D0A005B4932435D00
:102E600020434F4158322053656C65637465642E6E
:102E70000D0A005B4932435D2041455331205365C3
:102E80006C65637465642E0D0A005B4932435D20F6
:102E90004F5054312053656C65637465642E0D0A80
:102EA000005B4932435D204F5054322053656C65BE
:102EB000637465642E0D0A005B4932435D204F50F8
:102EC00054332053656C65637465642E0D0A005B92
:102ED0004932435D204F5054342053656C65637410
:102EE00065642E0D0A005B4932435D20414B34314D
:102EF00031384120506F77657220646F776E2E0DE8
:102F00000A005B5341393132375D2055534220412D
:102F10007564696F204163746976617465642E0D10
:102F20000A005B4D43555D20444143204D75746557
:102F30002064697361626C652E0D0A005B53413930
:102F40003132375D2055534220417564696F20440A
:102F5000656163746976617465642E0D0A005B4D6A
:102F600043555D20444143204D75746520656E6175
:102F7000626C652E0D0A005B5341393132375D209A
:102F8000445344206D6F64652064657465637465A3
:102F9000642E0D0A005B5341393132375D205043B6
:102FA0004D206D6F64652064657465637465642E7F
:102FB0000D0A005B5341393132375D2044534420C0
:102FC0003132382064657465637465642E0D0A00BF
:102FD0005B5341393132375D20445344203634202D
:102FE00064657465637465642E0D0A005B53413932
:102FF0003132375D2055534220697320696E206E4F
:103000006F726D616C206D6F64652E0D0A005B53ED
:1030100041393132375D2055534220697320696E42
:103020002073757370656E6465642E0D0A0001016E
:10303000010101010160EA0101010101800130305B
:09304000303000307830302000FF
:0024A40137
:00000001FF
