:100000000C940C1418951895189518951895189522
:100010000C94100A189518950C94D8120C94DD09BC
:100020000C94AA09189518950C94C30F1895189557
:1000300018951895189518950C94C20A1895189546
:100040000C942D0A189518951895189518951895CB
:100050001895189518951895189518951895189538
:100060001895189518951895189518951895189528
:100070001895189518951895189518951895189518
:1000800018951895189518951895189501004B0511
:100090000800F004FB04070512051E0529053505B7
:1000A00040050000E50C0800560C710C810C910C09
:1000B000A10CB10CC10CDC0C219741E050E09E0179
:1000C0000E94FC050881219608950E94CA15A02F60
:1000D00016E20A2F000F06700062EEDF902F17E283
:1000E0000A2F000F06700062E7DF802F18E2AA0FC8
:1000F000A670A0620A2FE0DF9C7F992311F000E038
:100100000BC08C7F882311F000E006C00C7F003408
:1001100011F000E001C001E0E3E00C94CF159A93E8
:100120008A932197802F912F10E0082FC5DF088335
:10013000992321F008810D7F088303C008810260A4
:10014000088341E050E09E0110E0082F0E94DC058A
:1001500021968991999108959A938A932197902F46
:10016000812F13E0092FA8DF08830881087F088307
:10017000082F07701881102B188341E050E09E0172
:1001800013E0092F0E94DC0513E0092F95DF088397
:10019000877008810770801711F401E001C000E04A
:1001A0002196899199910895979800E00093960877
:1001B0000895282E20E0979A00916200086000932D
:1001C000620080E009C0E0E4F6E08F01F8013197B9
:1001D000012BD9F720E08395823008F0DCC060E085
:1001E0000EC000916500026000936500E0E1F0E060
:1001F0008F01F8013197012BD9F72395639568306A
:1002000010F7222381F4009162000B7F00936200BB
:10021000009162000D7F00936200009162000E7FEA
:10022000009362007DC0213081F4009162000B7F59
:1002300000936200009162000D7F009362000091C4
:1002400062000160009362006BC0223081F4009173
:1002500062000B7F009362000091620002600093D5
:100260006200009162000E7F0093620059C023304B
:1002700081F4009162000B7F0093620000916200A4
:1002800002600093620000916200016000936200CE
:1002900047C0243081F40091620004600093620042
:1002A000009162000D7F00936200009162000E7F5A
:1002B0000093620035C0253081F400916200046033
:1002C00000936200009162000D7F00936200009134
:1002D000620001600093620023C0263081F4009127
:1002E000620004600093620000916200026000936B
:1002F0006200009162000E7F0093620011C02730FF
:1003000079F4009162000460009362000091620041
:10031000026000936200009162000160009362003D
:10032000882311F0AF9805C0009165000D7F009300
:100330006500E8E0F0E08F01F8013197012BD9F773
:10034000009165000B7F00936500E8E0F0E08F010D
:10035000F8013197012BD9F7082F10E048E050E061
:100360000E942B1470E0060F171FF801E95EFD4F85
:1003700000810BBBE0E1F0E08F01F8013197012B28
:10038000D9F700916500046000936500882309F4A3
:1003900028CFAF9A2BCF822D0895202F00E04AC09E
:1003A000073079F41091620014601093620010918C
:1003B000620012601093620010916200116010934D
:1003C0006200E8E0F0E0AF01FA013197452BD9F780
:1003D000109165001D7F10936500E8E0F0E0AF012B
:1003E000FA013197452BD9F7109165001B7F1093C7
:1003F0006500E8E0F0E0AF01FA013197452BD9F74D
:100400002BBBE0E1F0E0AF01FA013197452BD9F7C2
:1004100010916500146010936500109165001260E2
:1004200010936500E0E1F0E0AF01FA013197452B50
:10043000D9F70395083008F085C0979A10916200AB
:10044000177F10936200002381F4109162001B7FDC
:1004500010936200109162001D7F10936200109152
:1004600062001E7F10936200ACCF013081F41091C6
:1004700062001B7F10936200109162001D7F109339
:100480006200109162001160109362009ACF0230F6
:1004900081F4109162001B7F109362001091620042
:1004A000126010936200109162001E7F1093620030
:1004B00088CF033081F4109162001B7F109362009B
:1004C000109162001260109362001091620011603E
:1004D0001093620076CF043081F4109162001460B2
:1004E00010936200109162001D7F109362001091C2
:1004F00062001E7F1093620064CF053081F410917A
:100500006200146010936200109162001D7F1093CE
:1005100062001091620011601093620052CF0630A9
:1005200009F03ECF109162001460109362001091A8
:100530006200126010936200109162001E7F10939F
:1005400062003FCF00E042C0073079F410916200B2
:1005500014601093620010916200126010936200A8
:1005600010916200116010936200E8E0F0E0AF01CA
:10057000FA013197452BD9F7AF98E8E0F0E0AF01E9
:10058000FA013197452BD9F7109165001B7F109325
:100590006500E8E0F0E0AF01FA013197452BD9F7AB
:1005A0002BBBE0E1F0E0AF01FA013197452BD9F721
:1005B00010916500146010936500AF9AE0E1F0E0DF
:1005C000AF01FA013197452BD9F70395083008F0B0
:1005D00085C0979A10916200177F109362000023E4
:1005E00081F4109162001B7F1093620010916200F1
:1005F0001D7F10936200109162001E7F10936200B5
:10060000B4CF013081F4109162001B7F109362001F
:10061000109162001D7F10936200109162001160C2
:1006200010936200A2CF023081F4109162001B7F10
:10063000109362001091620012601093620010919A
:1006400062001E7F1093620090CF033081F41091FE
:1006500062001B7F10936200109162001260109381
:100660006200109162001160109362007ECF04302E
:1006700081F4109162001460109362001091620086
:100680001D7F10936200109162001E7F1093620024
:100690006CCF053081F410916200146010936200F9
:1006A000109162001D7F1093620010916200116032
:1006B000109362005ACF063009F046CF10916200C5
:1006C0001460109362001091620012601093620037
:1006D000109162001E7F1093620047CF0895BA9375
:1006E000AA93002339F40AED11E0EDE6F2E000836D
:1006F000118355C00F3F39F40FED11E0EDE6F2E044
:10070000008311834CC018EC101B42E0012F0E94A3
:100710001E14442379F0EDE6F2E020813181F901E5
:100720000EE20283EDE6F2E020813181F90105E37A
:1007300003830EC0EDE6F2E020813181F9010EE283
:100740000283EDE6F2E020813181F90100E30383C9
:1007500042E0012F0E941E14102F4AE0012F0E9438
:100760001E14005DADE6B2E0ED91FC910083ADE6B4
:10077000B2E0ED91FC910081003331F4A9E3B2E0E5
:10078000ED91FC9100E200834AE0012F0E941E14CB
:10079000142F105DADE6B2E0ED91FC91118344E0C1
:1007A00050E0E9E3F2E020813181EDE6F2E0008102
:1007B00011810E94D915012B61F044E050E0EDE673
:1007C000F2E020813181E9E3F2E0008111810E94B1
:1007D000F115A991B991089540E001C043954031C8
:1007E00070F450E0F801E40FF51F608150E0F9016A
:1007F000E40FF51F5081651789F301E0089500E0CB
:100800000895E1E9F8E000811181012B49F040E110
:1008100050E026E032E004EE11E00E94F11557C0EE
:100820000091C908002349F040E150E028E232E09D
:1008300004EE11E00E94F1154AC043E050E000913F
:10084000CB0810E0000F111FF801E35CFD4F208181
:10085000318104EE11E00E94F11544E050E0009176
:10086000970810E0000F111FF801E35BFD4F208196
:10087000318107EE11E00E94F11544E050E0EDE611
:10088000F2E0208131810BEE11E00E94F11542E08F
:1008900050E00091CD0810E0000F111FF801E55A5B
:1008A000FD4F2081318100EF11E00E94F11541E000
:1008B00050E00091CE0810E0000F111FF801E75939
:1008C000FD4F2081318103EF11E00E94F115EBE330
:1008D000F2E000811181012BC1F000E00BC010E0BB
:1008E000F801EB50FE4F208110E0F801E95EFD4F6A
:1008F00020830395003198F3EBE3F2E0008111814E
:100900000150104000831183089500E00BC010E0F7
:10091000F801EC51FE4F208110E0F801E95EFD4F37
:1009200020830395003198F30895219741E050E02A
:100930009E010E94FC050881219608952197288335
:1009400041E050E09E010E94DC05219608958A93C3
:1009500080E010E402E9E9DF0C7F083A09F48E5FD9
:1009600010E400E9E2DF0C7F083A09F48395082FD0
:10097000899108959A938A93802F912F17E0082FD9
:10098000D4DF202F992311F0216001C02E7F17E0C2
:10099000082FD4DF8991999108959A938A93902F83
:1009A000812F11E0092FC1DF202F237F880F880FAF
:1009B0008C70282B11E0092FC1DF8991999108953E
:1009C0001F73212F15E0BADF08959A938A93902F11
:1009D000012F822FECE8F0E0FBBFF0E00C948C15C7
:1009E00016E2092FA2DF202F207F8F70282B16E21E
:1009F000092FA4DF50C016E2092F97DF202F2F7098
:100A00008295807F282B16E2092F98DF44C017E2D9
:100A1000092F8BDF202F207F8F70282B17E2092FC3
:100A20008DDF39C017E2092F80DF202F2F708295CC
:100A3000807F282B17E2092F81DF2DC018E2092FB4
:100A400074DF202F207F8F70282B18E2092F76DF8C
:100A500022C018E2092F69DF202F2F708295807F36
:100A6000282B18E2092F6ADF16C019E2092F5DDF73
:100A7000202F207F8F70282B19E2092F5FDF0BC0FA
:100A800019E2092F52DF202F2F708295807F282BAB
:100A900019E2092F53DF8991999108959A938A93C6
:100AA000802F912F1FE0082F40DF202F992311F076
:100AB000226001C02C7F1FE0082F40DF89919991AF
:100AC00008959A938A93802F912F11E0082FE6DFE3
:100AD000292F10E1082F32DF89919991089521E0A3
:100AE00010E02CDF08959A938A93902F812F1CE0B9
:100AF000092F1BDF202F207F8F70282B1CE0092F50
:100B00001DDF89919991089508E40093700008957C
:100B100010E01093740014EA1093740010917400A4
:100B2000212F27FFFBCF10917100187F183011F093
:100B300001E008950093730004E8009374000091AD
:100B40007400102F17FFFBCF00917100087F083150
:100B500021F0003411F001E0089500E008950093C1
:100B6000730004E80093740000917400102F17FFC5
:100B7000FBCF00917100087F083211F001E0089569
:100B800000E0089504EC0093740000917400102FAD
:100B900017FFFBCF00917300089504E800937400E1
:100BA00000917400102F17FFFBCF00917300089580
:100BB00004E9009374000895192E282E012EB9011E
:100BC000A7DF002311F001E014C0002DC8DF80E092
:100BD00090E001C001968417950748F4FB01E80FE7
:100BE000F91F0081BCDF0023A9F301E002C0E0DFB0
:100BF00000E0822D912D08950E94C915602F712F5C
:100C0000D901062F85DF002311F001E01EC0072F58
:100C1000A6DF6160062F7CDF002311F001E015C024
:100C200080E090E006C0AEDFFD01E80FF91F008311
:100C30000196FA0131978E179F07A8F3AEDFA40F34
:100C4000B51F11970C93B4DF00E0E4E00C94CE15CF
:100C50009A938A9303E712E00E94B0130FEF0ABB46
:100C60000DEB07BB0FEF04BB03E801BB0AE402B9BD
:100C70000FE0009361000FE10093640000E00BBB04
:100C80000FE708BB0FEF05BB0FEF02BB0FEF03B978
:100C900000EF009362000EE10093650007B3007C53
:100CA00007BBC59A07B3007F07BBC39A82B100E0B8
:100CB00002B91F9A02B1087F02B91A9A139A03B1B6
:100CC000007F03B900E812E00E94B0130E9484057F
:100CD00003E912E00E94B01303E003BF04E00EBD7D
:100CE00002E005BD07E304BD05E002BF04EE19EF15
:100CF0001DBD0CBD00E001BF05E407BF05E406BF54
:100D000004EA12E00E94B0130CEF09BF00E6009362
:100D10006A0005E50ABF0CEF08BF09EB12E00E946C
:100D2000B01300E20E946500002329F006ED12E0F6
:100D30000E94B01304C00DEE12E00E94B01300E94F
:100D40000E946F0502E90E946F0508E013E00E940F
:100D5000B0130FE213E00E94B01311E000E90E940B
:100D6000BA0417E000E90E949504013429F40DE467
:100D700013E00E94B01304C00EE613E00E94B0130B
:100D80000FE813E00E94B01311E002E90E94BA04D8
:100D900017E002E90E949504013429F40EEA13E0F9
:100DA0000E94B01304C000ED13E00E94B01302EFE4
:100DB00013E00E94B0130E94A704802F882329F417
:100DC00001E114E00E94B01314C0833029F401E360
:100DD00014E00E94B0130DC0813029F40DE414E03A
:100DE0000E94B01306C0823021F400E714E00E9494
:100DF000B01311E000E90E94CD0411E002E90E9465
:100E0000CD0404E914E00E94B01381E006C020E0A4
:100E1000182F00E90E94E50483958930C0F381E032
:100E200006C021E0182F02E90E94E504839589306D
:100E3000C0F30DEC14E00E94B01310E000E90E9432
:100E4000610510E002E90E94610509EF14E00E94CB
:100E5000B01300E215E00E94B01310E000E90E9418
:100E6000BA0410E002E90E94BA040EE315E00E9401
:100E7000B0131FE000E90E9473051FE002E90E9421
:100E8000730507E515E00E94B01308E715E00E941E
:100E9000B0130E94D400789480E007C090E0FC0179
:100EA000E95EFD4F00E2008383958031B8F300E0F6
:100EB0000093E90800E00093EA0801E00093F608D7
:100EC000899199910895AC0180E090E008C0E0E834
:100ED000FEE39F01F9013197232BD9F70196F80121
:100EE0003196E817F90798F7CA0108959A938A93FB
:100EF00080E090E000E215E00E94B0138F3F00E038
:100F0000900731F405E010E0DEDF05E010E0DBDF04
:100F10000091C0081091C108010F0093D7080091FB
:100F2000D7081091C2080117D9F40091C00810E049
:100F3000EEEBF8E000831183EEEBF8E00081102F78
:100F400000E0EEEBF8E0008311830091C10810E0AF
:100F5000EEEBF8E020813181200F311F20833183B7
:100F6000EEEBF8E000811181E1EDF8E00083118300
:100F7000E1EDF8E0008111810F3F27E01207F0F565
:100F8000E3EDF8E0008111812281322F212F102F13
:100F900000E0E3EDF8E00083118322833383E3ED87
:100FA000F8E0008111812281322F212F102F00E0E3
:100FB000E3EDF8E00083118322833383803800E07F
:100FC000900778F4082F02950F700093E808082F17
:100FD000069507700093ED08082F017000939308A1
:100FE00019C00FEF0093EB0800E00093E80800E061
:100FF0000093ED0801E0009393080CC00FEF0093FD
:10100000EB0800E00093E80800E00093ED0801E041
:10101000009393080E94A80E18E700E90E94E004DC
:1010200018E702E90E94E0040E94150E0AE010E0B1
:101030004ADF0AE010E047DF0E94040F979A01E0C0
:10104000009396080091650001600093650003E03D
:101050000E94CD01C79A899199910895AC0180E0D1
:1010600090E008C0E0E8FEE39F01F9013197232BEF
:10107000D9F70196F8013196E817F90798F7CA01F0
:1010800008950091E808073021F00091DA08002364
:1010900051F40091DA08002309F443C10091D90802
:1010A000002309F03EC102E915E00E94B013E2EF0F
:1010B000F8E00081102F00E0E2EFF8E000831183F8
:1010C000E4EFF8E00081102F00E0E4EFF8E00083A7
:1010D00011830EEA15E00E94B013EDEAF8E00081FA
:1010E0001181E2EFF8E0208131810217130758F4F3
:1010F000E2EFF8E000811181EFEAF8E02081318130
:1011000002171307B0F0EDEAF8E000811181E4EF77
:10111000F8E0208131810217130778F4E4EFF8E05A
:1011200000811181EFEAF8E0208131810217130775
:1011300020F405E000939708F7C0E9EAF8E00081A1
:101140001181E2EFF8E0208131810217130758F492
:10115000E2EFF8E000811181EBEAF8E020813181D3
:1011600002171307B0F0E9EAF8E000811181E4EF1B
:10117000F8E0208131810217130778F4E4EFF8E0FA
:1011800000811181EBEAF8E0208131810217130719
:1011900020F404E000939708C7C0E5EAF8E0008176
:1011A0001181E2EFF8E0208131810217130758F432
:1011B000E2EFF8E000811181E7EAF8E02081318177
:1011C00002171307B0F0E5EAF8E000811181E4EFBF
:1011D000F8E0208131810217130778F4E4EFF8E09A
:1011E00000811181E7EAF8E02081318102171307BD
:1011F00020F403E00093970897C0E1EAF8E000814B
:101200001181E2EFF8E0208131810217130758F4D1
:10121000E2EFF8E000811181E3EAF8E0208131811A
:1012200002171307B0F0E1EAF8E000811181E4EF62
:10123000F8E0208131810217130778F4E4EFF8E039
:1012400000811181E3EAF8E0208131810217130760
:1012500020F402E00093970867C0EDE9F8E0008110
:101260001181E2EFF8E0208131810217130758F471
:10127000E2EFF8E000811181EFE9F8E020813181AF
:1012800002171307B0F0EDE9F8E000811181E4EFF7
:10129000F8E0208131810217130778F4E4EFF8E0D9
:1012A00000811181EFE9F8E02081318102171307F5
:1012B00020F401E00093970837C0E9E9F8E00081E5
:1012C0001181E2EFF8E0208131810217130758F411
:1012D000E2EFF8E000811181EBE9F8E02081318153
:1012E00002171307B0F0E9E9F8E000811181E4EF9B
:1012F000F8E0208131810217130778F4E4EFF8E079
:1013000000811181EBE9F8E0208131810217130798
:1013100020F400E00093970807C006E000939708C8
:1013200003C006E00093970800919708063021F467
:1013300001E00093DD0803C000E00093DD080091A8
:10134000DD081091DE08011721F00091DD080093FF
:10135000DE0808959A938A93FA93EA933A922A922E
:101360001A920A927A936A935A934A933A932A93D7
:101370001A930A938FB79BB70091E108002351F0AD
:101380000F9B04C001E00093D90803C000E0009364
:10139000D90877DE9BBF8FBF0991199129913991A7
:1013A00049915991699179910990199029903990B1
:1013B000E991F9918991999118959A938A93FA9361
:1013C000EA933A922A921A920A927A936A935A93D9
:1013D0004A933A932A931A930A938FB79BB7009133
:1013E000E108002351F00E9B04C001E00093DA08ED
:1013F00003C000E00093DA0844DE9BBF8FBF099171
:10140000199129913991499159916991799109904D
:10141000199029903990E991F991899199911895AC
:101420002A931A930A931FB72BB7839B07C000E038
:101430000093C60800E00093C70809C001E00093CC
:10144000C50801E00093C60800E00093C7082BBF61
:101450001FBF09911991299118959A938A93FA932C
:10146000EA933A922A921A920A927A936A935A9338
:101470004A933A932A931A930A938FB79BB705E03E
:1014800002BF0091E50803950093E5080091E1088B
:10149000002309F464C00091EE080023B9F0009124
:1014A000EF081091F008013727E1120730F000E053
:1014B0000093EE0800E00093F108EFEEF8E0008101
:1014C00011810F5F1F4F0083118349C00091F708FE
:1014D0001091F808083C20E0120721F401E0009385
:1014E000D00835C00091F7081091F808003223E0C9
:1014F000120769F50091D9080093DB080091DA081A
:101500000093DC080F9B04C001E00093D90803C0DE
:1015100000E00093D9080E9B04C001E00093DA08B4
:1015200003C000E00093DA080091DB081091D908AD
:10153000011731F40091DC081091DA08011709F065
:10154000A0DD00E00093F70800E00093F808E7EF63
:10155000F8E0008111810F5F1F4F008311839BBF53
:101560008FBF0991199129913991499159916991A7
:1015700079910990199029903990E991F99189917F
:10158000999118959A938A93FA93EA933A922A92A8
:101590001A920A927A936A935A934A933A932A93A5
:1015A0001A930A938FB79BB700E00EE81DEF1DBD9D
:1015B0000CBD01E00093CF080091C6081091C70848
:1015C000012B51F1E6ECF8E0008111810F5F1F4F14
:1015D0000083118342E350E00091C6081091C708D0
:1015E0000E943314452B19F401E00093C8080091C0
:1015F000C6081091C7080D3221E0120768F045E0D7
:1016000050E00091C6081091C7080E943314452B82
:1016100019F401E00093C8080091F608002309F4CA
:1016200057C00091E108002309F452C083993AC0E1
:101630000091E208013051F4E091DF08F091E008F8
:10164000369720F002E00093E20820C00091E20803
:101650000230E1F4E091DF08F091E0083797B0F054
:1016600000E086990395000F10E085991395010F0E
:10167000000F10E084991395010F023019F40E94B5
:101680008B0E04C0053011F40E946D0E00E0009333
:10169000B208EFEDF8E0008111810F5F1F4F00836A
:1016A000118316C000E00093E20800E00093DF0819
:1016B00000E00093E0080091B208002349F401E043
:1016C0000093B20800E00093E30800E00093E40810
:1016D000E6EEF8E0008111810F5F1F4F0083118358
:1016E0009BBF8FBF099119912991399149915991C6
:1016F000699179910990199029903990E991F9911E
:101700008991999118958A9380E080B382958F7022
:1017100087700BE316E00E94B013082F0E94E513B8
:1017200007E416E00E94B013815069F08A95A1F099
:101730008A95D9F08A9511F18A9549F18A9581F1B6
:101740008A95A9F13AC0EBE3F2E000E0008300E003
:1017500001830E94F40E31C0EBE3F2E000E000836D
:1017600000E001830E948B0E28C0EBE3F2E000E072
:10177000008300E001830E94F70D1FC0EBE3F2E05D
:1017800000E0008300E001830E94E40E16C0EBE35A
:10179000F2E000E0008300E001830E946D0E0DC0C6
:1017A000EBE3F2E006E010E00083118306C0EBE318
:1017B000F2E006E010E00083118389910895009122
:1017C000C508002321F000E00093C5089CDF0091CC
:1017D000C808002321F000E00093C80894DF0091BE
:1017E000CF08002329F000E00093CF080E94D90021
:1017F0000091D008002329F000E00093D0080E9457
:1018000001040091C9081091CA08011789F00091DC
:10181000C9080093CA080091C908002329F00AE406
:1018200016E00E94B01304C00EE516E00E94B0134B
:101830000091EB081091EC08011729F10091EC08D8
:101840001091EB08011728F403E716E00E94B0138B
:1018500004C000E916E00E94B0130091EB080E945A
:10186000B91307E416E00E94B0130091EB0800934F
:10187000EC081091EB0800E90E9461051091EB085B
:1018800002E90E9461050091CB081091CC08011774
:1018900009F49BC00091CB080093CC080091CB08C1
:1018A000E2EAF0E0FBBFF0E00C948C1511E000E2FE
:1018B0000E948F000DEA16E00E94B01310E000E2D3
:1018C0000E94AC00002329F006EC16E00E94B01341
:1018D00004C00EED16E00E94B01303B1007F03B9FF
:1018E000089511E000E20E94AC00002329F00CEE04
:1018F00016E00E94B01308950EED16E00E94B0139A
:10190000089512E000E20E94AC00002329F004E0F8
:1019100017E00E94B01308950EED16E00E94B01378
:10192000089513E000E20E94AC00002329F00BE1CF
:1019300017E00E94B01308950EED16E00E94B01358
:10194000089514E000E20E94AC00002329F002E3B5
:1019500017E00E94B01308950EED16E00E94B01338
:10196000089515E000E20E94AC00002329F008E48D
:1019700017E00E94B01308950EED16E00E94B01318
:10198000089511E000E20E948F000DEA16E00E9427
:10199000B01316E000E20E94AC00002329F00FE52E
:1019A00017E00E94B01304C00EED16E00E94B013C1
:1019B00003B1007F03B9089510E000E20E948F0098
:1019C00006E717E00E94B0131B9A0895B59B04C068
:1019D00001E000938B0803C000E000938B080091A6
:1019E0008C08002311F401E001C000E0EBE8F8E00E
:1019F000108111701023112339F001E000938C083D
:101A000002E917E00E94B01300918B08002311F443
:101A100001E001C000E0ECE8F8E010811170012362
:101A2000002339F000E000938C0802EB17E00E94DD
:101A3000B0130F9B04C001E000938F0803C000E0C7
:101A400000938F0800919008002311F401E001C079
:101A500000E0EFE8F8E0108111701023112339F055
:101A600001E00093900804ED17E00E94B01300918C
:101A70008F08002311F401E001C000E0E0E9F8E084
:101A8000108111700123002339F000E000939008C9
:101A900002EF17E00E94B013B39B04C001E0009373
:101AA0008D0803C000E000938D0800918E0800238C
:101AB00011F401E001C000E0EDE8F8E010811170E0
:101AC0001023112339F001E000938E0800E118E0A3
:101AD0000E94B01300918D08002311F401E001C0B1
:101AE00000E0EEE8F8E0108111700123002339F0E6
:101AF00000E000938E080DE218E00E94B0131A9BDC
:101B000004C001E00093C30803C000E00093C308D1
:101B10000091C408002311F401E001C000E0E3ECEF
:101B2000F8E0108111701023112339F001E00093C7
:101B3000C40809E418E00E94B0130091C308002310
:101B400011F401E001C000E0E4ECF8E01081117054
:101B50000123002339F000E00093C4080BE618E0ED
:101B60000E94B0130895789400E011EE20E030E078
:101B70000E946E1306ED15E00E94B0130AEE15E008
:101B80000E94B0130E94280606E016E00E94B013DF
:101B90000E9476070FE116E00E94B01301E0009367
:101BA000E10801E00093D8080E94150E0091EB08AF
:101BB0000E946F03E1E9F8E000811181012B41F0FF
:101BC000E1E9F8E0008111810150104000831183A8
:101BD000FDDEF5DD27E132E004EE11E00E94EC03CA
:101BE000002341F30E9401040E94D900E3CF009139
:101BF000EE080023C9F40091C908002321F401E094
:101C00000093C90803C000E00093C9081091C908F7
:101C100000E90E94BA041091C90802E90E94BA04BE
:101C20000091EB080E946F0308958A9380E00FC033
:101C30002091EB08182F105F00E90E949E0420916C
:101C4000EB08182F105F02E90E949E0483958830EC
:101C500078F3899108950091EE080023C1F4109162
:101C6000EB080091EB08053C30F40091EB080D5FA8
:101C70000093EB0803C00FEF0093EB080091EB0813
:101C8000101729F0D2DF0091EB080E946F0308952E
:101C90000091EE08002301F51091EB080091EB088C
:101CA0000F3F21F407EC0093EB080DC00091EB0807
:101CB000033030F00091EB0803500093EB0803C0B1
:101CC00000E00093EB080091EB08101729F0ADDF5E
:101CD0000091EB080E946F0308950091EE08002325
:101CE000C9F40091C908002309F081DF0091EB08D5
:101CF000073C30F40091EB0803950093EB0803C018
:101D00000FEF0093EB0891DF0091EB080E946F0347
:101D10000E94010408950091C908002309F067DFBB
:101D20000091EB08002329F00091EB080A9500933D
:101D3000EB080091EB08083C18F007EC0093EB0867
:101D400074DF0091EB080E946F030E940104089564
:101D50000091C908002341F011E000E90E94BA0493
:101D600011E002E90E94BA040091E808073011F47A
:101D700001E001C000E010919808011749F00093BC
:101D80009808E8E9F8E0008100FD1B9A00FF1B9825
:101D90000091B108077C0093B1080091E808000F9A
:101DA000000F000F1091B108100F1093B1080091AF
:101DB000C908002341F410E000E90E94BA0410E0D1
:101DC00002E90E94BA0408950091EE08002359F434
:101DD0000091CB0803950093CB080091CB080770C6
:101DE0000093CB08B5DF08950091EE08002359F465
:101DF0000091CB080A950093CB080091CB0807709F
:101E00000093CB08A5DF08958A9300E0009395081E
:101E100000E008BF0091ED08033019F400E00093E2
:101E2000ED088091ED0805E010E00E942E0888235F
:101E3000882321F008EC10E00E942E0801E00093B6
:101E40009508E3EEF8E000E0008300E0018308E09D
:101E500008BF89910895BA93AA930091EE080130C2
:101E600021F00091EE08023021F401E00093F10826
:101E700037C00091EE08033061F40091930800230D
:101E800021F401E0009393082BC000E00093930835
:101E900027C00091EE08043019F50091ED08039574
:101EA0000093ED080091C908002341F011E000E91A
:101EB0000E94BA0411E002E90E94BA04A5DFB5DE6F
:101EC00005E010E00E942E080091C908002341F4AB
:101ED00010E000E90E94BA0410E002E90E94BA048E
:101EE00000E013C010E0A1E7B2E0ED91FC91E00F3B
:101EF000F11F3897408110E0E7E1F2E02081318165
:101F0000200F311FF90140830395003180F508301F
:101F1000C0F42091ED0830E0220F331FF901E55A9B
:101F2000FD4F2081318110E0200F311FF901208108
:101F300010E0A7E1B2E0ED91FC91E00FF11F2083EA
:101F4000E3CF10919308112369F610E0AFE6B2E0F9
:101F5000ED91FC91E00FF11F3897208110E0A7E18F
:101F6000B2E0ED91FC91E00FF11F2083CDCFEFEEB9
:101F7000F8E000E0008300E0018301E00093CF0877
:101F8000A991B9910895FA93EA934A933A932A93BF
:101F90001A930A933FB74BB707E304BDEBEFF8E0A2
:101FA000008111810F5F1F4F0083118300910A0987
:101FB00010910B09012B41F0EAE0F9E00081118159
:101FC0000F5F1F4F008311830091FB081091FC08E5
:101FD0000D3424E0120708F452C000E00093F90821
:101FE00000E00093FA0800E00093FF0800E000938F
:101FF000000900E00093FD0800E00093FE0800E007
:102000000093010900E00093020900E00093030936
:1020100000E00093040900E00093050900E000934C
:102020000F0900E00093120900E000930E0900E0A0
:102030000093100900E00093110900E000931309D8
:1020400000E00093140900E000930D0900E0009304
:10205000FB0800E00093FC0800E00093150901E094
:102060000093940800919408002349F401E0009340
:10207000940800E00093E30800E00093E4084BBFFD
:102080003FBF09911991299139914991E991F991AC
:10209000189500E00093F90800E00093FA08EFEFCC
:1020A000F8E000E0008300E00183EDEFF8E000E0FD
:1020B000008300E00183E1E0F9E000E0008300E05C
:1020C0000183E3E0F9E000E0008300E0018300E049
:1020D0000093050900E000930F0900E00093120946
:1020E00000E000930E0900E00093100900E0009367
:1020F000110900E00093130900E00093140900E0C7
:1021000000930D0900E0009315090895BA93AA936E
:102110000091FA08015041F00A95E1F00A9581F129
:102120000A9509F443C057C0EDEFF8E00081118132
:10213000000F111FEDEFF8E00083118300910C09EF
:1021400010E0EDEFF8E020813181202B312B20834E
:10215000318341C0EFEFF8E000811181000F111FC2
:10216000EFEFF8E00083118300910C0910E0EFEF2E
:10217000F8E020813181202B312B208331832BC04B
:10218000E1E0F9E000811181000F111FE1E0F9E0C9
:102190000083118300910C0910E0E1E0F9E0208157
:1021A0003181202B312B2083318315C0E3E0F9E00E
:1021B00000811181000F111FE3E0F9E0008311831A
:1021C00000910C0910E0E3E0F9E020813181202B3F
:1021D000312B208331830091050903950093050974
:1021E00000910509083040F00091FA08039500932A
:1021F000FA0800E0009305090091FA08053008F498
:1022000005C1EDEFF8E0008111810F7010700083BF
:102210001183EFEFF8E0008111810F7010700083DF
:102220001183ADEFB8E0ED91FC91379709F0B1C0A3
:10223000AFEFB8E0ED91FC913A9709F0AAC0E3E066
:10224000F9E000811181E1E0F9E0208131814FEF77
:10225000242740E034270217130709F098C0E1E073
:10226000F9E000810093B3080091D808002309F435
:102270008AC0EAE0F9E000811181095E1340033F62
:1022800021E01207A8F4E1E0F9E0008111810038B3
:1022900020E0120719F40E948B0E0AC0E1E0F9E079
:1022A00000811181083A20E0120711F40E946D0E9E
:1022B000EAE0F9E001E010E00083118300E0009320
:1022C0009408E1E0F9E000811181003B20E0120771
:1022D00019F40E94F70D57C0E1E0F9E00081118187
:1022E000003820E0120719F40E948B0E4CC0E1E088
:1022F000F9E000811181083A20E0120719F40E94E8
:102300006D0E41C0E1E0F9E000811181003920E06B
:10231000120719F40E94E40E36C0E1E0F9E00081F2
:102320001181083820E0120719F40E94F40E2BC026
:10233000E1E0F9E000811181003A20E0120771F438
:102340000091F108002321F401E00093EE0803C09E
:1023500003E00093EE080E942B0F15C0E1E0F9E0C6
:1023600000811181083920E0120769F40091F10819
:10237000002321F402E00093EE0803C004E0009380
:10238000EE080E942B0F00E00093160903C081DEC7
:1023900001C07FDE00E00093F90800E00093FA0836
:1023A000EFEFF8E000E0008300E00183EDEFF8E0FC
:1023B00000E0008300E00183E1E0F9E000E0008359
:1023C00000E00183E3E0F9E000E0008300E0018346
:1023D00000E00093050900E000930F0900E000937E
:1023E000120900E000930E0900E00093100900E0DC
:1023F0000093110900E00093130900E00093140911
:1024000000E000930D0900E000931509A991B9912E
:102410000895BA93AA9300910F090023E9F100915E
:1024200012090023C9F10091F908002309F0BDC089
:1024300001E00093F90801E00093FA0800E000933E
:10244000060900E000930909E7E0F9E000E00083F5
:1024500000E0018300E000930F0900E000931209FF
:1024600000E000930E0900E00093100900E00093E3
:10247000110900E00093130900E00093140900E043
:1024800000930D09E7E1F9E000E0008300E001833B
:1024900000E00093150989C00091F908002399F024
:1024A00000910E09002379F000911009002359F0E2
:1024B00000E000930C0900E000930E0900E0009397
:1024C000100924DE72C00091F908002399F00091F0
:1024D0000E09002379F000911109002359F001E061
:1024E00000930C0900E000930E0900E0009311092D
:1024F0000DDE5BC00091F908002381F400911309FF
:10250000002361F001E000930D0900E0009313093E
:102510000091150903950093150947C000910D0915
:10252000002309F442C0009114090023F1F1009145
:10253000D8080023D1F100911509013081F500E0A0
:102540000093140900E000939408E7E1F9E00081AA
:1025500011810F5F1F4F00831183A7E1B9E0ED9157
:10256000FC91339770F00091B308003819F40E9481
:10257000480E1BC00091B308083AB9F40E942B0E14
:1025800014C00091B308003819F40E948B0E0DC0DE
:102590000091B308083A49F40E946D0E06C000E0AD
:1025A0000093150900E00093B308A991B99108952B
:1025B0009A938A93FA93EA933A922A921A920A92F7
:1025C0007A936A935A934A933A932A931A930A9363
:1025D0008FB79BB70D9B1AC0E091FB08F091FC08E8
:1025E0003497359720F401E000930E0951C0E09133
:1025F000FB08F091FC08F797BE9720F401E00093E8
:102600000F0946C001E00093190942C00D9940C06E
:10261000E091FB08F091FC083497359720F401E035
:102620000093100935C0E091FB08F091FC08399740
:102630003E9720F401E0009311092AC0E091FB08C5
:10264000F091FC08B897709720F401E0009312090C
:102650001FC00091FB081091FC08085C1040093C69
:1026600020E0120720F401E00093130911C000914B
:10267000FB081091FC0800521340093C20E01207AF
:1026800020F401E00093140903C001E0009319094C
:1026900000E00093FB0800E00093FC08009119099A
:1026A000002341F000E00093190900E000931409B1
:1026B000F0DC01C0AEDE9BBF8FBF0991199129915B
:1026C000399149915991699179910990199029907D
:1026D0003990E991F9918991999118950E94C915BC
:1026E000C801D90140EB54E060E070E08C019D012D
:1026F0000E944D14452B462B472B19F00FEF1FEF6F
:1027000026C0119A199A1098189A00E014E224EF42
:1027100030E0AC01BD010E944D140E94B11440E0B4
:1027200050E060E871E40E94F5140E9467150150C2
:1027300010409801232F2093900009B900E00BB9B5
:1027400008E90AB906E00093950000E010E0E4E033
:102750000C94CE155D9BFECF0CB900E010E00895FF
:10276000F80102C010E0F6DF008131960023D1F7B6
:1027700008953B2F6A2F102FA4EBB8E044E6012FF9
:102780000E941E14005D0C9344E6012F0E941E144B
:10279000202F04E6209F10194AE0012F0E941E14EA
:1027A000005D11960C9311974AE0012F0E941E14B0
:1027B000202F0AE0209F1019105D12961C9312978B
:1027C0008D01CEDFA62FB32F0895402F68EB78E060
:1027D00003E01AC0142F1F70105D202F30E0FB01A2
:1027E000E20FF31F108310E0FB01E00FF11F1081D7
:1027F0001A3338F010E0FB01E00FF11F1081195F70
:10280000108342954F700A95023020F78B01A8DFA4
:10281000089500008895FECF0FE50DBF01E00EBFC3
:10282000C0E4D1E00E94D715002311F00E941016D9
:102830000E94B30D0E9409140C9409140024E8E0CE
:10284000001FEA952AF0001C0416D0F3041AF8CFF2
:10285000402D00950895149F102D059F100D049F85
:10286000002D110D089500241124E0E1001F111F17
:10287000EA9542F0001C111C04161506B8F3041A60
:10288000150AF4CFA0010095109508953695279567
:10289000179507954A95D2F7089500241124100141
:1028A000E0E2001F111F221F331FEA9572F0001C87
:1028B000111C221C331C041615062606370688F345
:1028C000041A150A260A370AECCFA001B1010095B7
:1028D0001095209530950895309520951095019587
:1028E0001F4F2F4F3F4F0895FF27172E660F771F5B
:1028F000089409F4771F6795EE27032E220F331FE4
:10290000089409F4331F27950895222342F03230AA
:1029100030F03A95EE0F001F111F221FC2F7E0386A
:1029200021F400FF08940EF488940F4F1F4F2F4F8F
:102930003F4F323038F4332319F427FD31E002C021
:1029400027FF30E03F3F29F0220F000C37952795F5
:10295000089534C0E02F012F122F232F3EE9E89471
:10296000D4CF0024F7CFF901EE0FFF1F37FBFF3F55
:1029700031F0EF2BE12BE02B8894B8940895EE23EF
:1029800021F008949894B894089598948894389471
:102990000895FB01EE0FFF1F77FBFF3F31F0EF2B98
:1029A000E52BE42B8894B8940895EE2371F3E9CFD6
:1029B000302D307822271127002708953FE730294E
:1029C00020E8F9CF3FEF2FEFF6CFE3DF20F01BF049
:1029D000707837270895F6CFDCDFE9F3E0F3032EB4
:1029E0000726E6CF032E0726E9CFBDDFA0F36BF362
:1029F00099F3CFDF80F39BF3A9F376DF012427FD62
:102A000006C03150E040000F111F221FD2F767FDB2
:102A100006C07150F040440F551F661FD2F7E8946E
:102A2000371BEF0B3158EF4F2AF0EE23E9F63F3F0B
:102A3000D9F203C0393EA8F26894E0E0F0E0401714
:102A40005107620738F0315008F46894000F111FE5
:102A5000221FEE1F71E01124222409C0000F111F54
:102A6000221FEE1F041715072607EF0720F0041B8F
:102A7000150B260BEF0B771F111C221C78F7000F8C
:102A8000111F221FEE1F041715072607EF073E2E02
:102A9000F0F9E894E0E839F008F4E0E0322A312A6D
:102AA000302A09F06894709510942094332311F023
:102AB000F0FF09C0269417947795E79508F4689479
:102AC00033953130BCF3072F112D222D28CF14DF81
:102AD0003F5748F03F3168F007FC6ACF3FE72FEFE0
:102AE0001FEF0FEF089530E020E0890110E000E0D3
:102AF0000895432F322F212F102F0E2F4F51419524
:102B00000E944A1407FE08950C946C144791179084
:102B100011FA279037900895F9DF041B10E000C0E8
:102B200020E030E000C0B8F010FC17C047910790DB
:102B3000E00FF11F0417100540E02407340758F494
:102B400036F406910024F101E01BF0090994E00F2E
:102B5000F11F27903790F101099411F4D6F7F1CFC6
:102B600031960EF0319650E060E070E047914B3FB7
:102B700048F089F34F3F29F04E3F11F0779167916C
:102B800057914791041B150B260B370B39F318F39C
:102B9000E7CFBA93AA939A938A930895BB81AA81A7
:102BA00099818881F0E0EC0FFD1FEF01089501E0AD
:102BB000089506C00F5F1F4F2F5F3F4F4150504099
:102BC000642F652B59F0F9016081F8017081761747
:102BD00089F310E0761B072F1040089500E010E005
:102BE00008950D01D80105C0F90160816D932F5F33
:102BF0003F4FBA0141505040672BB1F7D0010895C3
:102C000020E02D9301501040E1F708953BBF26913D
:102C10002D93EF5FFF4F3F4F01501040B9F70895DC
:102C200046E75CE260E0FA01362F3BBF0791169160
:102C3000FA01EE5FFF4F3F4F3BBFA791B691FA01FC
:102C4000362FEC5FFF4F3F4F3BBF0790179026900A
:102C5000202D2129222921F0F001322DD7DF01C0BA
:102C6000CFDF495F5F4F6F4F1CE220E044385107D0
:102C70006207C8F208955E076001842C005C00BE04
:102C80000800000043312000433220004120200092
:102C90004F3120004F3220004F3320004F342000AE
:102CA00055202000203434200020343820002038E3
:102CB00038200020393620003137362000313932B3
:102CC00020002020202000463120004632200046EF
:102CD000332000463420004635200046362000468A
:102CE0003720004C004800564F4C550020494E56A6
:102CF000455253450020204E4F524D414C0020314B
:102D00003030004D5554450043482053414D205626
:102D10004F4C55204649204F004D657373616765E0
:102D2000204D657373616765200046454D544F32F1
:102D3000205349474E4154555245003132333435C2
:102D400036373839303132333435360020202020C0
:102D500020204D55544520202020202000EB010646
:102D6000006001640168016C017001740178017CEC
:102D700001800185018A018F01940199019E01A3BF
:102D800001A701AB01AF01B301B701BB01BF01C195
:102D900001C301C801D101506F727420696E69745A
:102DA0002E0D0A0049324320696E697469616C69AD
:102DB0007A652E2E0D0A0054696D65722073657454
:102DC00074696E672E0D0A00496E746572727570B3
:102DD000742073657474696E672E0D0A005B493246
:102DE000435D20414B34313138412053656172637A
:102DF00068696E672E2E2E0D0A005B4932435D20F6
:102E0000414B343131384120466F756E642E0D0AC6
:102E1000005B4932435D20414B3431313841206EF3
:102E20006F7420666F756E642E0D0A005B49324325
:102E30005D2045533930333850524F20536F6674FC
:102E400020526573657420636F6D706C6574652EB8
:102E50000D0A005B4932435D204553393033382039
:102E6000553232204C656674204D7574652E0D0AFE
:102E7000005B4932435D20455339303338205532A9
:102E800032204C656674204D757465204F4B2E0DB5
:102E90000A005B4932435D204553393033382055B1
:102EA0003232204C656674204D757465204E472E75
:102EB0000D0A005B4932435D2045533930333820D9
:102EC000553532205269676874204D7574652E0D32
:102ED0000A005B4932435D20455339303338205571
:102EE0003532205269676874204D757465204F4BE8
:102EF0002E0D0A005B4932435D204553393033388B
:102F000020553532205269676874204D75746520EC
:102F10004E472E0D0A005B4932435D204553393040
:102F2000333850524F20536561726368696E672E63
:102F30002E2E0D0A005B4932435D20455339303354
:102F40003850524F207832206E6F7420666F756E45
:102F5000642E0D0A005B4932435D204553393033FE
:102F60003850524F20783220666F756E642E0D0AED
:102F7000005B4932435D2045533930333850524F5E
:102F8000206F6C6E79206C65667420666F756E6458
:102F90002E0D0A005B4932435D20455339303338EA
:102FA00050524F206F6C6E7920726967687420668A
:102FB0006F756E642E0D0A005B4932435D204553E8
:102FC0003930333850524F204175746F2053656C3F
:102FD0006563742066756E6374696F6E2044534434
:102FE0002F49325320636F6D706C6574652E0D0A26
:102FF000005B4932435D2045533930333850524FDE
:10300000204368616E6E656C206D617070696E67DB
:1030100020636F6D706C6574652E0D0A005B49321C
:10302000435D2045533930333850524F20566F6C32
:10303000756D65204D617820636F6D706C6574658A
:103040002E0D0A005B4932435D204353383431363C
:1030500020496E7075743720746F20474E442E0DD2
:103060000A005B4932435D20455339303338204DE7
:10307000757465204F66662E0D0A005B4932435D0C
:1030800020455339303338204453442044504C4C6D
:1030900020486967686573742E0D0A005B535049B8
:1030A0005D20444F54204D617472697820436C65F3
:1030B00061722E0D0A005B4932435D2052656164E6
:1030C0002053616D706C696E6720726174652E0D9E
:1030D0000A005B4932435D20436F6D706C65746517
:1030E0002072656164696E672053616D706C696EF2
:1030F0006720726174652E0D0A000D0A537973748E
:10310000656D20737461727465642E0D0A005379C5
:103110007374656D20696E697469616C697A696E32
:10312000672E2E2E2E2E2E0D0A0053797374656D88
:1031300020696E697420436F6D706C657465642ED0
:103140000D0A0053797374656D20696E697420737C
:103150006520436F6D706C657465642E0D0A004BBD
:10316000657920636F6465203D20000D0A005B4592
:1031700053393033385D204D757465206F6E2E0DD8
:103180000A005B4553393033385D204D7574652036
:103190006F66662E0D0A005B4553393033385D206B
:1031A000566F6C756D652064656372657365642E1A
:1031B000202D20005B4553393033385D20566F6C2D
:1031C000756D6520696E6372657365642E202D20B0
:1031D000005B4932435D20414B3431313841205747
:1031E000616B652075702E0D0A005B4932435D20CE
:1031F000434F4158312053656C65637465642E0DEF
:103200000A00436F6D6D206572726F722E0D0A0099
:103210005B4932435D20434F4158322053656C6512
:10322000637465642E0D0A005B4932435D2041459D
:1032300053312053656C65637465642E0D0A005B21
:103240004932435D20414553322053656C656374B8
:1032500065642E0D0A005B4932435D20424E4320D7
:1032600053656C65637465642E0D0A005B493243D7
:103270005D204F5054312053656C65637465642E36
:103280000D0A005B4932435D204F50543220536594
:103290006C65637465642E0D0A005B4932435D20E2
:1032A000414B343131384120506F77657220646F63
:1032B000776E2E0D0A005B5341393132375D205550
:1032C000534220417564696F20416374697661746B
:1032D00065642E0D0A005B5341393132375D20554C
:1032E000534220417564696F204465616374697657
:1032F000617465642E0D0A005B5341393132375DCC
:1033000020445344206D6F64652064657465637464
:1033100065642E0D0A005B5341393132375D205010
:10332000434D206D6F6465206465746563746564E6
:103330002E0D0A005B5341393132375D204453442E
:10334000203132382064657465637465642E0D0A1B
:10335000005B5341393132375D20445344203634C9
:103360002064657465637465642E0D0A005B5341C7
:10337000393132375D2055534220697320696E2000
:103380006E6F726D616C206D6F64652E0D0A005B4F
:103390005341393132375D205553422069732069DA
:1033A0006E2073757370656E6465642E0D0A00017E
:1033B000010101010130D9010101010601CE0837E7
:1033C00009A009090AD1113A127413DD13D7233F5A
:1033D000241D27862780013030303000307830308F
:0233E0002000CB
:00281801BF
:00000001FF
