:100000000C9404121895189518951895189518952C
:100010000C94E408189518950C94D8100C94B10819
:100020000C947E08189518950C94C30D1895189586
:1000300018951895189518950C94C4091895189545
:100040000C94F20818951895189518951895189508
:100050001895189518951895189518951895189538
:100060001895189518951895189518951895189528
:100070001895189518951895189518951895189518
:1000800018951895189518951895189501003C0421
:100090000800E103EC03F80303040F041A04260428
:1000A0003104219741E050E09E010E94DC04088168
:1000B000219608950E94AF13A02F16E20A2F000F79
:1000C00006700062EEDF902F17E20A2F000F067015
:1000D0000062E7DF802F18E2AA0FA670A0620A2F45
:1000E000E0DF9C7F992311F000E00BC08C7F882318
:1000F00011F000E006C00C7F003411F000E001C0F8
:1001000001E0E3E00C94B413979800E000935F06DD
:100110000895282E20E0979A0091620008600093CD
:10012000620080E009C0E0E4F6E08F01F801319759
:10013000012BD9F720E08395823008F0DCC060E025
:100140000EC000916500026000936500E0E1F0E000
:100150008F01F8013197012BD9F72395639568300A
:1001600010F7222381F4009162000B7F009362005C
:10017000009162000D7F00936200009162000E7F8B
:10018000009362007DC0213081F4009162000B7FFA
:1001900000936200009162000D7F00936200009165
:1001A00062000160009362006BC0223081F4009114
:1001B00062000B7F00936200009162000260009376
:1001C0006200009162000E7F0093620059C02330EC
:1001D00081F4009162000B7F009362000091620045
:1001E000026000936200009162000160009362006F
:1001F00047C0243081F400916200046000936200E3
:10020000009162000D7F00936200009162000E7FFA
:100210000093620035C0253081F4009162000460D3
:1002200000936200009162000D7F009362000091D4
:10023000620001600093620023C0263081F40091C7
:10024000620004600093620000916200026000930B
:100250006200009162000E7F0093620011C027309F
:1002600079F40091620004600093620000916200E2
:1002700002600093620000916200016000936200DE
:10028000882311F0AF9805C0009165000D7F0093A1
:100290006500E8E0F0E08F01F8013197012BD9F714
:1002A000009165000B7F00936500E8E0F0E08F01AE
:1002B000F8013197012BD9F7082F10E048E050E002
:1002C0000E94231270E0060F171FF801E75CF84F39
:1002D00000810BBBE0E1F0E08F01F8013197012BC9
:1002E000D9F700916500046000936500882309F444
:1002F00028CFAF9A2BCF822D0895202F00E04AC03F
:10030000073079F41091620014601093620010912C
:1003100062001260109362001091620011601093ED
:100320006200E8E0F0E0AF01FA013197452BD9F720
:10033000109165001D7F10936500E8E0F0E0AF01CB
:10034000FA013197452BD9F7109165001B7F109367
:100350006500E8E0F0E0AF01FA013197452BD9F7ED
:100360002BBBE0E1F0E0AF01FA013197452BD9F763
:100370001091650014601093650010916500126083
:1003800010936500E0E1F0E0AF01FA013197452BF1
:10039000D9F70395083008F085C0979A109162004C
:1003A000177F10936200002381F4109162001B7F7D
:1003B00010936200109162001D7F109362001091F3
:1003C00062001E7F10936200ACCF013081F4109167
:1003D00062001B7F10936200109162001D7F1093DA
:1003E0006200109162001160109362009ACF023097
:1003F00081F4109162001B7F1093620010916200E3
:10040000126010936200109162001E7F10936200D0
:1004100088CF033081F4109162001B7F109362003B
:1004200010916200126010936200109162001160DE
:100430001093620076CF043081F410916200146052
:1004400010936200109162001D7F10936200109162
:1004500062001E7F1093620064CF053081F410911A
:100460006200146010936200109162001D7F10936F
:1004700062001091620011601093620052CF06304A
:1004800009F03ECF10916200146010936200109149
:100490006200126010936200109162001E7F109340
:1004A00062003FCF00E042C0073079F41091620053
:1004B0001460109362001091620012601093620049
:1004C00010916200116010936200E8E0F0E0AF016B
:1004D000FA013197452BD9F7AF98E8E0F0E0AF018A
:1004E000FA013197452BD9F7109165001B7F1093C6
:1004F0006500E8E0F0E0AF01FA013197452BD9F74C
:100500002BBBE0E1F0E0AF01FA013197452BD9F7C1
:1005100010916500146010936500AF9AE0E1F0E07F
:10052000AF01FA013197452BD9F70395083008F050
:1005300085C0979A10916200177F10936200002384
:1005400081F4109162001B7F109362001091620091
:100550001D7F10936200109162001E7F1093620055
:10056000B4CF013081F4109162001B7F10936200C0
:10057000109162001D7F1093620010916200116063
:1005800010936200A2CF023081F4109162001B7FB1
:10059000109362001091620012601093620010913B
:1005A00062001E7F1093620090CF033081F410919F
:1005B00062001B7F10936200109162001260109322
:1005C0006200109162001160109362007ECF0430CF
:1005D00081F4109162001460109362001091620027
:1005E0001D7F10936200109162001E7F10936200C5
:1005F0006CCF053081F4109162001460109362009A
:10060000109162001D7F10936200109162001160D2
:10061000109362005ACF063009F046CF1091620065
:1006200014601093620010916200126010936200D7
:10063000109162001E7F1093620047CF0895102F23
:1006400000911107002369F00DE40093490705E5C7
:1006500000934A0704E500934B0705E400934C0719
:1006600044C0112369F400E20093490701E30093B9
:100670004A0700E300934B0700E300934C0735C0A3
:100680001F3F69F400E30093490700E300934A0722
:100690000EE200934B0700E300934C0726C008ECE2
:1006A000011B102F20E010C044E1012F0E94161200
:1006B000005D30E0F901E75BF84F008344E1012F72
:1006C0000E941612142F2395223070F3112339F053
:1006D0000EE200934B0705E300934C0706C00EE2C1
:1006E00000934B0700E300934C0720E00BC030E081
:1006F000F901E75BF84F008130E0F901E75CF84F62
:1007000004872395243098F304DD0895219741E070
:1007100050E09E010E94DC040881219608952197F3
:10072000288341E050E09E010E94BC042196089578
:100730008A9380E010E402E9E9DF0C7F083A09F4CB
:100740008E5F10E400E9E2DF0C7F083A09F483953C
:10075000082F899108959A938A93802F912F17E0FB
:10076000082FD4DF202F992311F0216001C02E7FA4
:1007700017E0082FD4DF8991999108959A938A936D
:10078000902F812F11E0092FC1DF202F237F880FA9
:10079000880F8C70282B11E0092FC1DF8991999166
:1007A00008951F73212F15E0BADF08959A938A9355
:1007B000902F012F822FECE8F0E0FBBFF0E00C94CB
:1007C000711316E2092FA2DF202F207F8F70282BB4
:1007D00016E2092FA4DF50C016E2092F97DF202F61
:1007E0002F708295807F282B16E2092F98DF44C056
:1007F00017E2092F8BDF202F207F8F70282B17E225
:10080000092F8DDF39C017E2092F80DF202F2F70CD
:100810008295807F282B17E2092F81DF2DC018E2F7
:10082000092F74DF202F207F8F70282B18E2092FCB
:1008300076DF22C018E2092F69DF202F2F70829502
:10084000807F282B18E2092F6ADF16C019E2092FD2
:100850005DDF202F207F8F70282B19E2092F5FDFAB
:100860000BC019E2092F52DF202F2F708295807F55
:10087000282B19E2092F53DF8991999108959A93B2
:100880008A93802F912F1FE0082F40DF202F99237C
:1008900011F0226001C02C7F1FE0082F40DF8991FA
:1008A000999108959A938A93802F912F11E0082FA0
:1008B000E6DF292F10E1082F32DF89919991089501
:1008C00021E010E02CDF089508E400937000089503
:1008D00010E01093740014EA1093740010917400E7
:1008E000212F27FFFBCF10917100187F183011F0D6
:1008F00001E008950093730004E8009374000091F0
:100900007400102F17FFFBCF00917100087F083192
:1009100021F0003411F001E0089500E00895009303
:10092000730004E80093740000917400102F17FF07
:10093000FBCF00917100087F083211F001E00895AB
:1009400000E0089504EC0093740000917400102FEF
:1009500017FFFBCF00917300089504E80093740023
:1009600000917400102F17FFFBCF009173000895C2
:1009700004E9009374000895192E282E012EB90160
:10098000A7DF002311F001E014C0002DC8DF80E0D4
:1009900090E001C001968417950748F4FB01E80F29
:1009A000F91F0081BCDF0023A9F301E002C0E0DFF2
:1009B00000E0822D912D08950E94AE13602F712FBB
:1009C000D901062F85DF002311F001E01EC0072F9B
:1009D000A6DF6160062F7CDF002311F001E015C067
:1009E00080E090E006C0AEDFFD01E80FF91F008354
:1009F0000196FA0131978E179F07A8F3AEDFA40F77
:100A0000B51F11970C93B4DF00E0E4E00C94B3132E
:100A10009A938A9300E611E00E94B0110FEF0ABB8F
:100A20000DEB07BB0FEF04BB03E801BB0AE402B9FF
:100A30000FE0009361000FE10093640000E00BBB46
:100A40000FE708BB0FEF05BB0FEF02BB0FEF03B9BA
:100A500000EF009362000EE10093650007B3007C95
:100A600007BBC59A07B3007F07BBC39A82B100E0FA
:100A700002B91F9A02B1087F02B91A9A139A03B1F8
:100A8000007F03B90DE611E00E94B0110E946404DA
:100A900000E811E00E94B01103E003BF05E00EBDC5
:100AA00002E005BD07E304BD05E002BF04EE19EF57
:100AB0001DBD0CBD00E001BF05E407BF05E406BF96
:100AC00001E911E00E94B0110CEF09BF00EA0093A8
:100AD0006A0005E50ABF0CEF08BF06EA11E00E94B4
:100AE000B01100E20E945A00002329F003EC11E04B
:100AF0000E94B01104C00AED11E00E94B01100E99B
:100B00000E94600402E90E94600405EF11E00E9467
:100B1000B0110CE112E00E94B01111E000E90E9456
:100B2000AB0317E000E90E948603013429F40AE3CD
:100B300012E00E94B01104C00BE512E00E94B01157
:100B40000CE712E00E94B01111E002E90E94AB0331
:100B500017E002E90E948603013429F40BE912E050
:100B60000E94B01104C00DEB12E00E94B0110FED15
:100B700012E00E94B0110E949803802F882329F46C
:100B80000EEF12E00E94B01114C0833029F40EE180
:100B900013E00E94B0110DC0813029F40AE313E084
:100BA0000E94B01106C0823021F40DE513E00E94CE
:100BB000B01111E000E90E94BE0311E002E90E94B9
:100BC000BE0301E813E00E94B01181E006C020E0FE
:100BD000182F00E90E94D60383958930C0F381E085
:100BE00006C021E0182F02E90E94D60383958930C0
:100BF000C0F30AEB13E00E94B01110E000E90E947C
:100C0000520410E002E90E94520406EE13E00E9432
:100C1000B0110DE014E00E94B01110E000E90E9454
:100C2000AB0310E002E90E94AB030BE214E00E9468
:100C3000B01104E414E00E94B0110E948400789482
:100C400080E007C090E0FC01E75CF84F00E2008321
:100C500083958031B8F300E000932B0700E0009308
:100C60002C0701E000933807899199910895AC0110
:100C700080E090E008C0E0E8FEE39F01F9013197D1
:100C8000232BD9F70196F8013196E817F90798F761
:100C9000CA0108959A938A9380E090E00DE014E0F1
:100CA0000E94B0118F3F00E0900731F405E010E0A2
:100CB000DEDF05E010E0DBDF00910B0710910C0791
:100CC000010F009319070091190710910D070117E3
:100CD000D9F400910B0710E0E9E0F7E000831183FD
:100CE000E9E0F7E00081102F00E0E9E0F7E00083A1
:100CF000118300910C0710E0E9E0F7E020813181D9
:100D0000200F311F20833183E9E0F7E0008111815A
:100D1000E3E1F7E000831183E3E1F7E00081118173
:100D20000F3F27E01207F0F5E5E1F7E000811181C0
:100D30002281322F212F102F00E0E5E1F7E0008320
:100D4000118322833383E5E1F7E000811181228161
:100D5000322F212F102F00E0E5E1F7E0008311830F
:100D600022833383803800E0900778F4082F0295BF
:100D70000F7000932A07082F0695077000932F071E
:100D8000082F017000935C0619C00FEF00932D0728
:100D900000E000932A0700E000932F0701E0009392
:100DA0005C060CC00FEF00932D0700E000932A07AC
:100DB00000E000932F0701E000935C060E94B90C4D
:100DC00018E700E90E94D10318E702E90E94D10365
:100DD0000E94180C0AE010E04ADF0AE010E047DF4A
:100DE0000E941B0D979A01E000935F060091650039
:100DF00001600093650003E00E947D01C79A89911C
:100E000099910895AC0180E090E008C0E0E8FEE32D
:100E10009F01F9013197232BD9F70196F8013196FB
:100E2000E817F90798F7CA01089500912A070730D3
:100E300021F000911C07002351F400911C070023AE
:100E400009F443C100911B07002309F03EC10EE5E0
:100E500014E00E94B011E4E3F7E00081102F00E0FD
:100E6000E4E3F7E000831183E6E3F7E00081102F6D
:100E700000E0E6E3F7E0008311830AE714E00E9454
:100E8000B011E7E7F6E000811181E4E3F7E02081AB
:100E900031810217130758F4E4E3F7E00081118170
:100EA000E9E7F6E02081318102171307B0F0E7E7A8
:100EB000F6E000811181E6E3F7E02081318102173D
:100EC000130778F4E6E3F7E000811181E9E7F6E043
:100ED000208131810217130720F405E0009360069A
:100EE000F7C0E3E7F6E000811181E4E3F7E0208159
:100EF00031810217130758F4E4E3F7E00081118110
:100F0000E5E7F6E02081318102171307B0F0E3E74F
:100F1000F6E000811181E6E3F7E0208131810217DC
:100F2000130778F4E6E3F7E000811181E5E7F6E0E6
:100F3000208131810217130720F404E0009360063A
:100F4000C7C0EFE6F6E000811181E4E3F7E020811D
:100F500031810217130758F4E4E3F7E000811181AF
:100F6000E1E7F6E02081318102171307B0F0EFE6E8
:100F7000F6E000811181E6E3F7E02081318102177C
:100F8000130778F4E6E3F7E000811181E1E7F6E08A
:100F9000208131810217130720F403E000936006DB
:100FA00097C0EBE6F6E000811181E4E3F7E02081F1
:100FB00031810217130758F4E4E3F7E0008111814F
:100FC000EDE6F6E02081318102171307B0F0EBE681
:100FD000F6E000811181E6E3F7E02081318102171C
:100FE000130778F4E6E3F7E000811181EDE6F6E01F
:100FF000208131810217130720F402E0009360067C
:1010000067C0E7E6F6E000811181E4E3F7E02081C4
:1010100031810217130758F4E4E3F7E000811181EE
:10102000E9E6F6E02081318102171307B0F0E7E628
:10103000F6E000811181E6E3F7E0208131810217BB
:10104000130778F4E6E3F7E000811181E9E6F6E0C2
:10105000208131810217130720F401E0009360061C
:1010600037C0E3E6F6E000811181E4E3F7E0208198
:1010700031810217130758F4E4E3F7E0008111818E
:10108000E5E6F6E02081318102171307B0F0E3E6D0
:10109000F6E000811181E6E3F7E02081318102175B
:1010A000130778F4E6E3F7E000811181E5E6F6E066
:1010B000208131810217130720F400E000936006BD
:1010C00007C006E00093600603C006E000936006D8
:1010D00000916006063021F401E000931F0703C071
:1010E00000E000931F0700911F07109120070117D0
:1010F00021F000911F070093200708959A938A9387
:10110000FA93EA933A922A921A920A927A936A93FB
:101110005A934A933A932A931A930A938FB79BB799
:1011200000912307002351F00F9B04C001E00093BE
:101130001B0703C000E000931B0777DE9BBF8FBF38
:10114000099119912991399149915991699179910F
:101150000990199029903990E991F9918991999183
:1011600018959A938A93FA93EA933A922A921A924A
:101170000A927A936A935A934A933A932A931A93C8
:101180000A938FB79BB700912307002351F00E9B62
:1011900004C001E000931C0703C000E000931C079B
:1011A00044DE9BBF8FBF09911991299139914991D3
:1011B0005991699179910990199029903990E99103
:1011C000F9918991999118952A931A930A931FB7C7
:1011D0002BB701E0009310072BBF1FBF0991199196
:1011E000299118959A938A93FA93EA933A922A92BC
:1011F0001A920A927A936A935A934A933A932A9349
:101200001A930A938FB79BB705E002BF0091270797
:1012100003950093270700912307002309F4A1C039
:10122000009130070023B9F0009131071091320787
:10123000013727E1120730F000E00093300700E0AB
:1012400000933307E1E3F7E0008111810F5F1F4F47
:101250000083118386C000914D0710914E07083C12
:1012600020E0120709F040C020E00BC030E0F90197
:10127000E35CF84F008130E0F901E75CF84F008350
:101280002395203170F52630A8F400912A0710E04C
:1012900046E050E00E942312ECE7F6E0E00FF11F79
:1012A00030E0E20FF31F008130E0F901E75CF84F16
:1012B0000083E6CF2C30D0F6E6EAF6E030E0E20F2D
:1012C000F31F0091600610E046E050E00E942312F8
:1012D000E00FF11F008130E0F901E75CF84F008377
:1012E000CFCF0E94890035C000914D0710914E0765
:1012F000003223E0120769F500911B0700931D07D8
:1013000000911C0700931E070F9B04C001E000938F
:101310001B0703C000E000931B070E9B04C001E005
:1013200000931C0703C000E000931C0700911D07F9
:1013300010911B07011731F400911E0710911C0733
:10134000011709F072DD00E000934D0700E0009303
:101350004E07EDE4F7E0008111810F5F1F4F00831E
:1013600011839BBF8FBF099119912991399149919F
:101370005991699179910990199029903990E99141
:10138000F9918991999118959A938A93FA93EA938E
:101390003A922A921A920A927A936A935A934A93A9
:1013A0003A932A931A930A938FB79BB700E002EF00
:1013B0001CEF1DBD0CBD00913807002309F47FC050
:1013C000009138070F3128F40091380703950093F6
:1013D0003807009138070A3019F40E944A0618C0ED
:1013E000009138070E31A1F40EEC009362060091D3
:1013F0002D070E942E0C02E310E004DD00912D0762
:101400000E941F0301E00093230701E000931A07E5
:1014100000912307002309F452C083993AC0009138
:101420002407013051F4E0912107F091220736970B
:1014300020F002E00093240720C00091240702302E
:10144000E1F4E0912107F09122073797B0F000E036
:1014500086990395000F10E085991395010F000FF1
:1014600010E084991395010F023019F40E94930C37
:1014700004C0053011F40E94710C00E00093FE06D8
:10148000E1E2F7E0008111810F5F1F4F00831183BC
:1014900016C000E00093240700E00093210700E05D
:1014A000009322070091FE06002349F401E0009317
:1014B000FE0600E00093250700E000932607E8E21F
:1014C000F7E0008111810F5F1F4F008311839BBFE5
:1014D0008FBF099119912991399149915991699138
:1014E00079910990199029903990E991F991899110
:1014F000999118958A9380E080B382958F70877058
:101500000BEE14E00E94B011082F0E94E51107EFC6
:1015100014E00E94B011009123070023C9F181500B
:1015200069F08A9571F08A9579F08A9581F08A95AB
:1015300089F08A9591F08A95F1F02AC00E94080DF1
:1015400027C00E94930C24C00E94FA0B21C00E9465
:10155000F50C1EC00E94710C1BC0009133070023C4
:1015600021F401E00093300703C003E0009330074B
:101570000E94420D0DC000913307002321F402E0C8
:101580000093300703C004E0009330070E94420D2F
:10159000899108950091110710911207011789F0A0
:1015A000009111070093120700911107002329F001
:1015B0000AEF14E00E94B01104C00EE015E00E9492
:1015C000B01100912D0710912E07011729F10091FC
:1015D0002E0710912D07011728F403E215E00E9451
:1015E000B01104C000E415E00E94B01100912D0775
:1015F0000E94B91107EF14E00E94B01100912D076D
:1016000000932E0710912D0700E90E9452041091BB
:101610002D0702E90E9452040895B59B04C001E021
:101620000093560603C000E000935606009157064B
:10163000002311F401E001C000E0E6E5F6E01081CE
:1016400011701023112339F001E0009357060DE5C6
:1016500015E00E94B01100915606002311F401E03C
:1016600001C000E0E7E5F6E01081117001230023DE
:1016700039F000E0009357060DE715E00E94B01125
:101680000F9B04C001E000935A0603C000E00093E2
:101690005A0600915B06002311F401E001C000E04E
:1016A000EAE5F6E0108111701023112339F001E012
:1016B00000935B060FE915E00E94B01100915A06F5
:1016C000002311F401E001C000E0EBE5F6E0108139
:1016D00011700123002339F000E000935B060DEB4D
:1016E00015E00E94B011B39B04C001E000935806BE
:1016F00003C000E00093580600915906002311F43E
:1017000001E001C000E0E8E5F6E01081117010236F
:10171000112339F001E0009359060BED15E00E940A
:10172000B01100915806002311F401E001C000E05F
:10173000E9E5F6E0108111700123002339F000E0A3
:101740000093590608EF15E00E94B0111A9B04C0DF
:1017500001E000930E0703C000E000930E07009124
:101760000F07002311F401E001C000E0EEE0F7E014
:10177000108111701023112339F001E000930F073D
:1017800004E116E00E94B01100910E07002311F44D
:1017900001E001C000E0EFE0F7E0108111700123EB
:1017A000002339F000E000930F0706E316E00E94E3
:1017B000B0110895789400E011EE20E030E00E942E
:1017C0006E1102EA14E00E94B01106EB14E00E94D0
:1017D000B0110E94080502ED14E00E94B0111DDF57
:1017E000D9DE009110070023D1F300E00093100729
:1017F00081DEF5CF009130070023C9F40091110775
:10180000002321F401E00093110703C000E00093DE
:1018100011071091110700E90E94AB031091110705
:1018200002E90E94AB0300912D070E941F03089557
:101830008A9380E00FC020912D07182F105F00E9D8
:101840000E948F0320912D07182F105F02E90E943C
:101850008F038395883078F38991089508950091D6
:1018600030070023C1F410912D0700912D07053C8E
:1018700030F400912D070D5F00932D0703C00FEF8B
:1018800000932D0700912D07101729F0D1DF00914B
:101890002D070E941F03089500913007002301F5D2
:1018A00010912D0700912D070F3F21F407EC0093B5
:1018B0002D070DC000912D07033030F000912D074A
:1018C000035000932D0703C000E000932D07009103
:1018D0002D07101729F0ACDF00912D070E941F0380
:1018E0000895009130070023E9F4009111070023C7
:1018F00009F080DF10912D0700912D07073C30F48F
:1019000000912D07039500932D0703C00FEF00935F
:101910002D0700912D07101729F08ADF00912D0760
:101920000E941F03089500913007002309F50091DC
:101930001107002309F05EDF10912D0700912D079C
:101940000F3F21F407EC00932D0709C000912D07EC
:10195000002329F000912D070A9500932D0700918F
:101960002D07101729F064DF00912D070E941F0337
:10197000089500911107002341F011E000E90E9451
:10198000AB0311E002E90E94AB0300912A07073084
:1019900011F401E001C000E010916106011749F067
:1019A00000936106E1E6F6E0008100FD1B9A00FF6E
:1019B0001B9800917B06077C00937B0600912A0709
:1019C000000F000F000F10917B06100F10937B0685
:1019D00000911107002341F410E000E90E94AB03DD
:1019E00010E002E90E94AB03089500913007002344
:1019F00071F400912A07073030F400912A0703950B
:101A000000932A0703C000E000932A07B2DF08957D
:101A100000913007002371F400912A07002331F070
:101A200000912A070A9500932A0703C007E0009354
:101A30002A079FDF08958A9300E000935E0600E086
:101A400008BF00912F07033019F400E000932F071F
:101A500080912F0705E010E00E9402078823882369
:101A600021F008EC10E00E94020701E000935E06FE
:101A7000E5E2F7E000E0008300E0018308E008BF52
:101A80008991089500913007013021F000913007CD
:101A9000023021F401E00093330737C00091300792
:101AA000033061F400915C06002321F401E000930F
:101AB0005C062BC000E000935C0627C00091300755
:101AC000043019F500912F07039500932F0700911B
:101AD0001107002341F011E000E90E94AB0311E07F
:101AE00002E90E94AB03A7DFA3DE05E010E00E943D
:101AF000020700911107002341F410E000E90E9461
:101B0000AB0310E002E90E94AB0320E00BC030E021
:101B1000F901E251F94F008130E0F901E75CF84F3B
:101B200000832395203130F52830A8F400912F0749
:101B300010E048E050E00E942312E6EDF6E0E00FEE
:101B4000F11F30E0E20FF31F008130E0F901E75CA4
:101B5000F84F0083E6CF00915C060023C1F630E029
:101B6000F901EA51F94F008130E0F901E75CF84FE3
:101B70000083D7CFE1E3F7E000E0008300E00183DA
:101B80000E9489000895FA93EA934A933A932A931C
:101B90001A930A933FB74BB707E304BDE1E5F7E0BB
:101BA000008111810F5F1F4F008311830091600737
:101BB00010916107012B41F0E0E6F7E0008111810F
:101BC0000F5F1F4F0083118300915107109152073F
:101BD0000D3424E0120708F452C000E000934F07D0
:101BE00000E00093500700E00093550700E00093E9
:101BF000560700E00093530700E00093540700E00D
:101C00000093570700E00093580700E0009359073E
:101C100000E000935A0700E000935B0700E00093A8
:101C2000650700E00093680700E00093640700E0A8
:101C30000093660700E00093670700E000936907E0
:101C400000E000936A0700E00093630700E0009360
:101C5000510700E00093520700E000936B0701E09A
:101C600000935D0600915D06002349F401E00093B6
:101C70005D0600E00093250700E0009326074BBFB8
:101C80003FBF09911991299139914991E991F991B0
:101C9000189500E000934F0700E000935007E5E53A
:101CA000F7E000E0008300E00183E3E5F7E000E017
:101CB000008300E00183E7E5F7E000E0008300E057
:101CC0000183E9E5F7E000E0008300E0018300E044
:101CD00000935B0700E00093650700E0009368074E
:101CE00000E00093640700E00093660700E00093C3
:101CF000670700E00093690700E000936A0700E0CF
:101D00000093630700E000936B070895BA93AA93CA
:101D100000915007015041F00A95E1F00A9581F1D8
:101D20000A9509F443C057C0E3E5F7E0008111814B
:101D3000000F111FE3E5F7E00083118300916207B4
:101D400010E0E3E5F7E020813181202B312B208367
:101D5000318341C0E5E5F7E000811181000F111FDB
:101D6000E5E5F7E0008311830091620710E0E5E507
:101D7000F7E020813181202B312B208331832BC050
:101D8000E7E5F7E000811181000F111FE7E5F7E0BB
:101D9000008311830091620710E0E7E5F7E02081FE
:101DA0003181202B312B2083318315C0E9E5F7E009
:101DB00000811181000F111FE9E5F7E00083118315
:101DC0000091620710E0E9E5F7E020813181202BE6
:101DD000312B2083318300915B07039500935B07D0
:101DE00000915B07083040F0009150070395009385
:101DF000500700E000935B0700915007053008F49E
:101E000005C1E3E5F7E0008111810F7010700083D8
:101E10001183E5E5F7E0008111810F7010700083F8
:101E20001183A3E5B7E0ED91FC91379709F0B1C0BC
:101E3000A5E5B7E0ED91FC913A9709F0AAC0E9E574
:101E4000F7E000811181E7E5F7E0208131814FEF74
:101E5000242740E034270217130709F098C0E7E56C
:101E6000F7E000810093FF0600911A07002309F4B0
:101E70008AC0E0E6F7E000811181095E1340033F6C
:101E800021E01207A8F4E7E5F7E0008111810038AE
:101E900020E0120719F40E94930C0AC0E7E5F7E06E
:101EA00000811181083A20E0120711F40E94710CA0
:101EB000E0E6F7E001E010E00083118300E000932A
:101EC0005D06E7E5F7E000811181003B20E01207A5
:101ED00019F40E94FA0B57C0E7E5F7E00081118181
:101EE000003820E0120719F40E94930C4CC0E7E57B
:101EF000F7E000811181083A20E0120719F40E94EE
:101F0000710C41C0E7E5F7E000811181003920E064
:101F1000120719F40E94F50C36C0E7E5F7E00081DE
:101F20001181083820E0120719F40E94080D2BC017
:101F3000E7E5F7E000811181003A20E0120771F433
:101F400000913307002321F401E00093300703C020
:101F500003E0009330070E94420D15C0E7E5F7E06B
:101F600000811181083920E0120769F400913307DC
:101F7000002321F402E00093300703C004E0009343
:101F800030070E94420D00E000936C0703C081DE21
:101F900001C07FDE00E000934F0700E00093500790
:101FA000E5E5F7E000E0008300E00183E3E5F7E02A
:101FB00000E0008300E00183E7E5F7E000E0008354
:101FC00000E00183E9E5F7E000E0008300E0018341
:101FD00000E000935B0700E00093650700E00093DA
:101FE000680700E00093640700E00093660700E0E4
:101FF0000093670700E00093690700E000936A0719
:1020000000E00093630700E000936B07A991B9918A
:102010000895BA93AA93009165070023E9F100910E
:1020200068070023C9F100914F07002309F0BDC0E4
:1020300001E000934F0701E00093500700E0009398
:102040005C0700E000935F07EDE5F7E000E0008348
:1020500000E0018300E00093650700E0009368075B
:1020600000E00093640700E00093660700E000933F
:10207000670700E00093690700E000936A0700E04B
:1020800000936307EDE6F7E000E0008300E00183E2
:1020900000E000936B0789C000914F07002399F07F
:1020A00000916407002379F000916607002359F03E
:1020B00000E00093620700E00093640700E00093F3
:1020C000660724DE72C000914F07002399F000914B
:1020D0006407002379F000916707002359F001E0BD
:1020E0000093620700E00093640700E00093670735
:1020F0000DDE5BC000914F07002381F4009169075A
:10210000002361F001E00093630700E0009369079A
:1021100000916B07039500936B0747C0009163071D
:10212000002309F442C000916A070023F1F10091F5
:102130001A070023D1F100916B07013081F500E00F
:1021400000936A0700E000935D06EDE6F7E000818A
:1021500011810F5F1F4F00831183ADE6B7E0ED9152
:10216000FC91339770F00091FF06003819F40E943B
:102170004C0C1BC00091FF06083AB9F40E942F0CCA
:1021800014C00091FF06003819F40E94930C0DC092
:102190000091FF06083A49F40E94710C06C000E065
:1021A00000936B0700E00093FF06A991B991089591
:1021B0009A938A93FA93EA933A922A921A920A92FB
:1021C0007A936A935A934A933A932A931A930A9367
:1021D0008FB79BB70D9B1AC0E0915107F091520742
:1021E0003497359720F401E00093640751C0E091E3
:1021F0005107F0915207F797BE9720F401E0009342
:10220000650746C001E000936F0742C00D9940C0CA
:10221000E0915107F09152073497359720F401E08F
:102220000093660735C0E0915107F0915207399746
:102230003E9720F401E0009367072AC0E091510720
:10224000F0915207B897709720F401E00093680767
:102250001FC00091510710915207085C1040093CC3
:1022600020E0120720F401E00093690711C00091FB
:1022700051071091520700521340093C20E0120709
:1022800020F401E000936A0703C001E000936F07A8
:1022900000E00093510700E00093520700916F07A0
:1022A000002341F000E000936F0700E000936A070D
:1022B000F0DC01C0AEDE9BBF8FBF0991199129915F
:1022C0003991499159916991799109901990299081
:1022D0003990E991F9918991999118950E94AE13DD
:1022E000C801D90140EB54E060E070E08C019D0131
:1022F0000E943212452B462B472B19F00FEF1FEF90
:1023000026C0119A199A1098189A00E014E224EF46
:1023100030E0AC01BD010E9432120E94961240E0F2
:1023200050E060E871E40E94DA120E944C13015000
:1023300010409801232F2093900009B900E00BB9B9
:1023400008E90AB906E00093950000E010E0E4E037
:102350000C94B3135D9BFECF0CB900E010E0089520
:10236000F80102C010E0F6DF008131960023D1F7BA
:1023700008953B2F6A2F102FA0E0B7E044E6012F0D
:102380000E941612005D0C9344E6012F0E94161263
:10239000202F04E6209F10194AE0012F0E941612F8
:1023A000005D11960C9311974AE0012F0E941612BE
:1023B000202F0AE0209F1019105D12961C9312978F
:1023C0008D01CEDFA62FB32F0895E4E0F7E0102FA4
:1023D00012951F70105D1283102F12951F701A3006
:1023E00018F01281195F1283102F1F70105D138374
:1023F0000F700A3018F00381095F03838F01B0DF8B
:10240000089500008895FECF0FE50DBF01E00EBFD7
:10241000C0E4D1E00E94BC13002311F00E94CE134F
:102420000E94DA0B0E9401120C9401120024E8E0D1
:10243000001FEA952AF0001C0416D0F3041AF8CF06
:10244000402D00950895149F102D059F100D049F99
:10245000002D110D089536952795179507954A95E6
:10246000D2F70895002411241001E0E2001F111F8B
:10247000221F331FEA9572F0001C111C221C331C12
:10248000041615062606370688F3041A150A260AC6
:10249000370AECCFA001B101009510952095309539
:1024A000089530952095109501951F4F2F4F3F4F60
:1024B0000895FF27172E660F771F089409F4771FDA
:1024C0006795EE27032E220F331F089409F4331F5C
:1024D00027950895222342F0323030F03A95EE0FDE
:1024E000001F111F221FC2F7E03821F400FF0894DB
:1024F0000EF488940F4F1F4F2F4F3F4F323038F458
:10250000332319F427FD31E002C027FF30E03F3FBD
:1025100029F0220F000C37952795089534C0E02F3D
:10252000012F122F232F3EE9E894D4CF0024F7CFB8
:10253000F901EE0FFF1F37FBFF3F31F0EF2BE12BCF
:10254000E02B8894B8940895EE2321F00894989491
:10255000B89408959894889438940895FB01EE0FE8
:10256000FF1F77FBFF3F31F0EF2BE52BE42B889427
:10257000B8940895EE2371F3E9CF302D30782227F7
:102580001127002708953FE7302920E8F9CF3FEFD2
:102590002FEFF6CFE3DF20F01BF070783727089598
:1025A000F6CFDCDFE9F3E0F3032E0726E6CF032EB8
:1025B0000726E9CFBDDFA0F36BF399F3CFDF80F3FC
:1025C0009BF3A9F376DF012427FD06C03150E040DC
:1025D000000F111F221FD2F767FD06C07150F04097
:1025E000440F551F661FD2F7E894371BEF0B315885
:1025F000EF4F2AF0EE23E9F63F3FD9F203C0393E10
:10260000A8F26894E0E0F0E040175107620738F064
:10261000315008F46894000F111F221FEE1F71E063
:102620001124222409C0000F111F221FEE1F0417BE
:1026300015072607EF0720F0041B150B260BEF0BE1
:10264000771F111C221C78F7000F111F221FEE1F8D
:10265000041715072607EF073E2EF0F9E894E0E887
:1026600039F008F4E0E0322A312A302A09F068947F
:10267000709510942094332311F0F0FF09C0269434
:1026800017947795E79508F4689433953130BCF347
:10269000072F112D222D28CF14DF3F5748F03F314F
:1026A00068F007FC6ACF3FE72FEF1FEF0FEF0895A9
:1026B00030E020E0890110E000E00895432F322F40
:1026C000212F102F0E2F4F5141950E942F1207FEE0
:1026D00008950C9451124791179011FA2790379052
:1026E0000895F9DF041B10E000C020E030E000C0D6
:1026F000B8F010FC17C047910790E00FF11F0417C6
:10270000100540E02407340758F436F406910024FD
:10271000F101E01BF0090994E00FF11F27903790B9
:10272000F101099411F4D6F7F1CF31960EF03196FC
:1027300050E060E070E047914B3F48F089F34F3F35
:1027400029F04E3F11F07791679157914791041B03
:10275000150B260B370B39F318F3E7CFBA93AA936F
:102760009A938A930895BB81AA8199818881F0E028
:10277000EC0FFD1FEF01089501E0089520E02D9377
:1027800001501040E1F708953BBF26912D93EF5F74
:10279000FF4F3F4F01501040B9F7089542EF57E205
:1027A00060E0FA01362F3BBF07911691FA01EE5F08
:1027B000FF4F3F4F3BBFA791B691FA01362FEC5F19
:1027C000FF4F3F4F3BBF079017902690202D2129A8
:1027D000222921F0F001322DD7DF01C0CFDF495F80
:1027E0005F4F6F4F18E220E0403051076207C8F298
:1027F0000895A9056001002800670009070000008E
:10280000506F727420696E69742E0D0A004932434C
:1028100020696E697469616C697A652E2E0D0A00F3
:1028200054696D65722073657474696E672E0D0A44
:1028300000496E7465727275707420736574746982
:102840006E672E0D0A005B4932435D20414B3431E7
:1028500031384120536561726368696E672E2E2E90
:102860000D0A005B4932435D20414B343131384120
:1028700020466F756E642E0D0A005B4932435D2061
:10288000414B3431313841206E6F7420666F756E64
:10289000642E0D0A005B4932435D204553393033C5
:1028A0003850524F20536F66742052657365742000
:1028B000636F6D706C6574652E0D0A005B49324361
:1028C0005D2045533930333820553232204C65660F
:1028D00074204D7574652E0D0A005B4932435D20EE
:1028E00045533930333820553232204C65667420D8
:1028F0004D757465204F4B2E0D0A005B4932435DC8
:102900002045533930333820553232204C656674B7
:10291000204D757465204E472E0D0A005B493243E9
:102920005D204553393033382055353220526967A0
:102930006874204D7574652E0D0A005B4932435D45
:102940002045533930333820553532205269676875
:1029500074204D757465204F4B2E0D0A005B493273
:10296000435D204553393033382055353220526984
:10297000676874204D757465204E472E0D0A005B04
:102980004932435D2045533930333850524F20533C
:102990006561726368696E672E2E2E0D0A005B49B1
:1029A00032435D2045533930333850524F2078320E
:1029B000206E6F7420666F756E642E0D0A005B4981
:1029C00032435D2045533930333850524F207832EE
:1029D00020666F756E642E0D0A005B4932435D20E0
:1029E00045533930333850524F206F6C6E79206C1C
:1029F00065667420666F756E642E0D0A005B493241
:102A0000435D2045533930333850524F206F6C6E40
:102A10007920726967687420666F756E642E0D0A7E
:102A2000005B4932435D2045533930333850524FB3
:102A3000204175746F2053656C6563742066756EF4
:102A40006374696F6E204453442F49325320636F7F
:102A50006D706C6574652E0D0A005B4932435D2014
:102A600045533930333850524F204368616E6E659C
:102A70006C206D617070696E6720636F6D706C653E
:102A800074652E0D0A005B4932435D204553393091
:102A9000333850524F20566F6C756D65204D6178FC
:102AA00020636F6D706C6574652E0D0A005B493292
:102AB000435D2043533834313620496E7075743786
:102AC00020746F20474E442E0D0A005B4932435D4F
:102AD00020455339303338204D757465204F666674
:102AE0002E0D0A005B5350495D20444F54204D6128
:102AF0007472697820436C6561722E0D0A005B491F
:102B000032435D20526561642053616D706C696E63
:102B10006720726174652E0D0A005B4932435D20A7
:102B2000436F6D706C6574652072656164696E6772
:102B30002053616D706C696E6720726174652E0D33
:102B40000A000D0A53797374656D20737461727491
:102B500065642E0D0A0053797374656D20696E6982
:102B60007469616C697A696E672E2E2E2E2E2E0D79
:102B70000A0053797374656D20696E697420436F20
:102B80006D706C657465642E0D0A004B6579206369
:102B90006F6465203D20000D0A005B4553393033DA
:102BA000385D204D757465206F6E2E0D0A005B45F3
:102BB00053393033385D204D757465206F66662E4D
:102BC0000D0A005B4553393033385D20566F6C7504
:102BD0006D652064656372657365642E202D200029
:102BE0005B4553393033385D20566F6C756D652009
:102BF000696E6372657365642E202D20005B5341FE
:102C0000393132375D2055534220417564696F2058
:102C10004163746976617465642E0D0A005B5341EB
:102C2000393132375D2055534220417564696F2038
:102C300044656163746976617465642E0D0A005B96
:102C40005341393132375D20445344206D6F646500
:102C50002064657465637465642E0D0A005B5341DE
:102C6000393132375D2050434D206D6F64652064EB
:102C7000657465637465642E0D0A005B53413931D8
:102C800032375D2044534420313238206465746506
:102C9000637465642E0D0A005B5341393132375D30
:102CA000204453442036342064657465637465643D
:102CB0002E0D0A005B5341393132375D20555342A6
:102CC00020697320696E206E6F726D616C206D6F6C
:102CD00064652E0D0A005B5341393132375D205552
:102CE000534220697320696E2073757370656E643A
:102CF00065642E0D0A0001010101010101010101BC
:102D00000601CECE083709A009090AD1113A12747A
:102D100013DD13D7233F241D27862780434F4158B7
:102D20003120434F4158322020414553312020412A
:102D30004553322020424E432020204F5054312012
:102D4000204F505432202055534220202034342E1E
:102D500031202034382E30202038382E32202039AF
:102D6000362E30203137362E34203139322E302075
:102D700020202020202046494C54455231204649ED
:102D80004C544552322046494C5445523320204938
:102D90004E564552534520204E4F524D414C013026
:092DA00030303000307830300092
:00240801D3
:00000001FF
