:100000000C943511189518951895189518951895FC
:100010000C94200F189518950C94FB090C94F50E70
:100020000C94CA0E189518950C94F406189518950A
:1000300018951895189518950C946710189518959B
:100040000C94950F1895189518951895189518955E
:100050001895189518951895189518951895189538
:100060001895189518951895189518951895189528
:100070001895189518951895189518951895189518
:10008000189518951895189518951895980189013F
:1000900001501040232BD1F70895B80140E004C06F
:1000A00000E81EE3F3DF4395FB01319650E0E417CF
:1000B000F507B0F70895919A909A0AE010E0E6DF0C
:1000C000919808E210E0E2DF909806E910E0DEDFA8
:1000D000089506E910E0DADF91980AE010E0D6DF33
:1000E000909A08E210E0D2DF919A0895502F40E0F4
:1000F0000FC090980AE010E0C9DF052F07FD919A24
:1001000007FF9198550F909A0AE010E0BFDF4395E2
:10011000483078F3909804E110E0B8DF8998919A1C
:100120000AE010E0B3DF819B02C041E001C040E083
:10013000042F00FD919A00FF919804E110E0A6DFE2
:10014000909A0EE110E0A2DF9098899A04E610E000
:100150009DDF042F0895502F00E00093660200E019
:10016000009367020AE010E091DF8998919A0AE013
:1001700010E08CDF40E012C000E010916602102B0E
:1001800010936602473028F400916602000F009336
:100190006602909A0AE010E079DF4395483040F417
:1001A00090980AE010E072DF819BE6CF01E0E5CF96
:1001B00090980EE110E06ADF899A9198552321F416
:1001C00000E00093670203C001E000936702E7E6E6
:1001D000F2E0008100FD919A00FF919804E110E0A7
:1001E00055DF909A0EE110E051DF909804E610E0A0
:1001F0004DDF0895402F612F722F5DDF042F76DFD2
:10020000062F74DF072F72DF64DF0895E8E2F2E063
:100210000081118122813381013045E314074CE0D4
:10022000240740E0340708F45DC0E6E2F2E0008114
:1002300011810F3F27E0120708F062C0E6E2F2E00A
:10024000008111810B5F1F4F00831183E6E2F2E012
:1002500000810F700F3041F4E6E2F2E0008111817D
:100260000F5F1F4F00831183E8E2F2E000E000839C
:1002700000E0018300E0028300E00383E6E2F2E0B5
:10028000008111810F3F27E0120760F4E6E2F2E0FF
:100290001181012F00933002E6E2F2E00081009329
:1002A000310206C000E80093300200E00093310202
:1002B0000091300210913102010F00933402FBDEF5
:1002C00000EA14DF00E012DF009130020FDF00913E
:1002D00031020CDF0091340209DFFBDE0AE010E09E
:1002E000DCDE0895E8E2F2E00081118122813381B1
:1002F0000F5F1F4F2F4F3F4F0083118322833383A4
:10030000089584DFE6E2F2E0008111810F3F27E0EB
:10031000120708F056C047E0E6E2F2E000811181E2
:100320000E945E110E70005600933202E6E2F2E087
:10033000008100933302E8E2F2E02281022F009371
:100340002C02E8E2F2E01181012F00932D02E8E295
:10035000F2E0008100932E020091450200932F02EB
:1003600000912F02000F000F000F00932F02009149
:10037000480210912F02100F10932F0200912F02AC
:10038000000F00932F020091600110912F02100FB7
:1003900010932F0290DE00913202A8DE009133020A
:1003A000A5DE00912C02A2DE00912D029FDE0091BD
:1003B0002E029CDE0091650199DE00912F0296DEEF
:1003C00088DE0895602F712F76DE062F8FDE072FCF
:1003D0008DDE7FDE70DE6395062F88DE01E0BBDEFA
:1003E0004091660276DE042F0895980147E0890166
:1003F0000E945E110E700056122FE4DF0895979848
:1004000000E00093630108951C0160E0979A009159
:10041000620008600093620070E005C000E416E02E
:1004200035DE60E07395723008F0CCC080E00AC021
:100430000091650002600093650000E110E026DE97
:1004400063958395883050F7662381F400916200AC
:100450000B7F00936200009162000D7F00936200A9
:10046000009162000E7F009362007DC0613081F4D4
:10047000009162000B7F00936200009162000D7F8B
:1004800000936200009162000160009362006BC003
:10049000623081F4009162000B7F00936200009152
:1004A0006200026000936200009162000E7F009380
:1004B000620059C0633081F4009162000B7F0093A9
:1004C000620000916200026000936200009162008D
:1004D00001600093620047C0643081F400916200C3
:1004E000046000936200009162000D7F009362003F
:1004F000009162000E7F0093620035C0653081F488
:1005000000916200046000936200009162000D7F20
:10051000009362000091620001600093620023C0BA
:10052000663081F4009162000460009362000091E3
:100530006200026000936200009162000E7F0093EF
:10054000620011C0673079F400916200046000938A
:1005500062000091620002600093620000916200FC
:10056000016000936200772311F0AF9805C00091FD
:1005700065000D7F0093650008E010E087DD0091C5
:1005800065000B7F0093650008E010E07FDD072F1A
:1005900010E048E050E00E94541190E0080F191F4D
:1005A000F801EE5AFD4F00810BBB00E110E06EDD5B
:1005B00000916500046000936500772309F438CF4B
:1005C000AF9A3BCFC1010895502F40E036C047306D
:1005D00079F400916200046000936200009162006F
:1005E000026000936200009162000160009362006B
:1005F00008E010E04BDD009165000D7F0093650081
:1006000008E010E043DD009165000B7F009365007A
:1006100008E010E03BDD5BBB00E110E037DD00915E
:10062000650004600093650000916500026000931E
:10063000650000E110E02ADD4395483008F085C0F0
:10064000979A00916200077F00936200442381F42F
:10065000009162000B7F00936200009162000D7FA9
:1006600000936200009162000E7F00936200C0CF91
:10067000413081F4009162000B7F00936200009191
:1006800062000D7F009362000091620001600093A0
:100690006200AECF423081F4009162000B7F009384
:1006A00062000091620002600093620000916200AB
:1006B0000E7F009362009CCF433081F40091620072
:1006C0000B7F009362000091620002600093620061
:1006D000009162000160009362008ACF443081F48F
:1006E00000916200046000936200009162000D7F3F
:1006F00000936200009162000E7F0093620078CF49
:10070000453081F400916200046000936200009122
:1007100062000D7F0093620000916200016000930F
:10072000620066CF463009F052CF0091620004604B
:1007300000936200009162000260009362000091E9
:1007400062000E7F0093620053CF40E02EC047301E
:1007500079F40091620004600093620000916200ED
:1007600002600093620000916200016000936200E9
:1007700008E010E08BDCAF9808E010E087DC009127
:1007800065000B7F0093650008E010E07FDC5BBB39
:1007900000E110E07BDC00916500046000936500DF
:1007A000AF9A00E110E072DC4395483008F085C054
:1007B000979A00916200077F00936200442381F4BE
:1007C000009162000B7F00936200009162000D7F38
:1007D00000936200009162000E7F00936200C8CF18
:1007E000413081F4009162000B7F00936200009120
:1007F00062000D7F0093620000916200016000932F
:100800006200B6CF423081F4009162000B7F00930A
:100810006200009162000260009362000091620039
:100820000E7F00936200A4CF433081F400916200F8
:100830000B7F0093620000916200026000936200EF
:100840000091620001600093620092CF443081F415
:1008500000916200046000936200009162000D7FCD
:1008600000936200009162000E7F0093620080CFCF
:10087000453081F4009162000460009362000091B1
:1008800062000D7F0093620000916200016000939E
:1008900062006ECF463009F05ACF009162000460CA
:1008A0000093620000916200026000936200009178
:1008B00062000E7F009362005BCF0895102F0091BD
:1008C0006701002369F40DE40093620205E50093DB
:1008D000630204E50093640205E4009365024BC0E3
:1008E000112369F400E20093620201E300936302C2
:1008F00000E30093640200E3009365023CC01F3FE5
:1009000069F400E30093620200E3009363020EE2E5
:100910000093640200E3009365022DC034E108EC0B
:10092000011B102F20E016C0012F432F0E944711FA
:10093000005D422F50E0FA01EE59FD4F0083012F78
:10094000432F0E944711142F4AE0032F0E944711A2
:10095000302F2395223040F3112339F00EE200931B
:10096000640205E30093650206C00EE20093640290
:1009700000E30093650220E00BC030E0F901EE597E
:10098000FD4F008130E0F901EE5AFD4F04872395B9
:10099000243098F339DD089500914902002329F5A8
:1009A00000916701002321F401E00093670103C077
:1009B00000E00093670100916701002311F411E04A
:1009C00001C010E0009168010E7C010F00936801E6
:1009D000209168011AE000E90DDC209168011AE01D
:1009E00002E908DC0091650169DF0895009160016A
:1009F000002349F42FEF1DE000E9FCDB2FEF1DE0A1
:100A000002E9F8DB08C020E01DE000E9F3DB20E0AC
:100A10001DE002E9EFDB75DC0895E0E00BC02091FA
:100A200065011E2F00E9E6DB209165011E2F02E91A
:100A3000E1DBE395E83098F364DC08952FE700915B
:100A40004602201B17E100E9D5DB2FE700914702A2
:100A5000201B17E102E9CEDB2EEF14E100E9CADB2F
:100A60002EEF14E102E9C6DB08952FEF14E100E94F
:100A7000C1DB2FEF14E102E9BDDB089500914902CB
:100A80000023B9F41091650100916501053C30F433
:100A9000009165010D5F0093650103C00FEF0093A6
:100AA000650100916501101721F0B7DF0091650124
:100AB00005DF0895009149020023F9F410916501C2
:100AC000009165010F3F21F407EC009365010DC013
:100AD00000916501033030F00091650103500093EF
:100AE000650103C000E000936501009165011017E6
:100AF00021F093DF00916501E1DE08950091490244
:100B00000023E1F400916701002309F445DF10910F
:100B1000650100916501073C30F400916501039582
:100B20000093650103C00FEF00936501009165011B
:100B3000101721F072DF00916501C0DE0895009169
:100B40004902002301F500916701002309F424DF25
:100B500010916501009165010F3F21F407EC0093AE
:100B6000650109C000916501002329F0009165012C
:100B70000A950093650100916501101721F04DDF82
:100B8000009165019BDE089500916701002341F00B
:100B90002FEC1AE000E92EDB2FEC1AE002E92ADB49
:100BA00000914502073011F400E001C001E010910E
:100BB0006601011749F000936601E6E6F1E0008165
:100BC00000FD1B9A00FF1B9800918101077C009398
:100BD000810100914502000F000F000F109181016B
:100BE000100F109381012091810114E000E202DBDB
:100BF00000916701002341F02EEC1AE000E9FADAD7
:100C00002EEC1AE002E9F6DA7CDB08950091490245
:100C1000002371F400914502073030F40091450241
:100C200003950093450203C000E000934502ACDF4A
:100C3000089500914902002371F4009145020023B8
:100C400031F0009145020A950093450203C007E088
:100C50000093450299DF0895082E00E00093620199
:100C600000E008BF00914802033019F400E000934F
:100C700048028091480245DB05E010E00E944D00EB
:100C8000882349F42BE01EE000E9B4DA2BE01EE0F3
:100C900002E9B0DA15C0813049F42DE01EE000E928
:100CA000A9DA2DE01EE002E9A5DA0AC0823041F49B
:100CB0002FE01EE000E99EDA2FE01EE002E99ADA5A
:100CC000882321F008EC10E00E944D0001E0009321
:100CD0006201E0E4F2E000E0008300E0018308E06C
:100CE00008BF802D089500914902013021F0009144
:100CF0004902023021F401E000934C0238C0009117
:100D00004902033069F400916001002321F401E0FD
:100D10000093600103C000E00093600167DE27C01C
:100D200000914902043019F500914802039500939F
:100D3000480200916701002341F02FEC1AE000E91E
:100D400059DA2FEC1AE002E955DA86DF66DE05E0B3
:100D500010E00E944D0000916701002341F02EEC4D
:100D60001AE000E947DA2EEC1AE002E943DA20E063
:100D70000BC030E0F901EC50FE4F008130E0F9018A
:100D8000EE5AFD4F00832395203130F52830A8F42A
:100D90000091480210E048E050E00E945411ECED50
:100DA000F1E0E00FF11F30E0E20FF31F008130E0CF
:100DB000F901EE5AFD4F0083E6CF00916001002358
:100DC000C1F630E0F901E451FE4F008130E0F90155
:100DD000EE5AFD4F0083D7CFEAE4F2E000E0008353
:100DE00000E0018311DB0895FA93EA934A933A9362
:100DF0002A931A930A933FB74BB707E304BDEAE679
:100E0000F2E0008111810F5F1F4F00831183009179
:100E1000790210917A02012B41F0E9E7F2E00081BA
:100E200011810F5F1F4F0083118300916A0210919F
:100E30006B020D3424E0120708F452C000E0009366
:100E4000680200E00093690200E000936E0200E097
:100E500000936F0200E000936C0200E000936D02CB
:100E600000E00093700200E00093710200E0009344
:100E7000720200E00093730200E00093740200E04D
:100E800000937E0200E00093810200E000937D0267
:100E900000E000937F0200E00093800200E00093F6
:100EA000820200E00093830200E000937C0200E0F5
:100EB00000936A0200E000936B0200E0009384025A
:100EC00001E00093610100916101002349F401E018
:100ED0000093610100E00093400200E000934102B2
:100EE0004BBF3FBF09911991299139914991E991DE
:100EF000F991189500E00093680200E00093690200
:100F0000EEE6F2E000E0008300E00183ECE6F2E0D0
:100F100000E0008300E00183E0E7F2E000E000830E
:100F200000E00183E2E7F2E000E0008300E00183FB
:100F300000E00093740200E000937E0200E0009362
:100F4000810200E000937D0200E000937F0200E058
:100F50000093800200E00093820200E0009383028D
:100F600000E000937C0200E0009384020895BA93AD
:100F7000AA9300916902015041F00A95E1F00A95A7
:100F800081F10A9509F443C057C0ECE6F2E0008114
:100F90001181000F111FECE6F2E000831183009134
:100FA0007B0210E0ECE6F2E020813181202B312B36
:100FB0002083318341C0EEE6F2E000811181000F11
:100FC000111FEEE6F2E00083118300917B0210E036
:100FD000EEE6F2E020813181202B312B208331831A
:100FE0002BC0E0E7F2E000811181000F111FE0E764
:100FF000F2E00083118300917B0210E0E0E7F2E071
:1010000020813181202B312B2083318315C0E2E7F1
:10101000F2E000811181000F111FE2E7F2E000838E
:10102000118300917B0210E0E2E7F2E02081318140
:10103000202B312B20833183009174020395009380
:10104000740200917402083040F000916902039527
:101050000093690200E00093740200916902053078
:1010600008F4FCC0ECE6F2E0008111810F70107012
:1010700000831183EEE6F2E0008111810F701070A1
:1010800000831183ACE6B2E0ED91FC91379709F053
:10109000A8C0AEE6B2E0ED91FC913A9709F0A1C08C
:1010A000E2E7F2E000811181E0E7F2E020813181A6
:1010B0004FEF242740E034270217130709F08FC0B1
:1010C000E0E7F2E000810093040200913502002382
:1010D00009F481C0E9E7F2E000811181095E134063
:1010E000033F21E0120798F4E0E7F2E0008111816C
:1010F000003820E0120711F422DD09C0E0E7F2E039
:1011000000811181083A20E0120709F4F7DCE9E7D1
:10111000F2E001E010E00083118300E00093610140
:10112000E0E7F2E000811181003B20E0120711F4BA
:1011300033DC51C0E0E7F2E000811181003820E0AB
:10114000120711F4FCDC47C0E0E7F2E000811181F6
:10115000083A20E0120711F4D1DC3DC0E0E7F2E0EC
:1011600000811181003920E0120711F44FDD33C0F6
:10117000E0E7F2E000811181083820E0120711F465
:1011800058DD29C0E0E7F2E000811181003A20E05B
:10119000120769F400914C02002321F401E000934E
:1011A000490203C003E0009349029DDD14C0E0E75B
:1011B000F2E000811181083920E0120761F400910A
:1011C0004C02002321F402E00093490203C004E032
:1011D0000093490288DD00E00093850203C08ADEA7
:1011E00001C088DE00E00093680200E0009369021D
:1011F000EEE6F2E000E0008300E00183ECE6F2E0DE
:1012000000E0008300E00183E0E7F2E000E000831B
:1012100000E00183E2E7F2E000E0008300E0018308
:1012200000E00093740200E000937E0200E000936F
:10123000810200E000937D0200E000937F0200E065
:101240000093800200E00093820200E0009383029A
:1012500000E000937C0200E000938402A991B99120
:101260000895BA93AA9300917E020023E9F10091B8
:1012700081020023C9F100916802002309F0B8C07F
:1012800001E00093680201E00093690200E000932E
:10129000750200E000937802E6E7F2E000E00083E8
:1012A00000E0018300E000937E0200E000938102F1
:1012B00000E000937D0200E000937F0200E00093D5
:1012C000800200E00093820200E00093830200E0CD
:1012D00000937C02E6E8F2E000E0008300E0018396
:1012E00000E00093840284C000916802002399F01A
:1012F00000917D02002379F000917F02002359F0D4
:1013000000E000937B0200E000937D0200E0009388
:101310007F022DDE6DC000916802002399F00091DC
:101320007D02002379F000918002002359F001E052
:1013300000937B0200E000937D0200E000938002B6
:1013400016DE56C000916802002381F400918202EB
:10135000002361F001E000937C0200E00093820230
:101360000091840203950093840242C000917C02A4
:101370000023F1F1009183020023D1F100913502A5
:101380000023B1F100918402013061F500E0009387
:10139000830200E000936101E6E8F2E00081118140
:1013A0000F5F1F4F00831183A6E8B2E0ED91FC911F
:1013B000339760F000910402003811F47BDB18C011
:1013C00000910402083AA1F459DB12C00091040212
:1013D000003811F4B4DB0CC000910402083A41F467
:1013E0008DDB06C000E00093840200E0009304025D
:1013F000A991B99108959A938A93FA93EA933A92AC
:101400002A921A920A927A936A935A934A933A9337
:101410002A931A930A938FB79BB70D9B1AC0E0913A
:101420006A02F0916B023497359720F401E0009343
:101430007D0251C0E0916A02F0916B02F797BE976E
:1014400020F401E000937E0246C001E00093880290
:1014500042C00D9940C0E0916A02F0916B0234974E
:10146000359720F401E000937F0235C0E0916A02D5
:10147000F0916B0239973E9720F401E000938002CF
:101480002AC0E0916A02F0916B02B897709720F43D
:1014900001E0009381021FC000916A0210916B026B
:1014A000085C1040093C20E0120720F401E00093A2
:1014B000820211C000916A0210916B020052134027
:1014C000093C20E0120720F401E00093830203C0EE
:1014D00001E00093880200E000936A0200E00093BC
:1014E0006B0200918802002341F000E00093880223
:1014F00000E000938302FEDC01C0B3DE9BBF8FBF20
:10150000099119912991399149915991699179914B
:101510000990199029903990E991F99189919991BF
:1015200018950FEF0ABB0DEB07BB0FEF04BB03E8E9
:1015300001BB08E002B90FE0009361000FE10093E6
:10154000640000E00BBB0FE708BB0FEF05BB0FEF1C
:1015500002BB0FEF03B900EF009362000EE10093AE
:10156000650003E003BF05E00EBD02E005BD07E333
:1015700004BD05E002BF04EE19EF1DBD0CBD00E087
:1015800001BF05E407BF05E406BF0CEF09BF00EA91
:1015900000936A0005E50ABF0CEF08BF28EB14E0D2
:1015A00000E20E94FA002FEC1AE000E90E94FA0023
:1015B0002FEC1AE002E90E94FA000E94FF017894E1
:1015C00000E007C010E0F801EE5AFD4F10E2108372
:1015D00003950031B8F300E00093460200E0009369
:1015E000470201E00093510208950C018AE090E067
:1015F0008B3F07E0900778F40596082F0F700F30A7
:1016000009F401968C010E94F5010093910200916A
:1016100091020F3F69F7E9E8F2E080839183E9E8FE
:10162000F2E01181012F00938E02E9E8F2E00081DF
:1016300000938F0200918E0210918F02010F009390
:1016400090020E945B0000EA0E94760000E00E9487
:10165000760000918E020E94760000918F020E9417
:101660007600009190020E9476000E9469000AE0D4
:1016700010E00E944D00E9E8F2E0008111810F3F87
:1016800027E0120738F50E945B0047E0E9E8F2E046
:10169000008111810E945E110E7000560E9476003A
:1016A000E9E8F2E000810E94760000E00E94760006
:1016B00000E00E94760000E00E9476000FEF0E949A
:1016C000760001E00E9476000E9469000AE010E0C6
:1016D0000E944D00C00108951C0128EB14E000E2B7
:1016E0000E94FA002FEC1AE000E90E94FA002FECA9
:1016F0001AE002E90E94FA0000E010E00E94F50101
:10170000802F90E08F3F00E09007A1F50E945B00E2
:1017100000EA0E94760000E00E94760000E00E944D
:10172000760000E10E94760000E10E9476000E94AF
:10173000690005E010E00E944D000E945B0000EA95
:101740000E94760000E10E94760000E00E94760090
:1017500000E00E94760000E00E9476000FEF0E94F9
:10176000760001E00E9476000E94690005E010E02A
:101770000E944D0000E010E00E94F50100938B02F2
:1017800001E010E00E94F50100938C0202E010E0FD
:101790000E94F50100938D0200918B0210918C0242
:1017A000010F009334020091340210918D02011751
:1017B00011F01BDF1BC000918B0210E0E9E8F2E0A2
:1017C00000831183E9E8F2E00081102F00E0E9E8EE
:1017D000F2E00083118300918C0210E0E9E8F2E06E
:1017E00020813181200F311F20833183E9E8F2E02D
:1017F00000811181E6E2F2E000831183E6E2F2E08B
:10180000008111810F3F27E0120708F093C0E6E244
:10181000F2E0008111810E94F50110E020E030E04B
:10182000E8E2F2E00083118322833383E8E2F2E00E
:10183000008111812281322F212F102F00E0E8E258
:10184000F2E00083118322833383E6E2F2E0008139
:1018500011810F5F1F4F0E94F50110E020E030E082
:10186000E8E2F2E04081518162817381400F511FB3
:10187000621F731F4083518362837383E8E2F2E047
:10188000008111812281322F212F102F00E0E8E208
:10189000F2E00083118322833383E6E2F2E00081E9
:1018A00011810E5F1F4F0E94F50110E020E030E033
:1018B000E8E2F2E04081518162817381400F511F63
:1018C000621F731F4083518362837383E6E2F2E0F9
:1018D000008111810D5F1F4F0E94F501009365018A
:1018E000E6E2F2E0008111810C5F1F4F0E94F501DA
:1018F000802F90E0803800E0900778F4082F029560
:101900000F7000934502082F069507700093480258
:10191000082F01700093600119C00FEF009365015B
:1019200000E00093450200E00093480201E00093CC
:1019300060010CC00FEF0093650100E000934502C9
:1019400000E00093480201E00093600120E010E015
:1019500000E20E94FA0024E811E000E20E94FA008E
:1019600029E012E000E20E94FA0020E513E000E224
:101970000E94FA0009D925E815E000E20E94FA0069
:101980002DE91BE000E90E94FA0020E21CE000E9DA
:101990000E94FA0020E01FE000E90E94FA002DE119
:1019A00011E100E90E94FA0021E019E100E90E943A
:1019B000FA002DE91BE002E90E94FA0020E21CE097
:1019C00002E90E94FA0020E01FE002E90E94FA000A
:1019D0002DE911E102E90E94FA0021E019E102E992
:1019E0000E94FA0028E718E000E90E94FA0028E7C0
:1019F00018E002E90E94FA0010D80AE010E00E9404
:101A00004D000E94F6040AE010E00E944D0024D927
:101A1000979A01E0009363010091650001600093D3
:101A2000650003E00E94E402C79A80E090E008C0ED
:101A30008C010E94F501FC01EA5FFD4F00830196D5
:101A4000803200E09007A0F3C101089500914502A3
:101A5000073021F000913702002351F40091370242
:101A6000002309F467C100913602002309F062C126
:101A70001FE100E90E94E20110E0EDE4F2E00083E2
:101A80001183EDE4F2E00081102F00E0EDE4F2E0DC
:101A9000008311831EE100E90E94E20110E0EDE401
:101AA000F2E020813181200F311F208331831FE13B
:101AB00002E90E94E20110E0EFE4F2E0008311830A
:101AC000EFE4F2E00081102F00E0EFE4F2E00083A9
:101AD00011831EE102E90E94E20110E0EFE4F2E06E
:101AE00020813181200F311F20833183EDE7F1E028
:101AF00000811181EDE4F2E02081318102171307AA
:101B000058F4EDE4F2E000811181EFE7F1E020818B
:101B1000318102171307B0F0EDE7F1E00081118188
:101B2000EFE4F2E0208131810217130778F4EFE44B
:101B3000F2E000811181EFE7F1E0208131810217AD
:101B4000130720F405E000936401F7C0E9E7F1E032
:101B500000811181EDE4F2E0208131810217130749
:101B600058F4EDE4F2E000811181EBE7F1E020812F
:101B7000318102171307B0F0E9E7F1E0008111812C
:101B8000EFE4F2E0208131810217130778F4EFE4EB
:101B9000F2E000811181EBE7F1E020813181021751
:101BA000130720F404E000936401C7C0E5E7F1E007
:101BB00000811181EDE4F2E02081318102171307E9
:101BC00058F4EDE4F2E000811181E7E7F1E02081D3
:101BD000318102171307B0F0E5E7F1E000811181D0
:101BE000EFE4F2E0208131810217130778F4EFE48B
:101BF000F2E000811181E7E7F1E0208131810217F5
:101C0000130720F403E00093640197C0E1E7F1E0DB
:101C100000811181EDE4F2E0208131810217130788
:101C200058F4EDE4F2E000811181E3E7F1E0208176
:101C3000318102171307B0F0E1E7F1E00081118173
:101C4000EFE4F2E0208131810217130778F4EFE42A
:101C5000F2E000811181E3E7F1E020813181021798
:101C6000130720F402E00093640167C0EDE6F1E0A1
:101C700000811181EDE4F2E0208131810217130728
:101C800058F4EDE4F2E000811181EFE6F1E020810B
:101C9000318102171307B0F0EDE6F1E00081118108
:101CA000EFE4F2E0208131810217130778F4EFE4CA
:101CB000F2E000811181EFE6F1E02081318102172D
:101CC000130720F401E00093640137C0E9E6F1E076
:101CD00000811181EDE4F2E02081318102171307C8
:101CE00058F4EDE4F2E000811181EBE6F1E02081AF
:101CF000318102171307B0F0E9E6F1E000811181AC
:101D0000EFE4F2E0208131810217130778F4EFE469
:101D1000F2E000811181EBE6F1E0208131810217D0
:101D2000130720F400E00093640107C006E000936D
:101D3000640103C006E00093640100916401063071
:101D400021F401E000933A0203C000E000933A025C
:101D500000913A0210913B020117D9F000913A022A
:101D600000933B0200913B02002319F4F0916501BE
:101D700001C0F0EEE0E00BC02F2F1E2F00E90E9403
:101D8000FA002F2F1E2F02E90E94FA00E395E83097
:101D900098F30895FA93EA931A920A927A936A93BF
:101DA0005A934A933A932A931A930A930FB61BB6FF
:101DB00000913E02002351F00F9B04C001E000930C
:101DC000360203C000E00093360240DE1BBE0FBEA9
:101DD0000991199129913991499159916991799173
:101DE00009901990E991F9911895FA93EA931A924A
:101DF0000A927A936A935A934A933A932A931A933C
:101E00000A930FB61BB600913E02002351F00E9BC1
:101E100004C001E00093370203C000E000933702E2
:101E200015DE1BBE0FBE0991199129913991499177
:101E300059916991799109901990E991F9911895C1
:101E40009A938A93FA93EA933A922A921A920A926E
:101E50007A936A935A934A933A932A931A930A93DA
:101E60008FB79BB700E000E000933F0200E0869947
:101E70000395000F10E085991395010F000F10E0F6
:101E800084991395010F10913E021123D9F101306D
:101E900019F40E94190633C0023019F40E949F05FC
:101EA0002EC0033019F40E94CC0429C0043019F468
:101EB0000E94060624C0053019F40E947E051FC04A
:101EC000063071F400914C02002321F401E00093EC
:101ED000490203C003E0009349020E9473060FC049
:101EE000073069F400914C02002321F402E00093D2
:101EF000490203C004E0009349020E94730601E016
:101F000000933F029BBF8FBF09911991299139918D
:101F10004991599169917991099019902990399035
:101F2000E991F9918991999118959A938A93FA93E5
:101F3000EA933A922A921A920A927A936A935A935D
:101F40004A933A932A931A930A938FB79BB705E063
:101F500002BF0091420203950093420200913E02AB
:101F6000002309F4A1C0009149020023B9F00091B7
:101F70004A0210914B02013727E1120730F000E0CE
:101F80000093490200E000934C02EAE4F2E0008191
:101F900011810F5F1F4F0083118386C00091920251
:101FA00010919302083C20E0120709F040C020E0A5
:101FB0000BC030E0F901EA5AFD4F008130E0F90131
:101FC000EE5AFD4F00832395203170F52630A8F49A
:101FD0000091450210E046E050E00E945411E2E812
:101FE000F1E0E00FF11F30E0E20FF31F008130E07D
:101FF000F901EE5AFD4F0083E6CF2C30D0F6ECEA23
:10200000F1E030E0E20FF31F0091640110E046E0E0
:1020100050E00E945411E00FF11F008130E0F901FF
:10202000EE5AFD4F0083CFCF0E94040235C00091CD
:10203000920210919302003223E0120769F5009199
:1020400036020093380200913702009339020F9B49
:1020500004C001E00093360203C000E000933602A2
:102060000E9B04C001E00093370203C000E0009320
:1020700037020091380210913602011731F40091B5
:10208000390210913702011709F0E0DC00E00093FB
:10209000920200E000939302E2E9F2E000811181F4
:1020A0000F5F1F4F008311839BBF8FBF0991199151
:1020B0002991399149915991699179910990199092
:1020C00029903990E991F9918991999118959A936C
:1020D0008A93FA93EA933A922A921A920A927A93FC
:1020E0006A935A934A933A932A931A930A938FB70F
:1020F0009BB700E002EF1CEF1DBD0CBD009151022B
:10210000002309F48FC0009151020F3128F400918F
:102110005102039500935102009151020A3011F4CB
:10212000DBDA29C0009151020E3129F50EEC009343
:102130006801209168011AE000E90E94FA002091EC
:1021400068011AE002E90E94FA00009165010E940C
:102150001E0502E310E00E944D00009165010E94FF
:102160003505009165010E945E0401E000933E0286
:1021700001E00093350200913E02002309F452C0B1
:1021800083993AC000913F02013051F4E0913C0242
:10219000F0913D02369720F002E000933F0220C00C
:1021A00000913F020230E1F4E0913C02F0913D02E7
:1021B0003797B0F000E086990395000F10E08599FD
:1021C0001395010F000F10E084991395010F023051
:1021D00019F40E949F0504C0053011F40E947E0589
:1021E00000E000930502ECE3F2E0008111810F5F53
:1021F0001F4F0083118316C000E000933F0200E0F0
:1022000000933C0200E000933D0200910502002390
:1022100049F401E00093050200E00093400200E071
:1022200000934102E3E4F2E0008111810F5F1F4F50
:10223000008311839BBF8FBF099119912991399117
:102240004991599169917991099019902990399002
:10225000E991F99189919991189563D9B699FECF31
:10226000C798FCCF00008895FECF0FE50DBF01E0B9
:102270000EBFC0E4D1E00E946111002311F00E9462
:1022800073110E942D110E9432110C9432110024FE
:10229000E8E0001FEA952AF0001C0416D0F3041AA7
:1022A000F8CF402D00950895149F102D059F100D17
:1022B000049F002D110D0895169507954A95E2F794
:1022C000089501E0089520E02D9301501040E1F7BA
:1022D00008953BBF26912D93EF5FFF4F3F4F015075
:1022E0001040B9F708954CE353E260E0FA01362F4D
:1022F0003BBF07911691FA01EE5FFF4F3F4F3BBF87
:10230000A791B691FA01362FEC5FFF4F3F4F3BBFCD
:10231000079017902690202D2129222921F0F001E5
:10232000322DD7DF01C0CFDF495F5F4F6F4F13E220
:1023300020E04A3451076207C8F208958E00060271
:10234000000000A60060014A23000101010106FF10
:102350000101CECE083709A009090AD1113A127439
:1023600013DD13D7233F241D27862780434F415871
:102370003120434F415832202041455331202041E4
:102380004553322020424E432020204F50543120CC
:10239000204F505432202055534220202034342ED8
:1023A00031202034382E30202038382E3220203969
:1023B000362E30203137362E34203139322E30202F
:1023C00020202020202046494C54455231204649A7
:1023D0004C544552322046494C54455233202049F2
:1023E0004E564552534520204E4F524D414C3001E0
:00226A0173
:00000001FF
