:100000000C943511189518951895189518951895FC
:100010000C94200F189518950C94FB090C94F50E70
:100020000C94CA0E189518950C94F406189518950A
:1000300018951895189518950C946710189518959B
:100040000C94950F1895189518951895189518955E
:100050001895189518951895189518951895189538
:100060001895189518951895189518951895189528
:100070001895189518951895189518951895189518
:10008000189518951895189518951895980189013F
:1000900001501040232BD1F70895B80140E004C06F
:1000A00000E81EE3F3DF4395FB01319650E0E417CF
:1000B000F507B0F70895919A909A0AE010E0E6DF0C
:1000C000919808E210E0E2DF909806E910E0DEDFA8
:1000D000089506E910E0DADF91980AE010E0D6DF33
:1000E000909A08E210E0D2DF919A0895502F40E0F4
:1000F0000FC090980AE010E0C9DF052F07FD919A24
:1001000007FF9198550F909A0AE010E0BFDF4395E2
:10011000483078F3909804E110E0B8DF8998919A1C
:100120000AE010E0B3DF819B02C041E001C040E083
:10013000042F00FD919A00FF919804E110E0A6DFE2
:10014000909A0EE110E0A2DF9098899A04E610E000
:100150009DDF042F0895502F00E00093460200E039
:10016000009347020AE010E091DF8998919A0AE033
:1001700010E08CDF40E012C000E010914602102B2E
:1001800010934602473028F400914602000F009376
:100190004602909A0AE010E079DF4395483040F437
:1001A00090980AE010E072DF819BE6CF01E0E5CF96
:1001B00090980EE110E06ADF899A9198552321F416
:1001C00000E00093470203C001E000934702E7E428
:1001D000F2E0008100FD919A00FF919804E110E0A7
:1001E00055DF909A0EE110E051DF909804E610E0A0
:1001F0004DDF0895402F612F722F5DDF042F76DFD2
:10020000062F74DF072F72DF64DF0895E8E0F2E065
:100210000081118122813381013045E314074CE0D4
:10022000240740E0340708F45DC0E6E0F2E0008116
:1002300011810F3F27E0120708F062C0E6E0F2E00C
:10024000008111810B5F1F4F00831183E6E0F2E014
:1002500000810F700F3041F4E6E0F2E0008111817F
:100260000F5F1F4F00831183E8E0F2E000E000839E
:1002700000E0018300E0028300E00383E6E0F2E0B7
:10028000008111810F3F27E0120760F4E6E0F2E001
:100290001181012F00931002E6E0F2E0008100934B
:1002A000110206C000E80093100200E00093110262
:1002B0000091100210911102010F00931402FBDE55
:1002C00000EA14DF00E012DF009110020FDF00915E
:1002D00011020CDF0091140209DFFBDE0AE010E0DE
:1002E000DCDE0895E8E0F2E00081118122813381B3
:1002F0000F5F1F4F2F4F3F4F0083118322833383A4
:10030000089584DFE6E0F2E0008111810F3F27E0ED
:10031000120708F056C047E0E6E0F2E000811181E4
:100320000E945E110E70005600931202E6E0F2E0A9
:10033000008100931302E8E0F2E02281022F009393
:100340000C02E8E0F2E01181012F00930D02E8E0D9
:10035000F2E0008100930E020091250200930F024B
:1003600000910F02000F000F000F00930F02009189
:10037000280210910F02100F10930F0200910F022C
:10038000000F00930F020091400110910F02100F17
:1003900010930F0290DE00911202A8DE009113026A
:1003A000A5DE00910C02A2DE00910D029FDE0091FD
:1003B0000E029CDE0091450199DE00910F0296DE4F
:1003C00088DE0895602F712F76DE062F8FDE072FCF
:1003D0008DDE7FDE70DE6395062F88DE01E0BBDEFA
:1003E0004091460276DE042F0895980147E0890186
:1003F0000E945E110E700056122FE4DF0895979848
:1004000000E00093430108951C0160E0979A009179
:10041000620008600093620070E005C000E416E02E
:1004200035DE60E07395723008F0CCC080E00AC021
:100430000091650002600093650000E110E026DE97
:1004400063958395883050F7662381F400916200AC
:100450000B7F00936200009162000D7F00936200A9
:10046000009162000E7F009362007DC0613081F4D4
:10047000009162000B7F00936200009162000D7F8B
:1004800000936200009162000160009362006BC003
:10049000623081F4009162000B7F00936200009152
:1004A0006200026000936200009162000E7F009380
:1004B000620059C0633081F4009162000B7F0093A9
:1004C000620000916200026000936200009162008D
:1004D00001600093620047C0643081F400916200C3
:1004E000046000936200009162000D7F009362003F
:1004F000009162000E7F0093620035C0653081F488
:1005000000916200046000936200009162000D7F20
:10051000009362000091620001600093620023C0BA
:10052000663081F4009162000460009362000091E3
:100530006200026000936200009162000E7F0093EF
:10054000620011C0673079F400916200046000938A
:1005500062000091620002600093620000916200FC
:10056000016000936200772311F0AF9805C00091FD
:1005700065000D7F0093650008E010E087DD0091C5
:1005800065000B7F0093650008E010E07FDD072F1A
:1005900010E048E050E00E94541190E0080F191F4D
:1005A000F801EE5CFD4F00810BBB00E110E06EDD59
:1005B00000916500046000936500772309F438CF4B
:1005C000AF9A3BCFC1010895502F40E036C047306D
:1005D00079F400916200046000936200009162006F
:1005E000026000936200009162000160009362006B
:1005F00008E010E04BDD009165000D7F0093650081
:1006000008E010E043DD009165000B7F009365007A
:1006100008E010E03BDD5BBB00E110E037DD00915E
:10062000650004600093650000916500026000931E
:10063000650000E110E02ADD4395483008F085C0F0
:10064000979A00916200077F00936200442381F42F
:10065000009162000B7F00936200009162000D7FA9
:1006600000936200009162000E7F00936200C0CF91
:10067000413081F4009162000B7F00936200009191
:1006800062000D7F009362000091620001600093A0
:100690006200AECF423081F4009162000B7F009384
:1006A00062000091620002600093620000916200AB
:1006B0000E7F009362009CCF433081F40091620072
:1006C0000B7F009362000091620002600093620061
:1006D000009162000160009362008ACF443081F48F
:1006E00000916200046000936200009162000D7F3F
:1006F00000936200009162000E7F0093620078CF49
:10070000453081F400916200046000936200009122
:1007100062000D7F0093620000916200016000930F
:10072000620066CF463009F052CF0091620004604B
:1007300000936200009162000260009362000091E9
:1007400062000E7F0093620053CF40E02EC047301E
:1007500079F40091620004600093620000916200ED
:1007600002600093620000916200016000936200E9
:1007700008E010E08BDCAF9808E010E087DC009127
:1007800065000B7F0093650008E010E07FDC5BBB39
:1007900000E110E07BDC00916500046000936500DF
:1007A000AF9A00E110E072DC4395483008F085C054
:1007B000979A00916200077F00936200442381F4BE
:1007C000009162000B7F00936200009162000D7F38
:1007D00000936200009162000E7F00936200C8CF18
:1007E000413081F4009162000B7F00936200009120
:1007F00062000D7F0093620000916200016000932F
:100800006200B6CF423081F4009162000B7F00930A
:100810006200009162000260009362000091620039
:100820000E7F00936200A4CF433081F400916200F8
:100830000B7F0093620000916200026000936200EF
:100840000091620001600093620092CF443081F415
:1008500000916200046000936200009162000D7FCD
:1008600000936200009162000E7F0093620080CFCF
:10087000453081F4009162000460009362000091B1
:1008800062000D7F0093620000916200016000939E
:1008900062006ECF463009F05ACF009162000460CA
:1008A0000093620000916200026000936200009178
:1008B00062000E7F009362005BCF0895102F0091BD
:1008C0004701002369F40DE40093420205E500931B
:1008D000430204E50093440205E4009345024BC043
:1008E000112369F400E20093420201E30093430202
:1008F00000E30093440200E3009345023CC01F3F25
:1009000069F400E30093420200E3009343020EE225
:100910000093440200E3009345022DC034E108EC4B
:10092000011B102F20E016C0012F432F0E944711FA
:10093000005D422F50E0FA01EE5BFD4F0083012F76
:10094000432F0E944711142F4AE0032F0E944711A2
:10095000302F2395223040F3112339F00EE200931B
:10096000440205E30093450206C00EE200934402F0
:1009700000E30093450220E00BC030E0F901EE5B9C
:10098000FD4F008130E0F901EE5CFD4F04872395B7
:10099000243098F339DD089500912902002329F5C8
:1009A00000914701002321F401E00093470103C0B7
:1009B00000E00093470100914701002311F411E08A
:1009C00001C010E0009148010E7C010F0093480126
:1009D000209148011AE000E90DDC209148011AE05D
:1009E00002E908DC0091450169DF089500914001AA
:1009F000002349F42FEF1DE000E9FCDB2FEF1DE0A1
:100A000002E9F8DB08C020E01DE000E9F3DB20E0AC
:100A10001DE002E9EFDB75DC0895E0E00BC02091FA
:100A200045011E2F00E9E6DB209145011E2F02E95A
:100A3000E1DBE395E83098F364DC08952FE700915B
:100A40002602201B17E100E9D5DB2FE700912702E2
:100A5000201B17E102E9CEDB2EEF14E100E9CADB2F
:100A60002EEF14E102E9C6DB08952FEF14E100E94F
:100A7000C1DB2FEF14E102E9BDDB089500912902EB
:100A80000023B9F41091450100914501053C30F473
:100A9000009145010D5F0093450103C00FEF0093E6
:100AA000450100914501101721F0B7DF0091450184
:100AB00005DF0895009129020023F9F41091450102
:100AC000009145010F3F21F407EC009345010DC053
:100AD00000914501033030F000914501035000932F
:100AE000450103C000E00093450100914501101746
:100AF00021F093DF00914501E1DE08950091290284
:100B00000023E1F400914701002309F445DF10912F
:100B1000450100914501073C30F4009145010395E2
:100B20000093450103C00FEF00934501009145017B
:100B3000101721F072DF00914501C0DE0895009189
:100B40002902002301F500914701002309F424DF65
:100B500010914501009145010F3F21F407EC0093EE
:100B6000450109C000914501002329F0009145018C
:100B70000A950093450100914501101721F04DDFC2
:100B8000009145019BDE089500914701002341F04B
:100B90002FEC1AE000E92EDB2FEC1AE002E92ADB49
:100BA00000912502073011F400E001C001E010912E
:100BB0004601011749F000934601E6E4F1E00081A7
:100BC00000FD1B9A00FF1B9800916101077C0093B8
:100BD000610100912502000F000F000F10916101CB
:100BE000100F109361012091610114E000E202DB1B
:100BF00000914701002341F02EEC1AE000E9FADAF7
:100C00002EEC1AE002E9F6DA7CDB08950091290265
:100C1000002371F400912502073030F40091250281
:100C200003950093250203C000E000932502ACDF8A
:100C3000089500912902002371F4009125020023F8
:100C400031F0009125020A950093250203C007E0C8
:100C50000093250299DF0895082E00E000934201D9
:100C600000E008BF00912802033019F400E000936F
:100C700028028091280245DB05E010E00E944D002B
:100C8000882349F42BE01EE000E9B4DA2BE01EE0F3
:100C900002E9B0DA15C0813049F42DE01EE000E928
:100CA000A9DA2DE01EE002E9A5DA0AC0823041F49B
:100CB0002FE01EE000E99EDA2FE01EE002E99ADA5A
:100CC000882321F008EC10E00E944D0001E0009321
:100CD0004201E0E2F2E000E0008300E0018308E08E
:100CE00008BF802D089500912902013021F0009164
:100CF0002902023021F401E000932C0238C0009157
:100D00002902033069F400914001002321F401E03D
:100D10000093400103C000E00093400167DE27C05C
:100D200000912902043019F50091280203950093DF
:100D3000280200914701002341F02FEC1AE000E95E
:100D400059DA2FEC1AE002E955DA86DF66DE05E0B3
:100D500010E00E944D0000914701002341F02EEC6D
:100D60001AE000E947DA2EEC1AE002E943DA20E063
:100D70000BC030E0F901EC52FE4F008130E0F90188
:100D8000EE5CFD4F00832395203130F52830A8F428
:100D90000091280210E048E050E00E945411ECEB72
:100DA000F1E0E00FF11F30E0E20FF31F008130E0CF
:100DB000F901EE5CFD4F0083E6CF00914001002376
:100DC000C1F630E0F901E453FE4F008130E0F90153
:100DD000EE5CFD4F0083D7CFEAE2F2E000E0008353
:100DE00000E0018311DB0895FA93EA934A933A9362
:100DF0002A931A930A933FB74BB707E304BDEAE47B
:100E0000F2E0008111810F5F1F4F00831183009179
:100E1000590210915A02012B41F0E9E5F2E00081FC
:100E200011810F5F1F4F0083118300914A021091BF
:100E30004B020D3424E0120708F452C000E0009386
:100E4000480200E00093490200E000934E0200E0F7
:100E500000934F0200E000934C0200E000934D022B
:100E600000E00093500200E00093510200E0009384
:100E7000520200E00093530200E00093540200E0AD
:100E800000935E0200E00093610200E000935D02C7
:100E900000E000935F0200E00093600200E0009336
:100EA000620200E00093630200E000935C0200E055
:100EB00000934A0200E000934B0200E000936402BA
:100EC00001E00093410100914101002349F401E058
:100ED0000093410100E00093200200E00093210212
:100EE0004BBF3FBF09911991299139914991E991DE
:100EF000F991189500E00093480200E00093490240
:100F0000EEE4F2E000E0008300E00183ECE4F2E0D4
:100F100000E0008300E00183E0E5F2E000E0008310
:100F200000E00183E2E5F2E000E0008300E00183FD
:100F300000E00093540200E000935E0200E00093A2
:100F4000610200E000935D0200E000935F0200E0B8
:100F50000093600200E00093620200E000936302ED
:100F600000E000935C0200E0009364020895BA93ED
:100F7000AA9300914902015041F00A95E1F00A95C7
:100F800081F10A9509F443C057C0ECE4F2E0008116
:100F90001181000F111FECE4F2E000831183009136
:100FA0005B0210E0ECE4F2E020813181202B312B58
:100FB0002083318341C0EEE4F2E000811181000F13
:100FC000111FEEE4F2E00083118300915B0210E058
:100FD000EEE4F2E020813181202B312B208331831C
:100FE0002BC0E0E5F2E000811181000F111FE0E568
:100FF000F2E00083118300915B0210E0E0E5F2E093
:1010000020813181202B312B2083318315C0E2E5F3
:10101000F2E000811181000F111FE2E5F2E0008390
:10102000118300915B0210E0E2E5F2E02081318162
:10103000202B312B208331830091540203950093A0
:10104000540200915402083040F000914902039587
:101050000093490200E000935402009149020530D8
:1010600008F4FCC0ECE4F2E0008111810F70107014
:1010700000831183EEE4F2E0008111810F701070A3
:1010800000831183ACE4B2E0ED91FC91379709F055
:10109000A8C0AEE4B2E0ED91FC913A9709F0A1C08E
:1010A000E2E5F2E000811181E0E5F2E020813181AA
:1010B0004FEF242740E034270217130709F08FC0B1
:1010C000E0E5F2E000810093E401009115020023C5
:1010D00009F481C0E9E5F2E000811181095E134065
:1010E000033F21E0120798F4E0E5F2E0008111816E
:1010F000003820E0120711F422DD09C0E0E5F2E03B
:1011000000811181083A20E0120709F4F7DCE9E5D3
:10111000F2E001E010E00083118300E00093410160
:10112000E0E5F2E000811181003B20E0120711F4BC
:1011300033DC51C0E0E5F2E000811181003820E0AD
:10114000120711F4FCDC47C0E0E5F2E000811181F8
:10115000083A20E0120711F4D1DC3DC0E0E5F2E0EE
:1011600000811181003920E0120711F44FDD33C0F6
:10117000E0E5F2E000811181083820E0120711F467
:1011800058DD29C0E0E5F2E000811181003A20E05D
:10119000120769F400912C02002321F401E000936E
:1011A000290203C003E0009329029DDD14C0E0E59D
:1011B000F2E000811181083920E0120761F400910A
:1011C0002C02002321F402E00093290203C004E072
:1011D0000093290288DD00E00093650203C08ADEE7
:1011E00001C088DE00E00093480200E0009349025D
:1011F000EEE4F2E000E0008300E00183ECE4F2E0E2
:1012000000E0008300E00183E0E5F2E000E000831D
:1012100000E00183E2E5F2E000E0008300E001830A
:1012200000E00093540200E000935E0200E00093AF
:10123000610200E000935D0200E000935F0200E0C5
:101240000093600200E00093620200E000936302FA
:1012500000E000935C0200E000936402A991B99160
:101260000895BA93AA9300915E020023E9F10091D8
:1012700061020023C9F100914802002309F0B8C0BF
:1012800001E00093480201E00093490200E000936E
:10129000550200E000935802E6E5F2E000E000832A
:1012A00000E0018300E000935E0200E00093610231
:1012B00000E000935D0200E000935F0200E0009315
:1012C000600200E00093620200E00093630200E02D
:1012D00000935C02E6E6F2E000E0008300E00183B8
:1012E00000E00093640284C000914802002399F05A
:1012F00000915D02002379F000915F02002359F014
:1013000000E000935B0200E000935D0200E00093C8
:101310005F022DDE6DC000914802002399F000911C
:101320005D02002379F000916002002359F001E092
:1013300000935B0200E000935D0200E00093600216
:1013400016DE56C000914802002381F4009162022B
:10135000002361F001E000935C0200E00093620270
:101360000091640203950093640242C000915C0204
:101370000023F1F1009163020023D1F100911502E5
:101380000023B1F100916402013061F500E00093A7
:10139000630200E000934101E6E6F2E00081118182
:1013A0000F5F1F4F00831183A6E6B2E0ED91FC9121
:1013B000339760F00091E401003811F47BDB18C032
:1013C0000091E401083AA1F459DB12C00091E40154
:1013D000003811F4B4DB0CC00091E401083A41F488
:1013E0008DDB06C000E00093640200E00093E4019E
:1013F000A991B99108959A938A93FA93EA933A92AC
:101400002A921A920A927A936A935A934A933A9337
:101410002A931A930A938FB79BB70D9B1AC0E0913A
:101420004A02F0914B023497359720F401E0009383
:101430005D0251C0E0914A02F0914B02F797BE97CE
:1014400020F401E000935E0246C001E000936802D0
:1014500042C00D9940C0E0914A02F0914B0234978E
:10146000359720F401E000935F0235C0E0914A0215
:10147000F0914B0239973E9720F401E0009360020F
:101480002AC0E0914A02F0914B02B897709720F47D
:1014900001E0009361021FC000914A0210914B02CB
:1014A000085C1040093C20E0120720F401E00093A2
:1014B000620211C000914A0210914B020052134087
:1014C000093C20E0120720F401E00093630203C00E
:1014D00001E00093680200E000934A0200E00093FC
:1014E0004B0200916802002341F000E00093680283
:1014F00000E000936302FEDC01C0B3DE9BBF8FBF40
:10150000099119912991399149915991699179914B
:101510000990199029903990E991F99189919991BF
:1015200018950FEF0ABB0DEB07BB0FEF04BB03E8E9
:1015300001BB08E002B90FE0009361000FE10093E6
:10154000640000E00BBB0FE708BB0FEF05BB0FEF1C
:1015500002BB0FEF03B900EF009362000EE10093AE
:10156000650003E003BF05E00EBD02E005BD07E333
:1015700004BD05E002BF04EE19EF1DBD0CBD00E087
:1015800001BF05E407BF05E406BF0CEF09BF00EA91
:1015900000936A0005E50ABF0CEF08BF28EB14E0D2
:1015A00000E20E94FA002FEC1AE000E90E94FA0023
:1015B0002FEC1AE002E90E94FA000E94FF017894E1
:1015C00000E007C010E0F801EE5CFD4F10E2108370
:1015D00003950031B8F300E00093260200E0009389
:1015E000270201E00093310208950C018AE090E0A7
:1015F0008B3F07E0900778F40596082F0F700F30A7
:1016000009F401968C010E94F5010093710200918A
:1016100071020F3F69F7E9E6F2E080839183E9E622
:10162000F2E01181012F00936E02E9E6F2E0008101
:1016300000936F0200916E0210916F02010F0093F0
:1016400070020E945B0000EA0E94760000E00E94A7
:10165000760000916E020E94760000916F020E9457
:101660007600009170020E9476000E9469000AE0F4
:1016700010E00E944D00E9E6F2E0008111810F3F89
:1016800027E0120738F50E945B0047E0E9E6F2E048
:10169000008111810E945E110E7000560E9476003A
:1016A000E9E6F2E000810E94760000E00E94760008
:1016B00000E00E94760000E00E9476000FEF0E949A
:1016C000760001E00E9476000E9469000AE010E0C6
:1016D0000E944D00C00108951C0128EB14E000E2B7
:1016E0000E94FA002FEC1AE000E90E94FA002FECA9
:1016F0001AE002E90E94FA0000E010E00E94F50101
:10170000802F90E08F3F00E09007A1F50E945B00E2
:1017100000EA0E94760000E00E94760000E00E944D
:10172000760000E10E94760000E10E9476000E94AF
:10173000690005E010E00E944D000E945B0000EA95
:101740000E94760000E10E94760000E00E94760090
:1017500000E00E94760000E00E9476000FEF0E94F9
:10176000760001E00E9476000E94690005E010E02A
:101770000E944D0000E010E00E94F50100936B0212
:1017800001E010E00E94F50100936C0202E010E01D
:101790000E94F50100936D0200916B0210916C02A2
:1017A000010F009314020091140210916D020117B1
:1017B00011F01BDF1BC000916B0210E0E9E6F2E0C4
:1017C00000831183E9E6F2E00081102F00E0E9E6F2
:1017D000F2E00083118300916C0210E0E9E6F2E090
:1017E00020813181200F311F20833183E9E6F2E02F
:1017F00000811181E6E0F2E000831183E6E0F2E08F
:10180000008111810F3F27E0120708F093C0E6E046
:10181000F2E0008111810E94F50110E020E030E04B
:10182000E8E0F2E00083118322833383E8E0F2E012
:10183000008111812281322F212F102F00E0E8E05A
:10184000F2E00083118322833383E6E0F2E000813B
:1018500011810F5F1F4F0E94F50110E020E030E082
:10186000E8E0F2E04081518162817381400F511FB5
:10187000621F731F4083518362837383E8E0F2E049
:10188000008111812281322F212F102F00E0E8E00A
:10189000F2E00083118322833383E6E0F2E00081EB
:1018A00011810E5F1F4F0E94F50110E020E030E033
:1018B000E8E0F2E04081518162817381400F511F65
:1018C000621F731F4083518362837383E6E0F2E0FB
:1018D000008111810D5F1F4F0E94F50100934501AA
:1018E000E6E0F2E0008111810C5F1F4F0E94F501DC
:1018F000802F90E0803800E0900778F4082F029560
:101900000F7000932502082F069507700093280298
:10191000082F01700093400119C00FEF009345019B
:1019200000E00093250200E00093280201E000930C
:1019300040010CC00FEF0093450100E00093250229
:1019400000E00093280201E00093400120E010E055
:1019500000E20E94FA0024E811E000E20E94FA008E
:1019600029E012E000E20E94FA0020E513E000E224
:101970000E94FA0009D925E815E000E20E94FA0069
:101980002DE91BE000E90E94FA0020E21CE000E9DA
:101990000E94FA0020E01FE000E90E94FA002DE119
:1019A00011E100E90E94FA0021E019E100E90E943A
:1019B000FA002DE91BE002E90E94FA0020E21CE097
:1019C00002E90E94FA0020E01FE002E90E94FA000A
:1019D0002DE911E102E90E94FA0021E019E102E992
:1019E0000E94FA0028E718E000E90E94FA0028E7C0
:1019F00018E002E90E94FA0010D80AE010E00E9404
:101A00004D000E94F6040AE010E00E944D0024D927
:101A1000979A01E0009343010091650001600093F3
:101A2000650003E00E94E402C79A80E090E008C0ED
:101A30008C010E94F501FC01EA51FE4F00830196E2
:101A4000803200E09007A0F3C101089500912502C3
:101A5000073021F000911702002351F40091170282
:101A6000002309F467C100911602002309F062C146
:101A70001FE100E90E94E20110E0EDE2F2E00083E4
:101A80001183EDE2F2E00081102F00E0EDE2F2E0E0
:101A9000008311831EE100E90E94E20110E0EDE203
:101AA000F2E020813181200F311F208331831FE13B
:101AB00002E90E94E20110E0EFE2F2E0008311830C
:101AC000EFE2F2E00081102F00E0EFE2F2E00083AD
:101AD00011831EE102E90E94E20110E0EFE2F2E070
:101AE00020813181200F311F20833183EDE5F1E02A
:101AF00000811181EDE2F2E02081318102171307AC
:101B000058F4EDE2F2E000811181EFE5F1E020818F
:101B1000318102171307B0F0EDE5F1E0008111818A
:101B2000EFE2F2E0208131810217130778F4EFE24F
:101B3000F2E000811181EFE5F1E0208131810217AF
:101B4000130720F405E000934401F7C0E9E5F1E054
:101B500000811181EDE2F2E020813181021713074B
:101B600058F4EDE2F2E000811181EBE5F1E0208133
:101B7000318102171307B0F0E9E5F1E0008111812E
:101B8000EFE2F2E0208131810217130778F4EFE2EF
:101B9000F2E000811181EBE5F1E020813181021753
:101BA000130720F404E000934401C7C0E5E5F1E029
:101BB00000811181EDE2F2E02081318102171307EB
:101BC00058F4EDE2F2E000811181E7E5F1E02081D7
:101BD000318102171307B0F0E5E5F1E000811181D2
:101BE000EFE2F2E0208131810217130778F4EFE28F
:101BF000F2E000811181E7E5F1E0208131810217F7
:101C0000130720F403E00093440197C0E1E5F1E0FD
:101C100000811181EDE2F2E020813181021713078A
:101C200058F4EDE2F2E000811181E3E5F1E020817A
:101C3000318102171307B0F0E1E5F1E00081118175
:101C4000EFE2F2E0208131810217130778F4EFE22E
:101C5000F2E000811181E3E5F1E02081318102179A
:101C6000130720F402E00093440167C0EDE4F1E0C3
:101C700000811181EDE2F2E020813181021713072A
:101C800058F4EDE2F2E000811181EFE4F1E020810F
:101C9000318102171307B0F0EDE4F1E0008111810A
:101CA000EFE2F2E0208131810217130778F4EFE2CE
:101CB000F2E000811181EFE4F1E02081318102172F
:101CC000130720F401E00093440137C0E9E4F1E098
:101CD00000811181EDE2F2E02081318102171307CA
:101CE00058F4EDE2F2E000811181EBE4F1E02081B3
:101CF000318102171307B0F0E9E4F1E000811181AE
:101D0000EFE2F2E0208131810217130778F4EFE26D
:101D1000F2E000811181EBE4F1E0208131810217D2
:101D2000130720F400E00093440107C006E000938D
:101D3000440103C006E000934401009144010630D1
:101D400021F401E000931A0203C000E000931A029C
:101D500000911A0210911B020117D9F000911A028A
:101D600000931B0200911B02002319F4F09145011E
:101D700001C0F0EEE0E00BC02F2F1E2F00E90E9403
:101D8000FA002F2F1E2F02E90E94FA00E395E83097
:101D900098F30895FA93EA931A920A927A936A93BF
:101DA0005A934A933A932A931A930A930FB61BB6FF
:101DB00000911E02002351F00F9B04C001E000932C
:101DC000160203C000E00093160240DE1BBE0FBEE9
:101DD0000991199129913991499159916991799173
:101DE00009901990E991F9911895FA93EA931A924A
:101DF0000A927A936A935A934A933A932A931A933C
:101E00000A930FB61BB600911E02002351F00E9BE1
:101E100004C001E00093170203C000E00093170222
:101E200015DE1BBE0FBE0991199129913991499177
:101E300059916991799109901990E991F9911895C1
:101E40009A938A93FA93EA933A922A921A920A926E
:101E50007A936A935A934A933A932A931A930A93DA
:101E60008FB79BB700E000E000931F0200E0869967
:101E70000395000F10E085991395010F000F10E0F6
:101E800084991395010F10911E021123D9F101308D
:101E900019F40E94190633C0023019F40E949F05FC
:101EA0002EC0033019F40E94CC0429C0043019F468
:101EB0000E94060624C0053019F40E947E051FC04A
:101EC000063071F400912C02002321F401E000930C
:101ED000290203C003E0009329020E9473060FC089
:101EE000073069F400912C02002321F402E00093F2
:101EF000290203C004E0009329020E94730601E056
:101F000000931F029BBF8FBF0991199129913991AD
:101F10004991599169917991099019902990399035
:101F2000E991F9918991999118959A938A93FA93E5
:101F3000EA933A922A921A920A927A936A935A935D
:101F40004A933A932A931A930A938FB79BB705E063
:101F500002BF0091220203950093220200911E020B
:101F6000002309F4A1C0009129020023B9F00091D7
:101F70002A0210912B02013727E1120730F000E00E
:101F80000093290200E000932C02EAE2F2E00081D3
:101F900011810F5F1F4F0083118386C00091720271
:101FA00010917302083C20E0120709F040C020E0C5
:101FB0000BC030E0F901EA5CFD4F008130E0F9012F
:101FC000EE5CFD4F00832395203170F52630A8F498
:101FD0000091250210E046E050E00E945411E2E634
:101FE000F1E0E00FF11F30E0E20FF31F008130E07D
:101FF000F901EE5CFD4F0083E6CF2C30D0F6ECE823
:10200000F1E030E0E20FF31F0091440110E046E000
:1020100050E00E945411E00FF11F008130E0F901FF
:10202000EE5CFD4F0083CFCF0E94040235C00091CB
:10203000720210917302003223E0120769F50091D9
:1020400016020093180200911702009319020F9BC9
:1020500004C001E00093160203C000E000931602E2
:102060000E9B04C001E00093170203C000E0009340
:1020700017020091180210911602011731F4009115
:10208000190210911702011709F0E0DC00E000933B
:10209000720200E000937302E2E7F2E00081118136
:1020A0000F5F1F4F008311839BBF8FBF0991199151
:1020B0002991399149915991699179910990199092
:1020C00029903990E991F9918991999118959A936C
:1020D0008A93FA93EA933A922A921A920A927A93FC
:1020E0006A935A934A933A932A931A930A938FB70F
:1020F0009BB700E002EF1CEF1DBD0CBD009131024B
:10210000002309F48FC0009131020F3128F40091AF
:102110003102039500933102009131020A3011F42B
:10212000DBDA29C0009131020E3129F50EEC009363
:102130004801209148011AE000E90E94FA0020912C
:1021400048011AE002E90E94FA00009145010E944C
:102150001E0502E310E00E944D00009145010E941F
:102160003505009145010E945E0401E000931E02C6
:1021700001E00093150200911E02002309F452C0F1
:1021800083993AC000911F02013051F4E0911C0282
:10219000F0911D02369720F002E000931F0220C04C
:1021A00000911F020230E1F4E0911C02F0911D0247
:1021B0003797B0F000E086990395000F10E08599FD
:1021C0001395010F000F10E084991395010F023051
:1021D00019F40E949F0504C0053011F40E947E0589
:1021E00000E00093E501ECE1F2E0008111810F5F76
:1021F0001F4F0083118316C000E000931F0200E010
:1022000000931C0200E000931D020091E5010023F1
:1022100049F401E00093E50100E00093200200E0B2
:1022200000932102E3E2F2E0008111810F5F1F4F72
:10223000008311839BBF8FBF099119912991399117
:102240004991599169917991099019902990399002
:10225000E991F99189919991189563D9B699FECF31
:10226000C798FCCF00008895FECF0FE30DBF01E0BB
:102270000EBFC0E2D1E00E946111002311F00E9464
:1022800073110E942D110E9432110C9432110024FE
:10229000E8E0001FEA952AF0001C0416D0F3041AA7
:1022A000F8CF402D00950895149F102D059F100D17
:1022B000049F002D110D0895169507954A95E2F794
:1022C000089501E0089520E02D9301501040E1F7BA
:1022D00008953BBF26912D93EF5FFF4F3F4F015075
:1022E0001040B9F708954CE353E260E0FA01362F4D
:1022F0003BBF07911691FA01EE5FFF4F3F4F3BBF87
:10230000A791B691FA01362FEC5FFF4F3F4F3BBFCD
:10231000079017902690202D2129222921F0F001E5
:10232000322DD7DF01C0CFDF495F5F4F6F4F13E220
:1023300020E04A3451076207C8F208958E00E60192
:10234000000000A60040014A23000101010106FF30
:102350000101CECE083709A009090AD1113A127439
:1023600013DD13D7233F241D27862780434F415871
:102370003120434F415832202041455331202041E4
:102380004553322020424E432020204F50543120CC
:10239000204F505432202055534220202034342ED8
:1023A00031202034382E30202038382E3220203969
:1023B000362E30203137362E34203139322E30202F
:1023C00020202020202046494C54455231204649A7
:1023D0004C544552322046494C54455233202049F2
:1023E0004E564552534520204E4F524D414C3001E0
:00226A0173
:00000001FF
