:100000000C943F12189518951895189518951895F1
:100010000C941B08189518950C940B110C9402085D
:100020000C94E907189518950C94F60D18951895E9
:1000300018951895189518950C94BB08189518954F
:100040000C943808189518951895189518951895C2
:100050001895189518951895189518951895189538
:100060001895189518951895189518951895189528
:100070001895189518951895189518951895189518
:100080001895189518951895189518950100D70486
:1000900008007C04870493049E04AA04B504C104E8
:1000A000CC040000300B0800A10ABC0ACC0ADC0A10
:1000B000EC0AFC0A0C0B270B219741E050E09E0153
:1000C0000E9499050881219608950E940314A02F8B
:1000D00016E20A2F000F06700062EEDF902F17E283
:1000E0000A2F000F06700062E7DF802F18E2AA0FC8
:1000F000A670A0620A2FE0DF9C7F992311F000E038
:100100000BC08C7F882311F000E006C00C7F003408
:1001100011F000E001C001E0E3E00C940E149A93AA
:100120008A932197802F912F10E0082FC5DF088335
:10013000992321F008810D7F088303C008810260A4
:10014000088341E050E09E0110E0082F0E947905ED
:1001500021968991999108959A938A932197902F46
:10016000812F13E0092FA8DF08830881087F088307
:10017000082F07701881102B188341E050E09E0172
:1001800013E0092F0E94790513E0092F95DF0883FA
:10019000877008810770801711F401E001C000E04A
:1001A0002196899199910895979800E00093A1086C
:1001B00008951D0120E0979A009162000860009365
:1001C000620030E009C0E0E4F6E08F01F801319709
:1001D000012BD9F720E03395323008F0DFC060E022
:1001E0000EC000916500026000936500E0E1F0E060
:1001F0008F01F8013197012BD9F72395639568306A
:1002000010F7222381F4009162000B7F00936200BB
:10021000009162000D7F00936200009162000E7FEA
:10022000009362007DC0213081F4009162000B7F59
:1002300000936200009162000D7F009362000091C4
:1002400062000160009362006BC0223081F4009173
:1002500062000B7F009362000091620002600093D5
:100260006200009162000E7F0093620059C023304B
:1002700081F4009162000B7F0093620000916200A4
:1002800002600093620000916200016000936200CE
:1002900047C0243081F40091620004600093620042
:1002A000009162000D7F00936200009162000E7F5A
:1002B0000093620035C0253081F400916200046033
:1002C00000936200009162000D7F00936200009134
:1002D000620001600093620023C0263081F4009127
:1002E000620004600093620000916200026000936B
:1002F0006200009162000E7F0093620011C02730FF
:1003000079F4009162000460009362000091620041
:10031000026000936200009162000160009362003D
:10032000332311F0AF9805C0009165000D7F009355
:100330006500E8E0F0E08F01F8013197012BD9F773
:10034000009165000B7F00936500E8E0F0E08F010D
:10035000F8013197012BD9F7032F10E048E050E066
:100360000E945E1270E0060F171FA0E4B2E0ED914C
:10037000FC91E00FF11F00810BBBE0E1F0E08F0189
:10038000F8013197012BD9F70091650004600093C3
:100390006500332309F425CFAF9A28CFD101089502
:1003A000202F00E04AC0073079F4109162001460F9
:1003B000109362001091620012601093620010911D
:1003C0006200116010936200E8E0F0E0AF01FA0112
:1003D0003197452BD9F7109165001D7F109365006B
:1003E000E8E0F0E0AF01FA013197452BD9F7109121
:1003F00065001B7F10936500E8E0F0E0AF01FA01B3
:100400003197452BD9F72BBBE0E1F0E0AF01FA01C2
:100410003197452BD9F71091650014601093650052
:1004200010916500126010936500E0E1F0E0AF010B
:10043000FA013197452BD9F70395083008F085C0AC
:10044000979A10916200177F10936200002381F445
:10045000109162001B7F10936200109162001D7F5B
:1004600010936200109162001E7F10936200ACCF67
:10047000013081F4109162001B7F10936200109193
:1004800062001D7F10936200109162001160109352
:1004900062009ACF023081F4109162001B7F1093AA
:1004A000620010916200126010936200109162006D
:1004B0001E7F1093620088CF033081F41091620098
:1004C0001B7F109362001091620012601093620013
:1004D0001091620011601093620076CF043081F4B5
:1004E00010916200146010936200109162001D7FF1
:1004F00010936200109162001E7F1093620064CF1F
:10050000053081F410916200146010936200109124
:1005100062001D7F109362001091620011601093C1
:10052000620052CF063009F03ECF10916200146095
:10053000109362001091620012601093620010919B
:1005400062001E7F109362003FCF00E042C0073080
:1005500079F41091620014601093620010916200AF
:10056000126010936200109162001160109362009B
:10057000E8E0F0E0AF01FA013197452BD9F7AF98E9
:10058000E8E0F0E0AF01FA013197452BD9F710917F
:1005900065001B7F10936500E8E0F0E0AF01FA0111
:1005A0003197452BD9F72BBBE0E1F0E0AF01FA0121
:1005B0003197452BD9F710916500146010936500B1
:1005C000AF9AE0E1F0E0AF01FA013197452BD9F79E
:1005D0000395083008F085C0979A10916200177F44
:1005E00010936200002381F4109162001B7F10932E
:1005F0006200109162001D7F1093620010916200F2
:100600001E7F10936200B4CF013081F4109162001C
:100610001B7F10936200109162001D7F1093620097
:1006200010916200116010936200A2CF023081F439
:10063000109162001B7F10936200109162001260A3
:1006400010936200109162001E7F1093620090CFA1
:10065000033081F4109162001B7F109362001091AF
:10066000620012601093620010916200116010939A
:1006700062007ECF043081F4109162001460109308
:100680006200109162001D7F109362001091620061
:100690001E7F109362006CCF053081F410916200D0
:1006A000146010936200109162001D7F109362002D
:1006B000109162001160109362005ACF063009F069
:1006C00046CF109162001460109362001091620096
:1006D000126010936200109162001E7F10936200FE
:1006E00047CF089508950E94FC13202E412E832E9B
:1006F000642E862FA5E1B2E0222319F4ABE1B2E02B
:1007000037C02F3F19F4A1E2B2E032C018EC121B3F
:1007100042E0012F0E945112442339F0FD010EE204
:100720000283FD0105E3038306C0FD010EE202839F
:10073000FD0100E3038342E0012F0E945112102FBC
:100740004AE0012F0E945112005D0C930C9100337E
:1007500039F4E2E4F2E020813181F90100E2008322
:100760004AE0012F0E945112142F105DFD011183E8
:10077000552371F040E150E0EEE3F2E02081318159
:10078000E0E4F2E0008111810E94181412DD56C0ED
:1007900043E050E03324220C331CF101EC5BFD4FAD
:1007A00020813181E0E4F2E0008111810E9418147F
:1007B00044E050E05524440C551CF201EC5AFD4F26
:1007C00020813181E0E4F2E0008111810D5F1F4F53
:1007D0000E941814882311F0A7E2B2E045E050E02F
:1007E0009D01E0E4F2E000811181095F1F4F0E944A
:1007F000181443E050E09924880C991CF401E25944
:10080000FD4F20813181E0E4F2E000811181045F3D
:100810001F4F0E94181441E050E07724660C771CAB
:10082000F301E458FD4F20813181E0E4F2E00081E2
:100830001181015F1F4F0E941814BBDCEAE00C9489
:100840000714219741E050E09E010E94990508811C
:10085000219608952197288341E050E09E010E944F
:100860007905219608958A9380E010E402E9E9DF92
:100870000C7F083A09F48E5F10E400E9E2DF0C7F98
:10088000083A09F48395082F899108959A938A93D9
:10089000802F912F17E0082FD4DF202F992311F0FC
:1008A000216001C02E7F17E0082FD4DF8991999134
:1008B00008959A938A93902F812F11E0092FC1DF19
:1008C000202F237F880F880F8C70282B11E0092F91
:1008D000C1DF8991999108951F73212F15E0BADF27
:1008E00008959A938A93902F012F822FECE8F0E0DD
:1008F000FBBFF0E00C94BF1316E2092FA2DF202FFC
:10090000207F8F70282B16E2092FA4DF50C016E23B
:10091000092F97DF202F2F708295807F282B16E2DA
:10092000092F98DF44C017E2092F8BDF202F207F8B
:100930008F70282B17E2092F8DDF39C017E2092F9E
:1009400080DF202F2F708295807F282B17E2092FC0
:1009500081DF2DC018E2092F74DF202F207F8F70D8
:10096000282B18E2092F76DF22C018E2092F69DF51
:10097000202F2F708295807F282B18E2092F6ADFA5
:1009800016C019E2092F5DDF202F207F8F70282BE2
:1009900019E2092F5FDF0BC019E2092F52DF202F68
:1009A0002F708295807F282B19E2092F53DF8991C0
:1009B000999108959A938A93802F912F1FE0082F81
:1009C00040DF202F992311F0226001C02C7F1FE00F
:1009D000082F40DF8991999108959A938A93802FE7
:1009E000912F11E0082FE6DF292F10E1082F32DFC9
:1009F00089919991089521E010E02CDF08959A9350
:100A00008A93902F812F1CE0092F1BDF202F207F3E
:100A10008F70282B1CE0092F1DDF89919991089573
:100A20009A938A93902F812F16E0092F0ADF202FA7
:100A3000287F8770282B16E0092F0CDF8991999168
:100A4000089508E400937000089510E01093740076
:100A500014EA1093740010917400212F27FFFBCF2C
:100A600010917100187F183011F001E00895009383
:100A7000730004E80093740000917400102F17FFB6
:100A8000FBCF00917100087F083121F0003411F094
:100A900001E0089500E008950093730004E80093D6
:100AA000740000917400102F17FFFBCF00917100AC
:100AB000087F083211F001E0089500E0089504EC89
:100AC0000093740000917400102F17FFFBCF00916A
:100AD0007300089504E80093740000917400102FCF
:100AE00017FFFBCF00917300089504E90093740091
:100AF0000895192E282E012EB901A7DF002311F029
:100B000001E014C0002DC8DF80E090E001C0019634
:100B10008417950748F4FB01E80FF91F0081BCDF3B
:100B20000023A9F301E002C0E0DF00E0822D912D57
:100B300008950E940214602F712FD901062F85DFBE
:100B4000002311F001E01EC0072FA6DF6160062F11
:100B50007CDF002311F001E015C080E090E006C0CA
:100B6000AEDFFD01E80FF91F00830196FA0131970E
:100B70008E179F07A8F3AEDFA40FB51F11970C9334
:100B8000B4DF00E0E4E00C940D140E94021404E8C9
:100B900012E00E94E3110FEF0ABB0DEB07BB0FEF52
:100BA00004BB03E801BB0AE402B90FE00093610053
:100BB0000FE10093640000E00BBB0FE708BB0FEFF1
:100BC00005BB0FEF02BB0FEF03B900EF009362000C
:100BD0000EE10093650007B3007C07BBC59A07B31D
:100BE000007F07BBC39A82B100E002B91F9A02B12D
:100BF000087F02B91A9A139A03B1007F03B9BF9A0A
:100C000098B300E008BBBA9A08B3087F08BB01E9B3
:100C100012E00E94E3110E94210504EA12E00E9402
:100C2000E31103E003BF04E00EBD02E005BD07E3EE
:100C300004BD05E002BF04EE19EF1DBD0CBD00E0D0
:100C400001BF05E407BF05E406BF05EB12E00E9403
:100C5000E3110CEF09BF00E600936A0005E50ABF47
:100C60000CEF08BF0AEC12E00E94E31100E20E94C0
:100C70006500002329F007EE12E00E94E31104C092
:100C80000EEF12E00E94E31100E90E94FB0402E96A
:100C90000E94FB0409E113E00E94E31100E413E069
:100CA0000E94E31111E000E90E94460417E000E908
:100CB0000E942104013429F40EE513E00E94E3119F
:100CC00004C00FE713E00E94E31100EA13E00E9462
:100CD000E31111E002E90E94460417E002E90E94D4
:100CE0002104013429F40FEB13E00E94E31104C046
:100CF00001EE13E00E94E31103E014E00E94E3110F
:100D00000E943304802F882329F402E214E00E9419
:100D1000E31114C0833029F402E414E00E94E311CB
:100D20000DC0813029F40EE514E00E94E31106C0E5
:100D3000823021F401E814E00E94E31111E000E99F
:100D40000E94590411E002E90E94590405EA14E0E6
:100D50000E94E31181E006C020E0182F00E90E9404
:100D6000710483958930C0F381E006C021E0182F1B
:100D700002E90E94710483958930C0F30EED14E0FE
:100D80000E94E31110E000E90E94ED0410E002E986
:100D90000E94ED040AE015E00E94E31117E000E96B
:100DA0000E94100517E002E90E94100501E315E01A
:100DB0000E94E31110E000E90E94460410E002E9FD
:100DC0000E94460409E515E00E94E3111FE000E9D6
:100DD0000E94FF041FE002E90E94FF0402E715E001
:100DE0000E94E31103E915E00E94E3110E94D40080
:100DF000789480E00AC090E0A0E4B2E0ED91FC912C
:100E0000E80FF91F00E2008383958031A0F300E032
:100E10000093DA0800E00093DB0801E00093E308A8
:100E2000E4E00C940D14AC0180E090E008C0E0E830
:100E3000FEE39F01F9013197232BD9F70196F801C1
:100E40003196E817F90798F7CA01089560E070E055
:100E50006F3F00E0700731F405E010E0E4DF05E0EB
:100E600010E0E1DF0091B2081091B308010F009388
:100E7000C9080091C9081091B4080117D9F400916C
:100E8000B20810E0E0EBF8E000831183E0EBF8E05B
:100E90000081102F00E0E0EBF8E000831183009167
:100EA000B30810E0E0EBF8E020813181200F311F22
:100EB00020833183E0EBF8E000811181E3ECF8E07E
:100EC00000831183E3ECF8E0008111810F3F27E0FC
:100ED0001207F0F5E5ECF8E0008111812281322F54
:100EE000212F102F00E0E5ECF8E00083118322832E
:100EF0003383E5ECF8E0008111812281322F212F2C
:100F0000102F00E0E5ECF8E00083118322833383A7
:100F1000603800E0700778F4062F02950F70009398
:100F2000D808062F069507700093DE08062F01707B
:100F300000939E0819C00FEF0093DC0800E00093B7
:100F4000D80800E00093DE0801E000939E080CC082
:100F50000FEF0093DC0800E00093D80800E0009356
:100F6000DE0801E000939E080E94D90C18E700E912
:100F70000E946C0418E702E90E946C040E94810C34
:100F80000AE010E050DF0AE010E04DDF0E94370D6C
:100F9000979A01E00093A108009165000160009319
:100FA000650003E00E94D0010895AC0180E090E06C
:100FB00008C0E0E8FEE39F01F9013197232BD9F740
:100FC0000196F8013196E817F90798F7CA010895D4
:100FD00008952A931A930A931FB72BB70091D1084B
:100FE000002351F00F9B04C001E00093CB0803C025
:100FF00000E00093CB08ECDF2BBF1FBF09911991D4
:10100000299118952A931A930A931FB72BB7009129
:10101000D108002351F00E9B04C001E00093CC08DE
:1010200003C000E00093CC08D3DF2BBF1FBF0991A2
:101030001991299118952A931A930A931FB72BB7E0
:10104000839B07C000E00093B80800E00093B90854
:1010500009C001E00093B70801E00093B80800E080
:101060000093B9082BBF1FBF0991199129911895B9
:10107000FA93EA934A933A932A931A930A933FB7BF
:101080004BB705E002BF0091D50803950093D50842
:101090000091D108002309F464C00091DF08002307
:1010A000B9F00091E0081091E108013727E112073B
:1010B00030F000E00093DF0800E00093E208E0EE8B
:1010C000F8E0008111810F5F1F4F0083118349C039
:1010D0000091E4081091E508083C20E0120721F493
:1010E00001E00093C20835C00091E4081091E508C2
:1010F000003223E0120769F50091CB080093CD0878
:101100000091CC080093CE080F9B04C001E000932F
:10111000CB0803C000E00093CB080E9B04C001E0A5
:101120000093CC0803C000E00093CC080091CD08E8
:101130001091CB08011731F40091CE081091CC0822
:10114000011709F045DF00E00093E40800E0009398
:10115000E508E4EEF8E0008111810F5F1F4F008386
:1011600011834BBF3FBF0991199129913991499141
:10117000E991F99118959A938A93FA93EA933A929E
:101180002A921A920A927A936A935A934A933A93BA
:101190002A931A930A938FB79BB700E00EE81DEFCE
:1011A0001DBD0CBD01E00093C1080091B80810916D
:1011B000B908012B51F1E8EBF8E0008111810F5FD4
:1011C0001F4F0083118349E150E00091B80810914E
:1011D000B9080E946612452B19F401E00093BA0881
:1011E0000091B8081091B9080D3221E0120768F09B
:1011F00045E050E00091B8081091B9080E946612CD
:10120000452B19F401E00093BA080091E30800238C
:1012100009F457C00091D108002309F452C0839902
:101220003AC00091D208013051F4E091CF08F0911A
:10123000D008369720F002E00093D20820C0009139
:10124000D2080230E1F4E091CF08F091D00837974E
:10125000B0F000E086990395000F10E08599139592
:10126000010F000F10E084991395010F023019F45B
:101270000E94150D04C0053011F40E94160D00E007
:101280000093A408EFECF8E0008111810F5F1F4F7D
:101290000083118316C000E00093D20800E00093A1
:1012A000CF0800E00093D0080091A408002349F47F
:1012B00001E00093A40800E00093D30800E000934D
:1012C000D408E6EDF8E0008111810F5F1F4F008325
:1012D00011839BBF8FBF0991199129913991499130
:1012E0005991699179910990199029903990E991D2
:1012F000F9918991999118958A9380E080B38295AC
:101300008F70877002E116E00E94E311082F0E949F
:1013100018120EE116E00E94E311815089F08A95BF
:10132000F9F08A95E9F18A9509F440C08A9509F4A3
:101330004DC08A9509F477C08A9509F464C089C0C4
:101340000091BD080A950093BD080091BD08077083
:101350000093BD080E94D90C01E000939B0879C05E
:101360000091BB08002311F00E94630C0091DC087F
:10137000002329F00091DC080A950093DC08009115
:10138000DC08083C18F007EC0093DC080E94810C94
:101390000091DC080E94720301E000939B0859C091
:1013A0000E94630C01E000939B0853C00091BD08AC
:1013B00003950093BD080091BD0807700093BD0818
:1013C0000E94D90C01E000939B0843C00091BB0828
:1013D000002311F00E94630C0091DC08073C30F4FC
:1013E0000091DC0803950093DC0803C00FEF009325
:1013F000DC080E94810C0091DC080E94720301E06D
:1014000000939B0826C00091BF0803950093BF0876
:101410000091BF08073018F000E00093BF0801E01A
:1014200000939B0816C00091C008002351F000E013
:101430000093C00818B300E008BB08B3087F08BBDE
:1014400005C001E00093C008C29AC79A01E000936A
:101450009B08899108950091B708002321F000E0CE
:101460000093B70849DF0091BA08002321F000E09B
:101470000093BA0841DF0091C108002319F000E091
:101480000093C1080091C208002331F000E00093EE
:10149000C20801E000939B080091BB081091BC08B2
:1014A000011789F00091BB080093BC080091BB08AC
:1014B000002329F001E216E00E94E31104C005E3D5
:1014C00016E00E94E3110091DC081091DD0801177D
:1014D00029F10091DD081091DC08011728F40AE4D5
:1014E00016E00E94E31104C007E616E00E94E31133
:1014F0000091DC080E94EC110EE116E00E94E3115D
:101500000091DC080093DD081091DC0800E90E94DE
:10151000ED041091DC0802E90E94ED040091BD0881
:101520001091BE08011709F49BC00091BD080093FB
:10153000BE080091BD08E2EAF0E0FBBFF0E00C94C9
:10154000BF1311E000E20E948F0004E816E00E9441
:10155000E31110E000E20E94AC00002329F00DE945
:1015600016E00E94E31104C005EB16E00E94E311AF
:1015700003B1007F03B9089511E000E20E94AC00BE
:10158000002329F003EC16E00E94E311089505EB17
:1015900016E00E94E311089512E000E20E94AC0000
:1015A000002329F00BED16E00E94E311089505EBEE
:1015B00016E00E94E311089513E000E20E94AC00DF
:1015C000002329F002EF16E00E94E311089505EBD5
:1015D00016E00E94E311089514E000E20E94AC00BE
:1015E000002329F009E017E00E94E311089505EBBC
:1015F00016E00E94E311089515E000E20E94AC009D
:10160000002329F00FE117E00E94E311089505EB94
:1016100016E00E94E311089511E000E20E948F009D
:1016200004E816E00E94E31116E000E20E94AC001C
:10163000002329F006E317E00E94E31104C005EB44
:1016400016E00E94E31103B1007F03B9089510E092
:1016500000E20E948F000DE417E00E94E3111B9A44
:101660000895B59B04C001E00093950803C000E015
:101670000093950800919608002311F401E001C041
:1016800000E0E5E9F8E0108111701023112391F0DA
:1016900001E00093960809E617E00E94E31100912B
:1016A000BD08073039F408B3007E08BB09E817E02D
:1016B0000E94E31100919508002311F401E001C09C
:1016C00000E0E6E9F8E0108111700123002381F0C9
:1016D00000E00093960803EA17E00E94E3110091EE
:1016E000BD08073029F4C49A05EC17E00E94E31105
:1016F0000F9B04C001E00093990803C000E0009331
:10170000990800919A08002311F401E001C000E05B
:10171000E9E9F8E0108111701023112339F001E09C
:1017200000939A080EED17E00E94E31100919908CA
:10173000002311F401E001C000E0EAE9F8E01081C3
:1017400011700123002339F000E000939A080CEF98
:1017500017E00E94E311B39B04C001E000939708D7
:1017600003C000E00093970800919808002311F44B
:1017700001E001C000E0E7E9F8E0108111701023FA
:10178000112339F001E0009398080AE118E00E9463
:10179000E31100919708002311F401E001C000E07B
:1017A000E8E9F8E0108111700123002339F000E02E
:1017B0000093980807E318E00E94E3111A9B04C005
:1017C00001E00093B50803C000E00093B508009164
:1017D000B608002311F401E001C000E0E5EBF8E0F9
:1017E000108111701023112339F001E00093B60825
:1017F00003E518E00E94E3110091B508002311F4FD
:1018000001E001C000E0E6EBF8E010811170012377
:10181000002339F000E00093B60805E718E00E94C5
:10182000E3110895789400E011EE20E030E00E948A
:10183000A1110DEA15E00E94E31101EC15E00E94F0
:10184000E3110E94C5050DED15E00E94E3110E9411
:10185000260706EF15E00E94E31101E00093D1088E
:1018600001E00093CA080E94810C0091DC080E94EC
:101870007203ECE9F8E000811181012B41F0ECE901
:10188000F8E0008111810150104000831183E9DEEE
:10189000E2DD00919B08002361F300E000939B08C8
:1018A0006091BB08ECE9F8E00081502F4091C0083E
:1018B0003091BF082091DC081091D9080091BD0833
:1018C0000E947303D6CF0091DF080023C9F4009172
:1018D000BB08002321F401E00093BB0803C000E033
:1018E0000093BB081091BB0800E90E9446041091C8
:1018F000BB0802E90E9446040091DC080E947203C2
:1019000008958A9380E00FC02091DC08182F105FA3
:1019100000E90E942A042091DC08182F105F02E9D8
:101920000E942A048395883078F389910895009164
:10193000DF080023C1F41091DC080091DC08053CAD
:1019400030F40091DC080D5F0093DC0803C00FEF5A
:101950000093DC080091DC08101729F0D2DF009119
:10196000DC080E94720308950091DF08002301F54E
:101970001091DC080091DC080F3F21F407EC009384
:10198000DC080DC00091DC08033030F00091DC0869
:1019900003500093DC0803C000E00093DC080091D2
:1019A000DC08101729F0ADDF0091DC080E947203FB
:1019B00008950091BB08002341F011E000E90E9466
:1019C000460411E002E90E9446040091D80807305D
:1019D00011F401E001C000E01091A208011749F0E4
:1019E0000093A208E2EAF8E0008100FD1B9A00FFE4
:1019F0001B980091A308077C0093A3080091D808C6
:101A0000000F000F000F1091A308100F1093A308F0
:101A10000091BB08002341F410E000E90E94460455
:101A200010E002E90E944604089508950895009187
:101A3000DF08002359F40091BD0803950093BD0809
:101A40000091BD0807700093BD08B3DF08950091B1
:101A5000DF08002359F40091BD080A950093BD08E2
:101A60000091BD0807700093BD08A3DF08958A9315
:101A700000E00093A00800E008BF0091DE080330FA
:101A800019F400E00093DE088091DE0805E010E024
:101A90000E94D5078823882321F008EC10E00E94DB
:101AA000D50701E00093A008E3EDF8E000E0008333
:101AB00000E0018308E008BF89910895BA93AA93D2
:101AC0000091DF08013021F00091DF08023021F49D
:101AD00001E00093E20837C00091DF08033061F4B1
:101AE00000919E08002321F401E000939E082BC082
:101AF00000E000939E0827C00091DF08043019F52C
:101B00000091DE0803950093DE080091BB080023D6
:101B100041F011E000E90E94460411E002E90E9450
:101B20004604A5DFEEDE05E010E00E94D507009137
:101B3000BB08002341F410E000E90E94460410E0D5
:101B400002E90E94460400E013C010E0A2E8B2E0FF
:101B5000ED91FC91E00FF11F3897408110E0E0E437
:101B6000F2E020813181200F311FF901408303957C
:101B7000003180F50830C0F42091DE0830E0220FFB
:101B8000331FF901E259FD4F2081318110E0200F10
:101B9000311FF901208110E0A0E4B2E0ED91FC9149
:101BA000E00FF11F2083E3CF10919E08112369F607
:101BB00010E0A0E8B2E0ED91FC91E00FF11F389742
:101BC000208110E0A0E4B2E0ED91FC91E00FF11F64
:101BD0002083CDCFE0EEF8E000E0008300E0018359
:101BE00001E00093C108A991B9910895FA93EA938D
:101BF0004A933A932A931A930A933FB74BB707E352
:101C000004BDE8EEF8E0008111810F5F1F4F0083F3
:101C100011830091F7081091F808012B41F0E7EFCC
:101C2000F8E0008111810F5F1F4F00831183009145
:101C3000E8081091E9080D3424E0120708F452C0B6
:101C400000E00093E60800E00093E70800E000935E
:101C5000EC0800E00093ED0800E00093EA0800E0E3
:101C60000093EB0800E00093EE0800E00093EF081B
:101C700000E00093F00800E00093F10800E000931A
:101C8000F20800E00093FC0800E00093FF0800E089
:101C90000093FB0800E00093FD0800E00093FE08BD
:101CA00000E00093000900E00093010900E00093C8
:101CB000FA0800E00093E80800E00093E90800E07B
:101CC0000093020901E000939F0800919F08002300
:101CD00049F401E000939F0800E00093D30800E07E
:101CE0000093D4084BBF3FBF0991199129913991B5
:101CF0004991E991F991189500E00093E60800E018
:101D00000093E708ECEEF8E000E0008300E00183D8
:101D1000EAEEF8E000E0008300E00183EEEEF8E098
:101D200000E0008300E00183E0EFF8E000E00083E2
:101D300000E0018300E00093F20800E00093FC085B
:101D400000E00093FF0800E00093FB0800E0009330
:101D5000FD0800E00093FE0800E00093000900E0A9
:101D60000093010900E00093FA0800E000930209E3
:101D70000895BA93AA930091E708015041F00A959B
:101D8000E1F00A9581F10A9509F443C057C0EAEEE3
:101D9000F8E000811181000F111FEAEEF8E00083E6
:101DA00011830091F90810E0EAEEF8E0208131811A
:101DB000202B312B2083318341C0ECEEF8E00081F1
:101DC0001181000F111FECEEF8E0008311830091E8
:101DD000F90810E0ECEEF8E020813181202B312B66
:101DE000208331832BC0EEEEF8E000811181000FDB
:101DF000111FEEEEF8E0008311830091F90810E066
:101E0000EEEEF8E020813181202B312B20833183CD
:101E100015C0E0EFF8E000811181000F111FE0EF25
:101E2000F8E0008311830091F90810E0E0EFF8E09A
:101E300020813181202B312B208331830091F208C6
:101E400003950093F2080091F208083040F00091E9
:101E5000E70803950093E70800E00093F20800917B
:101E6000E708053008F405C1EAEEF8E000811181C9
:101E70000F70107000831183ECEEF8E00081118187
:101E80000F70107000831183AAEEB8E0ED91FC9101
:101E9000379709F0B1C0ACEEB8E0ED91FC913A97FC
:101EA00009F0AAC0E0EFF8E000811181EEEEF8E061
:101EB000208131814FEF242740E034270217130798
:101EC00009F098C0EEEEF8E000810093A5080091BB
:101ED000CA08002309F48AC0E7EFF8E00081118105
:101EE000095E1340033F21E01207A8F4EEEEF8E08C
:101EF00000811181003820E0120719F40E94150DAD
:101F00000AC0EEEEF8E000811181083A20E01207E5
:101F100011F40E94160DE7EFF8E001E010E00083F5
:101F2000118300E000939F08EEEEF8E0008111813C
:101F3000003B20E0120719F40E94630C57C0EEEE3C
:101F4000F8E000811181003820E0120719F40E94A6
:101F5000150D4CC0EEEEF8E000811181083A20E04A
:101F6000120719F40E94160D41C0EEEEF8E0008150
:101F70001181003920E0120719F40E94170D36C0B4
:101F8000EEEEF8E000811181083820E0120719F424
:101F90000E94270D2BC0EEEEF8E000811181003A7F
:101FA00020E0120771F40091E208002321F401E01F
:101FB0000093DF0803C003E00093DF080E945E0D7A
:101FC00015C0EEEEF8E000811181083920E012071B
:101FD00069F40091E208002321F402E00093DF0895
:101FE00003C004E00093DF080E945E0D00E0009350
:101FF000030903C081DE01C07FDE00E00093E60834
:1020000000E00093E708ECEEF8E000E0008300E079
:102010000183EAEEF8E000E0008300E00183EEEEE9
:10202000F8E000E0008300E00183E0EFF8E000E08A
:10203000008300E0018300E00093F20800E00093D9
:10204000FC0800E00093FF0800E00093FB0800E0BC
:102050000093FD0800E00093FE0800E000930009F3
:1020600000E00093010900E00093FA0800E000930B
:102070000209A991B9910895BA93AA930091FC0815
:102080000023E9F10091FF080023C9F10091E6085F
:10209000002309F0BDC001E00093E60801E00093D1
:1020A000E70800E00093F30800E00093F608E4EF8F
:1020B000F8E000E0008300E0018300E00093FC080A
:1020C00000E00093FF0800E00093FB0800E00093AD
:1020D000FD0800E00093FE0800E00093000900E026
:1020E0000093010900E00093FA08E4E0F9E000E061
:1020F000008300E0018300E00093020989C00091A1
:10210000E608002399F00091FB08002379F0009184
:10211000FD08002359F000E00093F90800E0009367
:10212000FB0800E00093FD0824DE72C00091E60881
:10213000002399F00091FB08002379F00091FE083C
:10214000002359F001E00093F90800E00093FB0838
:1021500000E00093FE080DDE5BC00091E60800235E
:1021600081F400910009002361F001E00093FA0876
:1021700000E0009300090091020903950093020911
:1021800047C00091FA08002309F442C000910109F8
:102190000023F1F10091CA080023D1F10091020956
:1021A000013081F500E00093010900E000939F08F1
:1021B000E4E0F9E0008111810F5F1F4F008311837C
:1021C000A4E0B9E0ED91FC91339770F00091A5087F
:1021D000003819F40E94B40C1BC00091A508083AFD
:1021E000B9F40E94970C14C00091A508003819F4A6
:1021F0000E94150D0DC00091A508083A49F40E94EF
:10220000160D06C000E00093020900E00093A50847
:10221000A991B99108959A938A93FA93EA933A927D
:102220002A921A920A927A936A935A934A933A9309
:102230002A931A930A938FB79BB70D9B1AC0E0910C
:10224000E808F091E9083497359720F401E000930D
:10225000FB0851C0E091E808F091E908F797BE97B4
:1022600020F401E00093FC0846C001E00093060959
:1022700042C00D9940C0E091E808F091E908349718
:10228000359720F401E00093FD0835C0E091E8089F
:10229000F091E90839973E9720F401E00093FE0899
:1022A0002AC0E091E808F091E908B897709720F407
:1022B00001E00093FF081FC00091E8081091E908B1
:1022C000085C1040093C20E0120720F401E0009374
:1022D000000911C00091E8081091E908005213406C
:1022E000093C20E0120720F401E00093010903C03B
:1022F00001E00093060900E00093E80800E0009385
:10230000E90800910609002341F000E00093060966
:1023100000E000930109F0DC01C0AEDE9BBF8FBF7F
:10232000099119912991399149915991699179911D
:102330000990199029903990E991F9918991999191
:1023400018950E940214C801D90140EB54E060E0E6
:1023500070E08C019D010E948012452B462B472B7B
:1023600019F00FEF1FEF26C0119A199A1098189ABA
:1023700000E014E224EF30E0AC01BD010E948012C5
:102380000E94E41240E050E060E871E40E942813EB
:102390000E949A13015010409801232F209390001F
:1023A00009B900E00BB908E90AB906E00093950005
:1023B00000E010E0E4E00C940D145D9BFECF0CB93E
:1023C00000E010E00895F80102C010E0F6DF00819F
:1023D00031960023D1F708953B2F6A2F102FA6EADC
:1023E000B8E044E6012F0E945112005D0C9344E6D0
:1023F000012F0E945112202F04E6209F10194AE05D
:10240000012F0E945112005D11960C9311974AE022
:10241000012F0E945112202F0AE0209F1019105DF9
:1024200012961C9312978D01CEDFA62FB32F08951D
:10243000402F6AEA78E003E01AC0142F1F70105D85
:10244000202F30E0FB01E20FF31F108310E0FB01AF
:10245000E00FF11F10811A3338F010E0FB01E00F9C
:10246000F11F1081195F108342954F700A95023059
:1024700020F78B01A8DF089500008895FECF0FE5B7
:102480000DBF01E00EBFC0E4D1E00E94161400238E
:1024900011F00E9437140E94120C0E943C120C94FE
:1024A0003C120024E8E0001FEA952AF0001C041604
:1024B000D0F3041AF8CF402D00950895149F102DE5
:1024C000059F100D049F002D110D08950024112467
:1024D000E0E1001F111FEA9542F0001C111C0416D8
:1024E0001506B8F3041A150AF4CFA001009510954B
:1024F000089536952795179507954A95D2F708952B
:10250000002411241001E0E2001F111F221F331FBD
:10251000EA9572F0001C111C221C331C04161506CF
:102520002606370688F3041A150A260A370AECCF5E
:10253000A001B10100951095209530950895309532
:102540002095109501951F4F2F4F3F4F0895FF275E
:10255000172E660F771F089409F4771F6795EE27EB
:10256000032E220F331F089409F4331F2795089573
:10257000222342F0323030F03A95EE0F001F111F47
:10258000221FC2F7E03821F400FF08940EF488946B
:102590000F4F1F4F2F4F3F4F323038F4332319F472
:1025A00027FD31E002C027FF30E03F3F29F0220F36
:1025B000000C37952795089534C0E02F012F122F76
:1025C000232F3EE9E894D4CF0024F7CFF901EE0F92
:1025D000FF1F37FBFF3F31F0EF2BE12BE02B8894FF
:1025E000B8940895EE2321F008949894B89408952F
:1025F0009894889438940895FB01EE0FFF1F77FBA1
:10260000FF3F31F0EF2BE52BE42B8894B89408952D
:10261000EE2371F3E9CF302D3078222711270027E0
:1026200008953FE7302920E8F9CF3FEF2FEFF6CFAD
:10263000E3DF20F01BF0707837270895F6CFDCDF5A
:10264000E9F3E0F3032E0726E6CF032E0726E9CFB2
:10265000BDDFA0F36BF399F3CFDF80F39BF3A9F316
:1026600076DF012427FD06C03150E040000F111F26
:10267000221FD2F767FD06C07150F040440F551F6E
:10268000661FD2F7E894371BEF0B3158EF4F2AF053
:10269000EE23E9F63F3FD9F203C0393EA8F2689431
:1026A000E0E0F0E040175107620738F0315008F4DD
:1026B0006894000F111F221FEE1F71E011242224C5
:1026C00009C0000F111F221FEE1F04171507260750
:1026D000EF0720F0041B150B260BEF0B771F111CC7
:1026E000221C78F7000F111F221FEE1F0417150779
:1026F0002607EF073E2EF0F9E894E0E839F008F4F9
:10270000E0E0322A312A302A09F06894709510945A
:102710002094332311F0F0FF09C026941794779585
:10272000E79508F4689433953130BCF3072F112DE9
:10273000222D28CF14DF3F5748F03F3168F007FCC7
:102740006ACF3FE72FEF1FEF0FEF089530E020E053
:10275000890110E000E00895432F322F212F102F20
:102760000E2F4F5141950E947D1207FE08950C9443
:102770009F124791179011FA279037900895F9DF2B
:10278000041B10E000C020E030E000C0B8F010FCF6
:1027900017C047910790E00FF11F0417100540E0A4
:1027A0002407340758F436F406910024F101E01BA5
:1027B000F0090994E00FF11F27903790F101099477
:1027C00011F4D6F7F1CF31960EF0319650E060E07B
:1027D00070E047914B3F48F089F34F3F29F04E3F5F
:1027E00011F07791679157914791041B150B260BB8
:1027F000370B39F318F3E7CF9A928A927A926A925A
:102800005A924A92BA93AA939A938A930895998472
:1028100088847F806E805D804C80BB81AA81998195
:102820008881F0E0EC0FFD1FEF01089501E00895AD
:102830000D01D80105C0F90160816D932F5F3F4FF5
:10284000BA0141505040672BB1F7D001089520E004
:102850002D9301501040E1F708953BBF26912D9331
:10286000EF5FFF4F3F4F01501040B9F7089544EC20
:1028700058E260E0FA01362F3BBF07911691FA014A
:10288000EE5FFF4F3F4F3BBFA791B691FA01362F46
:10289000EC5FFF4F3F4F3BBF079017902690202DD6
:1028A0002129222921F0F001322DD7DF01C0CFDF0D
:1028B000495F5F4F6F4F18E220E0423D51076207CA
:1028C000C8F2089550076001D228005700B00800F0
:1028D000000046454D544F32205349474E41545510
:1028E00052450031323334353637383930313233AE
:1028F000343536004331200043322000412020008F
:102900004F3120004F3220004F3320004F34200041
:1029100055202000202020200020343420002034A6
:102920003820002036342000203838200020393666
:102930002000313238200031373620003139322042
:102940000032353620003335322000333834200051
:1029500035313220004631200046322000463320F7
:1029600000463420004635200046362000463720F9
:10297000004C00480020494E564552534500202047
:102980004E4F524D414C00205656562000204D418E
:10299000582000204D494E20004D555445200043FD
:1029A000482053414D20564F4C55204649204F005A
:1029B000600171013402820186018A018E01920157
:1029C00096019A019E01A201A701AC01B101B601D5
:1029D000BB01C001C501CA01CF01D401D901DE018B
:1029E000E301E701EB01EF01F301F701FB01FF0157
:1029F000010203020C02506F727420696E69742E1A
:102A00000D0A0049324320696E697469616C697A04
:102A1000652E2E0D0A0054696D65722073657474FD
:102A2000696E672E0D0A00496E7465727275707456
:102A30002073657474696E672E0D0A005B4932431A
:102A40005D20414B343131384120536561726368F8
:102A5000696E672E2E2E0D0A005B4932435D2041C0
:102A60004B343131384120466F756E642E0D0A00AB
:102A70005B4932435D20414B3431313841206E6F28
:102A80007420666F756E642E0D0A005B4932435DDB
:102A90002045533930333850524F20536F667420DD
:102AA000526573657420636F6D706C6574652E0D6F
:102AB0000A005B4932435D20455339303338205595
:102AC0003232204C656674204D7574652E0D0A00F7
:102AD0005B4932435D20455339303338205532321B
:102AE000204C656674204D757465204F4B2E0D0A81
:102AF000005B4932435D204553393033382055322D
:102B000032204C656674204D757465204E472E0D3D
:102B10000A005B4932435D20455339303338205534
:102B20003532205269676874204D7574652E0D0A20
:102B3000005B4932435D20455339303338205535E9
:102B400032205269676874204D757465204F4B2E92
:102B50000D0A005B4932435D20455339303338203C
:102B6000553532205269676874204D757465204E62
:102B7000472E0D0A005B4932435D204553393033FF
:102B80003850524F20536561726368696E672E2E0C
:102B90002E0D0A005B4932435D20455339303338EE
:102BA00050524F207832206E6F7420666F756E64BD
:102BB0002E0D0A005B4932435D20455339303338CE
:102BC00050524F20783220666F756E642E0D0A00C9
:102BD0005B4932435D2045533930333850524F20E2
:102BE0006F6C6E79206C65667420666F756E642EEE
:102BF0000D0A005B4932435D20455339303338506C
:102C0000524F206F6C6E7920726967687420666F0E
:102C1000756E642E0D0A005B4932435D20455339C1
:102C200030333850524F204175746F2053656C65B6
:102C300063742066756E6374696F6E204453442F0D
:102C400049325320636F6D706C6574652E0D0A00F8
:102C50005B4932435D2045533930333850524F2061
:102C60004368616E6E656C206D617070696E67207F
:102C7000636F6D706C6574652E0D0A005B4932439D
:102C80005D2045533930333850524F20566F6C75A4
:102C90006D65204D617820636F6D706C6574652E75
:102CA0000D0A005B4932435D2045533930333850BB
:102CB000524F20566F6C756D652052616D702052B9
:102CC000617465203D20372E0D0A005B4932435D5B
:102CD00020455339303338204D757465204F666672
:102CE0002E0D0A005B4932435D204553393033389D
:102CF000204453442044504C4C2048696768657315
:102D0000742E0D0A005B5350495D20444F54204DF2
:102D1000617472697820436C6561722E0D0A000D32
:102D20000A53797374656D20737461727465642ECF
:102D30000D0A0053797374656D20696E6974696159
:102D40006C697A696E672E2E2E2E2E2E0D0A005378
:102D5000797374656D20696E697420436F6D706C52
:102D6000657465642E0D0A0053797374656D20696E
:102D70006E697420736520436F6D706C6574656453
:102D80002E0D0A004B657920636F6465203D20009D
:102D90000D0A005B4553393033385D204D7574653D
:102DA000206F6E2E0D0A005B4553393033385D209D
:102DB0004D757465206F66662E0D0A005B455339AC
:102DC0003033385D20566F6C756D652064656372B5
:102DD000657365642E202D20005B455339303338F0
:102DE0005D20566F6C756D6520696E6372657365E5
:102DF000642E202D20005B4932435D20414B34314D
:102E00003138412057616B652075702E0D0A005BCB
:102E10004932435D20434F4158312053656C65630F
:102E20007465642E0D0A00436F6D6D206572726FBC
:102E3000722E0D0A005B4932435D20434F415832E8
:102E40002053656C65637465642E0D0A005B49321E
:102E5000435D20414553312053656C65637465645F
:102E60002E0D0A005B4932435D2041455332205309
:102E7000656C65637465642E0D0A005B4932435DC1
:102E800020424E432053656C65637465642E0D0AC1
:102E9000005B4932435D204F5054312053656C65CF
:102EA000637465642E0D0A005B4932435D204F5008
:102EB00054322053656C65637465642E0D0A005BA3
:102EC0004932435D20414B343131384120506F77D6
:102ED000657220646F776E2E0D0A005B53413931A5
:102EE00032375D2055534220417564696F2041633C
:102EF000746976617465642E0D0A005B4D43555DFF
:102F000020444143204D7574652064697361626C8F
:102F1000652E0D0A005B5341393132375D20555320
:102F20004220417564696F2044656163746976610C
:102F30007465642E0D0A005B4D43555D204441438A
:102F4000204D75746520656E61626C652E0D0A00FA
:102F50005B5341393132375D20445344206D6F64F7
:102F6000652064657465637465642E0D0A005B53A7
:102F700041393132375D2050434D206D6F646520FB
:102F800064657465637465642E0D0A005B53413992
:102F90003132375D20445344203132382064657427
:102FA00065637465642E0D0A005B53413931323715
:102FB0005D20445344203634206465746563746531
:102FC000642E0D0A005B5341393132375D20555371
:102FD0004220697320696E206E6F726D616C206D86
:102FE0006F64652E0D0A005B5341393132375D2025
:102FF00055534220697320696E2073757370656E36
:103000006465642E0D0A000101010101010160EAFD
:103010000101010101800130303030003078303062
:0230200020008E
:00247E015D
:00000001FF
