:100000000C94FE1118951895189518951895189533
:100010000C94E70D189518950C9469090C94B40D7F
:100020000C94810D189518950C94620618951895E6
:1000300018951895189518950C942E0F18951895D5
:100040000C945C0E18951895189518951895189598
:100050001895189518951895189518951895189538
:100060001895189518951895189518951895189528
:100070001895189518951895189518951895189518
:100080001895189518951895189518950100E3017D
:100090000800880193019F01AA01B601C101CD01A9
:1000A000D8019801890101501040232BD1F7089500
:1000B000B80140E004C000E81EE3F3DF4395FB0114
:1000C000319650E0E417F507B0F708950E94D31376
:1000D000C801D90140EB54E060E070E08C019D0163
:1000E0000E945712452B462B472B19F00FEF1FEF9D
:1000F00026C0119A199A1098189A00E014E224EF79
:1001000030E0AC01BD010E9457120E94BB1240E0DA
:1001100050E060E871E40E94FF120E9471130150E8
:1001200010409801232F2093900009B900E00BB9EB
:1001300008E90AB906E00093950000E010E0E4E069
:100140000C94D8135D9BFECF0CB900E010E008952D
:10015000F80102C010E0F6DF008131960023D1F7EC
:1001600008953B2F6A2F102FA0E6B1E044E6012F3F
:100170000E941012005D0C9344E6012F0E941012A1
:10018000202F04E6209F10194AE0012F0E94101230
:10019000005D11960C9311974AE0012F0E941012F6
:1001A000202F0AE0209F1019105D12961C931297C1
:1001B0008D01CEDFA62FB32F0895E4E6F1E0102FD6
:1001C00012951F70105D1283102F12951F701A3038
:1001D00018F01281195F1283102F1F70105D1383A6
:1001E0000F700A3018F00381095F03838F01B0DFBD
:1001F0000895219741E050E09E010E94CF110881AF
:10020000219608952197288341E050E09E010E94A5
:10021000AF11219608958A93229780E041E050E043
:100220009E012F5F3F4F10E400E90E94CF1141E093
:1002300050E09E0110E402E90E94CF1109810C7F79
:10024000083A09F4816008810C7F083A09F4826059
:10025000082F2296899108959A938A93802F912F3F
:1002600017E0082FC6DF202F992311F0216001C06D
:100270002E7F17E0082FC6DF8991999108959A93F0
:100280008A93902F812F11E0092FB3DF202F237F36
:10029000880F880F8C70282B11E0092FB3DF89910C
:1002A000999108959A938A93902F812F11E0092FA5
:1002B000A0DF202F2C7F8370282B11E0092FA2DFD5
:1002C0008991999108951F73212F15E09BDF08955F
:1002D0009A938A93902F80E00BC0292F182F1A5ED3
:1002E00000E990DF292F182F1A5E02E98BDF839532
:1002F000883098F38991999108959A938A93902FD1
:10030000012F822FECE8F0E0FBBFF0E00C94961395
:1003100016E2092F6EDF202F207F8F70282B16E228
:10032000092F70DF50C016E2092F63DF202F2F70D6
:100330008295807F282B16E2092F64DF44C017E2E4
:10034000092F57DF202F207F8F70282B17E2092FCE
:1003500059DF39C017E2092F4CDF202F2F7082950B
:10036000807F282B17E2092F4DDF2DC018E2092FBF
:1003700040DF202F207F8F70282B18E2092F42DFCB
:1003800022C018E2092F35DF202F2F708295807F41
:10039000282B18E2092F36DF16C019E2092F29DFB2
:1003A000202F207F8F70282B19E2092F2BDF0BC005
:1003B00019E2092F1EDF202F2F708295807F282BB6
:1003C00019E2092F1FDF89919991089521E010E02A
:1003D00019DF0895979800E00093E70508951C0140
:1003E00060E0979A0091620008600093620070E0FC
:1003F00005C000E416E055DE60E07395723008F049
:10040000CCC080E00AC000916500026000936500E6
:1004100000E110E046DE63958395883050F766234F
:1004200081F4009162000B7F0093620000916200F2
:100430000D7F00936200009162000E7F00936200C6
:100440007DC0613081F4009162000B7F00936200F7
:10045000009162000D7F00936200009162000160D4
:10046000009362006BC0623081F4009162000B7FE8
:1004700000936200009162000260009362000091AC
:1004800062000E7F0093620059C0633081F40091D6
:1004900062000B7F00936200009162000260009393
:1004A00062000091620001600093620047C0643006
:1004B00081F4009162000460009362000091620088
:1004C0000D7F00936200009162000E7F0093620036
:1004D00035C0653081F400916200046000936200D1
:1004E000009162000D7F0093620000916200016044
:1004F0000093620023C0663081F4009162000460C2
:10050000009362000091620002600093620000911B
:1005100062000E7F0093620011C0673079F4009191
:100520006200046000936200009162000260009328
:10053000620000916200016000936200772311F075
:10054000AF9805C0009165000D7F0093650008E03D
:1005500010E0A7DD009165000B7F0093650008E0C7
:1005600010E09FDD072F10E048E050E00E941D12D0
:1005700090E0080F191FF801EC54F94F00810BBBF4
:1005800000E110E08EDD00916500046000936500DD
:10059000772309F438CFAF9A3BCFC1010895502F8C
:1005A00040E036C0473079F4009162000460009367
:1005B000620000916200026000936200009162009C
:1005C00001600093620008E010E06BDD00916500BF
:1005D0000D7F0093650008E010E063DD0091650089
:1005E0000B7F0093650008E010E05BDD5BBB00E182
:1005F00010E057DD009165000460009365000091F4
:10060000650002600093650000E110E04ADD43955B
:10061000483008F085C0979A00916200077F0093E8
:100620006200442381F4009162000B7F009362001A
:10063000009162000D7F00936200009162000E7FC6
:1006400000936200C0CF413081F4009162000B7FC3
:1006500000936200009162000D7F009362000091A0
:100660006200016000936200AECF423081F40091DD
:1006700062000B7F009362000091620002600093B1
:100680006200009162000E7F009362009CCF4330B5
:1006900081F4009162000B7F009362000091620080
:1006A00002600093620000916200016000936200AA
:1006B0008ACF443081F400916200046000936200AC
:1006C000009162000D7F00936200009162000E7F36
:1006D0000093620078CF453081F40091620004609D
:1006E00000936200009162000D7F00936200009110
:1006F000620001600093620066CF463009F052CF7D
:100700000091620004600093620000916200026048
:1007100000936200009162000E7F0093620053CF4D
:1007200040E02EC0473079F40091620004600093ED
:10073000620000916200026000936200009162001A
:1007400001600093620008E010E0ABDCAF9808E0C5
:1007500010E0A7DC009165000B7F0093650008E0C6
:1007600010E09FDC5BBB00E110E09BDC00916500CA
:10077000046000936500AF9A00E110E092DC4395BD
:10078000483008F085C0979A00916200077F009377
:100790006200442381F4009162000B7F00936200A9
:1007A000009162000D7F00936200009162000E7F55
:1007B00000936200C8CF413081F4009162000B7F4A
:1007C00000936200009162000D7F0093620000912F
:1007D0006200016000936200B6CF423081F4009164
:1007E00062000B7F00936200009162000260009340
:1007F0006200009162000E7F00936200A4CF43303C
:1008000081F4009162000B7F00936200009162000E
:100810000260009362000091620001600093620038
:1008200092CF443081F40091620004600093620032
:10083000009162000D7F00936200009162000E7FC4
:100840000093620080CF453081F400916200046023
:1008500000936200009162000D7F0093620000919E
:1008600062000160009362006ECF463009F05ACFFB
:1008700000916200046000936200009162000260D7
:1008800000936200009162000E7F009362005BCFD4
:100890000895102F0091EB05002369F40DE40093F7
:1008A000C40605E50093C50604E50093C60605E405
:1008B0000093C7064BC0112369F400E20093C406FD
:1008C00001E30093C50600E30093C60600E300932E
:1008D000C7063CC01F3F69F400E30093C40600E371
:1008E0000093C5060EE20093C60600E30093C70618
:1008F0002DC034E108EC011B102F20E016C0012FA1
:10090000432F0E941012005D422F50E0FA01EC5379
:10091000F94F0083012F432F0E941012142F4AE039
:10092000032F0E941012302F2395223040F3112301
:1009300039F00EE20093C60605E30093C70606C031
:100940000EE20093C60600E30093C70620E00BC04A
:1009500030E0F901EC53F94F008130E0F901EC543B
:10096000F94F04872395243098F339DD08950091D9
:10097000AB06002319F50091EB05002321F401E0FB
:100980000093EB0503C000E00093EB050091EB053D
:10099000002311F411E001C010E00091EC050E7C81
:1009A000010F0093EC051091EB0500E955DC109167
:1009B000EB0502E951DC0091E9056BDF089508952C
:1009C0008A9380E00DC02091E905182F1A5E00E996
:1009D00019DC2091E905182F1A5E02E913DC8395D2
:1009E000883088F389910895089508950091AB06A1
:1009F0000023B9F41091E9050091E905053C30F4B4
:100A00000091E9050D5F0093E90503C00FEF009326
:100A1000E9050091E905101721F0D2DF0091E90501
:100A200038DF08950091AB060023F9F41091E90531
:100A30000091E9050F3F21F407EC0093E9050DC093
:100A40000091E905033030F00091E905035000936F
:100A5000E90503C000E00093E9050091E9051017DE
:100A600021F0AEDF0091E90514DF08950091AB0697
:100A70000023E1F40091EB05002309F478DF1091E5
:100A8000E9050091E905073C30F40091E90503957B
:100A90000093E90503C00FEF0093E9050091E90514
:100AA000101721F08DDF0091E905F3DE0895009124
:100AB000AB06002301F50091EB05002309F457DF95
:100AC0001091E9050091E9050F3F21F407EC00932F
:100AD000E90509C00091E905002329F00091E90525
:100AE0000A950093E9050091E905101721F068DFE8
:100AF0000091E905CEDE08950091A706073011F4B4
:100B000001E001C000E01091EA05011749F00093EF
:100B1000EA05EAEEF5E0008100FD1B9A00FF1B9854
:100B200000910506077C009305060091A706000FBB
:100B3000000F000F10910506100F1093050600918D
:100B4000EB05002341F010E000E90E942C0110E0C9
:100B500002E90E942C0108950091AB06002371F474
:100B60000091A706073030F40091A7060395009383
:100B7000A70603C000E00093A706BEDF089500911A
:100B8000AB06002371F40091A706002331F0009119
:100B9000A7060A950093A70603C007E00093A706DF
:100BA000ABDF0895082E00E00093E60500E008BFE3
:100BB0000091AA06033019F400E00093AA06809180
:100BC000AA0605E010E00E9458008823882321F03F
:100BD00008EC10E00E94580001E00093E605E2EA0C
:100BE000F6E000E0008300E0018308E008BF802D0C
:100BF00008950091AB06013021F00091AB06023060
:100C000021F401E00093AE0620C00091AB06033052
:100C100069F40091E405002321F401E00093E40568
:100C200003C000E00093E405CADE0FC00091AB06EC
:100C3000043059F40091AA0603950093AA06B2DF86
:100C4000BFDE05E010E00E94580020E00BC030E05D
:100C5000F901E858F94F008130E0F901EC54F94FFF
:100C600000832395203130F52830A8F40091AA069E
:100C700010E048E050E00E941D12E0E6F6E0E00FD0
:100C8000F11F30E0E20FF31F008130E0F901EC5476
:100C9000F94F0083E6CF0091E4050023C1F630E070
:100CA000F901E059F94F008130E0F901EC54F94FB6
:100CB0000083D7CFECEAF6E000E0008300E0018398
:100CC0008EDB0895FA93EA934A933A932A931A9300
:100CD0000A933FB74BB707E304BDEAECF6E00081A7
:100CE00011810F5F1F4F008311830091D90610916E
:100CF000DA06012B41F0E9EDF6E0008111810F5F8A
:100D00001F4F008311830091CA061091CB060D344A
:100D100024E0120708F452C000E00093C80600E087
:100D20000093C90600E00093CE0600E00093CF06D2
:100D300000E00093CC0600E00093CD0600E00093B5
:100D4000D00600E00093D10600E00093D20600E058
:100D50000093D30600E00093D40600E00093DE0683
:100D600000E00093E10600E00093DD0600E0009360
:100D7000DF0600E00093E00600E00093E20600E0FA
:100D80000093E30600E00093DC0600E00093CA064F
:100D900000E00093CB0600E00093E40601E000933E
:100DA000E5050091E505002349F401E00093E50520
:100DB00000E00093A20600E00093A3064BBF3FBFF4
:100DC00009911991299139914991E991F9911895D0
:100DD00000E00093C80600E00093C906EEECF6E0E0
:100DE00000E0008300E00183ECECF6E000E000832B
:100DF00000E00183E0EDF6E000E0008300E0018325
:100E0000E2EDF6E000E0008300E0018300E0009303
:100E1000D40600E00093DE0600E00093E10600E067
:100E20000093DD0600E00093DF0600E00093E0069B
:100E300000E00093E20600E00093E30600E0009388
:100E4000DC0600E00093E4060895BA93AA930091AB
:100E5000C906015041F00A95E1F00A9581F10A9521
:100E600009F443C057C0ECECF6E000811181000F9B
:100E7000111FECECF6E0008311830091DB0610E01B
:100E8000ECECF6E020813181202B312B2083318363
:100E900041C0EEECF6E000811181000F111FEEEC75
:100EA000F6E0008311830091DB0610E0EEECF6E043
:100EB00020813181202B312B208331832BC0E0ED29
:100EC000F6E000811181000F111FE0EDF6E00083D4
:100ED00011830091DB0610E0E0EDF6E02081318126
:100EE000202B312B2083318315C0E2EDF6E0008109
:100EF0001181000F111FE2EDF6E0008311830091D4
:100F0000DB0610E0E2EDF6E020813181202B312B71
:100F1000208331830091D40603950093D406009179
:100F2000D406083040F00091C90603950093C90625
:100F300000E00093D4060091C906053008F4FCC017
:100F4000ECECF6E0008111810F70107000831183CA
:100F5000EEECF6E0008111810F70107000831183B8
:100F6000ACECB6E0ED91FC91379709F0A8C0AEEC7F
:100F7000B6E0ED91FC913A9709F0A1C0E2EDF6E000
:100F800000811181E0EDF6E0208131814FEF2427CF
:100F900040E034270217130709F08FC0E0EDF6E0B8
:100FA00000810093880600919706002309F481C010
:100FB000E9EDF6E000811181095E1340033F21E075
:100FC000120798F4E0EDF6E000811181003820E08E
:100FD000120711F46CDD09C0E0EDF6E0008111812B
:100FE000083A20E0120709F441DDE9EDF6E001E0FE
:100FF00010E00083118300E00093E505E0EDF6E0EA
:1010000000811181003B20E0120711F4B0DC51C0D7
:10101000E0EDF6E000811181003820E0120711F4C4
:1010200046DD47C0E0EDF6E000811181083A20E09E
:10103000120711F41BDD3DC0E0EDF6E000811181E7
:10104000003920E0120711F487DD33C0E0EDF6E04F
:1010500000811181083820E0120711F490DD29C0C9
:10106000E0EDF6E000811181003A20E0120769F41A
:101070000091AE06002321F401E00093AB0603C00B
:1010800003E00093AB06B5DD14C0E0EDF6E00081AF
:101090001181083920E0120761F40091AE060023A7
:1010A00021F402E00093AB0603C004E00093AB061A
:1010B000A0DD00E00093E50603C08ADE01C088DE03
:1010C00000E00093C80600E00093C906EEECF6E0ED
:1010D00000E0008300E00183ECECF6E000E0008338
:1010E00000E00183E0EDF6E000E0008300E0018332
:1010F000E2EDF6E000E0008300E0018300E0009311
:10110000D40600E00093DE0600E00093E10600E074
:101110000093DD0600E00093DF0600E00093E006A8
:1011200000E00093E20600E00093E30600E0009395
:10113000DC0600E00093E406A991B9910895BA9302
:10114000AA930091DE060023E9F10091E106002355
:10115000C9F10091C806002309F0B8C001E000936E
:10116000C80601E00093C90600E00093D50600E040
:101170000093D806E6EDF6E000E0008300E001838E
:1011800000E00093DE0600E00093E10600E000933B
:10119000DD0600E00093DF0600E00093E00600E0DB
:1011A0000093E20600E00093E30600E00093DC0613
:1011B000E6EEF6E000E0008300E0018300E000934B
:1011C000E40684C00091C806002399F00091DD0672
:1011D000002379F00091DF06002359F000E000932E
:1011E000DB0600E00093DD0600E00093DF062DDE65
:1011F0006DC00091C806002399F00091DD06002320
:1012000079F00091E006002359F001E00093DB063D
:1012100000E00093DD0600E00093E00616DE56C015
:101220000091C806002381F40091E206002361F0DA
:1012300001E00093DC0600E00093E2060091E40682
:1012400003950093E40642C00091DC060023F1F10F
:101250000091E3060023D1F1009197060023B1F13C
:101260000091E406013061F500E00093E30600E040
:101270000093E505E6EEF6E0008111810F5F1F4F58
:1012800000831183A6EEB6E0ED91FC91339760F0F8
:1012900000918806003811F4C5DB18C0009188065B
:1012A000083AA1F4A3DB12C000918806003811F4BB
:1012B000FEDB0CC000918806083A41F4D7DB06C07B
:1012C00000E00093E40600E000938806A991B9913C
:1012D00008959A938A93FA93EA933A922A921A92E9
:1012E0000A927A936A935A934A933A932A931A9357
:1012F0000A938FB79BB70D9B1AC0E091CA06F09175
:10130000CB063497359720F401E00093DD0651C0F9
:10131000E091CA06F091CB06F797BE9720F401E062
:101320000093DE0646C001E00093E80642C00D9936
:1013300040C0E091CA06F091CB063497359720F46F
:1013400001E00093DF0635C0E091CA06F091CB06BC
:1013500039973E9720F401E00093E0062AC0E0911F
:10136000CA06F091CB06B897709720F401E000937D
:10137000E1061FC00091CA061091CB06085C104020
:10138000093C20E0120720F401E00093E20611C0BE
:101390000091CA061091CB0600521340093C20E090
:1013A000120720F401E00093E30603C001E000937C
:1013B000E80600E00093CA0600E00093CB06009127
:1013C000E806002341F000E00093E80600E0009307
:1013D000E306FEDC01C0B3DE9BBF8FBF099119910C
:1013E000299139914991599169917991099019906F
:1013F00029903990E991F9918991999118959A9349
:101400008A93A897812F48E250E09E0101600E94D4
:101410008E11FE0190E0E80FF91F0081A8968991D6
:10142000999108959A938A9316E200E2E8DF902F4B
:1014300017E200E2E4DF802F18E200E2E0DF9C7FA9
:10144000992311F000E00BC08C7F882311F000E09D
:1014500006C00C7F003411F000E001C001E089916A
:10146000999108959A938A9309E611E00E94A80041
:101470000FEF0ABB0DEB07BB0FEF04BB03E801BB8B
:101480000AE402B90FE0009361000FE100936400E9
:1014900000E00BBB0FE708BB0FEF05BB0FEF02BB74
:1014A0000FEF03B900EF009362000EE100936500B7
:1014B00007B3007C07BBC59A07B3007F07BBC39A7D
:1014C00082B100E002B91F9A02B1087F02B91A9AEC
:1014D000139A03B1007F03B906E711E00E94A80048
:1014E0000E94361109E811E00E94A80003E003BF42
:1014F00005E00EBD02E005BD07E304BD05E002BF47
:1015000004EE19EF1DBD0CBD00E001BF05E407BFEF
:1015100005E406BF0AE911E00E94A8000CEF09BF2C
:1015200000EA00936A0005E50ABF0CEF08BF0FEA66
:1015300011E00E94A80076DF002329F00CEC11E0F6
:101540000E94A80004C003EE11E00E94A80000E978
:101550000E94E60102E90E94E6010EEF11E00E94FE
:10156000A80005E212E00E94A80011E000E90E9434
:101570002C0117E000E90E94F900013429F403E48A
:1015800012E00E94A80004C004E612E00E94A80035
:1015900005E812E00E94A80011E002E90E942C0177
:1015A00017E002E90E94F900013429F404EA12E08C
:1015B0000E94A80004C006EC12E00E94A80008EEF9
:1015C00012E00E94A8000E940B01802F882329F4BA
:1015D00007E013E00E94A80014C0833029F407E25A
:1015E00013E00E94A8000DC0813029F403E413E049
:1015F0000E94A80006C0823021F406E613E00E9493
:10160000A80010E000E90E943F0110E002E90E94FA
:101610003F0110E000E90E94520110E002E90E943F
:1016200052010AE813E00E94A80081E00BC020E00C
:10163000182F00E90E947D0121E0182F02E90E9485
:101640007D018395893098F303EC13E00E94A80094
:101650000FEE13E00E94A80010E000E90E942C01A8
:1016600010E002E90E942C010DE014E00E94A800A5
:1016700006E214E00E94A8000E94EA01789480E04B
:1016800007C090E0FC01EC54F94F00E20083839521
:101690008031B8F300E00093A80600E00093A906AB
:1016A00001E00093B3068991999108959A938A93E2
:1016B0000FEE13E00E94A8008F3F00E0900741F476
:1016C00005E010E00E94580005E010E00E9458007C
:1016D0000091EB061091EC06010F00939606009125
:1016E00096061091ED060117D9F40091EB0610E073
:1016F000E9EEF6E000831183E9EEF6E00081102FB9
:1017000000E0E9EEF6E0008311830091EC0610E0C2
:10171000E9EEF6E020813181200F311F20833183F3
:10172000E9EEF6E000811181E0E9F6E00083118343
:10173000E0E9F6E0008111810F3F27E01207F0F5A4
:10174000E2E9F6E0008111812281322F212F102F52
:1017500000E0E2E9F6E00083118322833383E2E9CB
:10176000F6E0008111812281322F212F102F00E01D
:10177000E2E9F6E00083118322833383803800E0BE
:10178000900778F4082F02950F700093A706082F92
:10179000069507700093AA06082F01700093E405D0
:1017A00019C00FEF0093E90500E00093A70600E0E1
:1017B0000093AA0601E00093E4050CC00FEF00932C
:1017C000E90500E00093A70600E00093AA0601E007
:1017D0000093E40591D918E700E90E94630118E736
:1017E00002E90E946301ECD80AE010E00E94580070
:1017F000E6D80AE010E00E945800D4D9979A01E098
:101800000093E7050091650001600093650003E027
:101810000E94CF02C79A8991999108950091A706D5
:10182000073021F000919906002351F400919906A8
:10183000002309F443C100919806002309F03EC13A
:1018400000E414E00E94A800EFEAF6E00081102F07
:1018500000E0EFEAF6E000831183E1EBF6E00081BF
:10186000102F00E0E1EBF6E0008311830CE514E0BB
:101870000E94A800E1E0F6E000811181EFEAF6E0C5
:10188000208131810217130758F4EFEAF6E0008156
:101890001181E3E0F6E02081318102171307B0F0F7
:1018A000E1E0F6E000811181E1EBF6E02081318199
:1018B0000217130778F4E1EBF6E000811181E3E011
:1018C000F6E0208131810217130720F405E0009330
:1018D000E805F7C0EDEFF5E000811181EFEAF6E0F1
:1018E000208131810217130758F4EFEAF6E00081F6
:1018F0001181EFEFF5E02081318102171307B0F07D
:10190000EDEFF5E000811181E1EBF6E0208131811E
:101910000217130778F4E1EBF6E000811181EFEF95
:10192000F5E0208131810217130720F404E00093D1
:10193000E805C7C0E9EFF5E000811181EFEAF6E0C4
:10194000208131810217130758F4EFEAF6E0008195
:101950001181EBEFF5E02081318102171307B0F020
:10196000E9EFF5E000811181E1EBF6E020813181C2
:101970000217130778F4E1EBF6E000811181EBEF39
:10198000F5E0208131810217130720F403E0009372
:10199000E80597C0E5EFF5E000811181EFEAF6E098
:1019A000208131810217130758F4EFEAF6E0008135
:1019B0001181E7EFF5E02081318102171307B0F0C4
:1019C000E5EFF5E000811181E1EBF6E02081318166
:1019D0000217130778F4E1EBF6E000811181E7EFDD
:1019E000F5E0208131810217130720F402E0009313
:1019F000E80567C0E1EFF5E000811181EFEAF6E06C
:101A0000208131810217130758F4EFEAF6E00081D4
:101A10001181E3EFF5E02081318102171307B0F067
:101A2000E1EFF5E000811181E1EBF6E02081318109
:101A30000217130778F4E1EBF6E000811181E3EF80
:101A4000F5E0208131810217130720F401E00093B3
:101A5000E80537C0EDEEF5E000811181EFEAF6E030
:101A6000208131810217130758F4EFEAF6E0008174
:101A70001181EFEEF5E02081318102171307B0F0FC
:101A8000EDEEF5E000811181E1EBF6E0208131819E
:101A90000217130778F4E1EBF6E000811181EFEE15
:101AA000F5E0208131810217130720F400E0009354
:101AB000E80507C006E00093E80503C006E00093D0
:101AC000E8050091E805063021F401E000939C064A
:101AD00003C000E000939C0600919C0610919D06B7
:101AE000011771F000919C0600939D0600919D06E0
:101AF000002319F40091E90501C000EE0E9468017D
:101B000008959A938A93FA93EA933A922A921A92B0
:101B10000A927A936A935A934A933A932A931A931E
:101B20000A938FB79BB70091A006002351F00F9B3B
:101B300004C001E00093980603C000E000939806FB
:101B40006DDE9BBF8FBF0991199129913991499100
:101B50005991699179910990199029903990E99159
:101B6000F9918991999118959A938A93FA93EA93A6
:101B70003A922A921A920A927A936A935A934A93C1
:101B80003A932A931A930A938FB79BB70091A006B2
:101B9000002351F00E9B04C001E00093990603C09E
:101BA00000E0009399063ADE9BBF8FBF099119911F
:101BB0002991399149915991699179910990199097
:101BC00029903990E991F9918991999118959A9371
:101BD0008A93FA93EA933A922A921A920A927A9301
:101BE0006A935A934A933A932A931A930A938FB714
:101BF0009BB700E000E00093A10600E08699039502
:101C0000000F10E085991395010F000F10E08499E3
:101C10001395010F1091A0061123D9F1013019F489
:101C20000E94BF0533C0023019F40E9457052EC030
:101C3000033019F40E94B70429C0043019F40E943B
:101C4000AC0524C0053019F40E9436051FC00630CB
:101C500071F40091AE06002321F401E00093AB067D
:101C600003C003E00093AB060E94F9050FC00730E4
:101C700069F40091AE06002321F402E00093AB0664
:101C800003C004E00093AB060E94F90501E0009355
:101C9000A1069BBF8FBF0991199129913991499153
:101CA0005991699179910990199029903990E99108
:101CB000F9918991999118959A938A93FA93EA9355
:101CC0003A922A921A920A927A936A935A934A9370
:101CD0003A932A931A930A938FB79BB705E002BFF2
:101CE0000091A40603950093A4060091A00600238A
:101CF00009F4A1C00091AB060023B9F00091AC0635
:101D00001091AD06013727E1120730F000E0009393
:101D1000AB0600E00093AE06ECEAF6E0008111812C
:101D20000F5F1F4F0083118386C00091F006109152
:101D3000F106083C20E0120709F040C020E00BC08B
:101D400030E0F901E854F94F008130E0F901EC543A
:101D5000F94F00832395203170F52630A8F40091C7
:101D6000A70610E046E050E00E941D12E6E0F6E013
:101D7000E00FF11F30E0E20FF31F008130E0F901C6
:101D8000EC54F94F0083E6CF2C30D0F6E0E3F6E0D8
:101D900030E0E20FF31F0091E80510E046E050E06C
:101DA0000E941D12E00FF11F008130E0F901EC5498
:101DB000F94F0083CFCF0E94EF0135C00091F006AC
:101DC0001091F106003223E0120769F500919806A0
:101DD00000939A060091990600939B060F9B04C0FE
:101DE00001E00093980603C000E0009398060E9B64
:101DF00004C001E00093990603C000E00093990637
:101E000000919A0610919806011731F400919B06F3
:101E100010919906011709F001DD00E00093F0062A
:101E200000E00093F106E0EFF6E0008111810F5F22
:101E30001F4F008311839BBF8FBF09911991299177
:101E40003991499159916991799109901990299005
:101E50003990E991F9918991999118959A938A937A
:101E6000FA93EA933A922A921A920A927A936A938E
:101E70005A934A933A932A931A930A938FB79BB72C
:101E800000E002EF1CEF1DBD0CBD0091B306002366
:101E900009F483C00091B3060F3128F40091B30612
:101EA00003950093B3060091B3060A3011F4FEDBEC
:101EB0001DC00091B3060E31C9F40EEC0093EC0581
:101EC0000091E9050E94F40402E310E00E9458002A
:101ED0000091E9050E94F5040091E9050E9449047A
:101EE00001E00093A00601E0009397060091A00690
:101EF000002309F452C083993AC00091A106013031
:101F000051F4E0919E06F0919F06369720F002E092
:101F10000093A10620C00091A1060230E1F4E091F7
:101F20009E06F0919F063797B0F000E086990395E2
:101F3000000F10E085991395010F000F10E08499B0
:101F40001395010F023019F40E94570504C00530A3
:101F500011F40E94360500E000938F06EEE9F6E0EA
:101F6000008111810F5F1F4F0083118316C000E0B5
:101F70000093A10600E000939E0600E000939F06F8
:101F800000918F06002349F401E000938F0600E0E2
:101F90000093A20600E00093A306E5EAF6E00081C4
:101FA00011810F5F1F4F008311839BBF8FBF09916A
:101FB0001991299139914991599169917991099092
:101FC000199029903990E991F991899199911895F1
:101FD000B59B04C001E00093890603C000E00093B4
:101FE000890600918A06002311F401E001C000E097
:101FF000E9E8F6E0108111701023112339F001E0B7
:1020000000938A060BEE14E00E94A8000091890656
:10201000002311F401E001C000E0EAE8F6E01081DD
:1020200011700123002339F000E000938A060BE0D1
:1020300015E00E94A8000F9B04C001E000938D06EC
:1020400003C000E000938D0600918E06002311F47A
:1020500001E001C000E0EDE8F6E01081117010230E
:10206000112339F001E000938E060DE215E00E9485
:10207000A80000918D06002311F401E001C000E0EA
:10208000EEE8F6E0108111700123002339F000E042
:1020900000938E060BE415E00E94A800B39B04C0D9
:1020A00001E000938B0603C000E000938B060091D3
:1020B0008C06002311F401E001C000E0EBE8F6E03B
:1020C000108111701023112339F001E000938C0668
:1020D00009E615E00E94A80000918B06002311F488
:1020E00001E001C000E0ECE8F6E01081117001238E
:1020F000002339F000E000938C0606E815E00E940A
:10210000A8001A9B04C001E00093EE0603C000E0A3
:102110000093EE060091EF06002311F401E001C0E8
:1021200000E0EEEEF6E0108111701023112339F07B
:1021300001E00093EF0602EA15E00E94A80000917A
:10214000EE06002311F401E001C000E0EFEEF6E03E
:10215000108111700123002339F000E00093EF0695
:1021600004EC15E00E94A80008959A938A93A99719
:10217000789400E011EE20E030E00E94660004E870
:1021800014E00E94A80008E914E00E94A8006AD99F
:1021900004EB14E00E94A80080E090E005C00DEC84
:1021A00014E00E94A8000196893200E09007D4F460
:1021B000082F0E94B1000DEC14E00E94A800182F17
:1021C00000E21DD90E94DD008C010F5F1F4F48E027
:1021D00050E00E943812452B11F70FEC14E00E94DA
:1021E000A800E1CF02ED14E00E94A80080E090E09A
:1021F00006C0FE01E80FF91F00E000830196893256
:1022000000E09007B4F349E250E09E0101E20E9431
:102210008E1180E090E005C00DEC14E00E94A80053
:102220000196893200E09007DCF4082F0E94B1008B
:102230000DEC14E00E94A800FE01E80FF91F0081D8
:102240000E94DD008C010F5F1F4F48E050E00E94AC
:102250003812452B09F70FEC14E00E94A800E0CFDC
:1022600006EE14E00E94A800B3DEFECF08E400935F
:102270007000089510E01093740014EA1093740035
:1022800010917400212F27FFFBCF10917100187F50
:10229000183011F001E008950093730004E80093F2
:1022A000740000917400102F17FFFBCF0091710094
:1022B000087F083121F0003411F001E0089500E0BA
:1022C00008950093730004E8009374000091740073
:1022D000102F17FFFBCF00917100087F083211F01B
:1022E00001E0089500E0089504EC0093740000916B
:1022F0007400102F17FFFBCF00917300089504E8BE
:102300000093740000917400102F17FFFBCF009111
:102310007300089504E90093740008950E94D31394
:10232000D9010160A7DF002311F001E015C080E0B2
:1023300090E006C0D9DFFD01E80FF91F0083019688
:10234000FA0131978E179F07A8F3D9DFA40FB51FA5
:1023500011970C93DFDF00E0E4E00C94D813192E02
:10236000282E012EB90186DF002311F001E014C0F0
:10237000002DA7DF80E090E001C00196841795074B
:1023800048F4FB01E80FF91F00819BDF0023A9F34C
:1023900001E002C0BFDF00E0822D912D08950E9470
:1023A000D313602F712FD901062F64DF002311F0A2
:1023B00001E01EC0072F85DF6160062F5BDF002371
:1023C00011F001E015C080E090E006C08DDFFD0156
:1023D000E80FF91F00830196FA0131978E179F07C6
:1023E000A8F38DDFA40FB51F11970C9393DF00E0C6
:1023F000E4E00C94D81300008895FECF0FE50DBFE4
:1024000001E00EBFC0E4D1E00E94E113002311F00F
:102410000E94F3130E94B5100E94FB110C94FB1153
:102420000024E8E0001FEA952AF0001C0416D0F30F
:10243000041AF8CF402D00950895149F102D059F84
:10244000100D049F002D110D089500241124E0E1CA
:10245000001F111FEA9542F0001C111C04161506FE
:10246000B8F3041A150AF4CFA00100951095089549
:10247000FF27552312F4F1600FD0112312F4F095C9
:1024800007D00E942512F0FD03D0F1FD05C008958C
:10249000119501951040089551954195504008952A
:1024A00036952795179507954A95D2F708950024F4
:1024B00011241001E0E2001F111F221F331FEA95B3
:1024C00072F0001C111C221C331C04161506260673
:1024D000370688F3041A150A260A370AECCFA0013A
:1024E000B10100951095209530950895309520956F
:1024F000109501951F4F2F4F3F4F0895FF27172E1F
:10250000660F771F089409F4771F6795EE27032E4F
:10251000220F331F089409F4331F279508952223AF
:1025200042F0323030F03A95EE0F001F111F221F9B
:10253000C2F7E03821F400FF08940EF488940F4F9E
:102540001F4F2F4F3F4F323038F4332319F427FDFC
:1025500031E002C027FF30E03F3F29F0220F000C9E
:1025600037952795089534C0E02F012F122F232F80
:102570003EE9E894D4CF0024F7CFF901EE0FFF1F16
:1025800037FBFF3F31F0EF2BE12BE02B8894B89421
:102590000895EE2321F008949894B894089598949F
:1025A000889438940895FB01EE0FFF1F77FBFF3FDF
:1025B00031F0EF2BE52BE42B8894B8940895EE23AB
:1025C00071F3E9CF302D30782227112700270895A5
:1025D0003FE7302920E8F9CF3FEF2FEFF6CFE3DFD9
:1025E00020F01BF0707837270895F6CFDCDFE9F391
:1025F000E0F3032E0726E6CF032E0726E9CFBDDF43
:10260000A0F36BF399F3CFDF80F39BF3A9F376DFAD
:10261000012427FD06C03150E040000F111F221F8A
:10262000D2F767FD06C07150F040440F551F661F7A
:10263000D2F7E894371BEF0B3158EF4F2AF0EE2317
:10264000E9F63F3FD9F203C0393EA8F26894E0E0D2
:10265000F0E040175107620738F0315008F46894F1
:10266000000F111F221FEE1F71E01124222409C048
:10267000000F111F221FEE1F041715072607EF0773
:1026800020F0041B150B260BEF0B771F111C221CCF
:1026900078F7000F111F221FEE1F041715072607DA
:1026A000EF073E2EF0F9E894E0E839F008F4E0E0B6
:1026B000322A312A302A09F06894709510942094B7
:1026C000332311F0F0FF09C0269417947795E7950E
:1026D00008F4689433953130BCF3072F112D222D67
:1026E00028CF14DF3F5748F03F3168F007FC6ACF2E
:1026F0003FE72FEF1FEF0FEF089530E020E0890153
:1027000010E000E00895432F322F212F102F0E2FBD
:102710004F5141950E94541207FE08950C94761271
:102720004791179011FA279037900895F9DF041B0D
:1027300010E000C020E030E000C0B8F010FC17C08E
:1027400047910790E00FF11F0417100540E02407A0
:10275000340758F436F406910024F101E01BF00927
:102760000994E00FF11F27903790F101099411F4BB
:10277000D6F7F1CF31960EF0319650E060E070E080
:1027800047914B3F48F089F34F3F29F04E3F11F0FE
:102790007791679157914791041B150B260B370BC7
:1027A00039F318F3E7CFBA93AA939A938A930895CB
:1027B000BB81AA8199818881F0E0EC0FFD1FEF01B8
:1027C000089501E0089520E02D9301501040E1F7B5
:1027D00008953BBF26912D93EF5FFF4F3F4F015070
:1027E0001040B9F708954CE358E260E0FA01362F43
:1027F0003BBF07911691FA01EE5FFF4F3F4F3BBF82
:10280000A791B691FA01362FEC5FFF4F3F4F3BBFC8
:10281000079017902690202D2129222921F0F001E0
:10282000322DD7DF01C0CFDF495F5F4F6F4F18E216
:1028300020E04A3451076207C8F20895300560016C
:102840004A280062009006000000303030003078E6
:10285000303000506F727420696E69742E0D0A005A
:1028600049324320696E697469616C697A652E2EFC
:102870000D0A0054696D65722073657474696E6722
:102880002E0D0A00496E746572727570742073653E
:102890007474696E672E0D0A005B4932435D2041F6
:1028A0004B343131384120536561726368696E671A
:1028B0002E2E2E0D0A005B4932435D20414B3431F0
:1028C00031384120466F756E642E0D0A005B493227
:1028D000435D20414B3431313841206E6F742066A6
:1028E0006F756E642E0D0A005B4932435D204553BF
:1028F0003930333850524F20536F6674205265730D
:10290000657420636F6D706C6574652E0D0A005BD5
:102910004932435D20455339303338205532322017
:102920004C656674204D7574652E0D0A005B493246
:10293000435D2045533930333820553232204C65C1
:102940006674204D757465204F4B2E0D0A005B494F
:1029500032435D2045533930333820553232204CD4
:10296000656674204D757465204E472E0D0A005B18
:102970004932435D204553393033382055353220B4
:102980005269676874204D7574652E0D0A005B49A5
:1029900032435D204553393033382055353220528B
:1029A00069676874204D757465204F4B2E0D0A00C1
:1029B0005B4932435D204553393033382055353239
:1029C000205269676874204D757465204E472E0D3E
:1029D0000A005B4932435D20455339303338505249
:1029E0004F20536561726368696E672E2E2E0D0A43
:1029F000005B4932435D2045533930333850524FE4
:102A0000207832206E6F7420666F756E642E0D0A0A
:102A1000005B4932435D2045533930333850524FC3
:102A200020783220666F756E642E0D0A005B493285
:102A3000435D2045533930333850524F206F6C6E10
:102A400079206C65667420666F756E642E0D0A00C1
:102A50005B4932435D2045533930333850524F2063
:102A60006F6C6E7920726967687420666F756E642A
:102A70002E0D0A005B4932435D204553393033380F
:102A800050524F204175746F2053656C65637420FC
:102A900066756E6374696F6E2064697361626C65DC
:102AA00020636F6D706C6574652E0D0A005B493292
:102AB000435D2045533930333850524F20436861CD
:102AC0006E6E656C206D617070696E6720636F6DEE
:102AD000706C6574652E0D0A005B4932435D2043BE
:102AE000533834313620496E7075743720746F2036
:102AF000474E442E0D0A005B4932435D2045533951
:102B0000303338204D757465204F66662E0D0A00EF
:102B10005B5350495D20444F54204D617472697875
:102B200020436C6561722E0D0A005B4932435D20C3
:102B3000526561642053616D706C696E67207261CB
:102B400074652E0D0A005B4932435D20436F6D7042
:102B50006C6574652072656164696E672053616D90
:102B6000706C696E6720726174652E0D0A000D0A23
:102B700053797374656D20737461727465642E0D7E
:102B80000A0053797374656D20696E697469616CAC
:102B9000697A696E672E2E2E2E2E2E0D0A0053791D
:102BA0007374656D20696E697420436F6D706C6518
:102BB0007465642E0D0A0020000D0A000D0A414BB9
:102BC00034313138412052454720414C4C0D0A00E8
:102BD0000D0A0D0A005B5341393132375D205553E0
:102BE0004220417564696F20416374697661746540
:102BF000642E0D0A005B5341393132375D20555345
:102C00004220417564696F2044656163746976612F
:102C10007465642E0D0A005B5341393132375D20F3
:102C2000445344206D6F6465206465746563746506
:102C3000642E0D0A005B5341393132375D20504319
:102C40004D206D6F64652064657465637465642EE2
:102C50000D0A005B5341393132375D204453442023
:102C60003132382064657465637465642E0D0A0022
:102C70005B5341393132375D204453442036342090
:102C800064657465637465642E0D0A005B53413995
:102C90003132375D2055534220697320696E206EB2
:102CA0006F726D616C206D6F64652E0D0A005B5351
:102CB00041393132375D2055534220697320696EA6
:102CC0002073757370656E6465642E0D0A000101D2
:102CD000010106FF0101CECE083709A009090AD17A
:102CE000113A127413DD13D7233F241D2786278042
:102CF000434F41583120434F4158322020414553E2
:102D0000312020414553322020424E432020204F85
:102D100050543120204F505432202055534220200F
:102D20002034342E31202034382E30202038382ED4
:102D300032202039362E30203137362E34203139AA
:102D4000322E302020202020202046494C5445524D
:102D5000312046494C544552322046494C54455244
:102D6000332020494E564552534520204E4F524D58
:0A2D7000414C300101010101010195
:0023FC01E0
:00000001FF
