:100000000C945E12189518951895189518951895D2
:100010000C94F308189518950C9432110C94C008A0
:100020000C948D08189518950C941D0E189518951C
:1000300018951895189518950C943A0A18951895CE
:100040000C94680918951895189518951895189591
:100050001895189518951895189518951895189538
:100060001895189518951895189518951895189528
:100070001895189518951895189518951895189518
:10008000189518951895189518951895010051040C
:100090000800F60301040D04180424042F043B0493
:1000A00046049A938A93A897812F48E250E09E01D4
:1000B00001600E94B004FE0190E0E80FF91F00818A
:1000C000A8968991999108959A938A9316E200E2ED
:1000D000E8DF902F17E200E2E4DF802F18E200E271
:1000E000E0DF9C7F992311F000E00BC08C7F882318
:1000F00011F000E006C00C7F003411F000E001C0F8
:1001000001E0899199910895979800E00093E405A2
:100110000895282E20E0979A0091620008600093CD
:10012000620080E009C0E0E4F6E08F01F801319759
:10013000012BD9F720E08395823008F0DCC060E025
:100140000EC000916500026000936500E0E1F0E000
:100150008F01F8013197012BD9F72395639568300A
:1001600010F7222381F4009162000B7F009362005C
:10017000009162000D7F00936200009162000E7F8B
:10018000009362007DC0213081F4009162000B7FFA
:1001900000936200009162000D7F00936200009165
:1001A00062000160009362006BC0223081F4009114
:1001B00062000B7F00936200009162000260009376
:1001C0006200009162000E7F0093620059C02330EC
:1001D00081F4009162000B7F009362000091620045
:1001E000026000936200009162000160009362006F
:1001F00047C0243081F400916200046000936200E3
:10020000009162000D7F00936200009162000E7FFA
:100210000093620035C0253081F4009162000460D3
:1002200000936200009162000D7F009362000091D4
:10023000620001600093620023C0263081F40091C7
:10024000620004600093620000916200026000930B
:100250006200009162000E7F0093620011C027309F
:1002600079F40091620004600093620000916200E2
:1002700002600093620000916200016000936200DE
:10028000882311F0AF9805C0009165000D7F0093A1
:100290006500E8E0F0E08F01F8013197012BD9F714
:1002A000009165000B7F00936500E8E0F0E08F01AE
:1002B000F8013197012BD9F7082F10E048E050E002
:1002C0000E947D1270E0060F171FF801E554F94FE8
:1002D00000810BBBE0E1F0E08F01F8013197012BC9
:1002E000D9F700916500046000936500882309F444
:1002F00028CFAF9A2BCF822D0895202F00E04AC03F
:10030000073079F41091620014601093620010912C
:1003100062001260109362001091620011601093ED
:100320006200E8E0F0E0AF01FA013197452BD9F720
:10033000109165001D7F10936500E8E0F0E0AF01CB
:10034000FA013197452BD9F7109165001B7F109367
:100350006500E8E0F0E0AF01FA013197452BD9F7ED
:100360002BBBE0E1F0E0AF01FA013197452BD9F763
:100370001091650014601093650010916500126083
:1003800010936500E0E1F0E0AF01FA013197452BF1
:10039000D9F70395083008F085C0979A109162004C
:1003A000177F10936200002381F4109162001B7F7D
:1003B00010936200109162001D7F109362001091F3
:1003C00062001E7F10936200ACCF013081F4109167
:1003D00062001B7F10936200109162001D7F1093DA
:1003E0006200109162001160109362009ACF023097
:1003F00081F4109162001B7F1093620010916200E3
:10040000126010936200109162001E7F10936200D0
:1004100088CF033081F4109162001B7F109362003B
:1004200010916200126010936200109162001160DE
:100430001093620076CF043081F410916200146052
:1004400010936200109162001D7F10936200109162
:1004500062001E7F1093620064CF053081F410911A
:100460006200146010936200109162001D7F10936F
:1004700062001091620011601093620052CF06304A
:1004800009F03ECF10916200146010936200109149
:100490006200126010936200109162001E7F109340
:1004A00062003FCF00E042C0073079F41091620053
:1004B0001460109362001091620012601093620049
:1004C00010916200116010936200E8E0F0E0AF016B
:1004D000FA013197452BD9F7AF98E8E0F0E0AF018A
:1004E000FA013197452BD9F7109165001B7F1093C6
:1004F0006500E8E0F0E0AF01FA013197452BD9F74C
:100500002BBBE0E1F0E0AF01FA013197452BD9F7C1
:1005100010916500146010936500AF9AE0E1F0E07F
:10052000AF01FA013197452BD9F70395083008F050
:1005300085C0979A10916200177F10936200002384
:1005400081F4109162001B7F109362001091620091
:100550001D7F10936200109162001E7F1093620055
:10056000B4CF013081F4109162001B7F10936200C0
:10057000109162001D7F1093620010916200116063
:1005800010936200A2CF023081F4109162001B7FB1
:10059000109362001091620012601093620010913B
:1005A00062001E7F1093620090CF033081F410919F
:1005B00062001B7F10936200109162001260109322
:1005C0006200109162001160109362007ECF0430CF
:1005D00081F4109162001460109362001091620027
:1005E0001D7F10936200109162001E7F10936200C5
:1005F0006CCF053081F4109162001460109362009A
:10060000109162001D7F10936200109162001160D2
:10061000109362005ACF063009F046CF1091620065
:1006200014601093620010916200126010936200D7
:10063000109162001E7F1093620047CF0895102F23
:100640000091E805002369F40DE40093CB0605E56D
:100650000093CC0604E50093CD0605E40093CE0696
:1006600044C0112369F400E20093CB0601E3009338
:10067000CC0600E30093CD0600E30093CE0635C020
:100680001F3F69F400E30093CB0600E30093CC0620
:100690000EE20093CD0600E30093CE0626C008ECE0
:1006A000011B102F20E010C044E1012F0E947012A6
:1006B000005D30E0F901E553F94F008344E1012F7B
:1006C0000E947012142F2395223070F3112339F0F9
:1006D0000EE20093CD0605E30093CE0606C00EE2BF
:1006E0000093CD0600E30093CE0620E00BC030E07F
:1006F000F901E553F94F008130E0F901E554F94F74
:1007000004872395243098F304DD0895219741E070
:1007100050E09E010E94F1040881219608952197DE
:10072000288341E050E09E010E94D1042196089563
:100730008A9380E010E402E9E9DF0C7F083A09F4CB
:100740008E5F10E400E9E2DF0C7F083A09F483953C
:10075000082F899108959A938A93802F912F17E0FB
:10076000082FD4DF202F992311F0216001C02E7FA4
:1007700017E0082FD4DF8991999108959A938A936D
:10078000902F812F11E0092FC1DF202F237F880FA9
:10079000880F8C70282B11E0092FC1DF8991999166
:1007A00008951F73212F15E0BADF08959A938A9355
:1007B000902F80E00BC0292F182F1A5E00E9AFDFC1
:1007C000292F182F1A5E02E9AADF8395883098F343
:1007D0008991999108959A938A93902F012F822F4E
:1007E000ECE8F0E0FBBFF0E00C94F61316E2092F02
:1007F0008DDF202F207F8F70282B16E2092F8FDFAF
:1008000050C016E2092F82DF202F2F708295807F43
:10081000282B16E2092F83DF44C017E2092F76DF69
:10082000202F207F8F70282B17E2092F78DF39C007
:1008300017E2092F6BDF202F2F708295807F282BE6
:1008400017E2092F6CDF2DC018E2092F5FDF202F80
:10085000207F8F70282B18E2092F61DF22C018E259
:10086000092F54DF202F2F708295807F282B18E2CC
:10087000092F55DF16C019E2092F48DF202F207FEE
:100880008F70282B19E2092F4ADF0BC019E2092FBC
:100890003DDF202F2F708295807F282B19E2092FB2
:1008A0003EDF89919991089521E010E038DF0895A5
:1008B00008E400937000089510E01093740014EAA7
:1008C0001093740010917400212F27FFFBCF10911B
:1008D0007100187F183011F001E008950093730043
:1008E00004E80093740000917400102F17FFFBCFF1
:1008F00000917100087F083121F0003411F001E00F
:10090000089500E008950093730004E800937400D4
:1009100000917400102F17FFFBCF00917100087F2A
:10092000083211F001E0089500E0089504EC00930E
:10093000740000917400102F17FFFBCF009173001B
:10094000089504E80093740000917400102F17FFBD
:10095000FBCF00917300089504E90093740008959B
:100960000E943314D9010160A7DF002311F001E0D8
:1009700015C080E090E006C0D9DFFD01E80FF91F47
:1009800000830196FA0131978E179F07A8F3D9DFEC
:10099000A40FB51F11970C93DFDF00E0E4E00C9487
:1009A0003814192E282E012EB90186DF002311F0EC
:1009B00001E014C0002DA7DF80E090E001C00196A7
:1009C0008417950748F4FB01E80FF91F00819BDFAE
:1009D0000023A9F301E002C0BFDF00E0822D912DCA
:1009E00008950E943314602F712FD901062F64DF00
:1009F000002311F001E01EC0072F85DF6160062F84
:100A00005BDF002311F001E015C080E090E006C03C
:100A10008DDFFD01E80FF91F00830196FA01319780
:100A20008E179F07A8F38DDFA40FB51F11970C93A6
:100A300093DF00E0E4E00C9438149A938A9300E684
:100A400011E00E940A120FEF0ABB0DEB07BB0FEF7C
:100A500004BB03E801BB0AE402B90FE000936100A4
:100A60000FE10093640000E00BBB0FE708BB0FEF42
:100A700005BB0FEF02BB0FEF03B900EF009362005D
:100A80000EE10093650007B3007C07BBC59A07B36E
:100A9000007F07BBC39A82B100E002B91F9A02B17E
:100AA000087F02B91A9A139A03B1007F03B90DE6C1
:100AB00011E00E940A120E94580400E811E00E940E
:100AC0000A1203E003BF05E00EBD02E005BD07E327
:100AD00004BD05E002BF04EE19EF1DBD0CBD00E032
:100AE00001BF05E407BF05E406BF01E911E00E946C
:100AF0000A120CEF09BF00EA00936A0005E50ABF7D
:100B00000CEF08BF06EA11E00E940A120E9464007E
:100B1000002329F003EC11E00E940A1204C00AED40
:100B200011E00E940A1200E90E94540402E90E94A6
:100B3000540405EF11E00E940A120CE112E00E9439
:100B40000A1211E000E90E94AB0317E000E90E94DD
:100B50008603013429F40AE312E00E940A1204C059
:100B60000BE512E00E940A120CE712E00E940A1242
:100B700011E002E90E94AB0317E002E90E9486033C
:100B8000013429F40BE912E00E940A1204C00DEBB3
:100B900012E00E940A120FED12E00E940A120E9457
:100BA0009803802F882329F40EEF12E00E940A1286
:100BB00014C0833029F40EE113E00E940A120DC024
:100BC000813029F40AE313E00E940A1206C0823041
:100BD00021F40DE513E00E940A1211E000E90E94E1
:100BE000BE0311E002E90E94BE0301E813E00E9487
:100BF0000A1281E00BC020E0182F00E90E94EB03ED
:100C000021E0182F02E90E94EB038395893098F3C5
:100C10000AEB13E00E940A1206EE13E00E940A1289
:100C200010E000E90E94AB0310E002E90E94AB0370
:100C300004E014E00E940A120DE114E00E940A127E
:100C40000E948400789480E007C090E0FC01E554A5
:100C5000F94F00E2008383958031B8F300E0009300
:100C6000AF0600E00093B00601E00093BA06899158
:100C700099910895AC0180E090E008C0E0E8FEE3BF
:100C80009F01F9013197232BD9F70196F80131968D
:100C9000E817F90798F7CA0108959A938A9380E0B4
:100CA00090E006EE13E00E940A128F3F00E09007EA
:100CB00031F405E010E0DEDF05E010E0DBDF00915D
:100CC000920610919306010F00939D0600919D06D8
:100CD000109194060117D9F40091920610E0E0E912
:100CE000F6E000831183E0E9F6E00081102F00E0D8
:100CF000E0E9F6E0008311830091930610E0E0E95B
:100D0000F6E020813181200F311F20833183E0E91B
:100D1000F6E000811181E7E9F6E000831183E7E95D
:100D2000F6E0008111810F3F27E01207F0F5E9E9B5
:100D3000F6E0008111812281322F212F102F00E057
:100D4000E9E9F6E00083118322833383E9E9F6E0E1
:100D5000008111812281322F212F102F00E0E9E93B
:100D6000F6E00083118322833383803800E090070C
:100D700078F4082F02950F700093AE06082F0695A1
:100D800007700093B106082F01700093E10519C0A8
:100D90000FEF0093E60500E00093AE0600E000933D
:100DA000B10601E00093E1050CC00FEF0093E605EA
:100DB00000E00093AE0600E00093B10601E000936E
:100DC000E1050E94120D18E700E90E94D10318E71F
:100DD00002E90E94D1030E94700C0AE010E04ADF91
:100DE0000E946F0C0AE010E045DF0E94740D979A94
:100DF00001E00093E4050091650001600093650047
:100E000003E00E947D01C79A899199910895AC01F0
:100E100080E090E008C0E0E8FEE39F01F90131972F
:100E2000232BD9F70196F8013196E817F90798F7BF
:100E3000CA0108950091AE06073021F00091A00686
:100E4000002351F40091A006002309F443C100914E
:100E50009F06002309F03EC107E314E00E940A1236
:100E6000E6EBF6E00081102F00E0E6EBF6E0008311
:100E70001183E8EBF6E00081102F00E0E8EBF6E0EC
:100E80000083118303E514E00E940A12EEEFF5E0FF
:100E900000811181E6EBF6E0208131810217130712
:100EA00058F4E6EBF6E000811181E0E0F6E0208105
:100EB000318102171307B0F0EEEFF5E000811181E8
:100EC000E8EBF6E0208131810217130778F4E8EBB4
:100ED000F6E000811181E0E0F6E020813181021727
:100EE000130720F405E00093E505F7C0EAEFF5E00D
:100EF00000811181E6EBF6E02081318102171307B2
:100F000058F4E6EBF6E000811181ECEFF5E020818A
:100F1000318102171307B0F0EAEFF5E0008111818B
:100F2000E8EBF6E0208131810217130778F4E8EB53
:100F3000F6E000811181ECEFF5E0208131810217AC
:100F4000130720F404E00093E505C7C0E6EFF5E0E1
:100F500000811181E6EBF6E0208131810217130751
:100F600058F4E6EBF6E000811181E8EFF5E020812E
:100F7000318102171307B0F0E6EFF5E0008111812F
:100F8000E8EBF6E0208131810217130778F4E8EBF3
:100F9000F6E000811181E8EFF5E020813181021750
:100FA000130720F403E00093E50597C0E2EFF5E0B6
:100FB00000811181E6EBF6E02081318102171307F1
:100FC00058F4E6EBF6E000811181E4EFF5E02081D2
:100FD000318102171307B0F0E2EFF5E000811181D3
:100FE000E8EBF6E0208131810217130778F4E8EB93
:100FF000F6E000811181E4EFF5E0208131810217F4
:10100000130720F402E00093E50567C0EEEEF5E07B
:1010100000811181E6EBF6E0208131810217130790
:1010200058F4E6EBF6E000811181E0EFF5E0208175
:10103000318102171307B0F0EEEEF5E00081118167
:10104000E8EBF6E0208131810217130778F4E8EB32
:10105000F6E000811181E0EFF5E020813181021797
:10106000130720F401E00093E50537C0EAEEF5E050
:1010700000811181E6EBF6E0208131810217130730
:1010800058F4E6EBF6E000811181ECEEF5E020810A
:10109000318102171307B0F0EAEEF5E0008111810B
:1010A000E8EBF6E0208131810217130778F4E8EBD2
:1010B000F6E000811181ECEEF5E02081318102172C
:1010C000130720F400E00093E50507C006E0009355
:1010D000E50503C006E00093E5050091E50506304F
:1010E00021F401E00093A30603C000E00093A306EF
:1010F0000091A3061091A406011771F00091A306B8
:101100000093A4060091A406002319F40091E605BB
:1011100001C000EE0E94D60308959A938A93FA9331
:10112000EA933A922A921A920A927A936A935A937B
:101130004A933A932A931A930A938FB79BB70091D5
:10114000A706002351F00F9B04C001E000939F0607
:1011500003C000E000939F066DDE9BBF8FBF099127
:1011600019912991399149915991699179910990F0
:10117000199029903990E991F9918991999118954F
:101180009A938A93FA93EA933A922A921A920A923B
:101190007A936A935A934A933A932A931A930A93A7
:1011A0008FB79BB70091A706002351F00E9B04C098
:1011B00001E00093A00603C000E00093A0063ADE21
:1011C0009BBF8FBF099119912991399149915991EB
:1011D000699179910990199029903990E991F99143
:1011E0008991999118959A938A93FA93EA933A92EE
:1011F0002A921A920A927A936A935A934A933A934A
:101200002A931A930A938FB79BB700E000E00093EC
:10121000A80600E086990395000F10E085991395C4
:10122000010F000F10E084991395010F1091A7068C
:101230001123D9F1013019F40E94610D33C002303D
:1012400019F40E94EC0C2EC0033019F40E94440CD7
:1012500029C0043019F40E944E0D24C0053019F441
:101260000E94CA0C1FC0063071F40091B50600231D
:1012700021F401E00093B20603C003E00093B2063C
:101280000E949B0D0FC0073069F40091B506002342
:1012900021F402E00093B20603C004E00093B2061A
:1012A0000E949B0D01E00093A8069BBF8FBF099190
:1012B000199129913991499159916991799109909F
:1012C000199029903990E991F991899199911895FE
:1012D0009A938A93FA93EA933A922A921A920A92EA
:1012E0007A936A935A934A933A932A931A930A9356
:1012F0008FB79BB705E002BF0091AB060395009343
:10130000AB060091A706002309F4A1C00091B20624
:101310000023B9F00091B3061091B406013727E11C
:10132000120730F000E00093B20600E00093B5062B
:10133000E3EBF6E0008111810F5F1F4F0083118303
:1013400086C00091CF061091D006083C20E012071D
:1013500009F040C020E00BC030E0F901E154F94F42
:10136000008130E0F901E554F94F008323952031E5
:1013700070F52630A8F40091AE0610E046E050E08B
:101380000E947D12E3E0F6E0E00FF11F30E0E20F93
:10139000F31F008130E0F901E554F94F0083E6CFF7
:1013A0002C30D0F6EDE2F6E030E0E20FF31F0091D2
:1013B000E50510E046E050E00E947D12E00FF11FCD
:1013C000008130E0F901E554F94F0083CFCF0E944E
:1013D000890035C00091CF061091D006003223E07D
:1013E000120769F500919F060093A1060091A006DF
:1013F0000093A2060F9B04C001E000939F0603C068
:1014000000E000939F060E9B04C001E00093A0063D
:1014100003C000E00093A0060091A10610919F0672
:10142000011731F40091A2061091A006011709F0EE
:1014300001DD00E00093CF0600E00093D006EFEC62
:10144000F6E0008111810F5F1F4F008311839BBF66
:101450008FBF0991199129913991499159916991B8
:1014600079910990199029903990E991F991899190
:10147000999118959A938A93FA93EA933A922A92B9
:101480001A920A927A936A935A934A933A932A93B6
:101490001A930A938FB79BB700E002EF1CEF1DBDB4
:1014A0000CBD0091BA06002309F483C00091BA066E
:1014B0000F3128F40091BA0603950093BA06009103
:1014C000BA060A3019F40E944D061CC00091BA06F3
:1014D0000E31C1F40EEC0093E9050091E6050E947F
:1014E000860C02E310E093DC0091E6050E94870C75
:1014F0000091E6050E941F0301E00093A70601E0AA
:1015000000939E060091A706002309F452C0839918
:101510003AC00091A806013051F4E091A506F0917F
:10152000A606369720F002E00093A80620C000919E
:10153000A8060230E1F4E091A506F091A6063797DF
:10154000B0F000E086990395000F10E0859913959F
:10155000010F000F10E084991395010F023019F468
:101560000E94EC0C04C0053011F40E94CA0C00E08B
:1015700000938506E5EAF6E0008111810F5F1F4FB9
:101580000083118316C000E00093A80600E00093DA
:10159000A50600E00093A60600918506002349F405
:1015A00001E00093850600E00093A90600E00093A7
:1015B000AA06ECEAF6E0008111810F5F1F4F00835D
:1015C00011839BBF8FBF099119912991399149913D
:1015D0005991699179910990199029903990E991DF
:1015E000F991899199911895B59B04C001E00093F8
:1015F000DB0503C000E00093DB050091DC05002360
:1016000011F401E001C000E0EBEDF5E01081117094
:101610001023112339F001E00093DC0502EE14E001
:101620000E940A120091DB05002311F401E001C0C1
:1016300000E0ECEDF5E0108111700123002339F09A
:1016400000E00093DC0502E015E00E940A120F9B07
:1016500004C001E00093DF0503C000E00093DF0554
:101660000091E005002311F401E001C000E0EFED7E
:10167000F5E0108111701023112339F001E000937F
:10168000E00504E215E00E940A120091DF05002344
:1016900011F401E001C000E0E0EEF5E0108111700E
:1016A0000123002339F000E00093E00502E415E097
:1016B0000E940A12B39B04C001E00093DD0503C041
:1016C00000E00093DD050091DE05002311F401E048
:1016D00001C000E0EDEDF5E0108111701023112341
:1016E00039F001E00093DE0500E615E00E940A12E1
:1016F0000091DD05002311F401E001C000E0EEEDF2
:10170000F5E0108111700123002339F000E000930F
:10171000DE050DE715E00E940A121A9B04C001E0E5
:101720000093950603C000E000939506009196068D
:10173000002311F401E001C000E0E5E9F6E01081CA
:1017400011701023112339F001E00093960609E986
:1017500015E00E940A1200919506002311F401E0A1
:1017600001C000E0E6E9F6E01081117001230023DA
:1017700039F000E0009396060BEB15E00E940A1288
:1017800008959A938A93A997789400E011EE20E047
:1017900030E00E94C8110BE714E00E940A120FE823
:1017A00014E00E940A120E941D050BEA14E00E9438
:1017B0000A1280E090E005C004EC14E00E940A12D6
:1017C0000196893200E09007DCF4082F0E94131282
:1017D00004EC14E00E940A12182F00E20E9451004B
:1017E0000E943F128C010F5F1F4F48E050E00E94A3
:1017F0009812452B09F706EC14E00E940A12E0CF7C
:1018000009EC14E00E940A1280E090E006C0FE019C
:10181000E80FF91F00E000830196893200E090078D
:10182000B4F349E250E09E0101E20E94B00480E07E
:1018300090E005C004EC14E00E940A12019689327F
:1018400000E09007DCF4082F0E94131204EC14E06F
:101850000E940A12FE01E80FF91F00810E943F1248
:101860008C010F5F1F4F48E050E00E949812452BFB
:1018700009F706EC14E00E940A12E0CF0DED14E027
:101880000E940A12B1DEFECF0091B206002331F5AC
:101890000091E805002321F401E00093E80503C06E
:1018A00000E00093E8050091E805002311F411E041
:1018B00001C010E00091E9050E7C010F0093E905DD
:1018C0001091E80500E90E94AB031091E80502E9D8
:1018D0000E94AB030091E6050E941F03089508953E
:1018E0008A9380E00FC02091E605182F1A5E00E968
:1018F0000E948F032091E605182F1A5E02E90E94CC
:101900008F038395883078F3899108950895089519
:101910000091B2060023C1F41091E6050091E6059E
:10192000053C30F40091E6050D5F0093E60503C029
:101930000FEF0093E6050091E605101729F0D0DFC0
:101940000091E6050E941F0308950091B20600234E
:1019500001F51091E6050091E6050F3F21F407EC33
:101960000093E6050DC00091E605033030F00091CC
:10197000E60503500093E60503C000E00093E6058A
:101980000091E605101729F0ABDF0091E6050E94F3
:101990001F0308950091B2060023E9F40091E805C1
:1019A000002309F471DF1091E6050091E605073C7C
:1019B00030F40091E60503950093E60503C00FEFB0
:1019C0000093E6050091E605101729F089DF0091E4
:1019D000E6050E941F0308950091B206002309F551
:1019E0000091E805002309F44FDF1091E60500910E
:1019F000E6050F3F21F407EC0093E60509C00091CE
:101A0000E605002329F00091E6050A950093E60516
:101A10000091E605101729F063DF0091E6050E94AA
:101A20001F0308950091E805002341F011E000E94B
:101A30000E94AB0311E002E90E94AB030091AE06E5
:101A4000073011F401E001C000E01091E705011733
:101A500049F00093E705E7EEF5E0008100FD1B9AF1
:101A600000FF1B9800910206077C0093020600917C
:101A7000AE06000F000F000F10910206100F10931A
:101A800002060091E805002341F010E000E90E9401
:101A9000AB0310E002E90E94AB0308950091B20687
:101AA000002371F40091AE06073030F40091AE06C9
:101AB00003950093AE0603C000E00093AE06B2DFCC
:101AC00008950091B206002371F40091AE06002340
:101AD00031F00091AE060A950093AE0603C007E010
:101AE0000093AE069FDF08958A9300E00093E3051C
:101AF00000E008BF0091B106033019F400E0009344
:101B0000B1068091B10605E010E00E940707882326
:101B1000882321F008EC10E00E94070701E0009301
:101B2000E305E9EAF6E000E0008300E0018308E075
:101B300008BF899108950091B206013021F000910B
:101B4000B206023021F401E00093B50638C00091DE
:101B5000B206033069F40091E105002321F401E0AD
:101B60000093E10503C000E00093E105B8DE27C063
:101B70000091B206043019F50091B1060395009367
:101B8000B1060091E805002341F011E000E90E9450
:101B9000AB0311E002E90E94AB03A6DFA1DE05E082
:101BA00010E00E9407070091E805002341F010E0D3
:101BB00000E90E94AB0310E002E90E94AB0320E0C1
:101BC0000BC030E0F901EB58F94F008130E0F9012A
:101BD000E554F94F00832395203130F52830A8F4DF
:101BE0000091B10610E048E050E00E947D12EDE562
:101BF000F6E0E00FF11F30E0E20FF31F008130E06C
:101C0000F901E554F94F0083E6CF0091E105002387
:101C1000C1F630E0F901E359F94F008130E0F901F4
:101C2000E554F94F0083D7CFE3EBF6E000E0008303
:101C300000E001830E9489000895FA93EA934A9391
:101C40003A932A931A930A933FB74BB707E304BD1D
:101C5000E3EDF6E0008111810F5F1F4F00831183D8
:101C60000091E2061091E306012B41F0E2EEF6E06E
:101C7000008111810F5F1F4F008311830091D306F4
:101C80001091D4060D3424E0120708F452C000E08D
:101C90000093D10600E00093D20600E00093D7063F
:101CA00000E00093D80600E00093D50600E0009322
:101CB000D60600E00093D90600E00093DA0600E0C3
:101CC0000093DB0600E00093DC0600E00093DD06F5
:101CD00000E00093E70600E00093EA0600E00093CE
:101CE000E60600E00093E80600E00093E90600E065
:101CF0000093EB0600E00093EC0600E00093E5069D
:101D000000E00093D30600E00093D40600E00093C7
:101D1000ED0601E00093E2050091E205002349F49D
:101D200001E00093E20500E00093A90600E00093C3
:101D3000AA064BBF3FBF0991199129913991499149
:101D4000E991F991189500E00093D10600E0009325
:101D5000D206E7EDF6E000E0008300E00183E5ED68
:101D6000F6E000E0008300E00183E9EDF6E000E04A
:101D7000008300E00183EBEDF6E000E0008300E08B
:101D8000018300E00093DD0600E00093E70600E039
:101D90000093EA0600E00093E60600E00093E80600
:101DA00000E00093E90600E00093EB0600E00093FA
:101DB000EC0600E00093E50600E00093ED060895D0
:101DC000BA93AA930091D206015041F00A95E1F02E
:101DD0000A9581F10A9509F443C057C0E5EDF6E094
:101DE00000811181000F111FE5EDF6E000831183E2
:101DF0000091E40610E0E5EDF6E020813181202B32
:101E0000312B2083318341C0E7EDF6E00081118161
:101E1000000F111FE7EDF6E0008311830091E40647
:101E200010E0E7EDF6E020813181202B312B20837B
:101E300031832BC0E9EDF6E000811181000F111F05
:101E4000E9EDF6E0008311830091E40610E0E9ED8E
:101E5000F6E020813181202B312B2083318315C086
:101E6000EBEDF6E000811181000F111FEBEDF6E0C4
:101E7000008311830091E40610E0EBEDF6E0208191
:101E80003181202B312B208331830091DD06039596
:101E90000093DD060091DD06083040F00091D20687
:101EA00003950093D20600E00093DD060091D20670
:101EB000053008F405C1E5EDF6E0008111810F70F1
:101EC000107000831183E7EDF6E0008111810F703F
:101ED000107000831183A5EDB6E0ED91FC9137976A
:101EE00009F0B1C0A7EDB6E0ED91FC913A9709F089
:101EF000AAC0EBEDF6E000811181E9EDF6E020816A
:101F000031814FEF242740E034270217130709F0EF
:101F100098C0E9EDF6E000810093860600919E06E8
:101F2000002309F48AC0E2EEF6E000811181095E27
:101F30001340033F21E01207A8F4E9EDF6E0008129
:101F40001181003820E0120719F40E94EC0C0AC03D
:101F5000E9EDF6E000811181083A20E0120711F462
:101F60000E94CA0CE2EEF6E001E010E0008311836B
:101F700000E00093E205E9EDF6E000811181003B0D
:101F800020E0120719F40E94440C57C0E9EDF6E076
:101F900000811181003820E0120719F40E94EC0C36
:101FA0004CC0E9EDF6E000811181083A20E012070B
:101FB00019F40E94CA0C41C0E9EDF6E000811181DC
:101FC000003920E0120719F40E944E0D36C0E9EDE9
:101FD000F6E000811181083820E0120719F40E9410
:101FE000610D2BC0E9EDF6E000811181003A20E09F
:101FF000120771F40091B506002321F401E000936B
:10200000B20603C003E00093B2060E949B0D15C008
:10201000E9EDF6E000811181083920E0120769F44A
:102020000091B506002321F402E00093B20603C03C
:1020300004E00093B2060E949B0D00E00093EE06C0
:1020400003C081DE01C07FDE00E00093D10600E026
:102050000093D206E7EDF6E000E0008300E00183A4
:10206000E5EDF6E000E0008300E00183E9EDF6E055
:1020700000E0008300E00183EBEDF6E000E0008388
:1020800000E0018300E00093DD0600E00093E70636
:1020900000E00093EA0600E00093E60600E000930B
:1020A000E80600E00093E90600E00093EB0600E09C
:1020B0000093EC0600E00093E50600E00093ED06D7
:1020C000A991B9910895BA93AA930091E7060023C4
:1020D000E9F10091EA060023C9F10091D10600233D
:1020E00009F0BDC001E00093D10601E00093D206E3
:1020F00000E00093DE0600E00093E106EFEDF6E07D
:1021000000E0008300E0018300E00093E70600E0C8
:102110000093EA0600E00093E60600E00093E8067C
:1021200000E00093E90600E00093EB0600E0009376
:10213000EC0600E00093E506EFEEF6E000E0008339
:1021400000E0018300E00093ED0689C00091D10614
:10215000002399F00091E606002379F00091E8064B
:10216000002359F000E00093E40600E00093E60647
:1021700000E00093E80624DE72C00091D10600233F
:1021800099F00091E606002379F00091E90600231A
:1021900059F001E00093E40600E00093E60600E059
:1021A0000093E9060DDE5BC00091D106002381F4A7
:1021B0000091EB06002361F001E00093E50600E0EA
:1021C0000093EB060091ED0603950093ED0647C0E2
:1021D0000091E506002309F442C00091EC060023BB
:1021E000F1F100919E060023D1F10091ED0601303E
:1021F00081F500E00093EC0600E00093E205EFEECD
:10220000F6E0008111810F5F1F4F00831183AFEE55
:10221000B6E0ED91FC91339770F00091860600389E
:1022200019F40E94A50C1BC000918606083AB9F467
:102230000E94880C14C000918606003819F40E9490
:10224000EC0C0DC000918606083A49F40E94CA0CB5
:1022500006C000E00093ED0600E000938606A99119
:10226000B99108959A938A93FA93EA933A922A92AB
:102270001A920A927A936A935A934A933A932A93B8
:102280001A930A938FB79BB70D9B1AC0E091D306A0
:10229000F091D4063497359720F401E00093E606D8
:1022A00051C0E091D306F091D406F797BE9720F481
:1022B00001E00093E70646C001E00093F10642C04A
:1022C0000D9940C0E091D306F091D406349735972C
:1022D00020F401E00093E80635C0E091D306F091C8
:1022E000D40639973E9720F401E00093E9062AC00E
:1022F000E091D306F091D406B897709720F401E0EE
:102300000093EA061FC00091D3061091D406085C22
:102310001040093C20E0120720F401E00093EB0696
:1023200011C00091D3061091D40600521340093C0D
:1023300020E0120720F401E00093EC0603C001E066
:102340000093F10600E00093D30600E00093D4066A
:102350000091F106002341F000E00093F10600E057
:102360000093EC06F0DC01C0AEDE9BBF8FBF09918D
:1023700019912991399149915991699179910990CE
:10238000199029903990E991F9918991999118952D
:102390000E943314C801D90140EB54E060E070E0C2
:1023A0008C019D010E94B712452B462B472B19F03B
:1023B0000FEF1FEF26C0119A199A1098189A00E093
:1023C00014E224EF30E0AC01BD010E94B7120E947C
:1023D0001B1340E050E060E871E40E945F130E942C
:1023E000D113015010409801232F2093900009B978
:1023F00000E00BB908E90AB906E00093950000E097
:1024000010E0E4E00C9438145D9BFECF0CB900E0C2
:1024100010E00895F80102C010E0F6DF0081319667
:102420000023D1F708953B2F6A2F102FA7E8B6E0BD
:1024300044E6012F0E947012005D0C9344E6012FC8
:102440000E947012202F04E6209F10194AE0012FED
:102450000E947012005D11960C9311974AE0012FB3
:102460000E947012202F0AE0209F1019105D129612
:102470001C9312978D01CEDFA62FB32F0895EBE8A2
:10248000F6E0102F12951F70105D1283102F129519
:102490001F701A3018F01281195F1283102F1F70ED
:1024A000105D13830F700A3018F00381095F0383F6
:1024B0008F01B0DF089500008895FECF0FE50DBFB6
:1024C00001E00EBFC0E4D1E00E944114002311F0EE
:1024D0000E9453140E94C10B0E945B120C945B1269
:1024E0000024E8E0001FEA952AF0001C0416D0F34F
:1024F000041AF8CF402D00950895149F102D059FC4
:10250000100D049F002D110D089500241124E0E109
:10251000001F111FEA9542F0001C111C041615063D
:10252000B8F3041A150AF4CFA00100951095089588
:10253000FF27552312F4F1600FD0112312F4F09508
:1025400007D00E948512F0FD03D0F1FD05C008956B
:102550001195019510400895519541955040089569
:1025600036952795179507954A95D2F70895002433
:1025700011241001E0E2001F111F221F331FEA95F2
:1025800072F0001C111C221C331C041615062606B2
:10259000370688F3041A150A260A370AECCFA00179
:1025A000B1010095109520953095089530952095AE
:1025B000109501951F4F2F4F3F4F0895FF27172E5E
:1025C000660F771F089409F4771F6795EE27032E8F
:1025D000220F331F089409F4331F279508952223EF
:1025E00042F0323030F03A95EE0F001F111F221FDB
:1025F000C2F7E03821F400FF08940EF488940F4FDE
:102600001F4F2F4F3F4F323038F4332319F427FD3B
:1026100031E002C027FF30E03F3F29F0220F000CDD
:1026200037952795089534C0E02F012F122F232FBF
:102630003EE9E894D4CF0024F7CFF901EE0FFF1F55
:1026400037FBFF3F31F0EF2BE12BE02B8894B89460
:102650000895EE2321F008949894B89408959894DE
:10266000889438940895FB01EE0FFF1F77FBFF3F1E
:1026700031F0EF2BE52BE42B8894B8940895EE23EA
:1026800071F3E9CF302D30782227112700270895E4
:102690003FE7302920E8F9CF3FEF2FEFF6CFE3DF18
:1026A00020F01BF0707837270895F6CFDCDFE9F3D0
:1026B000E0F3032E0726E6CF032E0726E9CFBDDF82
:1026C000A0F36BF399F3CFDF80F39BF3A9F376DFED
:1026D000012427FD06C03150E040000F111F221FCA
:1026E000D2F767FD06C07150F040440F551F661FBA
:1026F000D2F7E894371BEF0B3158EF4F2AF0EE2357
:10270000E9F63F3FD9F203C0393EA8F26894E0E011
:10271000F0E040175107620738F0315008F4689430
:10272000000F111F221FEE1F71E01124222409C087
:10273000000F111F221FEE1F041715072607EF07B2
:1027400020F0041B150B260BEF0B771F111C221C0E
:1027500078F7000F111F221FEE1F04171507260719
:10276000EF073E2EF0F9E894E0E839F008F4E0E0F5
:10277000322A312A302A09F06894709510942094F6
:10278000332311F0F0FF09C0269417947795E7954D
:1027900008F4689433953130BCF3072F112D222DA6
:1027A00028CF14DF3F5748F03F3168F007FC6ACF6D
:1027B0003FE72FEF1FEF0FEF089530E020E0890192
:1027C00010E000E00895432F322F212F102F0E2FFD
:1027D0004F5141950E94B41207FE08950C94D612F1
:1027E0004791179011FA279037900895F9DF041B4D
:1027F00010E000C020E030E000C0B8F010FC17C0CE
:1028000047910790E00FF11F0417100540E02407DF
:10281000340758F436F406910024F101E01BF00966
:102820000994E00FF11F27903790F101099411F4FA
:10283000D6F7F1CF31960EF0319650E060E070E0BF
:1028400047914B3F48F089F34F3F29F04E3F11F03D
:102850007791679157914791041B150B260B370B06
:1028600039F318F3E7CFBA93AA939A938A9308950A
:10287000BB81AA8199818881F0E0EC0FFD1FEF01F7
:10288000089501E0089520E02D9301501040E1F7F4
:1028900008953BBF26912D93EF5FFF4F3F4F0150AF
:1028A0001040B9F708954CEF58E260E0FA01362F76
:1028B0003BBF07911691FA01EE5FFF4F3F4F3BBFC1
:1028C000A791B691FA01362FEC5FFF4F3F4F3BBF08
:1028D000079017902690202D2129222921F0F00120
:1028E000322DD7DF01C0CFDF495F5F4F6F4F19E255
:1028F00020E04A3051076207C8F2089530056001B0
:102900000A290062009006000000506F727420696E
:102910006E69742E0D0A0049324320696E6974692C
:10292000616C697A652E2E0D0A0054696D657220FE
:1029300073657474696E672E0D0A00496E74657252
:10294000727570742073657474696E672E0D0A0059
:102950005B4932435D20414B34313138412053656E
:1029600061726368696E672E2E2E0D0A005B493214
:10297000435D20414B343131384120466F756E64E0
:102980002E0D0A005B4932435D20414B3431313812
:1029900041206E6F7420666F756E642E0D0A005BA9
:1029A0004932435D2045533930333850524F20531C
:1029B0006F667420526573657420636F6D706C650B
:1029C00074652E0D0A005B4932435D204553393052
:1029D000333820553232204C656674204D7574654D
:1029E0002E0D0A005B4932435D20455339303338A0
:1029F00020553232204C656674204D757465204F29
:102A00004B2E0D0A005B4932435D2045533930336C
:102A10003820553232204C656674204D757465201F
:102A20004E472E0D0A005B4932435D204553393035
:102A3000333820553532205269676874204D7574DB
:102A4000652E0D0A005B4932435D20455339303312
:102A50003820553532205269676874204D75746589
:102A6000204F4B2E0D0A005B4932435D2045533900
:102A700030333820553532205269676874204D75DF
:102A80007465204E472E0D0A005B4932435D204598
:102A9000533930333850524F20536561726368693F
:102AA0006E672E2E2E0D0A005B4932435D20455382
:102AB0003930333850524F207832206E6F74206690
:102AC0006F756E642E0D0A005B4932435D204553DD
:102AD0003930333850524F20783220666F756E642B
:102AE0002E0D0A005B4932435D204553393033389F
:102AF00050524F206F6C6E79206C65667420666F43
:102B0000756E642E0D0A005B4932435D20455339D2
:102B100030333850524F206F6C6E7920726967687D
:102B20007420666F756E642E0D0A005B4932435D3A
:102B30002045533930333850524F204175746F203F
:102B400053656C6563742066756E6374696F6E207F
:102B50004453442F49325320636F6D706C65746524
:102B60002E0D0A005B4932435D204553393033381E
:102B700050524F204368616E6E656C206D617070BD
:102B8000696E6720636F6D706C6574652E0D0A0049
:102B90005B4932435D2043533834313620496E70EF
:102BA00075743720746F20474E442E0D0A005B4920
:102BB00032435D20455339303338204D75746520DC
:102BC0004F66662E0D0A005B5350495D20444F54FA
:102BD000204D617472697820436C6561722E0D0A14
:102BE000005B4932435D20526561642053616D7022
:102BF0006C696E6720726174652E0D0A005B493244
:102C0000435D20436F6D706C65746520726561640F
:102C1000696E672053616D706C696E6720726174B4
:102C2000652E0D0A000D0A53797374656D20737457
:102C300061727465642E0D0A0053797374656D209A
:102C4000696E697469616C697A696E672E2E2E2EC1
:102C50002E2E0D0A0053797374656D20696E6974A8
:102C600020436F6D706C657465642E0D0A00200042
:102C70000D0A000D0A414B3431313841205245478D
:102C800020414C4C0D0A000D0A0D0A005B534139DE
:102C90003132375D2055534220417564696F2041C0
:102CA00063746976617465642E0D0A005B53413963
:102CB0003132375D2055534220417564696F20449D
:102CC000656163746976617465642E0D0A005B53F7
:102CD00041393132375D20445344206D6F646520A3
:102CE00064657465637465642E0D0A005B53413935
:102CF0003132375D2050434D206D6F64652064652F
:102D00007465637465642E0D0A005B53413931327A
:102D1000375D204453442031323820646574656344
:102D20007465642E0D0A005B5341393132375D20E2
:102D30004453442036342064657465637465642E9E
:102D40000D0A005B5341393132375D205553422023
:102D5000697320696E206E6F726D616C206D6F6497
:102D6000652E0D0A005B5341393132375D205553D2
:102D70004220697320696E2073757370656E646597
:102D8000642E0D0A0001010101010101010101068A
:102D9000FF0101CECE083709A009090AD1113A1264
:102DA0007413DD13D7233F241D27862780434F410B
:102DB000583120434F415832202041455331202083
:102DC000414553322020424E432020204F50543161
:102DD00020204F505432202055534220202034349C
:102DE0002E31202034382E30202038382E3220202A
:102DF00039362E30203137362E34203139322E30CC
:102E00002020202020202046494C54455231204685
:102E1000494C544552322046494C544552332020A7
:102E2000494E564552534520204E4F524D414C017C
:0A2E300030303030003078303000D0
:0024BC011F
:00000001FF
