:100000000C94740A0C94CC061895189518951895AC
:10001000189518950C9424070C94C7040C94740636
:100020000C945106189518950C94D30218951895B0
:1000300018951895189518950C948D09189518957C
:100040000C940809189518951895189518951895F1
:100050001895189518951895189518951895189538
:100060001895189518951895189518951895189528
:100070001895189518951895189518951895189518
:100080001895189518951895189518950000F90762
:100090000F008E0794079A07A207AA07B007B607B2
:1000A000BC07C207CA07D207DA07E207EA07F20766
:1000B000000098080F002D08330839084108490846
:1000C0004F0855085B0861086908710879088108BC
:1000D00089089108015069F00A9589F00A95A9F0FC
:1000E0000A95C9F00A95E9F00A9509F10A9531F1E6
:1000F000089510938201009182010BBB0895109323
:1001000083010091830108BB08951093840100913D
:10011000840105BB0895109385010091850102BB00
:100120000895109386010091860103B908951093F4
:100130008701009187010093620008951093880160
:1001400000918801009365000895015069F00A95B7
:1001500069F00A9569F00A9569F00A9569F00A95BF
:1001600069F00A9571F008951ABB089517BB0895B8
:1001700014BB089511BB089512B90895109361003E
:100180000895109364000895C09A0DE50DB900E03C
:100190000EB90895C0980FB9779BFECF0FB9779B22
:1001A000FECFC09AC198C29808950E94EC0A80912F
:1001B000750100917501053028F4C39800E0EADF6D
:1001C000C39801C0C39A893740F4082F46E00E94C3
:1001D000860A15E0019F801915C08D3948F4082F53
:1001E00044E00E94860A13E0019F80198A500AC0E9
:1001F0008F3A38F4082F42E00E94860A801B815310
:1002000001C08858082F4AE00E94860A0093030123
:10021000082F4AE00E94860A4093040180E02BC028
:10022000A5E0B1E04091030150E005E010E00E943C
:10023000940AA00FB11F90E0A80FB91F0C91E7E539
:10024000F1E090E0E80FF91F048BA5E0B1E04091E8
:10025000040150E005E010E00E94940AA00FB11FD5
:1002600090E0A80FB91F0C91E7E5F1E090E0E80FEE
:10027000F91F018F8395853098F2E4E00C94F30A1E
:1002800000917501043E60F5CF9904C00091000112
:10029000043031F100917501073730F4E5E7F1E002
:1002A00000810A5F008319C0009175010B3930F499
:1002B000E5E7F1E000810C5F00830FC0009175015C
:1002C0000D3A30F4E5E7F1E000810E5F008305C0F0
:1002D000E5E7F1E0008103950083009175015ADFA5
:1002E00000910001013029F40091750100937E0115
:1002F0001AC000910001023029F4009175010093A9
:100300007F0111C000910001033029F400917501B3
:100310000093800108C000910001043021F4009195
:10032000750100938101CF9904C000910001043050
:1003300009F03BDF089500917501053030F100911F
:100340007501093730F4E5E7F1E0008106500083DC
:1003500019C0009175010D3930F4E5E7F1E0008135
:10036000045000830FC0009175010F3A30F4E5E7A7
:10037000F1E000810250008305C0E5E7F1E0008173
:100380000A9500830091750105DF0091000101309D
:1003900029F40091750100937E011AC000910001BB
:1003A000023029F40091750100937F0111C0009182
:1003B0000001033029F4009175010093800108C009
:1003C00000910001043021F4009175010093810136
:1003D000ECDE08950E94EA0A00910001043008F062
:1003E00042C0A0E080E00CC0B0E0FD01EA5BFE4F3F
:1003F000008190E0FC01E95AFE4F0083A3958395AC
:10040000853090F380E00DC0B0E0FD01EA5BFE4F67
:100410000081E7E5F1E090E0E80FF91F0583A3957F
:100420008395853088F3A0E080E0853008F04EC0E9
:1004300005E0402E01E0502E4091000150E005E023
:1004400010E00E94940A400E511EB0E04A0E5B1E5E
:10045000F2010081E7E5F1E090E0E80FF91F028783
:10046000A3958395E2CFA0E080E00CC0B0E0FD0151
:10047000E95CFE4F008190E0FC01E95AFE4F0083E9
:10048000A3958395853090F380E00DC0B0E0FD0129
:10049000E95CFE4F0081E7E5F1E090E0E80FF91F2D
:1004A0000583A3958395853088F380E00DC0B0E087
:1004B000FD01E95CFE4F0081E7E5F1E090E0E80F27
:1004C000F91F0287A3958395853088F3E6E00C94A5
:1004D000F10AE0E0F1E00081039500830091000162
:1004E000053018F001E00093000174DF0091000175
:1004F000013029F400917E01009375011AC000912A
:100500000001023029F400917F010093750111C0B0
:1005100000910001033029F40091800100937501DE
:1005200008C000910001043021F400918101009382
:100530007501009175012EDE38DE0895E0E0F1E0EE
:1005400000810A95008300910001002319F404E062
:10055000009300013FDF00910001013029F4009178
:100560007E01009375011AC000910001023029F448
:1005700000917F010093750111C0009100010330CB
:1005800029F4009180010093750108C000910001D9
:10059000043021F4009181010093750100917501EF
:1005A000F9DD03DE0895FA93EA933A932A931A93B6
:1005B0000A933FB707E304BDEBE8F1E00081118146
:1005C0000F5F1F4F00831183EBE8F1E00081118181
:1005D000003B24E01207C9F500E00093890100E028
:1005E00000938A0100E010E0EFE8F1E0008311835E
:1005F00000E010E0EDE8F1E00083118300E010E09E
:10060000E1E9F1E00083118300E010E0E3E9F1E0CB
:100610000083118300E00093950100E000939D01A9
:1006200000E00093A00100E000939C0100E0009333
:100630009E0100E000939F0100E00093A10100E013
:100640000093A20100E000939B013FBF0991199123
:1006500029913991E991F991189500918A010150F8
:1006600041F00A95E1F00A9581F10A9509F443C039
:1006700057C0EDE8F1E000811181000F111FEDE896
:10068000F1E00083118300919A0110E0EDE8F1E0C0
:1006900020813181202B312B2083318341C0EFE831
:1006A000F1E000811181000F111FEFE8F1E00083FC
:1006B000118300919A0110E0EFE8F1E0208131818F
:1006C000202B312B208331832BC0E1E9F1E0008125
:1006D0001181000F111FE1E9F1E000831183009106
:1006E0009A0110E0E1E9F1E020813181202B312BEA
:1006F0002083318315C0E3E9F1E000811181000F0F
:10070000111FE3E9F1E00083118300919A0110E0E9
:10071000E3E9F1E020813181202B312B20833183EB
:10072000E5E9F1E00081039500830091950108302F
:1007300040F0EAE8F1E000810395008300E00093D7
:10074000950100918A01053008F493C0EDE8F1E0CD
:1007500000811181073D20E0120709F051C0EFE848
:10076000F1E0008111810A3720E0120709F048C04A
:10077000E3E9F1E020813181E1E9F1E0408151815B
:100780000FEF10E00427152720173107C9F5E1E91D
:10079000F1E000810093500100917901002381F57F
:1007A000E1E9F1E000811181003220E0120711F44B
:1007B00067DD26C0E1E9F1E000811181003120E030
:1007C000120711F4B8DD1CC0E1E9F1E000811181EC
:1007D000012BB1F400917801002391F00091020106
:1007E000002371F0C498C598C698C79872DE00E0DF
:1007F0000093020100E00093770101E000935101B2
:1008000000E00093890100E000938A0100E010E01D
:10081000EFE8F1E00083118300E010E0EDE8F1E0A3
:100820000083118300E010E0E1E9F1E0008311832F
:1008300000E010E0E3E9F1E00083118300E00093C1
:10084000950100E000939D0100E00093A00100E00D
:1008500000939C0100E000939E0100E000939F0143
:1008600000E00093A10100E00093A20100E00093EA
:100870009B01089500919D01002389F10091A00141
:10088000002369F100918901002309F07FC001E094
:100890000093890101E000938A0100E00093960132
:1008A00000E00093990100E010E0E7E9F1E0008347
:1008B000118300E000939D0100E00093A00100E09F
:1008C00000939C0100E000939E0100E000939F01D3
:1008D00000E00093A10100E00093A20108950091BF
:1008E0008901002399F000919C01002379F0009187
:1008F0009E01002359F000E000939A0100E000936C
:100900009C0100E000939E01A8DE089500918901FA
:10091000002399F000919C01002379F000919F0140
:10092000002359F001E000939A0100E000939C013C
:1009300000E000939F0191DE08950091890100235A
:1009400059F40091A101002339F001E000939B01CB
:1009500000E00093A101089500919B010023B1F0F4
:100960000091A201002391F000917901002371F41C
:1009700000E00093A20100915001003211F480DCEC
:10098000089500915001003109F4D5DC0895BA931F
:10099000AA939A938A93FA93EA933A922A921A9292
:1009A0000A927A936A935A934A933A932A931A93A0
:1009B0000A938FB79BB700917D01002341F10D9BF6
:1009C00026C0ABE8B1E0ED91FC91349750F0ABE874
:1009D000B1E0ED91FC91389720F401E000939C0187
:1009E00074C0EBE8F1E000811181053520E01207C9
:1009F00008F46BC0EBE8F1E000811181003620E0E3
:100A0000120708F062C001E000939D015EC00091F2
:100A10007D01002309F459C00D9957C0ABE8B1E03E
:100A2000ED91FC91349750F0ABE8B1E0ED91FC9181
:100A3000389720F401E000939E0147C0ABE8B1E095
:100A4000ED91FC913F9750F0ABE8B1E0ED91FC9156
:100A5000759720F401E000939F0137C0ABE8B1E047
:100A6000ED91FC91B89750F0ABE8B1E0ED91FC91BD
:100A7000BE9720F401E00093A00127C0EBE8F1E06D
:100A8000008111810C3221E0120760F0EBE8F1E007
:100A900000811181013921E0120720F401E0009367
:100AA000A10113C0EBE8F1E000811181043823E0DB
:100AB000120758F0EBE8F1E0008111810D3424E0D9
:100AC000120718F401E00093A20100E010E0EBE847
:100AD000F1E000831183CEDE9BBF8FBF0991199196
:100AE0002991399149915991699179910990199078
:100AF00029903990E991F99189919991A991B991A8
:100B000018950E94EA0A1FE701E01FDB1FEF02E0D1
:100B10001CDB1FEF03E019DB10EF04E016DB1FE026
:100B200005E013DB1FEF06E010DB1FEF07E00DDB36
:100B300010E801E0CFDA17E002E0CCDA10E003E0E1
:100B4000C9DA1FE004E0C6DA10EF05E0C3DA10EFFF
:100B500006E0C0DA10E007E0BDDA03E003BF05E01D
:100B60000EBD02E005BD07E304BD05E002BF04EED3
:100B700019EF1DBD0CBD00E001BF05E407BF05E492
:100B800006BF02DB80E016C090E007E5402E01E0E2
:100B9000502E482F50E005E010E00E94940A400ECD
:100BA000511EB0E04A0E5B1EF2019083A395A53062
:100BB00058F38395863010F4A0E0F9CFA0E080E0F0
:100BC0000CC0B0E0FD01EA5BFE4F008190E0FC014B
:100BD000E95AFE4F0083A3958395853090F380E01A
:100BE0000DC0B0E0FD01EA5BFE4F0081E7E5F1E0FA
:100BF00090E0E80FF91F0583A3958395853088F36E
:100C0000A0E080E01AC005E0402E01E0502E4091A7
:100C1000000150E005E010E00E94940A400E511ED1
:100C2000B0E04A0E5B1EF2010081E7E5F1E090E0E2
:100C3000E80FF91F0287A3958395853020F380E0A4
:100C400017C090E0FC01EB5FFE4F0081E7E5F1E0AB
:100C500090E0E80FF91F048B90E0FC01EB5FFE4F82
:100C60000081E7E5F1E090E0E80FF91F018F83953F
:100C7000853038F37894E6E00C94F10A01EF09BF6F
:100C800002E000936A0005E60ABF01E708BF809B07
:100C900004C000E000936A00089501E000936A0038
:100CA0000895FA93EA932A931A930A932FB700911F
:100CB0007D01002391F001E000937A0100E010E053
:100CC000E3EAF1E0008311830F9B04C000E000938E
:100CD000790103C001E0009379012FBF09911991B7
:100CE0002991E991F99118959A938A93FA93EA9345
:100CF0003A922A921A920A927A936A935A934A9350
:100D00003A932A931A930A938FB79BB700917D0168
:100D1000002379F100917901002359F5C29800E090
:100D2000009375010091750135DA009100010130E1
:100D300029F40091750100937E011AC00091000111
:100D4000023029F40091750100937F0111C00091D8
:100D50000001033029F4009175010093800108C05F
:100D600000910001043021F400917501009381018C
:100D70001CDA9BBF8FBF0991199129913991499133
:100D80005991699179910990199029903990E99137
:100D9000F9918991999118959A938A93FA93EA9384
:100DA0003A922A921A920A927A936A935A934A939F
:100DB0003A932A931A930A938FB79BB700917D01B8
:100DC000002331F100917901002311F500917801A0
:100DD0000023F1F0009102010023D1F0C498C598DE
:100DE000C698C79800E0D6D900E08099039510E036
:100DF00082991395011711F06CDB01C09FDB00E0B5
:100E00000093020100E00093770101E0009351019B
:100E1000809B04C000E000936A0003C001E00093DF
:100E20006A009BBF8FBF099119912991399149910E
:100E30005991699179910990199029903990E99186
:100E4000F9918991999118959A938A93FA93EA93D3
:100E50003A922A921A920A927A936A935A934A93EE
:100E60003A932A931A930A938FB79BB700917D0107
:100E7000002379F000917901002359F400E00C99E6
:100E8000039510E083991395011711F0F9D901C06A
:100E900052DA9BBF8FBF09911991299139914991DC
:100EA0005991699179910990199029903990E99116
:100EB000F9918991999118958A93822F202F20FD7D
:100EC000D89A20FFD8980695202F20FDD99A20FF88
:100ED000D9980695202F20FDDA9A20FFDA980695FA
:100EE000202F20FDDB9A20FFDB980695202F20FD88
:100EF000DC9A20FFDC980695202F20FDDD9A20FF4C
:100F0000DD980695202F20FDDE9A20FFDE98012F28
:100F1000ECE8F0E0FBBFF0E00C94A50A082F00FD20
:100F20001A9A00FF1A9865C0082F00FD1B9A00FF4F
:100F30001B985FC0082F00FB0091650003F9009328
:100F4000650057C0082F00FB0091650004F900936D
:100F500065004FC0082F00FD949A00FF949849C087
:100F6000082F00FD959A00FF959843C0082F00FDBB
:100F7000969A00FF96983DC0082F00FD979A00FFB3
:100F8000979837C0082F00FB0091650000F9009387
:100F900065002FC0082F00FB0091650001F9009348
:100FA000650027C0082F00FB0091650002F900933F
:100FB00065001FC0082F00FB0091620003F9009339
:100FC000620017C0082F00FB0091620002F9009335
:100FD00062000FC0082F00FB0091620001F900932E
:100FE000620007C0082F00FB0091620000F9009327
:100FF0006200899108958A93822F202F20FDA89A5C
:1010000020FFA8980695202F20FDA99A20FFA998D7
:101010000695202F20FDAA9A20FFAA980695202F3A
:1010200020FDAB9A20FFAB980695202F20FDAC9AAF
:1010300020FFAC980695202F20FDAD9A20FFAD989B
:101040000695202F20FDAE9A20FFAE98012FE0EBF1
:10105000F0E0FBBFF0E00C94A50A082F00FD1A9AFF
:1010600000FF1A9865C0082F00FD1B9A00FF1B980F
:101070005FC0082F00FB0091650003F90093650035
:1010800057C0082F00FB0091650004F9009365002C
:101090004FC0082F00FD949A00FF949849C0082F74
:1010A00000FD959A00FF959843C0082F00FD969A81
:1010B00000FF96983DC0082F00FD979A00FF979873
:1010C00037C0082F00FB0091650000F90093650010
:1010D0002FC0082F00FB0091650001F90093650007
:1010E00027C0082F00FB0091650002F900936500FE
:1010F0001FC0082F00FB0091620003F900936200FB
:1011000017C0082F00FB0091620002F900936200F3
:101110000FC0082F00FB0091620001F900936200EC
:1011200007C0082F00FB0091620000F900936200E5
:10113000899108950E94EC0A0091520142E00E94B8
:10114000860A4423A9F121E010915601812F922FA4
:10115000A7E5B1E04091540150E005E010E00E94A5
:10116000940AA00FB11F0091550110E0A00FB11F0C
:101170000C91292F182FA0DE21E010915601812F0C
:10118000922FA7E5B1E04091540150E04D5F5F4FD1
:1011900005E010E00E94940AA00FB11F00915501D4
:1011A00010E0A00FB11F0C91292F182F24DF14C0BD
:1011B00020E01091560100E07FDE20E01091560102
:1011C00000E019DFE5E5F1E0008103950083E6E545
:1011D000F1E000810395008300915501053040F056
:1011E000E4E5F1E000810395008300E00093550100
:1011F000009152010E3149F400E00093520100E0E9
:101200000093540100E000935601E4E00C94F30ACB
:101210009A938A93FA93EA933A922A921A920A92AA
:101220007A936A935A934A933A932A931A930A9316
:101230008FB79BB705E002BFE2E5F1E000810395BF
:10124000008378DFE3EAF1E0008111810F5F1F4F37
:1012500000831183EBE7F1E000811181003D27E07D
:10126000120740F4EBE7F1E0008111810F5F1F4F9F
:101270000083118300917A01002329F10091790103
:10128000002331F000E00E94CA000E94D50018C07F
:10129000009179010023A1F4E3EAF1E000811181DA
:1012A000003A2FE0120760F0009175010E94CA0019
:1012B0000E94D50000E010E0E3EAF1E00083118332
:1012C00000E000937A01CF9915C00091000104302D
:1012D00089F400917501002369F000E00093750125
:1012E000009175010E94CA0000917501009381016F
:1012F0000E94D5009BBF8FBF099119912991399107
:101300004991599169917991099019902990399051
:10131000E991F9918991999118959A938A93FA9301
:10132000EA933A922A921A920A927A936A935A9379
:101330004A933A932A931A930A938FB79BB704EE72
:1013400019EF1DBD0CBDE3E5F1E0008103950083BD
:1013500000910201002381F400917701023048F4EA
:1013600000E000930201E7E7F1E0008103950083CC
:1013700003C001E00093020100917D010023D1F13F
:10138000009151010023B1F1E1E5F1E00081039505
:10139000008300915101033068F100E00093510196
:1013A00000910001015039F00A9569F00A9599F011
:1013B0000A95C9F01FC0C49A009175010E94CA0025
:1013C0000E94D50017C0C59A009175010E94CA00FD
:1013D0000E94D5000FC0C69A009175010E94CA00F4
:1013E0000E94D50007C0C79A009175010E94CA00EB
:1013F0000E94D50000917D01002311F00E94EA01B6
:101400009BBF8FBF099119912991399149915991A8
:10141000699179910990199029903990E991F99100
:101420008991999118956DDB29DC009175010E94D5
:10143000CA00EBE7F1E000811181003D27E01207CF
:10144000C0F301E000937D0101E0009378010E9468
:10145000EA010E94D500C49A03C001E0009376011E
:1014600000E0819903950093010100917901002327
:10147000A1F700910101002381F78199F1CF00913B
:101480007601013069F7C29800E000937501009180
:1014900075010E94CA0000910001013029F40091F9
:1014A000750100937E011AC000910001023029F4F9
:1014B0000091750100937F0111C00091000103307C
:1014C00029F4009175010093800108C0009100018A
:1014D000043021F400917501009381010E94D50030
:1014E00000E000937601BCCF04EE0DBF01E00EBF1B
:1014F000C5EED3E00E94FE0A002311F00E94100BFB
:101500000E94130A0E94400B0C94400B0024E8E058
:10151000EA9532F0001F001C0416D0F3041AF8CF2D
:10152000001F402D00950895149F102D059F100D4C
:10153000049F002D110D0895779167915791479160
:10154000179011FA279037900895F9DF041B10E0E7
:1015500003C0F4DF041B150B20E030E005C0ECDF16
:10156000041B150B260B370BB8F010FC17C0479166
:101570000790E00FF11F0417100540E0240734071F
:1015800058F436F406910024F101E01BF0090994A7
:10159000E00FF11F27903790F101099411F4D6F76D
:1015A000F1CF31960EF0319650E060E070E0479157
:1015B0004B3F48F089F34F3F29F04E3F11F07791B0
:1015C000679157914791041B150B260B370B39F385
:1015D00018F3E7CF5A924A92BA93AA939A938A93AE
:1015E00008955D804C80BB81AA8199818881F0E05B
:1015F0000FB6F894CE0FDF1F0FBE089501E00895D7
:1016000020E002D0E9F708952D9301501040202FDB
:10161000212B08953BBF27913BB7F6DFD9F70895FB
:1016200006E8402E06E1502E00E0602EF201362D35
:101630006BBE07911691F201EE5FFF4F3F4F3BBF2C
:10164000A791B691F201362DEC5FFF4F3F4F3BBFA4
:10165000479157916691242F252B262B21F0FA01D3
:10166000362FD8DF01C0CCDF07E0400E00E0501E6F
:10167000601EA201662D443956416040B8F20895BB
:1016800000008895FECF5400510100000051000079
:10169000019416000101010F0F3E4549513E002003
:1016A0007F0000214345493122414949360C142429
:1016B0007F04725151514E3E4949490640474850B6
:1016C000603649494936304949493E7E0101017E2B
:1016D00032494949267F494949363E414141227FA5
:0516E0000808087F303E
:00000001FF
