:100000000C944A00189518951895189518951895F8
:100010001895189518951895189518951895189578
:100020001895189518951895189518951895189568
:100030001895189518951895189518951895189558
:100040001895189518951895189518951895189548
:100050001895189518951895189518951895189538
:100060001895189518951895189518951895189528
:100070001895189518951895189518951895189518
:10008000189518951895189518951895FFCF000094
:100090008895FECF0FE30DBF01E00EBFC0E2D1E0B7
:1000A0000E9458000E9446000E9447000C9447009E
:0400B00001E00895CE
:000094016B
:00000001FF
