:100000000C94B71218951895189518951895189579
:100010000C949510189518950C942A0B0C9462105A
:100020000C942F10189518950C9421081895189574
:1000300018951895189518950C94E9111895189518
:100040000C940A11189518951895189518951895E7
:100050001895189518951895189518951895189538
:100060001895189518951895189518951895189528
:100070001895189518951895189518951895189518
:10008000189518951895189518951895980189013F
:1000900001501040232BD1F708950E94E212D8019D
:1000A00080E004C000E81EE3F1DF83958D010F5F5F
:1000B0001F4F90E008171907A8F7E4E00C94EA1224
:1000C000919A909A0AE010E0E1DF919808E210E03E
:1000D000DDDF909806E910E0D9DF089506E910E029
:1000E000D5DF91980AE010E0D1DF909A08E210E0A5
:1000F000CDDF919A08959A938A93902F80E00BC058
:1001000000E000FB02B301F902BB990F909A0AE0EC
:1001100010E0BCDF8395883040F490980AE010E04E
:10012000B5DF97FB6EF701E0ECCF909804E110E0AB
:10013000ADDF8998919A0AE010E0A8DF819B02C0A8
:1001400081E001C080E0082F00FD919A00FF9198A6
:1001500004E110E09BDF909A0EE110E097DF9098A9
:10016000899A04E610E092DF082F89919991089509
:100170009A938A93902F00E00093860400E0009306
:1001800087040AE010E082DF8998919A0AE010E083
:100190007DDF80E012C000E0E6E8F4E01081102B83
:1001A0001083873028F400918604000F00938604A2
:1001B000909A0AE010E06ADF8395883040F49098C6
:1001C0000AE010E063DF819BE6CF01E0E5CF909885
:1001D0000EE110E05BDF899A9198992321F400E009
:1001E0000093870403C001E000938704E7E8F4E08C
:1001F000008100FD919A00FF919804E110E046DF34
:10020000909A0EE110E042DF909804E610E03EDFA5
:100210008991999108950E94E312A02F812F922F26
:100220004FDF0A2F68DF082F66DF092F64DF56DFF4
:10023000E3E00C94EB12E8E4F4E000811181228108
:100240003381013045E314074CE0240740E03407D4
:1002500008F45DC0E6E4F4E0008111810F3F27E07F
:10026000120708F062C0E6E4F4E0008111810B5F40
:100270001F4F00831183E6E4F4E000810F700F301C
:1002800041F4E6E4F4E0008111810F5F1F4F008329
:10029000118300E010E020E030E0E8E4F4E00083C7
:1002A000118322833383E6E4F4E0008111810F3F60
:1002B00027E0120760F4E6E4F4E01181012F0093D7
:1002C0005004E6E4F4E000810093510406C000E825
:1002D0000093500400E000935104009150041091E9
:1002E0005104100F10935404EBDE00EA04DF00E029
:1002F00002DF00915004FFDE00915104FCDE00910A
:100300005404F9DEEBDE0AE010E0C7DE0895E8E40D
:10031000F4E000811181228133810F5F1F4F2F4F45
:100320003F4F0083118322833383089584DFE6E403
:10033000F4E0008111810F3F27E0120708F056C05A
:10034000E6E4F4E000811181000F012F001F0E7020
:10035000005600935204E6E4F4E000810093530455
:10036000E8E4F4E02281022F00934C04E8E4F4E096
:100370001181012F00934D04E8E4F4E00081009323
:100380004E040091650400934F0400914F04000F48
:10039000000F000F00934F0400916804EFE4F4E0B5
:1003A0001081100F108300914F04000F00934F0431
:1003B00000910001EFE4F4E01081100F108380DE63
:1003C0000091520498DE0091530495DE00914C0494
:1003D00092DE00914D048FDE00914E048CDE009180
:1003E000050189DE00914F0486DE78DE08959A9338
:1003F0008A93802F912F64DE082F7DDE092F7BDE0C
:100400006DDE5EDE8395082F76DE01E0B1DE809141
:10041000860464DE082F8991999108959801220F2E
:10042000232F221F2E702056102F022FE0DF089559
:10043000979800E00093030108950E94E31280E082
:10044000979A0091620008600093620090E005C0F6
:1004500000E416E01BDE80E09395923008F0CDC0FA
:10046000A0E00AC00091650002600093650000E111
:1004700010E00CDE8395A395A83050F7882381F413
:10048000009162000B7F00936200009162000D7F7B
:1004900000936200009162000E7F009362007DC0B5
:1004A000813081F4009162000B7F00936200009123
:1004B00062000D7F00936200009162000160009372
:1004C00062006BC0823081F4009162000B7F009368
:1004D000620000916200026000936200009162007D
:1004E0000E7F0093620059C0833081F40091620056
:1004F0000B7F009362000091620002600093620033
:100500000091620001600093620047C0843081F472
:1005100000916200046000936200009162000D7F10
:1005200000936200009162000E7F0093620035C06C
:10053000853081F4009162000460009362000091B4
:1005400062000D7F009362000091620001600093E1
:10055000620023C0863081F4009162000460009341
:1005600062000091620002600093620000916200EC
:100570000E7F0093620011C0873079F40091620011
:1005800004600093620000916200026000936200C8
:1005900000916200016000936200992311F0AF980E
:1005A00005C0009165000D7F0093650008E010E034
:1005B0006DDD009165000B7F0093650008E010E0A1
:1005C00065DD492F50E008E010E00E94D7122A2F85
:1005D00030E0200F311FF901EE58FB4F00810BBBBB
:1005E00000E110E053DD00916500046000936500B8
:1005F000992309F437CFAF9A3ACFE3E00C94EB128A
:100600009A938A93902F80E036C0873079F40091D6
:100610006200046000936200009162000260009337
:1006200062000091620001600093620008E010E047
:100630002DDD009165000D7F0093650008E010E05E
:1006400025DD009165000B7F0093650008E010E058
:100650001DDD9BBB00E110E019DD00916500046029
:10066000009365000091650002600093650000E161
:1006700010E00CDD8395883008F085C0979A0091D2
:100680006200077F00936200882381F4009162007A
:100690000B7F00936200009162000D7F0093620067
:1006A000009162000E7F00936200C0CF813081F420
:1006B000009162000B7F00936200009162000D7F49
:1006C0000093620000916200016000936200AECF6F
:1006D000823081F4009162000B7F009362000091F0
:1006E0006200026000936200009162000E7F00933E
:1006F00062009CCF833081F4009162000B7F0093F5
:10070000620000916200026000936200009162004A
:100710000160009362008ACF843081F4009162000E
:10072000046000936200009162000D7F00936200FC
:10073000009162000E7F0093620078CF853081F4D3
:1007400000916200046000936200009162000D7FDE
:10075000009362000091620001600093620066CF26
:10076000863009F052CF009162000460009362006D
:1007700000916200026000936200009162000E7FAF
:100780000093620053CF80E02EC0873079F400914F
:1007900062000460009362000091620002600093B6
:1007A00062000091620001600093620008E010E0C6
:1007B0006DDCAF9808E010E069DC009165000B7F0C
:1007C0000093650008E010E061DC9BBB00E110E0F5
:1007D0005DDC00916500046000936500AF9A00E164
:1007E00010E054DC8395883008F085C0979A00911A
:1007F0006200077F00936200882381F40091620009
:100800000B7F00936200009162000D7F00936200F5
:10081000009162000E7F00936200C8CF813081F4A6
:10082000009162000B7F00936200009162000D7FD7
:100830000093620000916200016000936200B6CFF5
:10084000823081F4009162000B7F0093620000917E
:100850006200026000936200009162000E7F0093CC
:100860006200A4CF833081F4009162000B7F00937B
:1008700062000091620002600093620000916200D9
:1008800001600093620092CF843081F40091620095
:10089000046000936200009162000D7F009362008B
:1008A000009162000E7F0093620080CF853081F45A
:1008B00000916200046000936200009162000D7F6D
:1008C00000936200009162000160009362006ECFAD
:1008D000863009F05ACF00916200046000936200F4
:1008E00000916200026000936200009162000E7F3E
:1008F000009362005BCF8991999108950E94E21262
:10090000902F00910701002369F40DE40093820405
:1009100005E50093830404E50093840405E4009353
:1009200085044BC0992369F400E20093820401E33B
:100930000093830400E30093840400E300938504A0
:100940003CC09F3F69F400E30093820400E30093FE
:1009500083040EE20093840400E3009385042DC019
:10096000A4E108EC091B902F80E016C0092F4A2F44
:100970000E94C912005D282F30E0F901EE57FB4FAD
:100980000083092F4A2F0E94C912942F0A2F4AE090
:100990000E94C912A02F8395823040F3992339F029
:1009A0000EE20093840405E30093850406C00EE282
:1009B0000093840400E30093850480E00DC090E080
:1009C000FC01EE57FB4F0081A82FB0E01C96FD0103
:1009D000EE58FB4F00838395843088F32EDDE4E0EE
:1009E0000C94EA1200916904002319F500910701A3
:1009F000002311F401E001C000E000930701009121
:100A00000701002311F411E001C010E0009108017A
:100A10000E7C010F00930801209108011AE000E903
:100A2000FADB209108011AE002E9F5DB00910501EB
:100A300065DF089500910001002349F42FEF1DE0C8
:100A400000E9E9DB2FEF1DE002E9E5DB08C020E06B
:100A50001DE000E9E0DB20E01DE002E9DCDB66DC14
:100A600008958A9380E00BC020910501182F00E9BA
:100A7000D2DB20910501182F02E9CDDB8395883068
:100A800098F354DC899108952FE700916604201BA8
:100A900017E100E9C0DB2FE700916704201B17E195
:100AA00002E9B9DB2EEF14E100E9B5DB2EEF14E12A
:100AB00002E9B1DB08952FEF14E100E9ACDB2FEF81
:100AC00014E102E9A8DB0895009169040023B9F458
:100AD0001091050100910501053C30F4E5E0F1E0DD
:100AE00000810D5F008303C00FEF009305010091AB
:100AF0000501101721F0B5DF00910501FFDE089513
:100B0000009169040023F9F4109105010091050199
:100B10000F3F21F407EC009305010DC00091050182
:100B2000033030F0E5E0F1E000810350008303C0C2
:100B300000E00093050100910501101721F091DFFD
:100B400000910501DBDE0895009169040023E1F4C2
:100B500000910701002309F445DF10910501009180
:100B60000501073C30F4E5E0F1E0008103950083E6
:100B700003C00FEF0093050100910501101721F04C
:100B800070DF00910501BADE089500916904002329
:100B900001F500910701002309F424DF10910501FC
:100BA000009105010F3F21F407EC0093050109C0F6
:100BB00000910501013028F0E5E0F1E000810A959F
:100BC000008300910501101721F04BDF0091050112
:100BD00095DE089500910701002341F02FEC1AE003
:100BE00000E919DB2FEC1AE002E915DB009165043E
:100BF000073011F400E001C001E010910601011777
:100C000049F000930601E6E0F1E0008100FD1B9A47
:100C100000FF1B98E1E2F1E00081077C0083009176
:100C20006504000F000F000FE1E2F1E01081100FEA
:100C300010832091210114E000E2EDDA0091070118
:100C4000002341F02EEC1AE000E9E5DA2EEC1AE080
:100C500002E9E1DA6BDB089500916904002371F485
:100C600000916504073030F4E5E6F4E00081039577
:100C7000008303C000E000936504ACDF0895009199
:100C80006904002371F400916504002331F0E5E666
:100C9000F4E000810A95008303C007E00093650437
:100CA00099DF08950E94DF1200E00093020100E046
:100CB00008BF00916804033019F400E00093680451
:100CC0004090680433DB05E010E00E944D004420B2
:100CD00089F420E015E200E99EDA20E015E202E95D
:100CE0009ADA2BE01EE000E996DA2BE01EE002E93A
:100CF00092DA0EC101E0401621F002E0401609F040
:100D000007C120E115E200E986DA20E115E202E9F7
:100D100082DA66242FC09D01032F202F19E200E9FB
:100D20007ADA9D01032F202F19E202E974DA9D017E
:100D3000022F202F18E200E96EDA9D01022F202FEA
:100D400018E202E968DA9C01232F17E200E963DA6E
:100D50009C01232F17E202E95EDA9C0116E200E90A
:100D60005ADA9C0116E202E956DA539408E050166A
:100D700090F2639400E4601618F501E0401671F4F7
:100D8000062D10E0000F111F000F111FF801EC5588
:100D9000FE4F80819181A281B38110C002E0401694
:100DA00069F4062D10E0000F111F000F111FF8014C
:100DB000EC51FD4F80819181A281B3815524D6CF22
:100DC00020E016E200E927DA20E016E202E923DA61
:100DD00020E015E200E91FDA20E015E202E91BDA63
:100DE00021E015E200E917DA21E015E202E913DA61
:100DF00066242FC09D01032F202F1DE200E90BDA8E
:100E00009D01032F202F1DE202E905DA9D01022F2B
:100E1000202F1CE200E9FFD99D01022F202F1CE2A8
:100E200002E9F9D99C01232F1BE200E9F4D99C01C6
:100E3000232F1BE202E9EFD99C011AE200E9EBD96A
:100E40009C011AE202E9E7D9539408E0501690F2A7
:100E5000639400E1601618F501E0401671F4062D68
:100E600010E0000F111F000F111FF801EC55FD4F8E
:100E700080819181A281B38110C002E0401669F4A3
:100E8000062D10E0000F111F000F111FF801EC518B
:100E9000FC4F80819181A281B3815524D6CF20E07F
:100EA0001AE200E90E940B0120E01AE202E90E9426
:100EB0000B0120E015E200E90E940B0120E015E2A1
:100EC00002E90E940B0122E215E200E90E940B01F7
:100ED00022E215E202E90E940B0101E0401659F4FA
:100EE0002AE01EE000E90E940B012CE01EE002E96E
:100EF0000E940B010DC002E0401651F42AE01EE0F2
:100F000000E90E940B012EE01EE002E90E940B01A5
:100F100001E00093020100E010E0E0E6F4E000836D
:100F2000118308E008BFE7E00C94E7120E94E21288
:100F300000916904013021F000916904023021F42C
:100F400001E000936C043AC000916904033059F445
:100F500000910001002311F401E001C000E00093C2
:100F6000000168DD2BC000916904043039F5E8E622
:100F7000F4E000810395008300910701002351F004
:100F80002FEC1AE000E90E940B012FEC1AE002E9B5
:100F90000E940B0187DE65DD05E010E00E944D0038
:100FA00000910701002351F02EEC1AE000E90E94A5
:100FB0000B012EEC1AE002E90E940B0180E00DC04B
:100FC000A82FB0E01897FD01E456FE4F008190E095
:100FD000FC01EE58FB4F00838395803140F588304B
:100FE000A8F4ACE7B1E04091680450E008E010E0FC
:100FF0000E94D712A00FB11F90E0A80FB91F0C914B
:1010000090E0FC01EE58FB4F0083E6CF0091000119
:101010000023B1F6A82FB0E01897FD01EC56FE4F63
:10102000008190E0FC01EE58FB4F0083D5CF00E03B
:1010300010E0EAE6F4E000831183FFD9E4E00C94C9
:10104000EA12FA93EA933A932A931A930A933FB7D0
:1010500007E304BDEAE8F4E0008111810F5F1F4F50
:1010600000831183E9E9F4E000811181012B41F053
:10107000E9E9F4E0008111810F5F1F4F00831183C4
:10108000EAE8F4E0008111810D3424E0120708F44D
:1010900052C000E00093880400E00093890400E05F
:1010A00010E0EEE8F4E00083118300E010E0ECE8EB
:1010B000F4E00083118300E010E0E0E9F4E0008355
:1010C000118300E010E0E2E9F4E00083118300E026
:1010D0000093940400E000939E0400E00093A104B8
:1010E00000E000939D0400E000939F0400E0009363
:1010F000A00400E00093A20400E00093A30400E039
:1011000000939C0400E010E0EAE8F4E0008311831F
:1011100000E00093A40401E00093010100910101AB
:10112000002349F401E00093010100E010E0E0E653
:10113000F4E0008311833FBF0991199129913991FE
:10114000E991F991189500E00093880400E000937C
:10115000890400E010E0EEE8F4E00083118300E091
:1011600010E0ECE8F4E00083118300E010E0E0E937
:10117000F4E00083118300E010E0E2E9F4E0008392
:10118000118300E00093940400E000939E0400E0CB
:101190000093A10400E000939D0400E000939F04ED
:1011A00000E00093A00400E00093A20400E000939C
:1011B000A30400E000939C0400E00093A4040895BD
:1011C00000918904015041F00A95E1F00A9581F1FE
:1011D0000A9509F443C057C0ECE8F4E0008111819E
:1011E000000F111FECE8F4E00083118300919B04D1
:1011F00010E0ECE8F4E020813181202B312B2083BA
:10120000318341C0EEE8F4E000811181000F111F2D
:10121000EEE8F4E00083118300919B0410E0EEE817
:10122000F4E020813181202B312B208331832BC0AE
:10123000E0E9F4E000811181000F111FE0E9F4E022
:101240000083118300919B0410E0E0E9F4E0208129
:101250003181202B312B2083318315C0E2E9F4E06A
:1012600000811181000F111FE2E9F4E00083118376
:1012700000919B0410E0E2E9F4E020813181202B11
:10128000312B20833183E4E9F4E00081039500836E
:1012900000919404083040F0E9E8F4E000810395FF
:1012A000008300E00093940400918904053008F461
:1012B00006C1ECE8F4E0008111810F70107000832A
:1012C0001183EEE8F4E0008111810F70107000834B
:1012D0001183ECE8F4E000811181073020E012076F
:1012E00009F0B0C0EEE8F4E0008111810A3020E09E
:1012F000120709F0A7C0E2E9F4E020813181E0E9BA
:10130000F4E0408151810FEF10E0042715272017EA
:10131000310709F095C0E0E9F4E00081009324046E
:1013200000915504002309F487C0E9E9F4E0008145
:101330001181093E23E01207D8F0E9E9F4E00081C9
:1013400011810C3D25E0120798F4E0E9F4E00081FA
:101350001181003820E0120711F417DC09C0E0E920
:10136000F4E000811181083A20E0120709F4ECDB77
:1013700001E010E0E9E9F4E00083118300E000936C
:101380000101E0E9F4E000811181003B20E0120757
:1013900011F428DB51C0E0E9F4E00081118100384C
:1013A00020E0120711F4F1DB47C0E0E9F4E000812E
:1013B0001181083A20E0120711F4C6DB3DC0E0E9D4
:1013C000F4E000811181003920E0120711F444DCBF
:1013D00033C0E0E9F4E000811181083820E0120711
:1013E00011F44DDC29C0E0E9F4E000811181003AFC
:1013F00020E0120769F400916C04002321F401E05D
:101400000093690403C003E0009369048FDD14C0F6
:10141000E0E9F4E000811181083920E0120761F46D
:1014200000916C04002321F402E00093690403C0DE
:1014300004E0009369047ADD00E00093A50403C092
:1014400082DE01C080DE00E00093880400E00093AB
:10145000890400E010E0EEE8F4E00083118300E08E
:1014600010E0ECE8F4E00083118300E010E0E0E934
:10147000F4E00083118300E010E0E2E9F4E000838F
:10148000118300E00093940400E000939E0400E0C8
:101490000093A10400E000939D0400E000939F04EA
:1014A00000E00093A00400E00093A20400E0009399
:1014B000A30400E000939C0400E00093A4040895BA
:1014C000BA93AA9300919E040023E9F10091A1042C
:1014D0000023C9F100918804002309F0B8C001E09D
:1014E0000093880401E00093890400E000939504D0
:1014F00000E00093980400E010E0E6E9F4E00083E7
:10150000118300E000939E0400E00093A10400E03A
:1015100000939D0400E000939F0400E00093A0046A
:1015200000E00093A20400E00093A30400E0009315
:101530009C0400E010E0E6EAF4E00083118300E0A0
:101540000093A40484C000918804002399F00091C2
:101550009D04002379F000919F04002359F000E0DE
:1015600000939B0400E000939D0400E000939F041F
:1015700027DE6DC000918804002399F000919D043E
:10158000002379F00091A004002359F001E00093BA
:101590009B0400E000939D0400E00093A00410DE93
:1015A00056C000918804002381F40091A204002316
:1015B00061F001E000939C0400E00093A204E4EADF
:1015C000F4E000810395008342C000919C04002355
:1015D000F1F10091A3040023D1F1009155040023FF
:1015E000B1F10091A404013061F500E00093A3047F
:1015F00000E000930101E6EAF4E0008111810F5F51
:101600001F4F00831183A6EAB4E0ED91FC9133975C
:1016100060F000912404003811F472DA18C00091CF
:101620002404083AA1F450DA12C0009124040038CE
:1016300011F4ABDA0CC000912404083A41F484DAC6
:1016400006C000E00093A40400E000932404A991E4
:10165000B9910895BA93AA939A938A93FA93EA93C5
:101660003A922A921A920A927A936A935A934A93D6
:101670003A932A931A930A938FB79BB70D9B26C070
:10168000AAE8B4E0ED91FC91349750F0AAE8B4E0F8
:10169000ED91FC91399720F401E000939D0473C013
:1016A000AAE8B4E0ED91FC91F79760F0EAE8F4E085
:1016B00000811181053620E0120720F401E000933B
:1016C0009E0461C001E00093A8045DC00D995BC059
:1016D000AAE8B4E0ED91FC91349750F0AAE8B4E0A8
:1016E000ED91FC91399720F401E000939F044BC0E9
:1016F000AAE8B4E0ED91FC91399750F0AAE8B4E083
:10170000ED91FC91779720F401E00093A0043BC099
:10171000AAE8B4E0ED91FC91B89750F0AAE8B4E0E3
:10172000ED91FC91F89720F401E00093A1042BC007
:10173000EAE8F4E000811181083C20E0120760F043
:10174000EAE8F4E000811181013921E0120720F478
:1017500001E00093A20417C0EAE8F4E000811181DF
:10176000003223E0120760F0EAE8F4E00081118122
:10177000093E23E0120720F401E00093A30403C014
:1017800001E00093A80400E010E0EAE8F4E0008340
:1017900011830091A804002341F000E00093A80405
:1017A00000E00093A304CFDC01C08ADE9BBF8FBFA3
:1017B0000991199129913991499159916991799199
:1017C0000990199029903990E991F991899199910D
:1017D000A991B99118950FEF0ABB0DEB07BB0FEF5D
:1017E00004BB03E801BB08E002B90FE0009361000D
:1017F0000FE10093640000E00BBB0FE708BB0FEFA5
:1018000005BB0FEF02BB0FEF03B900EF00936200BF
:101810000EE10093650003E003BF05E00EBD02E0AA
:1018200005BD07E304BD05E002BF04EE19EF1DBDD1
:101830000CBD00E001BF05E407BF05E406BF0CEFE7
:1018400009BF00EA00936A0005E50ABF0CEF08BF74
:1018500028EB14E000E20E940B012FEC1AE000E9F3
:101860000E940B012FEC1AE002E90E940B010E947A
:101870001802789400E007C020E210E0F801EE586A
:10188000FB4F208303950031B8F300E0009366041A
:1018900000E00093670401E00093710408959A93B7
:1018A0008A938AE090E08B3F07E0900778F40596F2
:1018B000082F0F700F3009F401968C010E940E0260
:1018C0000093B1040091B1040F3F69F7E9EAF4E035
:1018D00080839183E9EAF4E01181012F0093AE0443
:1018E000E9EAF4E000810093AF040091AE041091A6
:1018F000AF04100F1093B0040E94600000EA0E9431
:101900007B0000E00E947B000091AE040E947B00FF
:101910000091AF040E947B000091B0040E947B0004
:101920000E946E000AE010E00E944D00E9EAF4E037
:10193000008111810F3F27E0120738F50E946000F7
:10194000E9EAF4E000811181000F012F001F0E7001
:1019500000560E947B00E9EAF4E000810E947B00CF
:1019600000E00E947B0000E00E947B0000E00E94FB
:101970007B000FEF0E947B0001E00E947B000E9431
:101980006E000AE010E00E944D008991999108953F
:101990009A938A9328EB14E000E20E940B012FEC4B
:1019A0001AE000E90E940B012FEC1AE002E90E9404
:1019B0000B0100E010E00E940E02802F90E08F3FAC
:1019C00000E09007A1F50E94600000EA0E947B0001
:1019D00000E00E947B0000E00E947B0000E10E948A
:1019E0007B0000E10E947B000E946E0005E010E099
:1019F0000E944D000E94600000EA0E947B0000E10E
:101A00000E947B0000E00E947B0000E00E947B00BF
:101A100000E00E947B000FEF0E947B0001E00E942B
:101A20007B000E946E0005E010E00E944D0000E087
:101A300010E00E940E020093AB0401E010E00E944F
:101A40000E020093AC0402E010E00E940E0200932C
:101A5000AD040091AB041091AC04100F109354042A
:101A6000009154041091AD04011711F018DF1BC050
:101A70000091AB0410E0E9EAF4E000831183E9EAA5
:101A8000F4E00081102F00E0E9EAF4E00083118324
:101A90000091AC0410E0E9EAF4E020813181200FEC
:101AA000311F20833183E9EAF4E000811181E6E40B
:101AB000F4E000831183E6E4F4E0008111810F3F3C
:101AC00027E0120708F093C0E6E4F4E000811181FA
:101AD0000E940E0210E020E030E0E8E4F4E0008331
:101AE000118322833383E8E4F4E0008111812281B1
:101AF000322F212F102F00E0E8E4F4E0008311835F
:101B000022833383E6E4F4E0008111810F5F1F4FED
:101B10000E940E0210E020E030E0E8E4F4E04081B2
:101B2000518162817381400F511F621F731F408377
:101B3000518362837383E8E4F4E0008111812281A0
:101B4000322F212F102F00E0E8E4F4E0008311830E
:101B500022833383E6E4F4E0008111810E5F1F4F9E
:101B60000E940E0210E020E030E0E8E4F4E0408162
:101B7000518162817381400F511F621F731F408327
:101B8000518362837383E6E4F4E0008111810D5F89
:101B90001F4F0E940E0200930501E6E4F4E000816D
:101BA00011810C5F1F4F0E940E02802F90E0803841
:101BB00000E0900778F4082F02950F7000936504F9
:101BC000082F0695077000936804082F0170009392
:101BD000000119C00FEF0093050100E000936504B8
:101BE00000E00093680401E0009300010CC00FEFD7
:101BF0000093050100E00093650400E00093680491
:101C000001E00093000120E010E000E20E940B01DF
:101C100024E811E000E20E940B0129E012E000E25A
:101C20000E940B0120E513E000E20E940B010E94DC
:101C3000EA0525E815E000E20E940B0125E91BE01A
:101C400000E90E940B0120E21CE000E90E940B0168
:101C500020E01FE000E90E940B012DE111E100E905
:101C60000E940B0121E019E100E90E940B0125E926
:101C70001BE002E90E940B0120E21CE002E90E9445
:101C80000B0120E01FE002E90E940B012DE911E1A8
:101C900002E90E940B0121E019E102E90E940B0117
:101CA00028E718E000E90E940B0128E718E002E9A4
:101CB0000E940B010E9431050AE010E00E944D00D5
:101CC0000E941A050AE010E00E944D000E94520690
:101CD000979A01E000930301009165000160009371
:101CE000650003E00E940003C79A80E090E008C00E
:101CF0008C010E940E02FC01EA5DFB4F00830196FD
:101D0000803200E09007A0F38991999108959A9309
:101D10008A9300916504073021F000915704002355
:101D200051F400915704002309F467C1009156044F
:101D3000002309F062C11FE100E90E94F70110E0F1
:101D4000EDE6F4E000831183EDE6F4E00081102F6E
:101D500000E0EDE6F4E0008311831EE100E90E945B
:101D6000F70110E0EDE6F4E020813181200F311F12
:101D7000208331831FE102E90E94F70110E0EFE6C2
:101D8000F4E000831183EFE6F4E00081102F00E01F
:101D9000EFE6F4E0008311831EE102E90E94F701FF
:101DA00010E0EFE6F4E020813181200F311F208325
:101DB0003183EDE1F1E000811181EDE6F4E0208175
:101DC00031810217130758F4EDE6F4E00081118128
:101DD000EFE1F1E02081318102171307B0F0EDE16E
:101DE000F1E000811181EFE6F4E0208131810217FA
:101DF000130778F4EFE6F4E000811181EFE1F1E000
:101E0000208131810217130720F405E000930401BB
:101E1000F7C0E9E1F1E000811181EDE6F4E0208115
:101E200031810217130758F4EDE6F4E000811181C7
:101E3000EBE1F1E02081318102171307B0F0E9E115
:101E4000F1E000811181EFE6F4E020813181021799
:101E5000130778F4EFE6F4E000811181EBE1F1E0A3
:101E6000208131810217130720F404E0009304015C
:101E7000C7C0E5E1F1E000811181EDE6F4E02081E9
:101E800031810217130758F4EDE6F4E00081118167
:101E9000E7E1F1E02081318102171307B0F0E5E1BD
:101EA000F1E000811181EFE6F4E020813181021739
:101EB000130778F4EFE6F4E000811181E7E1F1E047
:101EC000208131810217130720F403E000930401FD
:101ED00097C0E1E1F1E000811181EDE6F4E02081BD
:101EE00031810217130758F4EDE6F4E00081118107
:101EF000E3E1F1E02081318102171307B0F0E1E165
:101F0000F1E000811181EFE6F4E0208131810217D8
:101F1000130778F4EFE6F4E000811181E3E1F1E0EA
:101F2000208131810217130720F402E0009304019D
:101F300067C0EDE0F1E000811181EDE6F4E0208181
:101F400031810217130758F4EDE6F4E000811181A6
:101F5000EFE0F1E02081318102171307B0F0EDE0EE
:101F6000F1E000811181EFE6F4E020813181021778
:101F7000130778F4EFE6F4E000811181EFE0F1E07F
:101F8000208131810217130720F401E0009304013E
:101F900037C0E9E0F1E000811181EDE6F4E0208155
:101FA00031810217130758F4EDE6F4E00081118146
:101FB000EBE0F1E02081318102171307B0F0E9E096
:101FC000F1E000811181EFE6F4E020813181021718
:101FD000130778F4EFE6F4E000811181EBE0F1E023
:101FE000208131810217130720F400E000930401DF
:101FF00007C006E00093040103C006E0009304015B
:1020000000910401063021F401E000935A0403C05A
:1020100000E000935A0400915A0410915B040117E8
:10202000D9F000915A0400935B0400915B040023F3
:1020300019F49091050101C090EE80E00BC0292FAA
:10204000182F00E90E940B01292F182F02E90E9486
:102050000B018395883098F38991999108959A930B
:102060008A93FA93EA933A922A921A920A927A936C
:102070006A935A934A933A932A931A930A938FB77F
:102080009BB700915E04002351F00F9B04C001E058
:102090000093560403C000E00093560438DE9BBF53
:1020A0008FBF09911991299139914991599169915C
:1020B00079910990199029903990E991F991899134
:1020C000999118959A938A93FA93EA933A922A925D
:1020D0001A920A927A936A935A934A933A932A935A
:1020E0001A930A938FB79BB700915E04002351F0B7
:1020F0000E9B04C001E00093570403C000E000936E
:10210000570405DE9BBF8FBF099119912991399121
:102110004991599169917991099019902990399033
:10212000E991F9918991999118959A938A93FA93E3
:10213000EA933A922A921A920A927A936A935A935B
:102140004A933A932A931A930A938FB79BB710E056
:1021500010935F0410E086991395012F000F10E093
:1021600085991395010F000F10E084991395010FC5
:1021700010915E041123D9F1013019F40E943F0639
:1021800033C0023019F40E94C5052EC0033019F483
:102190000E94F20429C0043019F40E942C0624C0C5
:1021A000053019F40E94A4051FC0063071F4009197
:1021B0006C04002321F401E00093690403C003E0F0
:1021C000009369040E9496070FC0073069F40091DC
:1021D0006C04002321F402E00093690403C004E0CE
:1021E000009369040E94960701E000935F049BBF7F
:1021F0008FBF09911991299139914991599169910B
:1022000079910990199029903990E991F9918991E2
:10221000999118955A924A92BA93AA939A938A934B
:10222000FA93EA933A922A921A920A927A936A93CA
:102230005A934A933A932A931A930A934FB65BB6EA
:1022400005E002BFE2E6F4E000810395008300911F
:102250005E04002309F4A6C0009169040023B9F0CC
:10226000EAE6F4E000811181013727E1120730F03E
:1022700000E00093690400E000936C04EAE6F4E0F7
:10228000008111810F5F1F4F008311838BC0E2EB30
:10229000F4E000811181083C20E0120709F045C0FC
:1022A00080E00DC0A82FB0E01C97FD01EE57FB4F5A
:1022B000008190E0FC01EE58FB4F00838395803154
:1022C00088F58630A8F4A2E2B1E04091650450E0C0
:1022D00006E010E00E94D712A00FB11F90E0A80FF7
:1022E000B91F0C9190E0FC01EE58FB4F0083E6CF44
:1022F0008C30C0F6A2E5B1E04091040150E006E068
:1023000010E00E94D712A00FB11F082F10E0065056
:102310001040A00FB11F0C9190E0FC01EE58FB4F54
:102320000083CCCF0E941D0235C0E2EBF4E00081B7
:102330001181003223E0120769F5009156040093E1
:10234000580400915704009359040F9B04C001E006
:102350000093560403C000E0009356040E9B04C093
:1023600001E00093570403C000E00093570400917C
:10237000580410915604011731F40091590410913A
:102380005704011709F0C3DC00E010E0E2EBF4E0D1
:1023900000831183E2EBF4E0008111810F5F1F4F96
:1023A000008311835BBE4FBE099119912991399128
:1023B0004991599169917991099019902990399091
:1023C000E991F99189919991A991B991499059907F
:1023D0001895BA93AA939A938A93FA93EA933A92A6
:1023E0002A921A920A927A936A935A934A933A9348
:1023F0002A931A930A938FB79BB702EF1CEF1DBD68
:102400000CBD00917104002309F48FC00091710488
:102410000F3128F4E1E7F4E0008103950083009197
:1024200071040A3011F4B4DA29C0009171040E313C
:1024300029F50EEC00930801209108011AE000E94B
:102440000E940B01209108011AE002E90E940B0191
:10245000009105010E94440502E310E00E944D0036
:10246000009105010E945B05009105010E947E0418
:1024700001E000935E0401E00093550400915E04C6
:10248000002309F452C083993AC000915F040130DF
:1024900051F4ACE5B4E0ED91FC91369720F002E008
:1024A00000935F0420C000915F040230E1F4ACE5CA
:1024B000B4E0ED91FC913797B0F020E08699239538
:1024C000220F00E085990395200F220F00E08499E8
:1024D0000395200F223019F40E94C50504C0253051
:1024E00011F40E94A40500E000932504ECE5F4E05B
:1024F000008111810F5F1F4F0083118316C000E020
:1025000000935F0400E010E0ECE5F4E00083118349
:1025100000912504002349F401E00093250400E024
:1025200010E0E0E6F4E000831183E3E6F4E00081EC
:1025300011810F5F1F4F008311839BBF8FBF0991D4
:1025400019912991399149915991699179910990FC
:10255000199029903990E991F99189919991A991CE
:10256000B991189538D9B699FECFC798FCCF03EF2B
:102570000DBF04E00EBFC4EFD6E00E94F5120023A9
:1025800011F00E9407130E94B2120E9437130C949C
:1025900037130024E8E0EA9532F0001F001C04160F
:1025A000D0F3041AF8CF001F402D00950895149F12
:1025B000102D059F100D049F002D110D08956A9296
:1025C0005A924A92BA93AA939A938A9308956E80E4
:1025D0005D804C80BB81AA8199818881F0E00FB633
:1025E000F894CE0FDF1F0FBE089501E0089520E09C
:1025F00002D0E9F708952D9301501040202F212B90
:1026000008953BBF27913BB7F6DFD9F7089504E75C
:10261000402E06E2502E00E0602EF201362D6BBEF9
:1026200007911691F201EE5FFF4F3F4F3BBFA7911D
:10263000B691F201362DEC5FFF4F3F4F3BBF479104
:1026400057916691242F252B262B21F0FA01362F46
:10265000D8DF01C0CCDF07E0400E00E0501E601E56
:10266000A201662D423856426040B8F2089500003B
:102670008895FECF8E00260400000026030001820C
:1026800026000101010106FF0101CECE083709A095
:1026900009090AD1113A127413DD13D7233F241DFF
:1026A00027862780434F41583120434F41583220DD
:1026B00020414553312020414553322020424E4392
:1026C0002020204F50543120204F5054322020558C
:1026D000534220202034342E31202034382E302014
:1026E0002038382E32202039362E30203137362E01
:1026F00034203139322E302020202020202046491D
:102700004C544552312046494C544552322046499A
:102710004C544552332020494E56455253452020B3
:102720004E4F524D414C000000003D461900A7633A
:102730009300280D0D02FD2691050F79830CC61B11
:1027400049188E3CAA29B7491140057CF35828BF87
:10275000C06FE61DA17EFFFFFF7F05A385700D1EE4
:10276000CE50020218261D0166F9BBF21BD58D570B
:10277000C5C19BEC28C351ECD3D6DD91CDF4266ABC
:1027800050120E399125862C2229B43EA01D2DD33E
:1027900008093DB10CF47D4387E6E5DF90E469D29A
:1027A0004FEDE17DDFFBC3A0BE0975199D114AF90C
:1027B0005411153B550ACB9C83001CF142F8FF0DC8
:1027C00093F4E72C12F61D4E28FB6E4F18013EA322
:1027D0005905D7309906593C0405FACEE1014F124C
:1027E000CCFE4F40F4FC41B2BFFCB742D3FDDE6DDE
:1027F0006CFF8954CD009EDC8701CFE1900134FF4E
:102800002301A6189300E3751D00D7BBDDFF2D6CD7
:10281000CEFF3B54DAFF87B9ECFF81C9F9FF000016
:102820000000000000009F1BF5579F1BF55700009C
:102830000000000000000000000000000000000098
:102840000000000000000000000000000000000088
:102850000000000000000000000000000000000078
:10286000000000000000000000002182E4FF3DD5D0
:10287000C2FF0BDCB1FFB035DEFF1E805B001364CE
:10288000FD005391540167E8EB0061D2AFFFB20144
:1028900035FE03CA8CFD2C7497FEB3AA3201AA8FB1
:1028A000E9035DB79E04054702029E58EBFC5AF40B
:1028B00071F8A7EB47F89BDF0AFEC1755107C4B852
:1028C0002B0E7AF0720C9D9B4B00B61CF7EE578BCB
:1028D00094E364D4B4E9B4E36706000DD833241F4D
:1028E0008262FFFFFF7FFFFFFF7F241F8262000DD8
:1028F000D833B4E3670664D4B4E9578B94E3B61CC9
:10290000F7EE9D9B4B007AF0720CC4B82B0EC1758C
:1029100051079BDF0AFEA7EB47F85AF471F89E585F
:10292000EBFC054702025DB79E04AA8FE903B3AA38
:1029300032012C7497FE03CA8CFDB20135FE61D2C0
:10294000AFFF67E8EB00539154011364FD001E8054
:102950005B00B035DEFF0BDCB1FF3DD5C2FF21824D
:10296000E4FF00000000C4B9FE7FC4B9FE7F000090
:102970000000000000000000000000000000000057
:102980000000000000000000000000000000000047
:102990000000000000000000000000000000000037
:0829A0000000000000003001FE
:00000001FF
