:100000000C94B6111895189518951895189518957B
:100010000C94940F189518950C942B0A0C94610F5E
:100020000C942E0F189518950C9422071895189576
:1000300018951895189518950C94E810189518951A
:100040000C940910189518951895189518951895E9
:100050001895189518951895189518951895189538
:100060001895189518951895189518951895189528
:100070001895189518951895189518951895189518
:10008000189518951895189518951895980189013F
:1000900001501040232BD1F708950E94DE11D801A2
:1000A00080E004C000E81EE3F1DF83958D010F5F5F
:1000B0001F4F90E008171907A8F7E4E00C94E3112C
:1000C000919A909A0AE010E0E1DF919808E210E03E
:1000D000DDDF909806E910E0D9DF089506E910E029
:1000E000D5DF91980AE010E0D1DF909A08E210E0A5
:1000F000CDDF919A08959A938A93902F80E00BC058
:1001000000E000FB02B301F902BB990F909A0AE0EC
:1001100010E0BCDF8395883040F490980AE010E04E
:10012000B5DF97FB6EF701E0ECCF909804E110E0AB
:10013000ADDF8998919A0AE010E0A8DF819B02C0A8
:1001400081E001C080E0082F00FD919A00FF9198A6
:1001500004E110E09BDF909A0EE110E097DF9098A9
:10016000899A04E610E092DF082F89919991089509
:100170009A938A93902F00E00093060200E0009388
:1001800007020AE010E082DF8998919A0AE010E005
:100190007DDF80E012C000E0E6E0F2E01081102B8D
:1001A0001083873028F400910602000F00930602A6
:1001B000909A0AE010E06ADF8395883040F49098C6
:1001C0000AE010E063DF819BE6CF01E0E5CF909885
:1001D0000EE110E05BDF899A9198992321F400E009
:1001E0000093070203C001E000930702E7E0F2E09A
:1001F000008100FD919A00FF919804E110E046DF34
:10020000909A0EE110E042DF909804E610E03EDFA5
:100210008991999108950E94DF11A02F812F922F2B
:100220004FDF0A2F68DF082F66DF092F64DF56DFF4
:10023000E3E00C94E411E8ECF1E00081118122810B
:100240003381013045E314074CE0240740E03407D4
:1002500008F45DC0E6ECF1E0008111810F3F27E07A
:10026000120708F062C0E6ECF1E0008111810B5F3B
:100270001F4F00831183E6ECF1E000810F700F3017
:1002800041F4E6ECF1E0008111810F5F1F4F008324
:10029000118300E010E020E030E0E8ECF1E00083C2
:1002A000118322833383E6ECF1E0008111810F3F5B
:1002B00027E0120760F4E6ECF1E01181012F0093D2
:1002C000D001E6ECF1E000810093D10106C000E826
:1002D0000093D00100E00093D1010091D001109172
:1002E000D101100F1093D401EBDE00EA04DF00E02F
:1002F00002DF0091D001FFDE0091D101FCDE009110
:10030000D401F9DEEBDE0AE010E0C7DE0895E8EC88
:10031000F1E000811181228133810F5F1F4F2F4F48
:100320003F4F0083118322833383089584DFE6ECFB
:10033000F1E0008111810F3F27E0120708F056C05D
:10034000E6ECF1E000811181000F012F001F0E701B
:1003500000560093D201E6ECF1E000810093D30156
:10036000E8ECF1E02281022F0093CC01E8ECF1E00F
:100370001181012F0093CD01E8ECF1E000810093A1
:10038000CE010091E5010093CF010091CF01000F54
:10039000000F000F0093CF010091E801EFECF1E0B6
:1003A0001081100F10830091CF01000F0093CF0137
:1003B00000910001EFECF1E01081100F108380DE5E
:1003C0000091D20198DE0091D30195DE0091CC011D
:1003D00092DE0091CD018FDE0091CE018CDE009186
:1003E000050189DE0091CF0186DE78DE08959A93BB
:1003F0008A93802F912F64DE082F7DDE092F7BDE0C
:100400006DDE5EDE8395082F76DE01E0B1DE809141
:10041000060264DE082F8991999108959801220FB0
:10042000232F221F2E702056102F022FE0DF089559
:10043000979800E00093030108950E94DF1180E087
:10044000979A0091620008600093620090E005C0F6
:1004500000E416E01BDE80E09395923008F0CDC0FA
:10046000A0E00AC00091650002600093650000E111
:1004700010E00CDE8395A395A83050F7882381F413
:10048000009162000B7F00936200009162000D7F7B
:1004900000936200009162000E7F009362007DC0B5
:1004A000813081F4009162000B7F00936200009123
:1004B00062000D7F00936200009162000160009372
:1004C00062006BC0823081F4009162000B7F009368
:1004D000620000916200026000936200009162007D
:1004E0000E7F0093620059C0833081F40091620056
:1004F0000B7F009362000091620002600093620033
:100500000091620001600093620047C0843081F472
:1005100000916200046000936200009162000D7F10
:1005200000936200009162000E7F0093620035C06C
:10053000853081F4009162000460009362000091B4
:1005400062000D7F009362000091620001600093E1
:10055000620023C0863081F4009162000460009341
:1005600062000091620002600093620000916200EC
:100570000E7F0093620011C0873079F40091620011
:1005800004600093620000916200026000936200C8
:1005900000916200016000936200992311F0AF980E
:1005A00005C0009165000D7F0093650008E010E034
:1005B0006DDD009165000B7F0093650008E010E0A1
:1005C00065DD492F50E008E010E00E94D6112A2F87
:1005D00030E0200F311FF901EE50FE4F00810BBBC0
:1005E00000E110E053DD00916500046000936500B8
:1005F000992309F437CFAF9A3ACFE3E00C94E41192
:100600009A938A93902F80E036C0873079F40091D6
:100610006200046000936200009162000260009337
:1006200062000091620001600093620008E010E047
:100630002DDD009165000D7F0093650008E010E05E
:1006400025DD009165000B7F0093650008E010E058
:100650001DDD9BBB00E110E019DD00916500046029
:10066000009365000091650002600093650000E161
:1006700010E00CDD8395883008F085C0979A0091D2
:100680006200077F00936200882381F4009162007A
:100690000B7F00936200009162000D7F0093620067
:1006A000009162000E7F00936200C0CF813081F420
:1006B000009162000B7F00936200009162000D7F49
:1006C0000093620000916200016000936200AECF6F
:1006D000823081F4009162000B7F009362000091F0
:1006E0006200026000936200009162000E7F00933E
:1006F00062009CCF833081F4009162000B7F0093F5
:10070000620000916200026000936200009162004A
:100710000160009362008ACF843081F4009162000E
:10072000046000936200009162000D7F00936200FC
:10073000009162000E7F0093620078CF853081F4D3
:1007400000916200046000936200009162000D7FDE
:10075000009362000091620001600093620066CF26
:10076000863009F052CF009162000460009362006D
:1007700000916200026000936200009162000E7FAF
:100780000093620053CF80E02EC0873079F400914F
:1007900062000460009362000091620002600093B6
:1007A00062000091620001600093620008E010E0C6
:1007B0006DDCAF9808E010E069DC009165000B7F0C
:1007C0000093650008E010E061DC9BBB00E110E0F5
:1007D0005DDC00916500046000936500AF9A00E164
:1007E00010E054DC8395883008F085C0979A00911A
:1007F0006200077F00936200882381F40091620009
:100800000B7F00936200009162000D7F00936200F5
:10081000009162000E7F00936200C8CF813081F4A6
:10082000009162000B7F00936200009162000D7FD7
:100830000093620000916200016000936200B6CFF5
:10084000823081F4009162000B7F0093620000917E
:100850006200026000936200009162000E7F0093CC
:100860006200A4CF833081F4009162000B7F00937B
:1008700062000091620002600093620000916200D9
:1008800001600093620092CF843081F40091620095
:10089000046000936200009162000D7F009362008B
:1008A000009162000E7F0093620080CF853081F45A
:1008B00000916200046000936200009162000D7F6D
:1008C00000936200009162000160009362006ECFAD
:1008D000863009F05ACF00916200046000936200F4
:1008E00000916200026000936200009162000E7F3E
:1008F000009362005BCF8991999108950E94DE1167
:10090000902F00910701002369F40DE40093020287
:1009100005E50093030204E50093040205E4009357
:1009200005024BC0992369F400E20093020201E33F
:100930000093030200E30093040200E30093050226
:100940003CC09F3F69F400E30093020200E3009380
:1009500003020EE20093040200E3009305022DC09F
:10096000A4E108EC091B902F80E016C0092F4A2F44
:100970000E94C811005D282F30E0F901EE5FFD4FA5
:100980000083092F4A2F0E94C811942F0A2F4AE092
:100990000E94C811A02F8395823040F3992339F02B
:1009A0000EE20093040205E30093050206C00EE286
:1009B0000093040200E30093050280E00DC090E084
:1009C000FC01EE5FFD4F0081A82FB0E01C96FD01F9
:1009D000EE50FE4F00838395843088F32EDDE4E0F3
:1009E0000C94E3110091E901002319F5009107012E
:1009F000002311F401E001C000E000930701009121
:100A00000701002311F411E001C010E0009108017A
:100A10000E7C010F00930801209108011AE000E903
:100A2000FADB209108011AE002E9F5DB00910501EB
:100A300065DF089500910001002349F42FEF1DE0C8
:100A400000E9E9DB2FEF1DE002E9E5DB08C020E06B
:100A50001DE000E9E0DB20E01DE002E9DCDB66DC14
:100A600008958A9380E00BC020910501182F00E9BA
:100A7000D2DB20910501182F02E9CDDB8395883068
:100A800098F354DC899108952FE70091E601201B2B
:100A900017E100E9C0DB2FE70091E701201B17E118
:100AA00002E9B9DB2EEF14E100E9B5DB2EEF14E12A
:100AB00002E9B1DB08952FEF14E100E9ACDB2FEF81
:100AC00014E102E9A8DB08950091E9010023B9F4DB
:100AD0001091050100910501053C30F4E5E0F1E0DD
:100AE00000810D5F008303C00FEF009305010091AB
:100AF0000501101721F0B5DF00910501FFDE089513
:100B00000091E9010023F9F410910501009105011C
:100B10000F3F21F407EC009305010DC00091050182
:100B2000033030F0E5E0F1E000810350008303C0C2
:100B300000E00093050100910501101721F091DFFD
:100B400000910501DBDE08950091E9010023E1F445
:100B500000910701002309F445DF10910501009180
:100B60000501073C30F4E5E0F1E0008103950083E6
:100B700003C00FEF0093050100910501101721F04C
:100B800070DF00910501BADE08950091E9010023AC
:100B900001F500910701002309F424DF10910501FC
:100BA000009105010F3F21F407EC0093050109C0F6
:100BB00000910501013028F0E5E0F1E000810A959F
:100BC000008300910501101721F04BDF0091050112
:100BD00095DE089500910701002341F02FEC1AE003
:100BE00000E919DB2FEC1AE002E915DB0091E501C1
:100BF000073011F400E001C001E010910601011777
:100C000049F000930601E6E0F1E0008100FD1B9A47
:100C100000FF1B98E1E2F1E00081077C0083009176
:100C2000E501000F000F000FE1E2F1E01081100F6D
:100C300010832091210114E000E2EDDA0091070118
:100C4000002341F02EEC1AE000E9E5DA2EEC1AE080
:100C500002E9E1DA6BDB08950091E901002371F408
:100C60000091E501073030F4E5EEF1E000810395F5
:100C7000008303C000E00093E501ACDF089500911C
:100C8000E901002371F40091E501002331F0E5EE64
:100C9000F1E000810A95008303C007E00093E501BD
:100CA00099DF08958A93269700E00093020100E0FF
:100CB00008BF0091E801033019F400E00093E80157
:100CC0008091E80133DB05E010E00E944D008823AD
:100CD00049F42BE01EE000E99EDA2BE01EE002E979
:100CE0009ADA15C0813049F42DE01EE000E993DA6C
:100CF0002DE01EE002E98FDA0AC0823041F42FE0D5
:100D00001EE000E988DA2FE01EE002E984DA882399
:100D100021F008EC10E00E944D0001E00093020178
:100D200000E010E0E0EEF1E00083118308E008BF8E
:100D30002696899108950E94DE110091E901013003
:100D400021F00091E901023021F401E00093EC016F
:100D500036C00091E901033059F4009100010023ED
:100D600011F401E001C000E00093000163DE27C040
:100D70000091E901043019F5E8EEF1E000810395F6
:100D8000008300910701002341F02FEC1AE000E9F5
:100D900042DA2FEC1AE002E93EDA84DF62DE05E097
:100DA00010E00E944D0000910701002341F02EEC5D
:100DB0001AE000E930DA2EEC1AE002E92CDA80E0E1
:100DC0000DC0A82FB0E01897FD01E456FE4F00813A
:100DD00090E0FC01EE50FE4F00838395803140F59A
:100DE0008830A8F4ACE7B1E04091E80150E008E0B9
:100DF00010E00E94D611A00FB11F90E0A80FB91FFC
:100E00000C9190E0FC01EE50FE4F0083E6CF009184
:100E100000010023B1F6A82FB0E01897FD01EC56B1
:100E2000FE4F008190E0FC01EE50FE4F0083D5CFD5
:100E300000E010E0EAEEF1E000831183FEDAE4E086
:100E40000C94E311FA93EA933A932A931A930A9330
:100E50003FB707E304BDEAE0F2E0008111810F5FD4
:100E60001F4F00831183E9E1F2E000811181012B22
:100E700041F0E9E1F2E0008111810F5F1F4F008333
:100E80001183EAE0F2E0008111810D3424E01207C1
:100E900008F452C000E00093080200E00093090249
:100EA00000E010E0EEE0F2E00083118300E010E0EB
:100EB000ECE0F2E00083118300E010E0E0E1F2E01A
:100EC0000083118300E010E0E2E1F2E0008311838F
:100ED00000E00093140200E000931E0200E0009383
:100EE000210200E000931D0200E000931F0200E0D9
:100EF0000093200200E00093220200E0009323020E
:100F000000E000931C0200E010E0EAE0F2E0008361
:100F1000118300E00093240201E00093010100919D
:100F20000101002349F401E00093010100E010E019
:100F3000E0EEF1E0008311833FBF099119912991FF
:100F40003991E991F991189500E00093080200E0C9
:100F50000093090200E010E0EEE0F2E0008311836C
:100F600000E010E0ECE0F2E00083118300E010E02C
:100F7000E0E1F2E00083118300E010E0E2E1F2E062
:100F80000083118300E00093140200E000931E022E
:100F900000E00093210200E000931D0200E00093B6
:100FA0001F0200E00093200200E00093220200E014
:100FB0000093230200E000931C0200E0009324024F
:100FC000089500910902015041F00A95E1F00A9557
:100FD00081F10A9509F443C057C0ECE0F2E00081CA
:100FE0001181000F111FECE0F2E0008311830091EA
:100FF0001B0210E0ECE0F2E020813181202B312B4C
:101000002083318341C0EEE0F2E000811181000FC6
:10101000111FEEE0F2E00083118300911B0210E04B
:10102000EEE0F2E020813181202B312B20833183CF
:101030002BC0E0E1F2E000811181000F111FE0E11F
:10104000F2E00083118300911B0210E0E0E1F2E086
:1010500020813181202B312B2083318315C0E2E1A7
:10106000F2E000811181000F111FE2E1F2E0008344
:10107000118300911B0210E0E2E1F2E02081318156
:10108000202B312B20833183E4E1F2E000810395B2
:10109000008300911402083040F0E9E0F2E00081A2
:1010A0000395008300E000931402009109020530CB
:1010B00008F406C1ECE0F2E0008111810F701070BD
:1010C00000831183EEE0F2E0008111810F70107057
:1010D00000831183ECE0F2E000811181073020E011
:1010E000120709F0B0C0EEE0F2E0008111810A3091
:1010F00020E0120709F0A7C0E2E1F2E0208131818F
:10110000E0E1F2E0408151810FEF10E00427152764
:101110002017310709F095C0E0E1F2E0008100936B
:10112000A4010091D501002309F487C0E9E1F2E0B0
:1011300000811181093E23E01207D8F0E9E1F2E0D5
:10114000008111810C3D25E0120798F4E0E1F2E006
:1011500000811181003820E0120711F416DD09C06A
:10116000E0E1F2E000811181083A20E0120709F481
:10117000EBDC01E010E0E9E1F2E00083118300E044
:1011800000930101E0E1F2E000811181003B20E0E9
:10119000120711F427DC51C0E0E1F2E00081118177
:1011A000003820E0120711F4F0DC47C0E0E1F2E083
:1011B00000811181083A20E0120711F4C5DC3DC01E
:1011C000E0E1F2E000811181003920E0120711F422
:1011D00043DD33C0E0E1F2E000811181083820E016
:1011E000120711F44CDD29C0E0E1F2E00081118129
:1011F000003A20E0120769F40091EC01002321F489
:1012000001E00093E90103C003E00093E90193DDED
:1012100014C0E0E1F2E000811181083920E01207FA
:1012200061F40091EC01002321F402E00093E90154
:1012300003C004E00093E9017EDD00E00093250295
:1012400003C082DE01C080DE00E00093080200E0FF
:101250000093090200E010E0EEE0F2E00083118369
:1012600000E010E0ECE0F2E00083118300E010E029
:10127000E0E1F2E00083118300E010E0E2E1F2E05F
:101280000083118300E00093140200E000931E022B
:1012900000E00093210200E000931D0200E00093B3
:1012A0001F0200E00093200200E00093220200E011
:1012B0000093230200E000931C0200E0009324024C
:1012C0000895BA93AA9300911E020023E9F10091B8
:1012D00021020023C9F100910802002309F0B8C0DF
:1012E00001E00093080201E00093090200E000938E
:1012F000150200E00093180200E010E0E6E1F2E0E1
:101300000083118300E000931E0200E0009321029D
:1013100000E000931D0200E000931F0200E0009334
:10132000200200E00093220200E00093230200E08C
:1013300000931C0200E010E0E6E2F2E0008311837B
:1013400000E00093240284C000910802002399F079
:1013500000911D02002379F000911F02002359F033
:1013600000E000931B0200E000931D0200E00093E8
:101370001F0227DE6DC000910802002399F0009142
:101380001D02002379F000912002002359F001E0B2
:1013900000931B0200E000931D0200E00093200276
:1013A00010DE56C000910802002381F40091220251
:1013B000002361F001E000931C0200E00093220290
:1013C000E4E2F2E000810395008342C000911C0238
:1013D0000023F1F1009123020023D1F10091D50106
:1013E0000023B1F100912402013061F500E0009387
:1013F000230200E000930101E6E2F2E000811181A6
:101400000F5F1F4F00831183A6E2B2E0ED91FC91C4
:10141000339760F00091A401003811F471DB18C01B
:101420000091A401083AA1F44FDB12C00091A4017D
:10143000003811F4AADB0CC00091A401083A41F471
:1014400083DB06C000E00093240200E00093A401C7
:10145000A991B9910895BA93AA939A938A93FA930A
:10146000EA933A922A921A920A927A936A935A9338
:101470004A933A932A931A930A938FB79BB70D9B7B
:1014800026C0AAE0B2E0ED91FC91349750F0AAE0BA
:10149000B2E0ED91FC91399720F401E000931D0238
:1014A00073C0AAE0B2E0ED91FC91F79760F0EAE03A
:1014B000F2E000811181053620E0120720F401E0FE
:1014C00000931E0261C001E0009328025DC00D99E7
:1014D0005BC0AAE0B2E0ED91FC91349750F0AAE035
:1014E000B2E0ED91FC91399720F401E000931F02E6
:1014F0004BC0AAE0B2E0ED91FC91399750F0AAE020
:10150000B2E0ED91FC91779720F401E00093200286
:101510003BC0AAE0B2E0ED91FC91B89750F0AAE090
:10152000B2E0ED91FC91F89720F401E000932102E4
:101530002BC0EAE0F2E000811181083C20E01207B4
:1015400060F0EAE0F2E000811181013921E0120748
:1015500020F401E00093220217C0EAE0F2E00081EB
:101560001181003223E0120760F0EAE0F2E000812E
:101570001181093E23E0120720F401E000932302C9
:1015800003C001E00093280200E010E0EAE0F2E08E
:101590000083118300912802002341F000E00093B2
:1015A000280200E000932302CFDC01C08ADE9BBF4B
:1015B0008FBF099119912991399149915991699157
:1015C00079910990199029903990E991F99189912F
:1015D0009991A991B99118950FEF0ABB0DEB07BB33
:1015E0000FEF04BB03E801BB08E002B90FE0009372
:1015F00061000FE10093640000E00BBB0FE708BB44
:101600000FEF05BB0FEF02BB0FEF03B900EF009325
:1016100062000EE10093650003E003BF05E00EBD2C
:1016200002E005BD07E304BD05E002BF04EE19EFCB
:101630001DBD0CBD00E001BF05E407BF05E406BF0A
:101640000CEF09BF00EA00936A0005E50ABF0CEF42
:1016500008BF28EB14E000E20E940B012FEC1AE017
:1016600000E90E940B012FEC1AE002E90E940B0135
:101670000E941802789400E007C020E210E0F80110
:10168000EE50FE4F208303950031B8F300E0009345
:10169000E60100E00093E70101E00093F101089505
:1016A0009A938A938AE090E08B3F07E0900778F462
:1016B0000596082F0F700F3009F401968C010E94D7
:1016C0000E0200933102009131020F3F69F7E9E207
:1016D000F2E080839183E9E2F2E01181012F00932F
:1016E0002E02E9E2F2E0008100932F0200912E0227
:1016F00010912F02100F109330020E94600000EA38
:101700000E947B0000E00E947B0000912E020E945C
:101710007B0000912F020E947B00009130020E940A
:101720007B000E946E000AE010E00E944D00E9E29A
:10173000F2E0008111810F3F27E0120738F50E9487
:101740006000E9E2F2E000811181000F012F001F2B
:101750000E7000560E947B00E9E2F2E000810E94D8
:101760007B0000E00E947B0000E00E947B0000E024
:101770000E947B000FEF0E947B0001E00E947B0033
:101780000E946E000AE010E00E944D00899199913C
:1017900008959A938A9328EB14E000E20E940B01CB
:1017A0002FEC1AE000E90E940B012FEC1AE002E98D
:1017B0000E940B0100E010E00E940E02802F90E0DA
:1017C0008F3F00E09007A1F50E94600000EA0E94B0
:1017D0007B0000E00E947B0000E00E947B0000E1B3
:1017E0000E947B0000E10E947B000E946E0005E0E9
:1017F00010E00E944D000E94600000EA0E947B0001
:1018000000E10E947B0000E00E947B0000E00E945B
:101810007B0000E00E947B000FEF0E947B0001E054
:101820000E947B000E946E0005E010E00E944D00C7
:1018300000E010E00E940E0200932B0201E010E095
:101840000E940E0200932C0202E010E00E940E02A1
:1018500000932D0200912B0210912C02100F109377
:10186000D4010091D40110912D02011711F018DF5D
:101870001BC000912B0210E0E9E2F2E0008311832B
:10188000E9E2F2E00081102F00E0E9E2F2E00083FB
:10189000118300912C0210E0E9E2F2E02081318115
:1018A000200F311F20833183E9E2F2E000811181B2
:1018B000E6ECF1E000831183E6ECF1E000811181B8
:1018C0000F3F27E0120708F093C0E6ECF1E000813B
:1018D00011810E940E0210E020E030E0E8ECF1E01F
:1018E0000083118322833383E8ECF1E000811181CE
:1018F0002281322F212F102F00E0E8ECF1E000834D
:10190000118322833383E6ECF1E0008111810F5FC4
:101910001F4F0E940E0210E020E030E0E8ECF1E002
:101920004081518162817381400F511F621F731F7B
:101930004083518362837383E8ECF1E0008111817D
:101940002281322F212F102F00E0E8ECF1E00083FC
:10195000118322833383E6ECF1E0008111810E5F75
:101960001F4F0E940E0210E020E030E0E8ECF1E0B2
:101970004081518162817381400F511F621F731F2B
:101980004083518362837383E6ECF1E0008111812F
:101990000D5F1F4F0E940E0200930501E6ECF1E07F
:1019A000008111810C5F1F4F0E940E02802F90E07A
:1019B000803800E0900778F4082F02950F700093AC
:1019C000E501082F069507700093E801082F0170C4
:1019D0000093000119C00FEF0093050100E0009390
:1019E000E50100E00093E80101E0009300010CC074
:1019F0000FEF0093050100E00093E50100E0009384
:101A0000E80101E00093000120E010E000E20E9404
:101A10000B0124E811E000E20E940B0129E012E032
:101A200000E20E940B0120E513E000E20E940B019E
:101A3000D1D825E815E000E20E940B0125E91BE062
:101A400000E90E940B0120E21CE000E90E940B016A
:101A500020E01FE000E90E940B012DE111E100E907
:101A60000E940B0121E019E100E90E940B0125E928
:101A70001BE002E90E940B0120E21CE002E90E9447
:101A80000B0120E01FE002E90E940B012DE911E1AA
:101A900002E90E940B0121E019E102E90E940B0119
:101AA00028E718E000E90E940B0128E718E002E9A6
:101AB0000E940B010E9431050AE010E00E944D00D7
:101AC0000E941A050AE010E00E944D00EBD8979A98
:101AD00001E000930301009165000160009365003F
:101AE00003E00E940003C79A80E090E008C08C01E8
:101AF0000E940E02FC01EA55FE4F008301968032DF
:101B000000E09007A0F38991999108959A938A93A0
:101B10000091E501073021F00091D701002351F435
:101B20000091D701002309F467C10091D601002379
:101B300009F062C11FE100E90E94F70110E0EDEE3B
:101B4000F1E000831183EDEEF1E00081102F00E061
:101B5000EDEEF1E0008311831EE100E90E94F70140
:101B600010E0EDEEF1E020813181200F311F208364
:101B700031831FE102E90E94F70110E0EFEEF1E08E
:101B800000831183EFEEF1E00081102F00E0EFEE13
:101B9000F1E0008311831EE102E90E94F70110E0E9
:101BA000EFEEF1E020813181200F311F208331835E
:101BB000EDE1F1E000811181EDEEF1E02081318174
:101BC0000217130758F4EDEEF1E000811181EFE107
:101BD000F1E02081318102171307B0F0EDE1F1E06F
:101BE00000811181EFEEF1E02081318102171307AE
:101BF00078F4EFEEF1E000811181EFE1F1E0208176
:101C000031810217130720F405E000930401F7C0A7
:101C1000E9E1F1E000811181EDEEF1E02081318117
:101C20000217130758F4EDEEF1E000811181EBE1AA
:101C3000F1E02081318102171307B0F0E9E1F1E012
:101C400000811181EFEEF1E020813181021713074D
:101C500078F4EFEEF1E000811181EBE1F1E0208119
:101C600031810217130720F404E000930401C7C078
:101C7000E5E1F1E000811181EDEEF1E020813181BB
:101C80000217130758F4EDEEF1E000811181E7E14E
:101C9000F1E02081318102171307B0F0E5E1F1E0B6
:101CA00000811181EFEEF1E02081318102171307ED
:101CB00078F4EFEEF1E000811181E7E1F1E02081BD
:101CC00031810217130720F403E00093040197C049
:101CD000E1E1F1E000811181EDEEF1E0208131815F
:101CE0000217130758F4EDEEF1E000811181E3E1F2
:101CF000F1E02081318102171307B0F0E1E1F1E05A
:101D000000811181EFEEF1E020813181021713078C
:101D100078F4EFEEF1E000811181E3E1F1E0208160
:101D200031810217130720F402E00093040167C019
:101D3000EDE0F1E000811181EDEEF1E020813181F3
:101D40000217130758F4EDEEF1E000811181EFE086
:101D5000F1E02081318102171307B0F0EDE0F1E0EE
:101D600000811181EFEEF1E020813181021713072C
:101D700078F4EFEEF1E000811181EFE0F1E02081F5
:101D800031810217130720F401E00093040137C0EA
:101D9000E9E0F1E000811181EDEEF1E02081318197
:101DA0000217130758F4EDEEF1E000811181EBE02A
:101DB000F1E02081318102171307B0F0E9E0F1E092
:101DC00000811181EFEEF1E02081318102171307CC
:101DD00078F4EFEEF1E000811181EBE0F1E0208199
:101DE00031810217130720F400E00093040107C0BB
:101DF00006E00093040103C006E000930401009193
:101E00000401063021F401E00093DA0103C000E090
:101E10000093DA010091DA011091DB010117D9F08A
:101E20000091DA010093DB010091DB01002319F43A
:101E30009091050101C090EE80E00BC0292F182F72
:101E400000E90E940B01292F182F02E90E940B01C3
:101E50008395883098F38991999108959A938A93FC
:101E6000FA93EA933A922A921A920A927A936A938E
:101E70005A934A933A932A931A930A938FB79BB72C
:101E80000091DE01002351F00F9B04C001E000939C
:101E9000D60103C000E00093D60138DE9BBF8FBFA0
:101EA00009911991299139914991599169917991A2
:101EB0000990199029903990E991F9918991999116
:101EC00018959A938A93FA93EA933A922A921A92DD
:101ED0000A927A936A935A934A933A932A931A935B
:101EE0000A938FB79BB70091DE01002351F00E9B40
:101EF00004C001E00093D70103C000E00093D701C4
:101F000005DE9BBF8FBF09911991299139914991A4
:101F10005991699179910990199029903990E99195
:101F2000F9918991999118959A938A93FA93EA93E2
:101F30003A922A921A920A927A936A935A934A93FD
:101F40003A932A931A930A938FB79BB710E0109392
:101F5000DF0110E086991395012F000F10E085999D
:101F60001395010F000F10E084991395010F109144
:101F7000DE011123D9F1013019F40E943F0633C06C
:101F8000023019F40E94C5052EC0033019F40E94D6
:101F9000F20429C0043019F40E942C0624C0053034
:101FA00019F40E94A4051FC0063071F40091EC01E1
:101FB000002321F401E00093E90103C003E0009352
:101FC000E9010E949B060FC0073069F40091EC0103
:101FD000002321F402E00093E90103C004E0009330
:101FE000E9010E949B0601E00093DF019BBF8FBFC8
:101FF0000991199129913991499159916991799151
:102000000990199029903990E991F99189919991C4
:1020100018955A924A92BA93AA939A938A93FA93EA
:10202000EA933A922A921A920A927A936A935A936C
:102030004A933A932A931A930A934FB65BB605E0F4
:1020400002BFE2EEF1E00081039500830091DE0122
:10205000002309F4A6C00091E9010023B9F0EAEEDB
:10206000F1E000811181013727E1120730F000E033
:102070000093E90100E00093EC01EAEEF1E0008159
:1020800011810F5F1F4F008311838BC0E2E3F2E0E9
:1020900000811181083C20E0120709F045C080E072
:1020A0000DC0A82FB0E01C97FD01EE5FFD4F008131
:1020B00090E0FC01EE50FE4F00838395803188F55F
:1020C0008630A8F4A2E2B1E04091E50150E006E0DC
:1020D00010E00E94D611A00FB11F90E0A80FB91F09
:1020E0000C9190E0FC01EE50FE4F0083E6CF8C3067
:1020F000C0F6A2E5B1E04091040150E006E010E036
:102100000E94D611A00FB11F082F10E006501040FA
:10211000A00FB11F0C9190E0FC01EE50FE4F008328
:10212000CCCF0E941D0235C0E2E3F2E000811181B4
:10213000003223E0120769F50091D6010093D8011F
:102140000091D7010093D9010F9B04C001E00093D7
:10215000D60103C000E00093D6010E9B04C001E04D
:102160000093D70103C000E00093D7010091D8018C
:102170001091D601011731F40091D9011091D701C6
:10218000011709F0C3DC00E010E0E2E3F2E00083B5
:102190001183E2E3F2E0008111810F5F1F4F0083A2
:1021A00011835BBE4FBE09911991299139914991D3
:1021B0005991699179910990199029903990E991F3
:1021C000F99189919991A991B9914990599018954E
:1021D000BA93AA939A938A93FA93EA933A922A9299
:1021E0001A920A927A936A935A934A933A932A9349
:1021F0001A930A938FB79BB702EF1CEF1DBD0CBD5E
:102200000091F101002309F48FC00091F1010F3119
:1022100028F4E1EFF1E00081039500830091F101E2
:102220000A3011F4B6DA29C00091F1010E3129F516
:102230000EEC00930801209108011AE000E90E94C9
:102240000B01209108011AE002E90E940B010091A4
:1022500005010E94440502E310E00E944D00009138
:1022600005010E945B05009105010E947E0401E0CA
:102270000093DE0101E00093D5010091DE0100230F
:1022800009F452C083993AC00091DF01013051F442
:10229000ACEDB1E0ED91FC91369720F002E00093B7
:1022A000DF0120C00091DF010230E1F4ACEDB1E0CC
:1022B000ED91FC913797B0F020E086992395220F9D
:1022C00000E085990395200F220F00E08499039583
:1022D000200F223019F40E94C50504C0253011F4E6
:1022E0000E94A40500E00093A501ECEDF1E000815F
:1022F00011810F5F1F4F0083118316C000E0009310
:10230000DF0100E010E0ECEDF1E0008311830091CB
:10231000A501002349F401E00093A50100E010E0CD
:10232000E0EEF1E000831183E3EEF1E00081118142
:102330000F5F1F4F008311839BBF8FBF09911991BE
:1023400029913991499159916991799109901990FF
:1023500029903990E991F99189919991A991B9912F
:1023600018953AD9B699FECFC798FCCF03E70DBFB1
:1023700002E00EBFC4E7D4E00E94EE11002311F08A
:102380000E9400120E94B1110E9430120C9430126F
:102390000024E8E0EA9532F0001F001C0416D0F398
:1023A000041AF8CF001F402D00950895149F102D9A
:1023B000059F100D049F002D110D0895BA93AA9347
:1023C0009A938A930895BB81AA8199818881F0E0CC
:1023D0000FB6F894CE0FDF1F0FBE089501E00895E9
:1023E00020E002D0E9F708952D9301501040202FEE
:1023F000212B08953BBF27913BB7F6DFD9F708950E
:1024000006E6402E04E2502E00E0602EF201362D4A
:102410006BBE07911691F201EE5FFF4F3F4F3BBF3E
:10242000A791B691F201362DEC5FFF4F3F4F3BBFB6
:10243000479157916691242F252B262B21F0FA01E5
:10244000362FD8DF01C0CCDF07E0400E00E0501E81
:10245000601EA201662D443754426040B8F20895D0
:1024600000008895FECF8E00A601000000A60000A7
:10247000017424000101010106FF0101CECE0837DD
:1024800009A009090AD1113A127413DD13D7233FA9
:10249000241D27862780434F41583120434F415800
:1024A00032202041455331202041455332202042E3
:1024B0004E432020204F50543120204F5054322082
:1024C0002055534220202034342E31202034382E01
:1024D00030202038382E32202039362E3020313727
:1024E000362E34203139322E30202020202020205A
:1024F00046494C544552312046494C5445523220AD
:1025000046494C544552332020494E564552534576
:0A25100020204E4F524D414C300187
:00000001FF
