:1000000047C1189518950AC118951895189518950F
:10001000189518950E670000076012034BD1402F0A
:1000200000E0E7E6008301E0402780E090E017C0B1
:1000300005EF02BF01E010E0E5E600831183E7E68B
:10004000008104270083E7E6008100FDC49A00FFD9
:10005000C498E5E600811181012BD9F7019682173A
:10006000930730F3C498E2E028C1EDE620813181A6
:1000700000E0D4DFEFE62081318101E0CFDFE1E76E
:10008000208130E000E0CADF08958A93EEDF80E04F
:100090000BC0E1E7208130E001E0C0DFE1E7208133
:1000A00030E000E0BBDF83958032B0F4E0E6008111
:1000B0001181228133814FE1481BF4D0017000236C
:1000C00041F3E2E7208130E001E0A8DFE1E72081B1
:1000D00030E000E0A3DFE7CF8991089506B3E8E6BA
:1000E0000083E8E60081077000830895F7DF00E0F1
:1000F00010E020E030E0E9E60083118322833383BF
:1001000000E1E3E70083E8E60081E3E71081100FF8
:100110001083E3E70081000F000F000FE3E7008387
:10012000E3E7008110E020E030E0E9E64081518122
:1001300062817381400F511F621F731F408351837F
:1001400062837383E9E6008111812281322F212F9E
:10015000102F00E0E9E600831183228333830FEF41
:10016000E3E7108110271083E3E7008110E020E02F
:1001700030E0E9E64081518162817381400F511F77
:10018000621F731F4083518362837383E9E600819A
:10019000118122813381E0E6408151816281738146
:1001A000400F511F621F731F40835183628373830B
:1001B000E8E60081002321F0E8E60081053021F423
:1001C00002E0E4E60083089501E0E4E60083089598
:1001D000002389F408EA12E0EDE60083118304E5C8
:1001E00011E0EFE6008311830BE2E1E7008302E810
:1001F000E2E700830895013081F404E912E0EDE6BE
:10020000008311830AE411E0EFE6008311830BE21F
:10021000E1E7008308E7E2E700830895EA931A9391
:100220000A9300E010E0E5E600831183099119913B
:10023000E991189500E107BB0FE108BB02E003BF9D
:1002400005EF02BF02E009BF02E008BF00E0C0DF27
:1002500078944CDFE8E60081E4E7008304C02AE0FC
:100260003FE001E0DBDEE4E60081002381F0E4E62C
:100270000081023020F4E4E600810A95008305DF66
:100280002DDFE4E70081E8E61081011741F30895CE
:1002900004E90DBFC5E818D0002309F021D0CADF5A
:1002A00035D034C04A952AF036952795179507958D
:1002B000F9CF08959A938A930895998188810FB60A
:1002C000F894CE0F0FBE089501E0089510E01D933D
:1002D0000A95E1F7089515911D930A95E1F70895A0
:1002E00084E190E0FC010591A491FC0132962591F6
:1002F0003491122F132B19F0F901EDDF01C0E6DF65
:10030000049610E08C31910768F3089500008895F9
:09031000FECF00007AD7010100C4
:00000001FF
